:0600000000F00CEF00F01F
:10000800FACF05F0FBCF06F0E9CF07F0BBED00F023
:10001800DDEF02F0C1689484948292929296929A4B
:100028009298000E806E000E826E050EBD6E050E53
:10003800BA6EF28EF28C9D849E94A090A190210EAF
:10004800CD6E4D504C10D8A405D04F504E10D8B49A
:10005800ACEC02F04C044D10D8A4F3D7444A452A1E
:10006800290E445C000E4558D8A013D01A0E445CE3
:10007800040E4558D8B00DD048504024406E495021
:100088004120416E000E4220426E000E4320436E16
:1000980054D01B0E445C040E4558D8A04ED04B508B
:1000A8004A10D8A44AD040C013F041C014F042C04E
:1000B80015F043C016F0E80E176E030E186E000E0A
:1000C800196E000E1A6E6BEC02F013C03CF014C0EF
:1000D8003DF015C03EF016C03FF03CC056F03DC0A4
:1000E80057F0CD0E216E4C0E226E3F0E236E56C079
:1000F8001BF057C01CF0CBEC02F01BC01EF01CC05C
:100108001FF01DC020F03BEC01F01EC02DF01FC0F9
:100118002EF020C02FF0ADEC01F02DC03CF02EC029
:100128003DF02FC03EF030C03FF03CC056F03DC01F
:1001380057F0000E4B6E010E4A6E140E485C000E0E
:100148004958D8B010D01B0E445C040E4558D8A0AE
:100158000AD08088320EECEC02F080988092000E73
:100168004D6E000E4C6E9D84ACEC02F06AD7060012
:10017800EACF08F0E1CF09F0E2CF0AF0D9CF0BF0CF
:10018800DACF0CF0F3CF0DF0F4CF0EF0F6CF0FF07E
:10019800F7CF10F0F8CF11F0F5CF12F09EA44AD0A7
:1001A80052045310D8A417D0000E4D6E000E4C6E9A
:1001B800BF50026E016ABE50036E046A01500310FC
:1001C800586E02500410596E000E536E000E526E97
:1001D800040EBD6E2ED0000E536E010E526E9D940D
:1001E800A090BF50026E016ABE50036E046A0150AF
:1001F80003105A6E025004105B6E58C001F059C0CB
:1002080002F0011E021E014A022A5A5001265B50C2
:100218000222010E0124466E000E0220476E050ED2
:10022800BD6E46C048F047C049F0000E4D6E010E45
:100238004C6E9E9412C0F5FF11C0F8FF10C0F7FF76
:100248000FC0F6FF0EC0F4FF0DC0F3FF0CC0DAFFBD
:100258000BC0D9FF0AC0E2FF09C0E1FF08C0EAFFEE
:1002680007C0E9FF06C0FBFF05C0FAFF110020C068
:1002780024F0256A266A1F34243601E32580245099
:100288002A6E2A6601D00CD023C024F0256A266A7B
:100298002234243601E3258024502C6E2C6607D0A6
:1002A800000E1E6E000E1F6E000E206E51D02C50D8
:1002B8007B0F2A2620C02CF023502C1A800E2C16D7
:1002C8001F8E228EFF0E2116FF0E2216000E2316F9
:1002D800000E276E000E286E000E296E070E2B6E7C
:1002E8001EA006D02150272622502822235029223A
:1002F800D89020321F321E32D8902136223623362B
:100308002B2EEED7090E2B6E1EA006D021502726C5
:100318002250282223502922D89020321F321E3200
:10032800D8902932283227322B2EEED727C013F047
:1003380028C014F029C015F02AC016F02CC017F0F8
:1003480017EC02F013C01EF014C01FF015C020F007
:1003580012002FC031F0326A336A2E34313601E38D
:10036800328031503B6E3B6601D038D0170E316E6B
:100378002DC032F02EC033F02FC034F03128356E46
:1003880004D0D890343233323232352EFAD7325044
:10039800366E2E8EFF0E2D16FF0E2E16000E2F1601
:1003A8002D50376E2E50386E2F50396E3A6A8E0E99
:1003B8003B5E3BAE10D03B50800A316EF10E800A96
:1003C800315CD8A00BD0D8903A3239323832373233
:1003D8003B3EF9D714D0170E3B640FD0000E2D6E9C
:1003E800000E2E6E000E2F6E000E306E1BD0D890B1
:1003F8003736383639363A363B063B66F8D7365004
:10040800D8B408D03A1E391E381E376C000E382270
:1004180039223A2237C02DF038C02EF039C02FF0DB
:100428003AC030F012001650D8B405D0135014104A
:100438001510D8A40CD0000E136E000E146E000E0A
:10044800156E44D0162AD890153214321332000E85
:100458001314186E000E1414196EFE0E15141A6E6D
:10046800185019101A10D8B40CD0ECD7162A010E4F
:100478001326000E1422000E1522D89015321432BD
:100488001332000E1314186E000E1414196EFF0E9A
:1004980015141A6E185019101A10D8B406D0E6D7C9
:1004A8001606D89013361436153614AEF9D716A09A
:1004B800149ED8901632165015121750D8A4158EBF
:1004C80013C013F014C014F015C015F01200000E7C
:1004D8001B6E000E1C6E000E1D6E000E1E6E1A5056
:1004E800171018101910D8B42AD0010E1F6E06D094
:1004F800D8901736183619361A361F2A1AAEF8D772
:10050800D8901B361C361D361E361750135C1850F3
:100518001458195015581A501658D8A009D0175001
:10052800135E1850145A1950155A1A50165A1B802F
:10053800D8901A321932183217321F2EE1D71BC041
:1005480013F01CC014F01DC015F01EC016F01200E8
:100558008086000E5D6E000E5C6E050E5C5C000E03
:100568005D58D8B003D05C4A5D2AF7D78096808A58
:10057800000E5F6E000E5E6E050E5E5C000E5F582C
:10058800D8B003D05E4A5F2AF7D7809A12001BC002
:1005980013F01CC014F0156A8E0E166E000E176E3E
:1005A80017EC02F013C01BF014C01CF015C01DF0AE
:1005B800120000EE60F0220EEE6AE806FDE100EEA1
:1005C80040F0200EEE6AE806FDE100010EEF00F0B3
:1005D800136EFA0E00F0E82EFDD7132EFAD712008C
:020000040030CA
:0E000000270B191EFF0381FF0FC00FE00F40FA
:00000001FF
