:0400000080313628ED
:10000800803120007F08F500F208031D0C280D2818
:100018001C28181496019701121025001108F300E6
:10002800F4017308F0007408F100200012101C2875
:100038007208013A031D212822282B281708F101EC
:10004800F1071608F001F007F20112102B287208C8
:10005800003A003003190130F3007308F200750804
:10006800FF000900880180314E2821008E142200EB
:100078001D1125001A08F03905389A002000911042
:10008800210012148B170B17200098014B284B28BE
:1000980080313628F001F101F20120008031392841
:00000001FF
