:040000000CEF00F011
:10000800FACF02F0FBCF03F0E9CF04F09AED1BF032
:0400180051EF1DF097
:10080000002E574156000000000149C08BF0000146
:1008100048C08AF000018B518A11D8B4C1D20001BE
:1008200020EE02F000018A51D92600018B51DA2214
:10083000DF5000016E6F00016EA1B2D2000120EE08
:100840001CF000018A51D92600018B51DA22DECF3B
:100850006EF0DECF6FF0DECF70F0DECF71F03B5088
:1008600000016E5D3C5000016F593D500001705910
:100870003E5000017159D8B011D0000120EE1CF09B
:1008800000018A51D92600018B51DA22DECF3BF0DC
:10089000DECF3CF0DECF3DF0DECF3EF0000120EEBB
:1008A00018F000018A51D92600018B51DA2200018B
:1008B000DECF7EF00001DECF7FF00001DECF80F0E2
:1008C0000001DECF81F0000120EE18F000018A5116
:1008D000D92600018B51DA22DE6ADE6ADE6ADD6A21
:1008E0003E503B103C103D10D8B45AD2000120EECF
:1008F00001F000018A51D92600018B51DA22DF5024
:1009000000016E6F6EC06FF00001706B716B726BE7
:10091000090ED89000016F37703771377237E82EA3
:10092000F8D76FC082F070C083F071C084F072C0DD
:1009300085F0000181517E117F118011D8B4D1D092
:10094000FF0E00017E25106EFF0E00017F21116E4B
:10095000FF0E00018021126EFF0E00018121136E37
:1009600082C014F083C015F084C016F085C017F063
:1009700071EC1CF010C06EF011C06FF012C070F07E
:1009800013C071F0FF0E3B24106EFF0E3C20116E61
:10099000FF0E3D20126EFF0E3E20136E82C014F03B
:1009A00083C015F084C016F085C017F071EC1CF000
:1009B00010C072F011C073F012C074F013C075F063
:1009C00000016E510001725D00016F510001735909
:1009D00000017051000174590001715100017559F5
:1009E000D8A07FD0FF0E0001822500016E6FFF0EA0
:1009F0000001832100016F6FFF0E000184210001BF
:100A0000706FFF0E000185210001716F00016E1FE4
:100A10006F1F701F711FFF0E00017E250001726F96
:100A2000FF0E00017F210001736FFF0E0001802186
:100A30000001746FFF0E000181210001756F00013C
:100A40006E51000172150001766F00016F510001B7
:100A500073150001776F00017051000174150001DA
:100A6000786F00017151000175150001796F000167
:100A700020EE18F000018A51D92600018B51DA22AC
:100A800076C0DEFF77C0DEFF78C0DEFF79C0DDFF15
:100A9000D906D906000120EE18F000018A51D926A6
:100AA00000018B51DA22DE503B5EDE503C5ADE50B4
:100AB0003D5ADD503E5A000120EE24F000018A51DB
:100AC000D92600018B51DA220001DECF86F0000129
:100AD000DECF87F00001DECF88F00001DECF89F0A5
:100AE000A6D0000120EE20F000018A51D926000195
:100AF0008B51DA220001DECF86F00001DECF87F0D5
:100B00000001DECF88F00001DECF89F0000120EE89
:100B100024F000018A51D92600018B51DA2200010C
:100B200086C0DEFF000187C0DEFF000188C0DEFF57
:100B3000000189C0DEFF7BD086C02DF087C02EF07B
:100B400088C02FF089C030F0C5EC0BF02DC086F0C6
:100B50002EC087F02FC088F030C089F0020E00014F
:100B6000865D000E00018759000E00018859000EB5
:100B700000018959D8A009D1000120EE08F0000138
:100B80008A51D92600018B51DA22DECF6EF0DECFFA
:100B90006FF0DECF70F0DECF71F000016E5100011A
:100BA000865D00016F5100018759000170510001FD
:100BB00088590001715100018959D8B0E6D000016F
:100BC00020EE24F000018A51D92600018B51DA224F
:100BD000000186C0DEFF000187C0DEFF000188C083
:100BE000DEFF000189C0DEFF000120EE18F00001E9
:100BF0008A51D92600018B51DA2200018251DE266A
:100C000000018351DE2200018451DE220001855162
:100C1000DD22DD52DD52000182513B5E0001835135
:100C20003C5A000184513D5A000185513E5A3B50C7
:100C30000001825D3C50000183593D500001845900
:100C40003E5000018559D8A077D7000120EE18F05A
:100C500000018A51D92600018B51DA223B50DE2651
:100C60003C50DE223D50DE223E50DD22DD52DD5280
:100C700086C01CF087C01DF088C01EF089C01FF020
:100C8000DEEC1AF01CC07AF01DC07BF01EC07CF0B8
:100C90001FC07DF000017D517A117B117C11D8B409
:100CA00074D0000120EE03F000018A51D926000122
:100CB0008B51DA223BC06EF03CC06FF03DC070F04B
:100CC0003EC071F00A0E06D00001D8907133703327
:100CD0006F336E33E82EF8D700016E51DF6EFF0ED2
:100CE0003B1400016E6F010E3C1400016F6F000E8B
:100CF0003D140001706F000E3E140001716F000181
:100D000071516E116F117011D8B44AD0000120EEEC
:100D100003F000018A51D92600018B51DA22DF50FD
:100D200000016E6F00016E5100017A2500016F6FA6
:100D3000000E00017B210001706F000E00017C217C
:100D40000001716F000E00017D210001726F000132
:100D500020EE28F000018A51D92600018B51DA22B9
:100D60006FC0DEFF70C0DEFF71C0DEFF72C0DDFF4E
:100D7000D906D906000120EE03F000018A51D926D8
:100D800000018B51DA22DF2A0BD0000120EE02F0A5
:100D900000018A51D92600018B51DA22000EDF6E44
:100DA000120000013CC079F000013BC078F0000166
:100DB00049C08BF0000148C08AF03FC0D9FF40C055
:100DC000DAFF000EDE6E000EDD6E00018B518A111F
:100DD000D8A402D0060E79D2000120EE02F0000164
:100DE0008A51D92600018B51DA22DF5000016E6F43
:100DF00000016EB102D0050E68D2000120EE1CF099
:100E000000018A51D92600018B51DA22DECF6EF023
:100E1000DECF6FF0DECF70F0DECF71F0000120EE9C
:100E200018F000018A51D92600018B51DA22DECF59
:100E300072F0DECF73F0DECF74F0DECF75F000011C
:100E4000721F731F741F751F722B000E7323742380
:100E5000752300016E51000172250001806F0001B1
:100E60006F51000173210001816F00017051000179
:100E700074210001826F0001715100017521000190
:100E8000836F3D5000016E6F3E5000016F6F000197
:100E9000706B0001716B00016E510001805D0001FB
:100EA0006F51000181590001705100018259000108
:100EB000715100018359D8B0F6D180C03DF081C096
:100EC0003EF0F1D1000120EE18F000018A51D92640
:100ED00000018B51DA22FF0EDE1400016E6F010E4D
:100EE000DE1400016F6F000EDE140001706F000E43
:100EF000DE140001716F000171516E116F117011DC
:100F0000D8A427D1000120EE18F000018A51D9267B
:100F100000018B51DA22DECF6EF0DECF6FF0DECF34
:100F200070F0DECF71F00A0E06D00001D890713358
:100F300070336F336E33E82EF8D76EC010F06FC089
:100F400011F070C012F071C013F0000120EE01F03A
:100F500000018A51D92600018B51DA22DF500001AD
:100F6000726F00017251146E156A166A176A1EECD0
:100F70001DF010C073F011C074F012C075F013C0F2
:100F800076F000017651731174117511D8A481D0D7
:100F9000000120EE18F000018A51D92600018B5182
:100FA000DA22DECF6EF0DECF6FF0DECF70F0DECF74
:100FB00071F0000171516E116F117011D8B41CD015
:100FC000000120EE24F000018A51D92600018B5146
:100FD000DA22DECF2DF0DECF2EF0DECF2FF0DECF07
:100FE00030F0C5EC0BF02DC084F02EC085F02FC082
:100FF00086F030C087F015D0000120EE20F000010F
:101000008A51D92600018B51DA220001DECF84F00B
:101010000001DECF85F00001DECF86F00001DECFDB
:1010200087F0020E00016E6F6F6B706B716B0001C9
:101030006E510001845D00016F510001855900016E
:101040007051000186590001715100018759D8A0E3
:1010500030D1000120EE24F000018A51D926000190
:101060008B51DA22000184C0DEFF000185C0DEFF63
:10107000000186C0DEFF000187C0DEFF000120EE18
:1010800003F000018A51D92600018B51DA22000EAB
:10109000DF6E000120EE24F000018A51D926000104
:1010A0008B51DA22DECF1CF0DECF1DF0DECF1EF03A
:1010B000DECF1FF0DEEC1AF01CC07CF01DC07DF00E
:1010C0001EC07EF01FC07FF000017F517C117D119A
:1010D0007E11D8B4EED0000120EE03F000018A5159
:1010E000D92600018B51DA22DF5000016E6F00011A
:1010F0006E5100017C2500016F6F000E00017D2103
:101100000001706F000E00017E210001716F000E62
:1011100000017F210001726F000120EE28F0000124
:101120008A51D92600018B51DA226FC0DEFF70C0D0
:10113000DEFF71C0DEFF72C0DDFFD906D9060001F7
:1011400020EE03F000018A51D92600018B51DA22EA
:10115000DF2AFF0E00016E6F010E6F6F000120EE9F
:1011600018F000018A51D92600018B51DA22DECF16
:1011700070F0DDCF71F000016E51000170170001B9
:101180006F51000171170001701F711F704B712B9F
:10119000000E000170250001886F020E0001712110
:1011A0000001896F000188513D5C000189513E5862
:1011B000D8B004D03DC088F03EC089F03C503B1010
:1011C000D8B407D0000179C07BF0000178C07AF074
:1011D00006D0000E00017B6F000E00017A6F000147
:1011E0007BC01EF000017AC01DF0000120EE28F047
:1011F00000018A51D92600018B51DA22DECF1FF07F
:10120000DECF20F0DECF21F0DECF22F0000120EE95
:1012100018F000018A51D92600018B51DA22DECF65
:101220006EF0DDCF6FF0FF0E00016E15236E010E24
:1012300000016F15246E88C025F089C026F071EC7E
:101240001AF00001776F00017751D8A432D0000165
:1012500020EE18F000018A51D92600018B51DA22C4
:1012600000018851DE2600018951DE22000EDE22B7
:10127000DD22DD52DD520001885100017827000196
:10128000895100017923000188513D5E0001895197
:101290003E5A3FC0D9FF40C0DAFF00018851DE2628
:1012A00000018951DD223E503D10D8A40BD6000E1E
:1012B0000CD0000120EE02F000018A51D926000175
:1012C0008B51DA22000EDF6E010E1200000E496E05
:1012D000000E486E34503310D8B455D22AEC14F0B6
:1012E000356E35A002D0020E4FD2000E00018C6F79
:1012F000000E00018D6F000E00018E6F000E0001C8
:101300008F6F0001000E2E6E0001600E2D6E8CC0DE
:101310002FF08DC030F08EC031F08FC032F08AECEB
:1013200019F00001946F00019405D8A43BD000018E
:10133000000E1E6E0001600E1D6E8CC01FF08DC071
:1013400020F08EC021F08FC022F0010E246EBE0E60
:10135000236E000E266E100E256E71EC1AF0000939
:10136000D8B402D0030E1CD000016451D8B41AD0F6
:1013700068C08CF069C08DF06AC08EF06BC08FF0D1
:101380000001000E2E6E0001600E2D6E8CC02FF03D
:101390008DC030F08EC031F08FC032F08AEC19F081
:1013A0000001946F00019451030AD8B421D00001C8
:1013B0009451D8B402D0070EE7D10001000E1E6E82
:1013C0000001600E1D6E8CC01FF08DC020F08EC01D
:1013D00021F08FC022F0000E246E0D0E236E000E41
:1013E000266E240E256E71EC1AF00009D8B402D0D6
:1013F000010ECAD1000169C090F000016AC091F0ED
:101400000001926B0001936B0001935190119111B7
:101410009211D8A408D077C090F078C091F079C02C
:1014200092F07AC093F090C010F091C011F092C089
:1014300012F093C013F000016351146E156A166A1E
:10144000176A7CEC1DF010C090F011C091F012C032
:1014500092F013C093F00001615100018C25356EAC
:101460000001625100018D21366E000E00018E21B7
:10147000376E000E00018F21386E20EE0CF03350D5
:10148000D9263450DA2235C0DEFF36C0DEFF37C041
:10149000DEFF38C0DDFFD906D90620EE01F033505B
:1014A000D9263450DA22000160C0DFFF20EE04F0BC
:1014B0003350D9263450DA22000164C0DEFF000127
:1014C00065C0DDFF000166C084F0000167C085F0E3
:1014D0000001866B0001876B000187518411851123
:1014E0008611D8A408D073C084F074C085F075C08C
:1014F00086F076C087F020EE04F03350D9263450C1
:10150000DA22DECF35F0DDCF36F0040E376ED8901C
:1015100036323532372EFBD7000161513524386E13
:10152000000162513620396E3A6AD8B03A2A3B6AD5
:101530000001905138243C6E0001915139203D6EDC
:10154000000192513A203E6E000193513B203F6EC4
:101550003C1E3D1E3E1E3F1E3C2A000E3D223E22EA
:101560003F22000184513C24106E000185513D2032
:10157000116E000186513E20126E000187513F20FE
:10158000136E20EE01F03350D9263450DA22DF50AA
:10159000406E4050146E156A166A176A71EC1CF0A2
:1015A00010C041F011C042F012C043F013C044F02B
:1015B000020E41240001886F000E42200001896F55
:1015C000000E432000018A6F000E442000018B6F43
:1015D00020EE08F03350D9263450DA22000188C0BA
:1015E000DEFF000189C0DEFF00018AC0DEFF0001CE
:1015F0008BC0DEFF010E0001946FF70E0001885DC5
:101600000F0E00018959000E00018A59000E0001D9
:101610008B59D8A003D0020E0001946FF70E000181
:10162000885DFF0E00018959000E00018A59000EE5
:1016300000018B59D8A003D0030E0001946F33C072
:10164000D9FF34C0DAFF000194C0DFFF00019451DC
:10165000030AD8A413D020EE10F03350D92634500A
:10166000DA2200017FC0DEFF000180C0DEFF000142
:1016700081C0DEFF000182C0DEFF2ED020EE0CF024
:101680003350D9263450DA22DECF35F0DECF36F0B3
:10169000DECF37F0DECF38F0000190513524396EBF
:1016A0000001915136203A6E0001925137203B6E75
:1016B0000001935138203C6E20EE10F03350D926B3
:1016C0003450DA2239C0DEFF3AC0DEFF3BC0DEFF15
:1016D0003CC0DDFFD906D90620EE0CF03350D926E8
:1016E0003450DA22DECF35F0DECF36F0DECF37F001
:1016F000DECF38F020EE04F03350D9263450DA2211
:10170000DECF39F0DDCF3AF0040E3B6ED8903A329E
:1017100039323B2EFBD7395035243C6E3A503620B7
:101720003D6E000E37203E6E000E38203F6E0001E9
:1017300090513C24406E000191513D20416E0001CA
:1017400092513E20426E000193513F20436E20EEA5
:1017500014F03350D9263450DA2240C0DEFF41C0A5
:10176000DEFF42C0DEFF43C0DDFFD906D90620EE12
:1017700002F03350D9263450DA22000EDF6E34C026
:1017800049F033C048F0000E1200000149C06DF06E
:10179000000148C06CF0020E2D5C000E2E58000EA9
:1017A0002F58000E3058D8A0C7D1000120EE08F005
:1017B00000016C51D92600016D51DA22DECF31F0E3
:1017C000DECF32F0DECF33F0DECF34F031502D5C9F
:1017D00032502E5833502F5834503058D8A09ED104
:1017E000ABD12DC06AF02EC06BF0D89000016B31E8
:1017F000326E00016A31316E315000016A27325079
:1018000000016B23FF0E00016A150001686F010ED5
:1018100000016B150001696F090E316ED89000014F
:101820006B3300016A33312EF9D700016829D8B42F
:101830006905D8B430D00001000E1E6E0001620EA2
:101840001D6E000120EE0CF000016C51D926000144
:101850006D51DA22DECF31F0DECF32F0DECF33F061
:10186000DECF34F000016A5131241F6E00016B514C
:101870003220206E000E3320216E000E3420226EA6
:1018800068C023F069C024F0000E266E020E256E9B
:1018900071EC1AF06CD00001000E1E6E0001620E99
:1018A0001D6E000120EE0CF000016C51D9260001E4
:1018B0006D51DA22DECF31F0DECF32F0DECF33F001
:1018C000DECF34F000016A5131241F6E00016B51EC
:1018D0003220206E000E3320216E000E3420226E46
:1018E000010E246E2368000E266E010E256E71EC2B
:1018F0001AF00009D8A420D10001000E1E6E0001CC
:10190000630E1D6E000120EE0CF000016C51D92613
:1019100000016D51DA22DECF31F0DECF32F0DECFC2
:1019200033F0DECF34F000016A513124356E00010E
:101930006B513220366E000E3320376E000E34208D
:10194000386E010E35241F6E000E3620206E000EFC
:101950003720216E000E3820226E000E246E000EFD
:10196000236E000E266E010E256E71EC1AF0000932
:10197000D8A4E2D062C066F063C067F02DB00BD08F
:10198000FF0E000166150001606F0F0E0001671564
:101990000001616F11D0000166C031F0000167C025
:1019A00032F0040E336ED89032323132332EFBD700
:1019B00031C060F032C061F0000160C02DF0000164
:1019C00061C02EF04CD00001000E1E6E0001620EB0
:1019D0001D6E000120EE0CF000016C51D9260001B3
:1019E0006D51DA22DECF31F0DECF32F0DECF33F0D0
:1019F000DECF34F02DC035F02EC036F02FC037F0DA
:101A000030C038F036C035F037C036F038C037F067
:101A1000386A315035241F6E32503620206E3350D4
:101A20003720216E34503820226EFF0E2D14396E6F
:101A3000000E2E143A6ED8903934236E3A34246E48
:101A4000000E266E020E256E71EC1AF00009D8A465
:101A500073D0000162C02DF0000163C02EF02F6A28
:101A6000306A72D00001000E1E6E0001620E1D6E03
:101A7000000120EE0CF000016C51D92600016D51DF
:101A8000DA22DECF31F0DECF32F0DECF33F0DECF40
:101A900034F02DC035F02EC036F02FC037F030C0F6
:101AA00038F0080E05D0D890383237323632353219
:101AB000E82EF9D7315035241F6E32503620206E73
:101AC00033503720216E34503820226E7F0E2D1473
:101AD000396E000E2E143A6ED89039363A36D890B8
:101AE00039363A3639C023F03AC024F0000E266E5B
:101AF000040E256E71EC1AF00009D8A41DD0000167
:101B000020EE62F0FF0EDE142D6EFF0EDE142E6E40
:101B1000FF0EDE142F6E0F0EDE1415D06CC0D9FF31
:101B20006DC0DAFFDF50010AD8B45BD6030AD8B41F
:101B30004AD7010AD8B496D7010E2D6E000E2E6E2C
:101B4000000E2F6E000E306E12000001D7C08EF016
:101B50000001D6C08DF0CCEC15F00001DC6F000167
:101B6000DC67CED181EC0FF08CC0DDF08DC0DEF0F3
:101B70008EC0DFF08FC0E0F0000E0001D86F010EC4
:101B8000D96F000EDA6F000EDB6F0001D851000133
:101B9000DD5D0001D9510001DE590001DA5100017B
:101BA000DF590001DB510001E059D8A0A9D1F90E9D
:101BB00094160001E951020AEA11D8A476D0000176
:101BC000E751100AE811D8A470D00201020E3C6E51
:101BD0000201000E3B6E010E3E6E000E3D6E0001D6
:101BE000000E406E0001FB0E3F6ED1EC06F0000EC1
:101BF0000001E36F000E0001E46F000E0001E56FCD
:101C0000000E0001E66F400E0001E35D000E0001D2
:101C1000E459000E0001E559000E0001E659D8B064
:101C20003ED00001E3C0D8F00001E4C0D9F00001CB
:101C3000D890D837D9370001D890D837D937010E86
:101C40000001D827000ED9230201000E0001D8257B
:101C5000D96E0201020E0001D921DA6EDF500001B7
:101C6000DA6F0001DA510001E16F0001E26B00015F
:101C7000E1AF06D0000E0001E26F000E0001E16F3F
:101C80000001E151A7EC1DF0010E0001E327000E59
:101C90000001E4230001E5230001E623B4D700019D
:101CA000FC05FB11D8A42AD190D70001E905EA115F
:101CB000D8A472D00001E751100AE811D8A46CD062
:101CC0000201020E3C6E0201000E3B6E010E3E6EE2
:101CD000000E3D6E0001000E406E0001FB0E3F6ED7
:101CE000D1EC06F0000E0001E36F000E0001E46F7E
:101CF000000E0001E56F000E0001E66F800E00018E
:101D0000E35D000E0001E459000E0001E559000EEC
:101D10000001E659D8B03AD00001E3C0D8F0000184
:101D2000E4C0D9F0D8900001D837D937010E0001AE
:101D3000D827000ED9230201000E0001D825D96E44
:101D40000201020E0001D921DA6EDF500001DA6FC4
:101D50000001DA510001E16F0001E26B0001E1AF27
:101D600006D0000E0001E26F000E0001E16F0001DD
:101D7000E151A7EC1DF0010E0001E327000E000168
:101D8000E4230001E5230001E623B8D70001FC05A8
:101D9000FB11D8A4B3D094D70001E951020AEA118B
:101DA000D8A458D00001E751080AE811D8A452D0AD
:101DB0000201020E3C6E0201000E3B6E010E3E6EF1
:101DC000000E3D6E0001000E406E0001FB0E3F6EE6
:101DD000D1EC06F0000E0001E36F000E0001E46F8D
:101DE000000E0001E56F000E0001E66F800E00019D
:101DF000E35D000E0001E459000E0001E559000EFC
:101E00000001E659D8B020D0000E0001D86F020EB4
:101E1000D96FD8900001E335D96E0001E435DA6E50
:101E20000001D851D9260001D951DA22DF50A7ECA0
:101E30001DF0010E0001E327000E0001E423000164
:101E4000E5230001E623D2D70001FC05FB11D8A44D
:101E500055D0AED70001E905EA11D8A44FD0000152
:101E6000E751080AE811D8A449D00201020E3C6EDD
:101E70000201000E3B6E010E3E6E000E3D6E000133
:101E8000000E406E0001FB0E3F6ED1EC06F0000E1E
:101E90000001E36F000E0001E46F000E0001E56F2A
:101EA000000E0001E66F000E0001E35D010E00016F
:101EB000E459000E0001E559000E0001E659D8B0C2
:101EC00018D00201000E0001E325D96E0201020EB6
:101ED0000001E421DA6EDF50A7EC1DF0010E0001D5
:101EE000E327000E0001E4230001E5230001E623BF
:101EF000DAD70001FC05FB11D8B4B7D7060E94124F
:101F000012000201020E3C6E0201000E3B6E000E3A
:101F10003E6E0C0E3D6E0001000E406E0001FB0E89
:101F20003F6ED1EC06F00009D8B402D0010E15D0F6
:101F30000001FB510C0AFC11D8A4EFD002010B5197
:101F4000450A570ED8B40819410ED8B40919560ECF
:101F5000D8B40A19D8B40DD0E0D000018C6F000EAF
:101F600000018D6F000E00018E6F000E00018F6F5B
:101F700026D10201020E3C6E0201000E3B6E000EE5
:101F80003E6E080E3D6E0001000E406E0001FB0E1D
:101F90003F6ED1EC06F00001FB51080AFC11D8A4F9
:101FA000BCD000C290F001C291F002C292F003C214
:101FB00093F004C298F005C299F006C29AF007C2E5
:101FC0009BF0ADD0650E416E426A436A446A41504F
:101FD0000001985D425000019959435000019A59FF
:101FE000445000019B59D8B098D0100E416E426AFF
:101FF000436A446A41500001985D4250000199597A
:10200000435000019A59445000019B59D8A085D0F3
:102010000201020E3C6E0201000E3B6E98C03DF0C4
:1020200099C03EF00001000E406E0001FB0E3F6EB5
:10203000D1EC06F00001FB51416E0001FC51426EF3
:10204000436A446A00019B5144180BE100019A5114
:10205000431807E100019951421803E1000198512A
:102060004118D8A45AD002010005D8A456D00201C4
:10207000000102C2E9F00001EA6B0001E905EA1182
:10208000D8B406D00001E951020AEA11D8A445D01B
:10209000020100010EC2E7F00001E86B0001E75108
:1020A000080AE811D8B406D00001E751100AE81177
:1020B000D8A433D004C294F005C295F006C296F0BD
:1020C00007C297F094C01DF095C01EF096C01FF097
:1020D00097C020F0EAEC1CF04CD798C08CF099C067
:1020E0008DF09AC08EF09BC08FF069D0000198519E
:1020F000010118253B6E00019951010119213C6E27
:1021000000019A5101011A213D6E00019B5101010C
:102110001B213E6E04EC04F02CD7000E1ED70001EC
:1021200090C041F0000191C042F0000192C043F024
:10213000000193C044F04450200AD8B42CD0740A53
:10214000D8B42ED0350AD8B430D0150AD8B432D08D
:10215000E4D742506D0AD8A4E0D74150660AD8B4FB
:1021600031D7DBD74250490AD8A4D7D741504C0ABF
:102170000FD04250610AD8A4D0D74150640AD8B4D5
:10218000ACD7CBD74250610AD8A4C7D74150660A12
:10219000D8B4ACD7C2D74350740AD8B4DAD7BDD7B5
:1021A0004350530AD8B4DED7B8D74350740AD8B4D2
:1021B000E0D7B3D74350630AD8B4E4D7AED7120000
:1021C00003D000017C4B7D2B00017CC0F6FF000199
:1021D0007DC0F7FFF86A070EF76403D00800F550DA
:1021E00005D0F6CFE1FFF7CFE2FFE750200AD8B4E1
:1021F000E8D700017CC0F6FF00017DC0F7FFF86A58
:10220000070EF76403D00800F55005D0F6CFE1FFC4
:10221000F7CFE2FFE7502F0AD8A403D000017C4B90
:102220007D2B000120EE04F000017A51D926000137
:102230007B51DA22DE6ADE6ADE6ADD6A00017CC07A
:10224000F6FF00017DC0F7FFF86A070EF76403D0C0
:102250000800F55005D0F6CFE1FFF7CFE2FFE750D9
:1022600000017E6F210E00017E5DD8B01BD0000101
:102270007BC02CF000017AC02BF0CDEC17F00001F0
:102280008C6F20EE06F04850D9264950DA22DECF76
:102290007EF0DDCF7FF07EC0D9FF7FC0DAFF000E79
:1022A000DF6EC2D000017BC019F000017AC018F0C7
:1022B0000001000E1B6E00017C0E1A6E3EEC13F046
:1022C00000018C6F00018C51D8A4AED000017BC0FE
:1022D00045F000017AC044F067EC18F000018C6F03
:1022E00000018C51D8B418D000018C51030AD8A435
:1022F0009BD0000120EE02F000017A51D9260001A6
:102300007B51DA2210EE0BF0DE50E126DD50E222A6
:10231000E750D8A489D02DD0000120EE02F00001B2
:102320007A51D92600017B51DA2210EE0BF0DE50F3
:10233000E126DD50E222E750D8A476D020EE06F068
:102340004850D9264950DA220001DECF8AF0000138
:10235000DDCF8BF0000120EE0BF000018A51D92671
:1023600000018B51DA22DF5000017E6F00017EB93F
:1023700004D0040E00018C6F57D0000120EE1AF03B
:1023800000018A51D92600018B51DA22DECF7EF07E
:10239000DDCF7FF0000120EE14F000018A51D92634
:1023A00000018B51DA22DECF80F0DDCF81F0000119
:1023B00080510001826F000181510001836F000193
:1023C000846B0001856B83C085F082C084F00001BE
:1023D000836B826B00017E51000182110001866FC8
:1023E00000017F51000183110001876F000E000181
:1023F00084110001886F000E000185110001896FB2
:10240000000120EE04F000017A51D92600017B5131
:10241000DA2286C0DEFF87C0DEFF88C0DEFF89C00B
:10242000DDFFD906D9063ED700018C51120000010C
:1024300049C06FF0000148C06EF03BC0D9FF3CC0FE
:10244000DAFFDECF3DF0DDCF3EF0010E3D2400018E
:10245000746F000E3E200001756F000175517411FC
:10246000D8B4CAD020EE0CF03B50D9263C50DA222A
:10247000DECF3DF0DECF3EF0DECF3FF0DECF40F0EE
:1024800040503D103E103F10D8B4B6D00F0E0001A2
:1024900074153D6E000E000175153E6E3E503D10E8
:1024A000D8A4E0D020EE0CF03B50D9263C50DA22E4
:1024B000DE2A000EDE22DE22DD2220EE08F03B5076
:1024C000D9263C50DA22DECF3DF0DECF3EF0DECF23
:1024D0003FF0DECF40F040503D103E103F10D8A4FA
:1024E00016D0000120EE04F000016E51D926000143
:1024F0006F51DA22DECF3DF0DDCF3EF03D500001DE
:10250000745D3E5000017559D8A0ACD075D0000163
:1025100074C03DF0000175C03EF0040E3F6ED890CF
:102520003E323D323F2EFBD7FF0E406EFF0E416E16
:10253000000120EE01F000016E51D92600016F511B
:10254000DA22DF50426E436A405042264150432215
:102550003D5042163E50431643504210D8A482D0FC
:1025600020EE08F03B50D9263C50DA22DECF2DF089
:10257000DECF2EF0DECF2FF0DECF30F0C5EC0BF04B
:102580002DC070F02EC071F02FC072F030C073F00B
:10259000020E3D6E3E6A3F6A406A3D500001705D2A
:1025A0003E50000171593F500001725940500001E6
:1025B0007359D8B002D0010E60D0000120EE08F0AF
:1025C00000016E51D92600016F51DA22DECF3DF0B5
:1025D000DECF3EF0DECF3FF0DECF40F03D500001D9
:1025E000705D3E50000171593F50000172594050DA
:1025F00000017359D8A002D0030E3FD020EE08F09E
:102600003B50D9263C50DA22000170C0DEFF0001A9
:1026100071C0DEFF000172C0DEFF000173C0DEFF8B
:1026200070C01CF071C01DF072C01EF073C01FF0AE
:10263000DEEC1AF01CC03DF01DC03EF01EC03FF0A5
:102640001FC040F020EE0CF03B50D9263C50DA225F
:102650003DC0DEFF3EC0DEFF3FC0DEFF40C0DDFF0D
:10266000D906D9063BC0D9FF3CC0DAFF000174C0CF
:10267000DEFF000175C0DDFF000E120020EE02F04B
:102680001850D9261950DA22DECF28F0DDCF29F0F4
:1026900029C011F028C010F0000E136E200E126E2B
:1026A000000E156E0B0E146E22EC1EF0000E2A6E3C
:1026B0002AC027F0080E266E1AC0D9FF1BC0DAFF09
:1026C000DECF24F0DDCF25F02750010D24C01CF013
:1026D00025C01DF0F3501C26F4501D221CC0F6FF2F
:1026E0001DC0F7FFF86A070EF76403D00800F55025
:1026F00005D0F6CFE1FFF7CFE2FFE7502B6E272A98
:10270000200E2B6485D02B502F0AD8B481D02B50AB
:102710002E0AD8B404D026502A5CD8A00DD026505A
:10272000080AD8A475D02B502E0AD8A471D0080E50
:102730002A6E0B0E266EC8D7800E2B6403D09F0E18
:102740002B6407D0DF0E2B644ED0FD0E2B5CD8B06F
:102750004AD0FF0E1C6EFF0E1D6E26501E6E1F6AA5
:102760001C501E261D501F222A50206E216A215007
:10277000800A226E1E50205C1F50800A2258D8A06A
:1027800032D02750010D24C01CF025C01DF0F3509D
:102790001C26F4501D221CC0F6FF1DC0F7FFF86A6E
:1027A000070EF76403D00800F55005D0F6CFE1FF1F
:1027B000F7CFE2FFE750236E272A2A50010DF3508E
:1027C0002824D96EF4502920DA6E2BC0DFFF2A2A84
:1027D0002A50010DF3502824D96EF4502920DA6EC6
:1027E00023C0DFFF13D0600E2B6406D07B0E2B5C62
:1027F000D8B002D0200E2B5E2A50010DF3502824B1
:10280000D96EF4502920DA6E2BC0DFFF2A2A5CD75C
:102810002750010D24C01CF025C01DF0F3501C26CC
:10282000F4501D221AC0D9FF1BC0DAFF1CC0DEFF06
:102830001DC0DDFF20EE0BF02850D9262950DA22EA
:10284000200EF36A2B64F32AF3CF1CF01C50DF6ECA
:10285000000E120038EC1EF0640E286E03D081ECDE
:102860001EF028062866FBD7000E256E000E156E9A
:10287000000E166E000E176E000E186E400E01EC64
:102880001AF01D6E1D04D8A4B8D0AA0E156E010E44
:10289000166E000E176E000E186E480E01EC1AF040
:1028A0000009D8A464D0000E286E0CD02850010D69
:1028B0001E0EF324D96E000EF420DA6E81EC1EF0A9
:1028C000DF6E282A030E2864F1D72004D8A495D0FF
:1028D0002150AA0AD8A491D02E0E276EE00E266EA3
:1028E00003D02606D8A0270627502610D8B40ED02D
:1028F000000E156E000E166E000E176E400E186E4E
:10290000E90E01EC1AF00009D8A4EBD727502610E5
:10291000D8B473D0000E156E000E166E000E176E32
:10292000000E186E7A0E01EC1AF00009D8A465D0DA
:10293000000E286E0CD02850010D1E0EF324D96E07
:10294000000EF420DA6E81EC1EF0DF6E282A030EF2
:102950002864F1D71EBC04D0000E236E040E03D0F1
:10296000000E236E0C0E226E22C025F046D0000E03
:10297000156E000E166E000E176E000E186EE90E24
:1029800001EC1AF01D6E020E1D5CD8B004D0020ED0
:10299000256EE90E03D0010E256E410E246E610EE8
:1029A000276EA80E266E03D02606D8A0270627502D
:1029B0002610D8B40ED0000E156E000E166E000E46
:1029C000176E000E186E245001EC1AF00009D8A4FE
:1029D000EBD727502610D8B40ED0000E156E020E7D
:1029E000166E000E176E000E186E500E01EC1AF0E7
:1029F0000009D8B402D0000E256E25C04EF086EC3A
:102A00001EF02550D8B402D0F00EC6162550D8A41A
:102A100002D0010E01D0000E1200090E1224186E11
:102A2000000E1320196E20EE0CF01050D926115014
:102A3000DA22DECF14F0DECF15F0DECF16F0DECFD7
:102A400017F01750141015101610D8B49ED020EEA1
:102A500006F04850D9264950DA22DECF1BF0DDCFF0
:102A60001CF0000E1D6E1DD01D50010DF3501B24D7
:102A7000D96EF4501C20DA6EDF501A6E1A50200AFC
:102A8000D8B412D01A50050AD8A402D0E50E1A6E96
:102A900018C0D9FF19C0DAFF1AC0DFFF184A192A77
:102AA0001D2A070E1D64E0D720EE08F01B50D92622
:102AB0001C50DA22DF50200AD8B425D018C0D9FF24
:102AC00019C0DAFF2E0EDF6E184A192A080E1D6E85
:102AD00017D01D50010DF3501B24D96EF4501C204B
:102AE000DA6EDF501A6E1A50200AD8B40CD018C013
:102AF000D9FF19C0DAFF1AC0DFFF184A192A1D2AA8
:102B00000A0E1D64E6D720EE0BF01B50D9261C5090
:102B1000DA2210EE08F01250E1261350E222DFCF45
:102B2000E7FF20EE1CF01B50D9261C50DA2212C001
:102B3000E1FF13C0E2FFDECFE6FFDECFE6FFDECF30
:102B4000E6FFDDCFE5FFE552E55220EE18F01B5021
:102B5000D9261C50DA2210EE04F01250E126135050
:102B6000E222DECFE6FFDDCFE5FF20EE16F01B50C0
:102B7000D9261C50DA2210EE06F01250E12613502E
:102B8000E222DECFE6FFDDCFE5FF18C0D9FF19C096
:102B9000DAFF000EDF6E1200000149C0C5F000012F
:102BA00048C0C4F00001C551C411D8A402D0060E1B
:102BB000AED0000120EE02F00001C451D926000180
:102BC000C551DA22000EDF6E000120EE06F0000192
:102BD000C451D9260001C551DA220001A30EDE6ED0
:102BE0000001000EDD6E0001000E0001C96F000142
:102BF000970E0001C86F0001000E00017B6F0001FD
:102C0000C60E00017A6F00018EC07DF000018DC0FC
:102C10007CF0E0EC10F00001C36F0001C351D8B4A8
:102C200003D00001C35173D00001A351D8B403D025
:102C30000001AEA902D0030E6AD00001B751000115
:102C40008F6F0001B8510001906F0001916B00017E
:102C5000926B90C092F08FC091F00001906B8F6BDF
:102C60000001BD5100018F110001936F0001BE51A1
:102C7000000190110001946F000E000191110001FC
:102C8000956F000E000192110001966F000120EE79
:102C900020F00001C451D9260001C551DA2293C0A9
:102CA000DEFF94C0DEFF95C0DEFF96C0DDFFD906D3
:102CB000D906000120EE1CF00001C451D926000104
:102CC000C551DA220001BFC0DEFF0001C0C0DEFF37
:102CD0000001C1C0DEFF0001C2C0DEFF000120EE26
:102CE00018F00001C451D9260001C551DA22DE6A6C
:102CF000DE6ADE6ADD6A000120EE02F00001C451E6
:102D0000D9260001C551DA22010EDF6E000E120035
:102D1000030E00017E6F20EE06F04850D926495080
:102D2000DA220001DECF7BF00001DDCF7CF072D033
:102D300000017CC01EF000017BC01DF020EE0CF0F5
:102D40004450D9264550DA22DECF1FF0DECF20F0E6
:102D5000DECF21F0DECF22F044C0D9FF45C0DAFF3C
:102D6000DECF76F0DDCF77F00F0E00017617000E84
:102D70007717050ED890000176377737E82EFAD707
:102D800076C023F077C024F0000E266E200E256E4C
:102D900071EC1AF00009D8B402D0010E01D0000E77
:102DA00000017E6F00017E51D8A449D07BC0D9FFBD
:102DB0007CC0DAFFDF5000017D6F00017D6704D029
:102DC000030E00017E6F3BD0000120EE0BF00001EE
:102DD0007B51D92600017C51DA22DF503F0B0001E4
:102DE0007A6F00017D51E50AD8B408D000017D5109
:102DF0002E0AD8B403D000017AA721D045C03CF0F8
:102E000044C03BF017EC12F000017E6F00017E51D0
:102E1000D8A415D020EE0CF04450D9264550DA2223
:102E2000DECF76F0DECF77F0DECF78F0DECF79F050
:102E300000017951761177117811D8A479D7000162
:102E40007E51D8B40AD020EE0CF04450D92645501B
:102E5000DA22DE6ADE6ADE6ADD6A00017E51120075
:102E6000000149C0C6F0000148C0C5F00001C651CC
:102E7000C511D8A402D0060E8BD0000120EE06F0BA
:102E80000001C551D9260001C651DA220001990E70
:102E9000DE6E0001000EDD6E000120EE02F000018A
:102EA0008D51D92600018E51DA220001B90EDE6E55
:102EB0000001000EDD6E00018EC07BF000018DC0B0
:102EC0007AF0000190C07DF000018FC07CF0E0EC52
:102ED00010F00001C76F0001C76754D0000199517D
:102EE000D8B443D00001A4A93DD00001AD510001E8
:102EF000916F0001AE510001926F0001936B0001D0
:102F0000946B92C094F091C093F00001926B916B1E
:102F10000001B351000191110001956F0001B451FE
:102F2000000192110001966F000E00019311000143
:102F3000976F000E000194110001986F000120EEC0
:102F400004F000018D51D92600018E51DA2295C07E
:102F5000DEFF96C0DEFF97C0DEFF98C0DDFFD9061A
:102F6000D90603D0040E0001C76F0001C7670AD05D
:102F700000018EC02CF000018DC02BF0CDEC17F0BD
:102F80000001C76F0001C751030AD8A403D0040E83
:102F90000001C76F0001C751120049C036F048C098
:102FA00035F02BC0D9FF2CC0DAFF000EDE6E000E0C
:102FB000DD6E20EE04F02B50D9262C50DA22DECF25
:102FC00037F0DECF38F0DECF39F0DECF3AF037041D
:102FD000381039103A10D8B418D020EE08F0355017
:102FE000D9263650DA22DECF2DF0DECF2EF0DECF1E
:102FF0002FF0DECF30F02D50375C2E5038582F5048
:10300000395830503A58D8A002D0010E5FD03A500B
:10301000371038103910D8A415D0030E35C0D9FF99
:1030200036C0DAFFDF620ED020EE10F03550D92620
:103030003650DA22DECF37F0DECF38F0DECF39F08F
:10304000DECF3AF020EE08F02B50D9262C50DA22B1
:1030500037C0DEFF38C0DEFF39C0DEFF3AC0DEFF1A
:103060003A50371038103910D8A40FD020EE10F095
:103070003550D9263650DA22DECF31F0DECF32F0AD
:10308000DECF33F0DECF34F012D037C01CF038C0C2
:103090001DF039C01EF03AC01FF0DEEC1AF01CC063
:1030A00031F01DC032F01EC033F01FC034F020EEEE
:1030B0000CF02B50D9262C50DA2231C0DEFF32C062
:1030C000DEFF33C0DEFF34C0DEFF000E120045C05D
:1030D0002CF044C02BF0CDEC17F00001796F00010B
:1030E0007951D8A489D020EE06F04850D92649500D
:1030F000DA220001DECF77F00001DDCF78F00001A9
:1031000078C01EF0000177C01DF020EE0CF0445096
:10311000D9264550DA22DECF1FF0DECF20F0DECFF9
:1031200021F0DECF22F044C0D9FF45C0DAFFDECF68
:1031300046F0DDCF47F00F0E4616000E4716050E7F
:10314000D89046364736E82EFBD746C023F047C016
:1031500024F0000E266E200E256E71EC1AF0000988
:10316000D8B402D0010E01D0000E0001796F000129
:103170007951D8A441D077C0D9FF78C0DAFFDF50A9
:103180000001766F0001766704D0030E0001796FAD
:1031900033D0000120EE0BF000017751D926000159
:1031A0007851DA22DF50466E46B61AD0000178C058
:1031B00011F0000177C010F020EE02F04450D92643
:1031C0004550DA22DECF12F0DDCF13F0000E156E7F
:1031D0000B0E146EB2EC1CF011501010D8B40CD0C1
:1031E00045C03CF044C03BF017EC12F00001796F91
:1031F00000017951D8B483D7000179511200000140
:1032000049C0B0F0000148C0AFF00001B051AF11AB
:10321000D8A402D0060E79D0000120EE06F00001FD
:10322000AF51D9260001B051DA220001830EDE6EC3
:103230000001000EDD6E000120EE02F000017F5162
:10324000D92600018051DA220001A30EDE6E0001B2
:10325000000EDD6E000182518111D8A409D0000159
:1032600080C02CF000017FC02BF0CDEC17F04DD0CA
:10327000000180C045F000017FC044F088EC16F0EA
:103280000001B16F0001B151030AD8A410D00001B0
:1032900020EE0CF000017F51D92600018051DA2286
:1032A000DE6ADE6ADE6ADD6A000E0001B16F0001CF
:1032B000B1672DD0000180C011F000017FC010F077
:1032C000000182C013F0000181C012F00DEC15F076
:1032D000000180C03CF000017FC03BF017EC12F011
:1032E0000001B16F0001B151030AD8A410D0000150
:1032F00020EE0CF000017F51D92600018051DA2226
:10330000DE6ADE6ADE6ADD6A000E0001B16F00016E
:10331000B15112002EC01EF02DC01DF02FC01FF0A5
:1033200030C020F031C021F032C022F0010E246EF6
:10333000FE0E236E000E266E020E256E71EC1AF044
:103340000009D8B402D0030E5BD02DC0D9FF2EC027
:10335000DAFFD92ADD50AA0A550ED8B4DF18D8B43E
:1033600002D0020E4DD02EC01EF02DC01DF02FC079
:103370001FF030C020F031C021F032C022F0000E2A
:10338000246E360E236E000E266E020E256E71EC34
:103390001AF00009D8A40CD02DC0D9FF2EC0DAFF36
:1033A000D92ADD50410A460ED8B4DF18D8B425D04A
:1033B0002EC01EF02DC01DF02FC01FF030C020F019
:1033C00031C021F032C022F0000E246E520E236E66
:1033D000000E266E020E256E71EC1AF00009D8A4BC
:1033E0000ED02DC0D9FF2EC0DAFFD92ADD50410AF8
:1033F000460ED8B4DF18D8A402D0000E01D0010EBA
:1034000012001C6E8B8C8B9CEDEC1DF0196E192834
:10341000D8B402D0FF0E64D01CAE33D01C9E1C501A
:1034200078EC1EF0185078EC1EF0175078EC1EF077
:10343000165078EC1EF0155078EC1EF0010E1B6E45
:103440001C50400AD8A402D0950E1B6E1C50480A8E
:10345000D8A402D0870E1B6E1B5078EC1EF01C50B7
:103460004C0AD8B481EC1EF00A0E1B6E81EC1EF0E3
:103470001A6E1AAE02D01B2EF9D7010E1A6401D0B3
:103480002ED01C5078EC1EF0185078EC1EF017501F
:1034900078EC1EF0165078EC1EF0155078EC1EF00B
:1034A000010E1B6E1C50400AD8A402D0950E1B6E54
:1034B0001C50480AD8A402D0870E1B6E1B5078EC13
:1034C0001EF01C504C0AD8B481EC1EF00A0E1B6E84
:1034D00081EC1EF01A6E1AAE02D01B2EF9D71A50CC
:1034E00012004EB608D0090ED8901F36203621366D
:1034F0002236E82EF9D7010E296E1FC015F020C024
:1035000016F021C017F022C018F0510E01EC1AF08D
:103510000009D8A44FD0750E2C6E300E2B6E81ECA6
:103520001EF02A6E2A28D8A407D02B06D8A02C0675
:103530002C502B10D8A4F3D72A50FE0AD8A43AD086
:1035400023C027F024C028F0255027262650282203
:10355000271E281E274A282A020E27242B6E020E19
:1035600028202C6E24502310D8B409D081EC1EF0F2
:103570002306D8A0240624502310D8A4F7D781EC22
:103580001EF01DC0D9FF1EC0DAFFDF6E1D4A1E2AC5
:103590002506D8A0260626502510D8A4F0D781EC01
:1035A0001EF02B06D8A02C062C502B10D8A4F7D731
:1035B000000E296E86EC1EF02950120049C02AF038
:1035C00048C029F0020E1C5E000E1D5A1E5A1F5ADA
:1035D00020EE08F02950D9262A50DA22FE0EDE24E9
:1035E000206EFF0EDE20216EFF0EDE20226EFF0E0B
:1035F000DE20236E20501C5C21501D5822501E5886
:1036000023501F58D8A008D0000E1C6E000E1D6E4F
:10361000000E1E6E000E38D020EE14F02950D92670
:103620002A50DA22DECF20F0DECF21F0DECF22F0EA
:10363000DECF23F020EE01F02950D9262A50DA22DD
:10364000DF50246E2450106E116A126A136A1CC077
:1036500014F01DC015F01EC016F01FC017F07CEC52
:103660001DF010C025F011C026F012C027F013C0C5
:1036700028F0205025241C6E215026201D6E22503B
:1036800027201E6E235028201F6E120047EC1EF0CC
:103690000101010E346E0101000E336E66EC09F07B
:1036A0000009D8A4F5D70001000E00018E6F0001BB
:1036B000EB0E00018D6F080E0001906F050E0001EA
:1036C0008F6F30EC17F00009D8A4E2D71AD00101AF
:1036D000010E206E0101350E1F6E080E226E010EC6
:1036E000216EEEEC1BF020501F10D8B40AD001015F
:1036F000010E0001D76F0101350E0001D66FA5EC58
:103700000DF00001000E0001806F0001EB0E0001C2
:103710007F6F0101010E0001826F01012C0E00017B
:10372000816FFFEC18F00009D8A4BDD701013567FF
:10373000CED7B9D70600EACF05F0E1CF06F0E2CF49
:1037400007F0D9CF08F0DACF09F0F3CF0AF0F4CFC1
:103750000BF0F6CF0CF0F7CF0DF0F8CF0EF0F5CF61
:103760000FF09DB09EA01DD04FC0CFFF50C0CEFF28
:103770000301000E4C24D96E0301030E4D20DA6EB6
:10378000DF5061EC1EF04C4A4D2AFF0E4C16000E25
:103790004D164B504D1802E14A504C18D8B49D803C
:1037A0009E900FC0F5FF0EC0F8FF0DC0F7FF0CC0D4
:1037B000F6FF0BC0F4FF0AC0F3FF09C0DAFF08C030
:1037C000D9FF07C0E2FF06C0E1FF05C0EAFF04C061
:1037D000E9FF03C0FBFF02C0FAFF110031D020C097
:1037E00017F01FC016F022C019F021C018F022C037
:1037F00011F021C010F0CEEC1DF010C01AF011C075
:103800001BF030EC1CF017501610D8A405D020C0C7
:1038100020F01FC01FF023D0010E1F24106E000ED9
:103820002020116E21C0F6FF22C0F7FF0800F550DE
:10383000126E136A08EC1EF010C01FF011C020F0C9
:1038400020501F10D8B407D01FC0D9FF20C0DAFF06
:10385000DF50D8A4C4D7000E206E000E1F6E1200D9
:1038600033D016C0D9FF17C0DAFFDF50D8B40FD05D
:1038700018C0F6FF19C0F7FF0800F5CF1CF016C0FE
:10388000D9FF17C0DAFFDF501C18D8B419D018C000
:10389000F6FF19C0F7FF0800F5501C6E1D6A1C1ECC
:1038A0001D1E1C4A1D2A16C0D9FF17C0DAFFDF50A3
:1038B0001E6E1E501C24166E000E1D20176E10D09A
:1038C000164A172A184A192A1A06D8A01B061A28B7
:1038D000D8B41B28D8A4C5D7000E176E000E166EDC
:1038E0001200000E186E000E196E000E1A6E000EF9
:1038F0001B6E1750141015101610D8B42AD0010ED4
:103900001C6E06D0D89014361536163617361C2A7B
:1039100017AEF8D7D890183619361A361B36145009
:10392000105C155011581650125817501358D8A043
:1039300009D01450105E1550115A1650125A1750D3
:10394000135A1880D89017321632153214321C2EA2
:10395000E1D718C010F019C011F01AC012F01BC046
:1039600013F0120011C01AF010C019F013C01CF0AF
:1039700012C01BF0000E1E6E000E1D6E1406D8A0A5
:1039800015061428D8B41528D8B41FD01BC0D9FFE9
:103990001CC0DAFF1B4A1C2ADF50166E176A161E5F
:1039A000171E164A172A19C0D9FF1AC0DAFF194A7A
:1039B0001A2ADF50186E185016241D6E000E17209C
:1039C0001E6E1E501D10D8B4D9D71DC010F01EC0D9
:1039D00011F01200000E106E1B0E116EB70E126E5B
:1039E000000E136E1DC014F01EC015F01FC016F09F
:1039F00020C017F071EC1CF010C021F011C022F0B3
:103A000012C023F013C024F0211E221E231E241EE8
:103A1000212A000E222223222422000E2124256E98
:103A2000000E2220266E010E2320276E000E242079
:103A3000286E26C04FF025C050F012001750141009
:103A400015101610D8B424D0010E186E06D0D890D8
:103A50001436153616361736182A17AEF8D71450FE
:103A6000105C155011581650125817501358D8A002
:103A700008D01450105E1550115A1650125A175093
:103A8000135AD8901732163215321432182EE7D73F
:103A900010C010F011C011F012C012F013C013F0DA
:103AA000120003EE00F011EE00F0EE6AE550E15076
:103AB000FCE1E250FAE102EE00F011EE00F0EE6AF5
:103AC000E550E150FCE1E250FAE101EE00F0420E77
:103AD000EE6AE806FDE100EEE7F0160EEE6AE80693
:103AE000FDE100EE48F0090EEE6AE806FDE1000E89
:103AF000F86E000146EF1BF0000E186E000E196EF6
:103B0000000E1A6E000E1B6E10A008D0145018265E
:103B10001550192216501A2217501B22D89014360D
:103B2000153616361736D89013321232113210323B
:103B30001350101011101210D8A4E6D718C010F0AE
:103B400019C011F01AC012F01BC013F01200126E4F
:103B5000010E4A24106E000E4B20116EFF0E10163F
:103B6000000E11164D50111802E14C501018D8B427
:103B7000EFD70301000E4A24D96E0301030E4B2038
:103B8000DA6E12C0DFFF010E4A24106E000E4B20C9
:103B9000116E10504A6E4B6A9D80120011C015F0D4
:103BA00010C014F002D0144A152A14C0F6FF15C034
:103BB000F7FF0800F5500009D8A4F5D710C012F09F
:103BC00011C013F0121E131E124A132A145012248D
:103BD000106E15501320116E1200FF0E106E7F0E26
:103BE000116E000E126E000E136E81EC1EF0146E3C
:103BF0001428D8B40BD01006000E115A125A135ABA
:103C00001350101011101210D8A4EFD71450120036
:103C1000125010C0D9FF11C0DAFFDF6205D011C009
:103C200011F010C010F00DD010C0D9FF11C0DAFF94
:103C3000104A112ADF50D8A4EBD7000E116E000EE7
:103C4000106E120011C017F010C016F008D016C088
:103C5000D9FF17C0DAFF12C0DFFF164A172A140671
:103C6000D8A015061428D8B41528D8B41200EFD758
:103C7000949C949E93809392C1683F0EC716000E49
:103C8000C66EC78CC79EC682C68AC69E120054ECFA
:103C90001EF06DEC1EF0000E4D6E000E4C6E4CC012
:103CA0004AF04DC04BF012003F0ECB6E040ECA6EB0
:103CB0001F0EBE6E3C0EBD6E1F0EBB6E3C0EBA6E6E
:103CC0001200016E0140E8423F0BBE6ECF0EBD16E2
:103CD0000138F00B300BBD121200CD8ECD92000ECC
:103CE000CF6E000ECE6EF28EF28C9E90CD801200C2
:103CF000116EC9CF10F09E9611C0C9FF9EB612007A
:103D0000FDD7C968C7A0FED7C95012008B8C81ECC3
:043D10001EF012008F
:020000040020DA
:08000000FFFFFFFFFFFFFFFF00
:020000040030CA
:0E000000270B1F1EFF0381FF0FC00FE00F40F4
:00000001FF
