:020000040000fa
:080000000002040000000000f2
:020000040000fa
:100400004f81200000ff2000000188000000000054
:100410000c000700002f2000010020001100070041
:10042000000020000000e000020032000000020096
:100430000000000090020200000000000040da000e
:100440000000fe004440a900000020000000e00081
:100450000300320000002000a00188004440a800f2
:100460000000060091018800800078000000eb0089
:1004700015003700e280400032a0b4009101ba00bc
:10048000e280400032a0b4009102ba00e280400055
:1004900032a0b4000002eb00472bde00f507b200eb
:1004a000602ce10004003a000059eb008301e900f0
:1004b000fdff3e00040037006128e100010032002a
:1004c0000082eb00040007001101ba000200e00006
:1004d000e8ff3a00000006003159ba008301e90044
:1004e0000c0032002159ba008301e90008003200f3
:1004f0000400e00003003a00e280400032a0b400b3
:10050000f5ff370011d9ba008301e900faff3a007c
:100510008100e800e180400032a0b4000000060045
:020000040000fa
:10000800f8020000f8020000f8020000f802000000
:10001800f8020000f8020000f8020000f8020000f0
:10002800f8020000f8020000f8020000f8020000e0
:10003800f8020000f8020000f8020000f8020000d0
:020000040000fa
:020000040000fa
:100520000000fa001c00070003000700c9a2a90090
:10053000cba2a900feff37000000fa000080eb000c
:1005400060198800d0a2a900c8a2a900c8e2a8002a
:10055000c902a900d042a900c882a800d082a80080
:10056000d062a900d0c2a800d0e2a800c842a90069
:10057000c862a900d002a900d022a900c922a900fe
:10058000c942a900d022a900d102a900d122a90004
:100590000080fa00000006000000fa00900220002f
:1005a000303a880044c7bf00f043b20044e7b700c8
:1005b000417420009140780000ceb30000c060007c
:1005c00044e7b70040a7a90042c7bf000042b200fd
:1005d0000004e000fcff32000080fa00000006008a
:020000040000fa
:1005e00000080000140000000000000000000000ef
:020000040000fa
:0405f0000000fe0009
:00000001FF
