:020000040000fa
:080000000002040000000000f2
:020000040000fa
:100400004f8020000e7f24000e01880000000000b5
:100410000c000700e0582000010020001100070038
:10042000000020000000e000020032000000020096
:100430000000000080050200000000000040da001b
:100440000000fe004440a900000020000000e00081
:100450000300320000002000a00188004440a800f2
:100460000000060091018800800078000000eb0089
:1004700015003700e280400032a0b4009101ba00bc
:10048000e280400032a0b4009102ba00e280400055
:1004900032a0b4000002eb00472bde00f507b200eb
:1004a000602ce10004003a000059eb008301e900f0
:1004b000fdff3e00040037006128e100010032002a
:1004c0000082eb00040007001101ba000200e00006
:1004d000e8ff3a00000006003159ba008301e90044
:1004e0000c0032002159ba008301e90008003200f3
:1004f0000400e00003003a00e280400032a0b400b3
:10050000f5ff370011d9ba008301e900faff3a007c
:100510008100e800e180400032a0b4000000060045
:100520000040da000000fe00889fbe008a9fbe00e7
:10053000010578000100e0000400350008003c00df
:100540000000e000200032000500370060001000cd
:10055000e080180002003b0001f02c001a00370078
:100560000004be006011b8006b0920000982cf00b2
:10057000020039000882cf000441b00069425200f5
:100580000e00320008003b008281710061016400ae
:100590008904d1000884d3008b05e8000442e800f8
:1005a000f9ff3a00050037000804440089844c0034
:1005b0008b05e9000442e900fbff3a00b2000700a6
:1005c0000af0a70001f0a0004f05be004f04be00d6
:1005d0000000060003f0a200889fbe008a9fbe00b4
:1005e0008c1f7800ce000700d50033006450e10076
:1005f0004f0032006420e1005200320003826c00a0
:1006000007003b000905d0000306d000820f54000c
:100610000c065d00020039000200320089017800fa
:10062000030678008582550004003d000003fd00ac
:100630008103fd008502ea008b854200840f720071
:1006400002003b0060001000e08018006011b8005c
:100650000005eb007a28e1000a0039000600780066
:10066000c75ddd00f707b200878075002d003700f9
:10067000828171000a017800610560008180d100eb
:100680000080d3008502e900f9ff3b00060440002a
:100690008784480002003b0060041400e0841c00d2
:1006a0000988a300070032008a81710082817100ed
:1006b000610164008904d1000884d3008b05e8003f
:1006c000170037000978a30013003a000b00e00080
:1006d000130034008b05e9000804440089844c00b1
:1006e0000a4474000978a3000d003a000b00e000f2
:1006f000070034008b05e9000804440089844c009d
:1007000001003a000b0020000978a300f7ff320037
:100710000001eb0002003700828171000a017800bd
:10072000590007000cf0a70001f0a0008d00370071
:100730006420e10002003a00838f6c008d003300da
:100740000801be000200be0086003700889fbe0080
:100750008a9fbe008c1f780071000700780033006c
:1007600003866c006450e100240032006420e10044
:10077000270032006150e100220032006120e100d8
:10078000210032008b854200eb07b1000134b80034
:10079000003ab8000804420089844a00013ab800cf
:1007a0000030b8008880400009014a00040033008e
:1007b0000000400081804800020149008b05e900eb
:1007c000c909dd0083017000010032001300200020
:1007d000c814de004814dd004709de001200b20034
:1007e000c808de00088470002700070001f0a1009f
:1007f0000cf0a70001f0a0005a0037006120e100d2
:100800005c0032000801be000200be00f7ff3700a6
:100810006150e100fcff3a00560037000001be00c5
:10082000570007000470a70003f0a10003f8a3001d
:1008300013003a006509b1001000320009003500cc
:100840006928e100020035000100280000000500d1
:1008500000004000818048008502e900fcff3a006a
:1008600000000600f88f4200050035008100d1002d
:100870000080d3008502e800fcff3a00000006007b
:100880008000eb0000000500810020006180550021
:100890000b003d000b00200061fe2f000100e10075
:1008a0001d00340082817100610164008904d1005f
:1008b0000884d3000000e800faff3a00710020002d
:1008c0006100640003007000020060000900320053
:1008d00061044400e0844c000988a5000500320052
:1008e0008b05e8006808e10002003a008904d100a5
:1008f0000884d300f20f20000258e10005003d00fb
:10090000c75ddd00f907b200898075000800780036
:10091000000006000bf827008b007800000005009f
:100920000004be00160007000003be000405be0060
:100930000200be0012000700844f75000000060090
:100940000200be006450e100050036006420e100b2
:10095000020036000968a30001003a000800be004a
:100960000160a0004f0678004f05be004f04be0096
:1009700000000600f0ff2f00f1ff2700f9ff37000d
:10098000c70ade00f107b200f50fb200080032001e
:10099000e1cf4200020032000170a00024000500f7
:1009a000810f7000010032000408050044000500ba
:1009b000810f700002003a00140005008502e90072
:1009c0000000400081c04800fcff3b000170a00017
:0409d00024000500fa
:020000040000fa
:1000080090020000900200009002000090020000a0
:100018009002000090020000900200009002000090
:100028009002000090020000900200009002000080
:100038009002000090020000900200009002000070
:020000040000fa
:020000040000fa
:1009d4000000fa00417420009140780000ceb3007a
:1009e40000c0600044e7b70044c7bf00f043b20052
:1009f40044e7b70090022000303a880042c7bf00a5
:100a04000042b2000004e000fcff32000080fa0063
:100a1400000006000000fa000080eb006019880066
:100a240000eb2f00600888000000eb00300888000d
:100a340060002000200c8800c9c2a900c9e2a900f6
:100a44000000eb00000e88000000eb00002e880080
:100a540000eb2f00200e880000eb2f00202e8800d2
:100a6400c905a800c885a800d525a800d425a800d4
:100a74000000eb00100e88000000eb00102e880030
:100a84000080fa00000006000800fa00881f7800c1
:100a9400008fbe00202e800000004000000478007b
:100aa4006140b9009ffe07002007980031079800b5
:100ab4000800e00007003d00020020000378240045
:100ac4002e009000be009000c2fe07002007980090
:100ad400310798001e01be002e009000be00900059
:100ae40019ff07004cff0700b02e8800c1e5a800dd
:100af4004f0478000080fa00000006000000fa00ad
:100b0400b3ff0700c3ff0700d0cc2c00c1e42300cf
:080b1400ddff0700ffff3700c1
:020000040000fa
:100b1c0000080000040000000200000000000000bb
:080b2c000000000000000000c1
:00000001FF
