:040000000AEF00F013
:10000800E9CFADF3EACFAEF3F5ED13F000EE00F073
:10001800600EEE6AE806FDE101EE00F012EE00F077
:100028001AEC00F0000EF86EA9EF13F0EE6AE55036
:0A003800E150FCE1E250FAE1120091
:10040000002E57415600000009C0E1FFE16601D00F
:10041000CDD1E150020FE96EEA6AEF50366F36A196
:10042000C5D1E1501C0FE96EEA6AEECF36F3EECF8C
:1004300037F3EECF38F3EECF39F32151365D225149
:10044000375923513859245139590CE2E1501C0FC6
:10045000E96EEA6AEECF21F3EECF22F3EECF23F37B
:10046000EECF24F3E150180FE96EEA6AEECF2AF3DB
:10047000EECF2BF3EECF2CF3EECF2DF3E150180F90
:10048000E96EEA6AEE6AEE6AEE6AED6A24512111BB
:100490002211231101E18AD1E128E96EEA6AEF50C5
:1004A000366F36C337F3386B396B3A6B090ED89019
:1004B0003737383739373A37E82EF9D737C32EF37D
:1004C00038C32FF339C330F33AC331F32D512A1116
:1004D0002B112C1101E18AD02EC34DF32FC34EF303
:1004E00030C34FF331C350F3FF0E2125496FFF0E88
:1004F00022214A6FFF0E23214B6FFF0E24214C6FE8
:10050000B6EC12F049C336F34AC337F34BC338F3A2
:100510004CC339F32EC34DF32FC34EF330C34FF307
:1005200031C350F3FF0E2A25496FFF0E2B214A6F6E
:10053000FF0E2C214B6FFF0E2D214C6FB6EC12F0ED
:100540004951365D4A5137594B5138594C513959F7
:100550004DE3FF0E2E25366FFF0E2F21376FFF0E56
:100560003021386FFF0E3121396F361F371F381F8A
:10057000391FFF0E2A253A6FFF0E2B213B6FFF0E0E
:100580002C213C6FFF0E2D213D6F36513A153E6FE9
:1005900037513B153F6F38513C15406F39513D1570
:1005A000416FE150180FE96EEA6A3EC3EEFF3FC3A8
:1005B000EEFF40C3EEFF41C3EDFFE150180FE96EBF
:1005C000EA6AEE50215FEE50225BEE50235BED5065
:1005D000245BE150240FE96EEA6AEECF32F3EECFEE
:1005E00033F3EECF34F3EECF35F318D0E150200FD4
:1005F000E96EEA6AEECF32F3EECF33F3EECF34F3A7
:10060000EECF35F3E150240FE96EEA6A32C3EEFF14
:1006100033C3EEFF34C3EEFF35C3EEFFE1CF25F366
:1006200021512E5D22512F592351305924513159D6
:1006300055E232C37DF333C37EF334C37FF335C356
:1006400080F314EC07F07DC332F37EC333F37FC332
:1006500034F380C335F325C3E1FF020E325D000E93
:100660003359000E3459000E355901E299D0E1504A
:10067000080FE96EEA6AEECF36F3EECF37F3EECF2E
:1006800038F3EECF39F33651325D375133593851A3
:1006900034593951355901E383D0E150240FE96EC3
:1006A000EA6A32C3EEFF33C3EEFF34C3EEFF35C355
:1006B000EEFFE150180FE96EEA6A2E51EE262F5137
:1006C000EE223051EE223151ED222E51215F2F5179
:1006D000225B3051235B3151245BA2D725C3E1FF5C
:1006E000E150180FE96EEA6A2151EE262251EE22FE
:1006F0002351EE222451ED2232C37DF333C37EF326
:1007000034C37FF335C380F320EC12F07DC326F3AE
:100710007EC327F37FC328F380C329F32951261111
:10072000271128113DE0E150030FE96EEA6A21C369
:1007300036F322C337F323C338F324C339F30A0E45
:1007400005D0D8903933383337333633E82EF9D7DC
:100750003651EF6E2151366F010E2215376F37512A
:10076000361124E0E150030FE96EEA6AEF50EF2AF8
:100770002625366F000E2721376F000E2821386F8F
:10078000000E2921396FE150280FE96EEA6A36C35D
:10079000EEFF37C3EEFF38C3EEFF39C3EDFF06D0DF
:1007A000E150020FE96EEA6A000EEF6A1200E8CF2C
:1007B000D9FF096AD9CF01F3D96601D0A1D12FECB5
:1007C0000DF00301366F36A102D0020E9AD10A6BEA
:1007D0000B6B0C6B0D6B0AC34BF387EC0BF071ECDE
:1007E00012F00301006F000522E1100E9E6F9F6B57
:1007F000BE0E9C6F010E9D6F7AEC0BF0FAEC10F0C0
:10080000000902E0030E11D00301165110E01AC3D3
:100810000AF31BC30BF31CC30CF31DC30DF30AC374
:100820004BF387EC0BF071EC12F00301006F0051F9
:10083000030A10E0005102E0070E63D1240E9E6F00
:100840009F6B0D0E9C6F9D6B7AEC0BF0FAEC10F029
:10085000000902E0010E55D103011BC30EF31CC3B6
:100860000FF3106B116B01C3E1FF11510E110F114A
:10087000101108E129C30EF32AC30FF32BC310F3A1
:100880002CC311F315514B6F4C6B4D6B4E6B0E0E11
:10089000496F030E4A6F3DEC14F013510A25366F71
:1008A00014510B21376F000E0C21386F000E0D21F3
:1008B000396FE1500C0FE96EEA6A36C3EEFF37C3B9
:1008C000EEFF38C3EEFF39C3EDFFE128E96EEA6AB7
:1008D00012C3EFFFE150040FE96EEA6A16C3EEFFA0
:1008E00017C3EDFF18C306F319C307F3086B096BB1
:1008F000095106110711081108E125C306F326C3A3
:1009000007F327C308F328C309F3E128E96EEA6A6D
:10091000EF504D6F4E6B4F6B506BE150040FE96E13
:10092000EA6AEECF36F3EDCF37F3040E386FD89086
:1009300037333633382FFBD73651396F37513A6F4B
:100940003B6B3C6B13513D6F14513E6F3F6B406BE3
:100950003D1F3E1F3F1F401F3D2B000E3E233F23E8
:10096000402339513D5D416F3A513E59426F3B51F1
:100970003F59436F3C514059446F0E51415D456FA3
:100980000F514259466F10514359476F1151445905
:10099000486F06514525496F075146214A6F085156
:1009A00047214B6F095148214C6FB6EC12F0020EF3
:1009B0004925026F000E4A21036F000E4B21046F80
:1009C000000E4C21056FE150080FE96EEA6A02C380
:1009D000EEFF03C3EEFF04C3EEFF05C3EEFF010EFF
:1009E000F36EF70E025D0F0E74EC0BF002E3020ED5
:1009F000F36EF70E025DFF0E74EC0BF002E3030ED4
:100A0000F36EE150E96EEA6AF3CFEFFFF350030AA9
:100A10000DE1E150100FE96EEA6A31C3EEFF32C317
:100A2000EEFF33C3EEFF34C3EEFF24D0E1500C0FD2
:100A3000E96EEA6AEECF36F3EECF37F3EECF38F356
:100A4000EECF39F30E5136253A6F0F5137213B6FF8
:100A5000105138213C6F115139213D6FE150100F79
:100A6000E96EEA6A3AC3EEFF3BC3EEFF3CC3EEFF1A
:100A70003DC3EDFFE1500C0FE96EEA6AEECF36F3AD
:100A8000EECF37F3EECF38F3EECF39F3E150040F6A
:100A9000E96EEA6AEECF3AF3EDCF3BF3040E3C6F1A
:100AA000D8903B333A333C2FFBD73A5136253D6F34
:100AB0003B5137213E6F000E38213F6F000E392128
:100AC000406F0E513D25416F0F513E21426F105135
:100AD0003F21436F11514021446FE150140FE96EE3
:100AE000EA6A41C3EEFF42C3EEFF43C3EEFF44C3D5
:100AF000EDFFE150020FE96EEA6AEF6AE1CF09F01B
:100B0000000E120021C328F322C329F309C0E1FF1C
:100B10002551E96EEA6A000EEE6AED6AE16602D0DE
:100B2000060E81D1E150020FE96EEA6AEF50386F8C
:100B300038B102D0050E77D1E150180FE96EEA6A9C
:100B4000EECF38F3EECF39F3EECF3AF3EECF3BF3FF
:100B5000E1501C0FE96EEA6AEECF3CF3EECF3DF3B5
:100B6000EECF3EF3EECF3FF338513C5D2C6F395161
:100B70003D592D6F3A513E592E6F3B513F592F6FC2
:100B80002351386F2451396F3A6B3B6B38512C5DD0
:100B900039512D593A512E593B512F5904E22CC34A
:100BA00023F32DC324F32451231101E134D1E15067
:100BB000180FE96EEA6AEECF38F3EDCF39F338510A
:100BC0003A6F010E39153B6F3B513A1101E0B9D034
:100BD000E1CF27F3E128E96EEA6AEF50446F456BF5
:100BE000466B476BE150180FE96EEA6AEECF38F3B7
:100BF000EECF39F3EECF3AF3EECF3BF30A0E05D04A
:100C0000D8903B333A3339333833E82EF9D738C3E9
:100C100040F339C341F33AC342F33BC343F380EC9F
:100C200013F0435140114111421150E12751240F5B
:100C3000E96EEA6AEECF7DF3EECF7EF3EECF7FF37F
:100C4000EECF80F314EC07F07DC334F37EC335F3AD
:100C50007FC336F380C337F327C3E1FFE150180F9A
:100C6000E96EEA6AEECF38F3EECF39F3EECF3AF31E
:100C7000EECF3BF33B51381139113A110CE1E15001
:100C8000200FE96EEA6AEECF34F3EECF35F3EECF04
:100C900036F3EECF37F3020E345D000E3559000EF9
:100CA0003659000E375901E2B8D0E150240FE96EF1
:100CB000EA6A34C3EEFF35C3EEFF36C3EEFF37C337
:100CC000EEFFE150030FE96EEA6AEF6A27C3E1FF26
:100CD000E150240FE96EEA6AEECF7DF3EECF7EF3AA
:100CE000EECF7FF3EECF80F320EC12F07DC330F334
:100CF0007EC331F37FC332F380C333F333513011FA
:100D00003111321101E189D0E150030FE96EEA6A35
:100D1000EF50EF2A3025386F000E3121396F000E69
:100D200032213A6F000E33213B6FE150280FE96EFC
:100D3000EA6A38C3EEFF39C3EEFF3AC3EEFF3BC3A6
:100D4000EDFFE150180FE96EEA6AEECF38F3EDCF10
:100D500039F338513A6F010E39153B6F3A5100089B
:100D60002A6F3B51D8A0E82A02082B6F2A51235D35
:100D70002B51245904E223C32AF324C32BF3E1CFDC
:100D800027F32251211105E028C396F329C397F3D5
:100D900002D0966B976B2AC39EF32BC39FF3275108
:100DA000180FE96EEA6AEECF38F3EDCF39F3385118
:100DB0009C6F010E39159D6F2751280FE96EEA6A65
:100DC000EECF98F3EECF99F3EECF9AF3EECF9BF3FD
:100DD000FAEC10F00301266F27C3E1FF26511DE155
:100DE000E150180FE96EEA6A2A51EE262B51EE22E5
:100DF000000EEE22ED222A5128272B5129232A51B9
:100E0000235F2B51245B2551E96EEA6A2A51EE26B5
:100E10002B51ED22C8D6000E06D0E150020FE96E2C
:100E2000EA6AEF6A010E120009C0D9FF020E7D5D69
:100E3000000E7E59000E7F59000E805916E3D950DE
:100E4000080FE96EEA6AEECF8CF3EECF8DF3EECFAA
:100E50008EF3EECF8FF38C517D5D8D517E598E5187
:100E60007F598F51805901E200D1010E0ED17DC30F
:100E700086F37EC387F3D89087318D6F86318C6F70
:100E80008C5186278D5187238651846F010E8715DB
:100E9000856F090E8C6FD890873386338C2FFBD7E4
:100EA0008429D8B485050CE0020E9E6F9F6B84C325
:100EB0009CF385C39DF3F7EC0AF0FAEC10F03BD0FD
:100EC000010E9E6F9F6B9C699D6FF7EC0AF0FAEC28
:100ED00010F0000901E0D7D0010E03019E6F9F6B57
:100EE0009C6B9D6B83510C0FE96EEA6AEECF8CF31D
:100EF000EECF8DF3EECF8EF3EECF8FF386518C25B0
:100F0000906F87518D21916F000E8E21926F000E90
:100F10008F21936F9029986F000E9121996F000E89
:100F200092219A6F000E93219B6F890E966F030E8C
:100F3000976FFAEC10F0000901E0A5D088C3F3FF29
:100F400089C3F4FFF3500301816F0F0EF414826F15
:100F50007DA10FD0F3CF8CF3F4CF8DF3040E8E6F01
:100F6000D8908D338C338E2FFBD78CC381F38DC3F8
:100F700082F381C37DF382C37EF331D0020E9E6F74
:100F80009F6B7D518C6F8D6BD8908C359C6F8D35A0
:100F90009D6F83510C0FE96EEA6AEECF8EF3EECFB0
:100FA0008FF3EECF90F3EECF91F37DC392F37EC338
:100FB00093F37FC394F380C395F393C392F394C3E5
:100FC00093F395C394F3956BE6EC0AF0FAEC10F00A
:100FD000000959E1030188C37DF389C37EF37F6B68
:100FE000806B58D0040E9E6F9F6B7F0E7D158C6FAB
:100FF0008D6BD8908C378D37D8908C378D378CC3CC
:101000009CF38DC39DF383510C0FE96EEA6AEECF1A
:101010008EF3EECF8FF3EECF90F3EECF91F37DC34F
:1010200092F37EC393F37FC394F380C395F3080ECA
:1010300005D0D8909533943393339233E82EF9D773
:10104000E6EC0AF0FAEC10F000091DE1030103EEF2
:1010500088F0FF0EEE147D6FFF0EEE147E6FFF0E14
:10106000EE147F6F0F0EEE1414D0D9CF83F3D95046
:10107000E96EEA6AEF50010A01E1F9D6030A01E1DB
:101080007DD7010AAFE0010E03017D6F000E7E6B7C
:101090007F6B806F1200256B0C0E236F246B69EC45
:1010A0000BF082EC05F0000907E0010E0D6F000E59
:1010B0000E6B0F6B106BE5D000500C0A01100DE1A8
:1010C00002010B51450A570ED8B40819410ED8B485
:1010D0000919560ED8B40A196CE00301CED0650E7A
:1010E00061EC0BF001E3C9D0100E61EC0BF001E2F2
:1010F000C4D0256B19C323F31AC324F369EC0BF096
:1011000082EC05F000501D6F01501E6F1F6B206BAD
:101110001C51201908E11B511F1905E11A511E1914
:1011200002E119511D1901E0A8D00201000502E0F9
:101130000301A3D002C24CF04D6A4C044D1004E0F0
:101140004C50020A4D10F4E10EC24EF04F6A4E5060
:10115000080A4F1004E04E50100A4F10E9E104C293
:1011600015F305C216F306C217F307C218F315C329
:1011700021F316C322F317C323F318C324F31AEC85
:1011800014F017D019C30DF31AC30EF31BC30FF3DA
:101190001CC310F376D019512224216F1A51232039
:1011A000226F1B512420236F1C512520246F04EC37
:1011B00002F00301256B080E236F246B216B020ED6
:1011C000226F82EC05F00050080A011056E100C2BF
:1011D00011F301C212F302C213F303C214F304C2E7
:1011E00019F305C21AF306C21BF307C21CF311C39D
:1011F0001DF312C31EF313C31FF314C320F334D023
:1012000005D01D51660A01E16AD737D01E516D0A1B
:10121000F8E033D003D01D514C0A10D01E51490ABA
:10122000FAE02BD004D01D51640AACE026D01E5148
:10123000610AF9E022D004D01D51660AACE01DD04D
:101240001E51610AF9E019D01F51740AD9E015D076
:101250001F51530ADFE011D01F51740AE3E00DD093
:101260001F51630AE8E009D02051200AEDE0740A1A
:10127000EFE0350AF1E0150AF3E00D6B0E6B0F6B32
:10128000106B1200E8CF00F3005185EC10F000095C
:1012900001E0D6D04BEC08F00DC303F30EC304F30A
:1012A0000FC305F310C306F3000E035D010E0459CE
:1012B000000E0559000E065901E2C2D0F90E94162F
:1012C0004C50020A4D1037E14E50100A4F1033E1D6
:1012D000256BA2EC0BF082EC05F0076B086B096B39
:1012E0000A6B07C30BF308C30CF3D8900B370C370A
:1012F000D8900B370C37010E03010B25E96E020E57
:101300000C21EA6EEF50016F026B01AF02D0016B4E
:10131000026B015196EC14F00301072B000E082319
:1013200009230A23400E9AEC0BF0DBE301040010C2
:1013300001E084D0CDD74C044D102CE14E50100A62
:101340004F1028E1256BA2EC0BF082EC05F0076B47
:10135000086B096B0A6BD89007350B6F08350C6F5B
:10136000010E03010B25E96E020E0C21EA6EEF500F
:10137000F36EF46AF3AE02D0F36AF46AF35096ECBB
:1013800014F092EC0BF09AEC0BF0E5E30104001082
:1013900055E1D8D74C50020A4D1025E14E50080AAD
:1013A0004F1021E1256BA2EC0BF082EC05F0076BEE
:1013B000086B096B0A6BD89007350B6F08350C6FFB
:1013C000000E03010B25E96E020E0C21EA6EEF50B0
:1013D00096EC14F092EC0BF09AEC0BF0ECE30104B9
:1013E00000102CE1DFD74C044D1028E14E50080AC4
:1013F0004F1024E1256BA2EC0BF082EC05F0076B9B
:10140000086B096B0A6B000E03010725E96E020EDB
:101410000821EA6EEF5096EC14F00301072B000E42
:10142000082309230A23075D010E0859000E0959F4
:10143000000E0A59E8E301040010DCE0060E9412E5
:101440001200565140EC0BF0EA6403D0EA6EEF5004
:1014500003D0F76E0800F550200A03E1564B572BD6
:10146000F0D7565140EC0BF0EA6403D0EA6EEF502F
:1014700003D0F76E0800F5502F0A02E1564B572BA8
:10148000040E5425E96E000E5521EA6EEE6AEE6AEE
:10149000EE6AED6A565140EC0BF0EA6403D0EA6E56
:1014A000EF5003D0F76E0800F550596F210E595DCB
:1014B00015E254C36CF355C36DF384EC0EF0586F12
:1014C0000950060FE96EEA6AEECF59F3EDCF5AF3F1
:1014D00059C3E9FF5AC3EAFFEF6A76D0560E676F29
:1014E000030E686F54C365F355C366F3AAEC0BF0A3
:1014F000586F585169E154C365F355C366F391ECD5
:101500000FF0586F585108E05851030A5DE1020E80
:101510002FEC0BF059E11AD0020E2FEC0BF054E136
:101520000950060FE96EEA6AEECF59F3EDCF5AF390
:1015300059C3E1FF5AC3E2FF0B0EE124E96E000E2E
:10154000E220EA6EEF50596F59B903D0040E586F7C
:101550003BD01A0EE124E96E000EE220EA6EEECFD7
:1015600059F3EDCF5AF3140EE124E96E000EE22098
:10157000EA6EEECF5BF3EDCF5CF35B515D6F5C51D8
:101580005E6F5F6B606B5EC360F35DC35FF35E6B4A
:101590005D6B59515D11616F5A515E11626F000EA2
:1015A0005F11636F000E6011646F040E5425E96EC5
:1015B000000E5521EA6E61C3EEFF62C3EEFF63C306
:1015C000EEFF64C3EDFF8AD7585112008E51922569
:1015D000986F8F519321996F905194219A6F9151E7
:1015E00095219B6F880E966F030E976F12008351A3
:1015F0000C0FE96EEA6AEECF8CF3EECF8DF3EECFEF
:101600008EF3EECF8FF386518C25986F87518D2105
:10161000996F000E8E219A6F000E8F219B6F880E9E
:10162000966F030E976F12006C25E96E000E6D2108
:10163000EA6EEECF75F3EECF76F3EECF77F3EECF23
:1016400078F3785175117611771112006C216E6F55
:101650006D51F66EE96E030EEA6E6E51120054255E
:10166000E96E000E5521EA6EEECF59F3EDCF5AF335
:101670000B0E5925E96E000E5A21EA6EEF5012004A
:10168000F66EE96E030EEA6E5751120049C3E9FF88
:101690004AC3EAFFEE52ED50410A460E12004BC318
:1016A00098F34CC399F34DC39AF34EC39BF349C3CC
:1016B00096F34AC397F31200E96EEA6A030EEA2230
:1016C0001200195D000E1A59000E1B59000E1C590C
:1016D00012000301216B020E226F1200E96E000E50
:1016E0003121EA6E2F5112000359000E0459000EE9
:1016F000055912000AC398F30BC399F30CC39AF36C
:101700000DC39BF3120E966F030E976F12000BC35F
:101710004CF30CC34DF30DC34EF3120E496F030E81
:101720004A6F12000301072B000E082309230A2326
:10173000800E1200075D000E0859000E0959000EB8
:101740000A591200236B010E246F0301216B020E54
:10175000226F1200020E6525E96E000E6621EA6E08
:10176000EECF6DF3EDCF6EF36DC3D9FF6EC3DAFF2D
:101770000B0E766F776B200E746F000E756BD9CFE2
:1017800072F3DACF73F3D3EC14F0F36AF46A080E51
:101790006A6F67C3E9FF68C3EAFFEECF6BF3EDCF73
:1017A0006CF3F4506B256D6FE86AF4BEE86826ECC4
:1017B0000BF0EA6403D0EA6EEF5003D0F76E080036
:1017C000F550E16EF42A200EE16468D0E1502F0A52
:1017D00065E0E1502E0A03E06A51F35C0BE36A51C5
:1017E000080A5CE1E1502E0A59E1080EF36E0B0E77
:1017F0006A6FD7D7800EE16403D09F0EE16406D0F4
:10180000DF0EE1643AD0FD0EE16037D0FF0E6A25AD
:101810006D6F6E6BFF0E6E23F3CF6FF3706B7051B5
:10182000800A716F6D516F5D6E51800A715925E3A9
:10183000F4506B256D6FE86AF4BEE86826EC0BF097
:10184000EA6403D0EA6EEF5003D0F76E0800F5505B
:10185000696FF42AF350D924E96E000EDA20EA6E9B
:10186000E1CFEFFFF32AF350D924E96E000EDA201E
:10187000EA6E69C3EFFFF32A94D7600EE16405D0E6
:101880007B0EE16002D0200EE15EF350D924E96EB8
:10189000000EDA20EA6EE1CFEFFFEDD7F4506B25B2
:1018A0006D6FE86AF4BEE8686C216E6F67C3E9FF8C
:1018B00068C3EAFF6DC3EEFF6EC3EDFF0B0ED924C4
:1018C000E96E000EDA20EA6E200EE16401D002D04B
:1018D000010E01D0000EEF6E000C09C0D9FF6CC3E1
:1018E000E9FF6DC3EAFFEECF75F3EDCF76F375290F
:1018F0006F6F000E7621706F70516F117EE00C0ECD
:1019000014EC0BF07AE06F510F0B01E09ED00C0E3F
:101910006C25E96E000E6D21EA6EEE2A000EEE22B5
:10192000EE22ED22080E14EC0BF00FE1D950040F5B
:10193000E96EEA6AEECF75F3EDCF76F375516F5D20
:101940007651705901E281D058D0D9CF6EF36FC370
:1019500075F370C376F3040E776FD89076337533D2
:10196000772FFBD7D928E96EEA6AEF50786FFF0F1F
:10197000796F7A6BFF0E7A23755179157B6F7651EB
:101980007A157C6F7C517B1160E1080E6C25E96E45
:10199000000E6D21EA6EEECF7DF3EECF7EF3EECF3B
:1019A0007FF3EECF80F314EC07F07DC371F37EC3B9
:1019B00072F37FC373F380C374F3020E715D000E84
:1019C0007259000E7359000E745902E2010E46D08E
:1019D0006E51080FE96EEA6AEECF75F3EECF76F33B
:1019E000EECF77F3EECF78F37551715D7651725982
:1019F000775173597851745902E3030E2FD0080EB2
:101A00006C25E96E000E6D21EA6E71C3EEFF72C3A4
:101A1000EEFF73C3EEFF74C3EEFF71C37DF372C3B9
:101A20007EF373C37FF374C380F320EC12F00C0ECB
:101A30006C25E96E000E6D21EA6E7DC3EEFF7EC35C
:101A4000EEFF7FC3EEFF80C3EDFF6CC3E9FF6DC304
:101A5000EAFF6FC3EEFF70C3EDFF000E1200E4EC6F
:101A600014F0640ED96E03D028EC15F0D906D966AF
:101A7000FBD7F46A0301A46BA56BA66BA76B400EA2
:101A80000FEC10F00301506F500501E08DD0AA0E4D
:101A9000A46F010EA56FA66BA76B480E0FEC10F09C
:101AA000000949E1D96A03014C0ED9245CEC0BF022
:101AB00028EC15F0EF6ED92A030ED964F4D74E0541
:101AC00073E14F51AA0A70E1E00E4A6F2E0E4B6F80
:101AD0000ED0A46BA56BA66B400EA76FE90E0FECA2
:101AE00010F0000907E003014A07D8A04B074B514B
:101AF0004A11EFE103014B514A1156E0A46BA56B6B
:101B0000A66BA76B7A0E0FEC10F000094DE1E16AAD
:101B100003014C0EE1245CEC0BF028EC15F0EF6EA9
:101B2000E12A030EE164F4D7040EF46E4CAD3CD010
:101B30000C0EF46E39D00301A46BA56BA66BA76BDA
:101B4000E90E0FEC10F00301506F020E505D04E23D
:101B5000020EF46EE90E03D0010EF46E410E496FD1
:101B6000A80E4A6F610E4B6F0DD0A46BA56BA66BD0
:101B7000A76B49510FEC10F0000907E003014A0779
:101B8000D8A04B074B514A11F0E103014B514A11C8
:101B90000AE0A46B020EA56FA66BA76B500E0FECAC
:101BA00010F00009D8A4F46AF4CF06F02DEC15F07B
:101BB000F45002E0F00EC616F45002E1010E01D01E
:101BC000000E1200E8CFF4FF2F51090FD96EF45028
:101BD0000C0FE96EEA6AEECF32F3EECF33F3EECFBD
:101BE00034F3EECF35F3355132113311341101E1B5
:101BF00086D00950060FE96EEA6AEECF32F3EDCFD8
:101C000033F332C3E1FF33C3E2FFF46AF450E1245B
:101C1000E96E000EE220EA6EEF50F36EF350200AF8
:101C20000FE0F350050A02E1E50EF36ED950E96EBC
:101C3000EA6AF3CFEFFFD92AF42A070EF464E6D755
:101C4000E1CF30F3E2CF31F3080EE124E96E000E6C
:101C5000E220EA6EEF50200A1EE0D950E96EEA6AEF
:101C60002E0EEF6ED92A080EF36EF35003013025C5
:101C7000E96E000E3121EA6EEF50E16EE150200A6C
:101C80000AE0D950E96EEA6AE1CFEFFFD92AF32AD8
:101C90000A0EF364EAD70B0E03013025E96E000E3D
:101CA0003121EA6E2F51080FE16EE26AEFCFE7FFB4
:101CB0001C0E30256EEC0BF0E16EE26AEECFE6FF13
:101CC000EECFE6FFEECFE6FFEDCFE5FF180E3025B5
:101CD000E96E000E3121EA6E2F51040FE16EE26AC7
:101CE000EECFE6FFEDCFE5FF160E30256EEC0BF0E4
:101CF000060FE16EE26AEECFE6FFEDCFE5FFD950C9
:101D0000E96EEA6AEF6A000C09C0D9FF6CC3E9FF0B
:101D10006DC3EAFFEE6AED6A040E6C25E96E000EF3
:101D20006D21EA6EEECF72F3EECF73F3EECF74F364
:101D3000EECF75F3720573117411751115E0D9505A
:101D4000080FE96EEA6AEECF76F3EECF77F3EECFC7
:101D500078F3EECF79F37651725D775173597851FC
:101D600074597951755902E3010E57D075517211AA
:101D70007311741112E1D950E96EEA6A030EEF6231
:101D80000CD0D950100FE96EEA6AEECF72F3EECFA5
:101D900073F3EECF74F3EECF75F3080E6C25E96E96
:101DA000000E6D21EA6E72C3EEFF73C3EEFF74C3C3
:101DB000EEFF75C3EEFFD950100FE96EEA6AEECF61
:101DC0006EF3EECF6FF3EECF70F3EECF71F375518C
:101DD00072117311741112E072C37DF373C37EF339
:101DE00074C37FF375C380F320EC12F07DC36EF3F0
:101DF0007EC36FF37FC370F380C371F30C0E6C2549
:101E0000E96E000E6D21EA6E6EC3EEFF6FC3EEFF4A
:101E100070C3EEFF71C3EEFF000E1200E8CF2FF388
:101E2000030E306F0950060FE96EEA6AEECF31F308
:101E3000EDCF32F32F510C0FE96EEA6AEECF33F398
:101E4000EECF34F3EECF35F3EECF36F33651331118
:101E5000341135115AE0200E9E6F9F6B2F51E96EA1
:101E6000EA6AEECF33F3EDCF34F30F0E3317346B52
:101E7000050ED89033373437E82EFBD733C39CF3A5
:101E800034C39DF32F510C0FE96EEA6AEECF98F33D
:101E9000EECF99F3EECF9AF3EECF9BF331C396F3E7
:101EA00032C397F3FAEC10F0000902E0010E01D002
:101EB000000E0301306F305128E131C3E9FF32C316
:101EC000EAFFEF50D96ED96603D0030E306F1DD0F4
:101ED0000B0E3125E96E000E3221EA6EEF503F0BFA
:101EE000E16ED950E50A05E0D9502E0A02E0E1A6DC
:101EF0000CD02FC36CF30F0E6D6F5F0E6C656D6BA6
:101F00006DEC0CF0306F305195E0305108E02F51FE
:101F10000C0FE96EEA6AEE6AEE6AEE6AED6A30511B
:101F2000120065C36CF366C36DF384EC0EF0E16ED2
:101F3000E15002E0E15072D00950060FE96EEA6A02
:101F4000EECF68F3EDCF69F3200E9E6F9F6B65C3F4
:101F5000E9FF66C3EAFFEECF6AF3EDCF6BF30F0E36
:101F60006A176B6B050ED8906A376B37E82EFBD774
:101F70006AC39CF36BC39DF30C0E6525E96E000EDE
:101F80006621EA6EEECF98F3EECF99F3EECF9AF397
:101F9000EECF9BF368C396F369C397F3FAEC10F0A6
:101FA000000902E0010E01D0000E0301676F6751C6
:101FB00034E168C3E9FF69C3EAFFEF50D96ED9661F
:101FC00003D0030E676F29D00B0E6825E96E000E53
:101FD0006921EA6EEF506A6F6AB716D00B0E706F08
:101FE000716B020E6525E96E000E6621EA6EEECF7A
:101FF0006EF3EDCF6FF368C36CF369C36DF324EC3C
:1020000013F06D516C1109E065C36CF366C36DF399
:102010006DEC0CF0676F675197E067511200E8CFE5
:10202000E9FF8B8C8B9C7CEC14F00301A86FA82932
:1020300002E0FF0E69D0E9AE36D0E99EE9501FEC10
:1020400015F00301A7511FEC15F00301A6511FEC79
:1020500015F00301A5511FEC15F00301A4511FEC6D
:1020600015F0010ED96EE950400A02E1950ED96EC5
:10207000E950480A02E1870ED96ED9501FEC15F0DD
:10208000E9504C0AD8B428EC15F00A0ED96E28ECA9
:1020900015F0E16EE1AE02D0D92EF9D7010EE16460
:1020A00002D0E15031D0E9501FEC15F00301A751E7
:1020B0001FEC15F00301A6511FEC15F00301A5510B
:1020C0001FEC15F00301A4511FEC15F0010ED96EA1
:1020D000E950400A02E1950ED96EE950480A02E142
:1020E000870ED96ED9501FEC15F0E9504C0AD8B4C0
:1020F00028EC15F00A0EE16E28EC15F0F36EF3AE45
:1021000002D0E12EF9D7F3501200E8CF0DF309C049
:10211000E1FFE16602D0060E6CD0E150020FE96EDD
:10212000EA6AEF6AE150060FE96EEA6A2C0EEE6E7B
:10213000030EED6EE1CF0FF3100E1E6F030E1F6F37
:102140000DC356F30F0E576F5F0E5665576B1C0E7F
:10215000546F030E556F21EC0AF00E6F0E5102E022
:102160000E5147D02C5102E037A902D0030E41D0C6
:102170000FC3D9FF40514C6F41514D6F4E6B4F6BA8
:102180004DC34FF34CC34EF34D6B4C6B46514C114A
:10219000506F47514D11516F000E4E11526F000E8E
:1021A0004F11536FD950200FE96EEA6A50C3EEFF0A
:1021B00051C3EEFF52C3EEFF53C3EDFFD9501C0FC6
:1021C000E96EEA6A48C3EEFF49C3EEFF4AC3EEFF79
:1021D0004BC3EEFFD950180FE96EEA6AEE6AEE6A59
:1021E000EE6AED6AD950020FE96EEA6A010EEF6EEF
:1021F000000E120006B608D0090ED890983799370D
:102200009A379B37E82EF9D7010EF46E98C3A4F3E2
:1022100099C3A5F39AC3A6F39BC3A7F3510E0FEC82
:1022200010F000094CE1300E0301A06F750EA16F94
:1022300007D0A007D8A0A1070301A151A01105E074
:1022400028EC15F0D96ED928F4E0D950FE0A37E110
:102250009EC3A2F39FC3A3F3A21FA31FA24BA32B52
:102260009C51A25F9D51A35B020EA225F36E020E4C
:10227000A321F46E9D519C1109E028EC15F09C07F8
:10228000D8A09D0703019D519C11F7E128EC15F0A2
:1022900096C3E9FF97C3EAFFEF6E964B972B9E0715
:1022A000D8A09F0703019F519E11F0E128EC15F083
:1022B000F306D8A0F406F450F310F8E1F46A2DEC1C
:1022C00015F0F4501200E8CF01F309C0D9FFD96628
:1022D00002D0060E5DD0D950060FE96EEA6A0F0EE5
:1022E000EE6E030EED6E0151020FE96EEA6A030E07
:1022F000EE6E030EED6E00C356F3040E576F01C36E
:1023000054F30F0E556F5F0E5465556B21EC0AF0B8
:10231000026F026739D001C3E1FF0F5129E01AA90A
:1023200025D023512F6F2451306F316B326B30C366
:1023300032F32FC331F3306B2F6B29512F11336FD1
:102340002A513011346F000E3111356F000E3211E9
:10235000366FE150040FE96EEA6A33C3EEFF34C30F
:10236000EEFF35C3EEFF36C3EDFF02D0040E026F61
:1023700002670AD0E1CF6CF30F0E6D6F5F0E6C65D4
:102380006D6B84EC0EF0026F0251030A02E1040E41
:10239000026F02511200E8CF01F309C0D9FFD966DC
:1023A00002D0060E1BD0D950060FE96EEA6A0F0E56
:1023B000EE6E030EED6E0151020FE96EEA6A030E36
:1023C000EE6E030EED6E00670BD001C36CF30F0EC3
:1023D0006D6F5F0E6C656D6B84EC0EF0026F2ED02E
:1023E00001510EEC0FF0026F0251030A0AE1015194
:1023F0000C0FE96EEA6A000EEE6AEE6AEE6AED6AAA
:10240000026B02671BD000C32FF30151E2EC0DF009
:1024100001C36CF30F0E6D6F5F0E6C656D6B6DEC31
:102420000CF0026F0251030A09E101510C0FE96E31
:10243000EA6AEE6AEE6AEE6AED6A026B0251120017
:1024400009C0D9FF020E7D5F000E7E5B7F5B805B63
:10245000D950080FE96EEA6AFE0EEE24816FFF0E76
:10246000EE20826FFF0EEE20836FFF0EEE20846F52
:1024700081517D5D82517E5983517F5984518059AC
:1024800005E37D6B7E6B7F6B806B2AD0D950140F78
:10249000E96EEA6AEECF81F3EECF82F3EECF83F3FB
:1024A000EECF84F37DC389F37EC38AF37FC38BF3BE
:1024B00080C38CF3D928E96EEA6AEF50856F866B8A
:1024C000876B886BCFEC13F0815185257D6F82512E
:1024D00086217E6F835187217F6F84518821806F91
:1024E0001200020E9E6F9F6BFE0E9C6F010E9D6F81
:1024F0004FEC0BF0FAEC10F0000902E0030E35D0BF
:1025000049C3E9FF4AC3EAFFEE52ED50AA0A550E4D
:10251000D8B4EF18020E01E028D003019E6F9F6B24
:10252000360E9C6F000E9D6B4FEC0BF0FAEC10F02A
:10253000000905E146EC0BF0D8B4EF1813E0020EE9
:1025400003019E6F9F6B520E9C6F000E9D6B4FECB4
:102550000BF0FAEC10F0000907E146EC0BF0D8B4F0
:10256000EF1802E1000E01D0010E1200516B526B08
:10257000536B546B50514D114E114F1129E0010E08
:10258000D96ED89050BF07D04D374E374F375037A0
:10259000D92AF7D7D89051375237533754374D513E
:1025A000495D4E514A594F514B5950514C5909E3CD
:1025B0004D51495F4E514A5B4F514B5B50514C5B03
:1025C0005181D89050334F334E334D33D92EE2D70B
:1025D00051C349F352C34AF353C34BF354C34CF3AF
:1025E0001200E8CFD9FF0407D8A00507030104298A
:1025F000D8B4052926E0D950E96EEA6AEF500DE01B
:1026000003C3F6FF040EF76E0800F5CF06F3D950AA
:10261000E96EEA6AEF50061911E0D950E96EEA6AEC
:10262000EF50066F03C3F6FF040EF76E0800F55077
:10263000065D036F046BD8A0040705D0D92A032BCD
:10264000D2D7036B046B12006CC3E1FF6DC3E2FFD2
:102650006EC3D9FF6FC3DAFFF36AF46A17D0E1CF14
:10266000E9FFE2CFEAFFE14AE22AEF50726FD9CFE9
:10267000E9FFDACFEAFFD94ADA2AEF50725DF36E4A
:10268000F46AD8A0F406F450F31008E17007D8A05B
:10269000710703017029D8B47129E1E1F3CF6CF31C
:1026A000F4CF6DF31200E8CFF3FF21D0005160ECBE
:1026B00014F003C301F304C302F301C304F302C320
:1026C00005F300C303F3F350F1EC12F004510311CE
:1026D00002E1F35014D000C3F6FF040EF76E0800B9
:1026E000F550036F046BF328C1EC14F0F36EF35054
:1026F00005E0F350E96EEA6AEF50D8E1000E1200EF
:10270000475144114511461123E0010ED96E47BFD0
:1027100007D0D8904437453746374737D92AF7D7B7
:102720004451405D455141594651425947514359E1
:1027300008E34451405F4551415B4651425B47517C
:10274000435BD8904733463345334433D92EE8D7DB
:10275000120016EC15F0AEEC14F00A0ED7EC03F0F4
:102760000009F9E1050E0301006F500E63EC11F052
:102770000009F1E10AD0010E006F3F0E53EC13F097
:10278000000903E03F0E42EC09F0360E006F500ED8
:10279000CBEC11F00009E6E13F66EDD7E3D78D6B96
:1027A0008E6B8F6B906B85A108D089518D278A51D4
:1027B0008E238B518F238C519023D89089378A3761
:1027C0008B378C37D890883387338633853388515D
:1027D000851186118711E7E18DC385F38EC386F3DA
:1027E0008FC387F390C388F3120006009DB09EA0AC
:1027F0001CD008C0CFFF07C0CEFF0101000E02248D
:10280000E96E010E0320EA6EEF50F2EC14F0024A7A
:10281000032AFF0E0216000E03160550031802E1EC
:1028200004500218D8B49D809E90AEC3EAFFADC399
:10283000E9FF110021C34DF322C34EF323C34FF32D
:1028400024C350F30301496B1B0E4A6FB70E4B6F45
:10285000000E4C6BB6EC12F049510008256F000ECB
:102860004A55266F010E4B55276F000E4C55286FA9
:1028700026C308F025C307F012004BC389F34CC3ED
:102880008AF34DC38BF34EC38CF349C3E9FF4AC3AC
:10289000EAFFEECF85F3EECF86F3EECF87F3EECFF0
:1028A00088F3CFEC13F049C3E9FF4AC3EAFF85C3BD
:1028B000EEFF86C3EEFF87C3EEFF88C3EDFF120075
:1028C000E8CFE1FFE1CFD9FFD92AD904056F05C3CD
:1028D000F6FF040EF76E0800F550F6E1E150D9CF8F
:1028E00005F3066B055F000E065BFF0E0525036F03
:1028F000FF0E0621046F12000301A9697F0EAA6F63
:10290000000EAB6BAC6B0BD00301A907000EAA5BEA
:10291000AB5BAC5BAC51A911AA11AB1105E028EC83
:1029200015F0E16EE128F0E1E1501200E8CFD9FFA7
:1029300004280218FDE0000E0424E96E010E0520B3
:10294000EA6ED9CFEFFF042803010D6F000E0520BA
:102950000E6F0D51046E056A9D801200030100691F
:102960000169070E026F036BFF0E030100070123CD
:10297000022303230351001101110211D8B41200E4
:10298000F3D7E8CFD9FFD950E96EEA6A0351EF6275
:1029900002D0D95007D0D92AD904E96EEA6AEF509B
:1029A000F2E1000E120072C3E1FF73C3E2FF76078B
:1029B000D8A0770703017629D8B4772904E074C337
:1029C000E7FFE652F4D71200949C949E9380939272
:1029D000C1683F0EC716C66AC78CC79EC682C68A24
:1029E000C69E1200E8CFAFF30301AF41E8423F0BB0
:1029F000BE6ECF0EBD16AF39F00B300BBD121200FC
:102A00003F0ECB6E040ECA6E1F0EBE6E3C0EBD6E28
:102A10001F0EBB6E3C0EBA6E3C0CCD8ECD92CF6AB3
:102A2000CE6AF28EF28C9E90CD80120000EC15F0F2
:102A30000DEC15F0026A036A046A056A1200E8CF19
:102A4000E1FFC9509E96E1CFC9FF9EB61200FDD7A7
:102A5000C968C7A0FED7C95012008B8C28EF15F0AB
:020000040030CA
:04000000040E161EB6
:020006000100F7
:00000001FF
