:020000040000fa
:080000000002040000000000f2
:020000040000fa
:100400000f8020000eff27000e0188000000000072
:100410000c000700603920000100200011000700d7
:10042000000020000000e000020032000000020096
:100430000000000094020200000000000040da000a
:100440000000fe004440a900000020000000e00081
:100450000300320000002000a00188004440a800f2
:100460000000060091018800800078000000eb0089
:1004700015003700e280400032a0b4009101ba00bc
:10048000e280400032a0b4009102ba00e280400055
:1004900032a0b4000002eb00472bde00f507b200eb
:1004a000602ce10004003a000059eb008301e900f0
:1004b000fdff3e00040037006128e100010032002a
:1004c0000082eb00040007001101ba000200e00006
:1004d000e8ff3a00000006003159ba008301e90044
:1004e0000c0032002159ba008301e90008003200f3
:1004f0000400e00003003a00e280400032a0b400b3
:10050000f5ff370011d9ba008301e900faff3a007c
:100510008100e800e180400032a0b4000000060045
:080520000040da000000fe00bb
:020000040000fa
:1000080090020000900200009002000090020000a0
:100018009002000090020000900200009002000090
:100028009002000090020000900200009002000080
:100038009002000090020000900200009002000070
:020000040000fa
:020000040000fa
:100528000200fa000700070017000700450007004f
:10053800907f2400000c88006b000700000f7800f3
:10054800fdff37000000fa00417420009140780058
:1005580000ceb30000c0600044e7b70044c7bf0046
:10056800f043b20044e7b70080022000303a880028
:1005780042c7bf000042b2000004e000fcff3200a6
:100588000080fa00000006000000fa000000eb00fe
:100598003008880020ff28006008880011e1a800c2
:1005a80060002000200c880060002000500c8800ab
:1005b80060002000800c880060002000b00c8800db
:1005c80060002000100d88000080fa00000006007e
:1005d8000000fa002a03a8002a23a8000080eb00e4
:1005e800201788000080eb00f01688000080eb00e0
:1005f800001688000080eb00301688000080eb00b1
:10060800901688000080eb00601988000080eb00dd
:10061800601b88000080eb0050198800d202a900f6
:10062800d222a900d242a900d262a900d282a9008e
:10063800d2a2a900d2c2a900d2e2a9000080fa0081
:10064800000006000000fa00c602a8002143a80026
:10065800c0ff2f00601988000080eb00601b880035
:100668000080eb005019880081322000914078000a
:1006780000ceb30000c0600028e3b70023c3bf006a
:100688007f40600023e3b700a0c0b30024e3b700b5
:1006980025c3bf00f041b30025e3b7003132200085
:1006a80091407800c0cfb30000c0600023e3b700da
:1006b800013220009140780000ceb30000c07000e5
:1006c80020e3b7001132200091407800c0cfb3007a
:1006d80000c0600021e3b7003023a80021e3a80090
:1006e8000080fa00000006000200fa000000eb009b
:1006f800000f780021e3a8002023a80020c3bf0032
:10070800614060000004e000fcff32000018800037
:10071800000f780021e3a9001e0078000080fa008d
:0407280000000600c7
:020000040000fa
:04072c0000000000c9
:00000001FF
