:04000000B6EF3DF02A
:107B6C00326A316A000170EF3FF0000E026E000EB7
:107B7C00016E8088000E026E000E016E0250800AAB
:107B8C00800F640ED8B4015CD8B003D0014A022A2D
:107B9C00F5D780981200000E0C6E0A50800AF36E16
:107BAC00800EF35C000ED8B4095CD8B006D0096C1A
:107BBC000A1ED8B00A2A010E0C6E09C001F00AC0C8
:107BCC0002F0036A8E0E046E0CC005F047EC3EF01A
:107BDC0001C009F002C00AF003C00BF01200000E45
:107BEC00066E0450800AF36E800EF35C000ED8B45F
:107BFC00035CD8B006D0036C041ED8B0042A010E66
:107C0C00066E0250800AF36E800EF35C000ED8B440
:107C1C00015CD8B006D0016C021ED8B0022A010E4D
:107C2C00061A000E086E000E076E04500310D8B42E
:107C3C001CD0010E056E04D0D89003360436052AEC
:107C4C0004AEFAD7D890073608360350015C0450BE
:107C5C000258D8A005D00350015E0450025A078088
:107C6C00D89004320332052EEDD70650D8B404D088
:107C7C00076C081ED8B0082A07C001F008C002F033
:107C8C0012000450D8B405D0015002100310D8A42F
:107C9C000CD0000E016E000E026E000E036E44D06E
:107CAC00042AD890033202320132000E0114066EFF
:107CBC00000E0214076EFE0E0314086E0650071019
:107CCC000810D8B40CD0ECD7042A010E0126000EF3
:107CDC000222000E0322D890033202320132000E2F
:107CEC000114066E000E0214076EFF0E0314086ECC
:107CFC00065007100810D8B406D0E6D70406D89062
:107D0C0001360236033602AEF9D704A0029ED89093
:107D1C000432045003120550D8A4038E01C001F0A4
:107D2C0002C002F003C003F012001EC020F0216A52
:107D3C00226A1D34203601E3218020502A6E2A66E7
:107D4C0001D038D0170E206E1CC021F01DC022F0BF
:107D5C001EC023F02028246E04D0D8902332223267
:107D6C002132242EFAD72150256E1D8EFF0E1C16A3
:107D7C00FF0E1D16000E1E161C50266E1D50276E73
:107D8C001E50286E296A8E0E2A5E2AAE10D02A50FA
:107D9C00800A206EF10E800A205CD8A00BD0D890FF
:107DAC0029322832273226322A3EF9D714D0170E20
:107DBC002A640FD0000E1C6E000E1D6E000E1E6E7F
:107DCC00000E1F6E1BD0D890263627362836293643
:107DDC002A062A66F8D72550D8B408D0291E281EA2
:107DEC00271E266C000E27222822292226C01CF0D2
:107DFC0027C01DF028C01EF029C01FF012000FC0B4
:107E0C0013F0146A156A0E34133601E31480135000
:107E1C001A6E1A6601D00CD012C013F0146A156ACF
:107E2C001134133601E3148013501B6E1B6607D0FC
:107E3C00000E0D6E000E0E6E000E0F6E4AD0000E70
:107E4C00166E000E176E000E186E1B50890F1A5E00
:107E5C000FC01BF012501B1A800E1B160E8EFF0E3D
:107E6C000D16FF0E0E16000E0F16118EFF0E1016AD
:107E7C00FF0E1116000E1216180E196ED89016362B
:107E8C001736183610500D5C11500E5812500F58F2
:107E9C00D8A007D010500D5E11500E5A12500F5A28
:107EAC001680D8900D360E360F36192EE7D716C021
:107EBC0001F017C002F018C003F01AC004F01BC088
:107ECC0005F047EC3EF001C00DF002C00EF003C00F
:107EDC000FF01200000E306E000E2F6E949E9390D9
:107EEC009392949C928692988098100ECD6EC16855
:107EFC00000E306E000E2F6E3050800A7F0FF40E85
:107F0C00D8B42F5CD8B003D02F4A302AF5D7BBECAD
:107F1C003DF0EED780A6FED7CD8080B6FED7CD90B3
:107F2C00000E306E000E2F6ECF502C6E2B6ACE5082
:107F3C002D6E2E6A2B502D102F6E2C502E10306E55
:107F4C00480E106E6B0E116E420E126E2FC009F0A1
:107F5C0030C00AF0D1EC3DF009C00DF00AC00EF0B3
:107F6C000BC00FF005EC3FF00DC01CF00EC01DF067
:107F7C000FC01EF09BEC3EF01CC02BF01DC02CF073
:107F8C001EC02DF01FC02EF02BC02FF02CC030F0D7
:107F9C003050800A800F020ED8B42F5CD8A000EFAE
:107FAC0000F03050800AF36E810EF35C910ED8B461
:107FBC002F5CD8B000EF00F02FC001F030C002F001
:107FCC00000E046E0A0E036EF5EC3DF001C02FF0AE
:107FDC0002C030F02FC001F030C002F0000E046E71
:107FEC000A0E036EF5EC3DF001C02FF002C030F02C
:047FFC0000EF00F0A2
:020000040020DA
:08000000FFFFFFFFFFFFFFFF00
:020000040030CA
:0E000000270B1F1EFF0381FF0FC00FE00F40F4
:00000001FF
