:040000000AEF00F013
:10000800E9CFADF3EACFAEF375ED16F000EE00F0F0
:10001800600EEE6AE806FDE101EE00F012EE00F077
:100028001AEC00F0000EF86ECDEF11F0EE6AE55014
:10003800E150FCE1E250FAE1120009C0E1FFE1669B
:1000480001D0CDD1E150020FE96EEA6AEF504A6F54
:100058004AA1C5D1E1501C0FE96EEA6AEECF4AF316
:10006800EECF4BF3EECF4CF3EECF4DF335514A5D67
:1000780036514B5937514C5938514D590CE2E150D2
:100088001C0FE96EEA6AEECF35F3EECF36F3EECF0A
:1000980037F3EECF38F3E150180FE96EEA6AEECF86
:1000A8003EF3EECF3FF3EECF40F3EECF41F3E15016
:1000B800180FE96EEA6AEE6AEE6AEE6AED6A38517E
:1000C80035113611371101E18AD1E128E96EEA6A62
:1000D800EF504A6F4AC34BF34C6B4D6B4E6B090E96
:1000E800D8904B374C374D374E37E82EF9D74BC39E
:1000F80042F34CC343F34DC344F34EC345F341515C
:100108003E113F11401101E18AD042C35AF343C363
:100118005BF344C35CF345C35DF3FF0E3525566FAF
:10012800FF0E3621576FFF0E3721586FFF0E38210B
:10013800596F5AEC15F056C34AF357C34BF358C3DB
:100148004CF359C34DF342C35AF343C35BF344C35F
:100158005CF345C35DF3FF0E3E25566FFF0E3F214E
:10016800576FFF0E4021586FFF0E4121596F5AEC0F
:1001780015F056514A5D57514B5958514C595951E0
:100188004D594DE3FF0E42254A6FFF0E43214B6F39
:10019800FF0E44214C6FFF0E45214D6F4A1F4B1F28
:1001A8004C1F4D1FFF0E3E254E6FFF0E3F214F6F18
:1001B800FF0E4021506FFF0E4121516F4A514E15DD
:1001C800526F4B514F15536F4C515015546F4D5141
:1001D8005115556FE150180FE96EEA6A52C3EEFFE8
:1001E80053C3EEFF54C3EEFF55C3EDFFE150180FA4
:1001F800E96EEA6AEE50355FEE50365BEE50375BDB
:10020800ED50385BE150240FE96EEA6AEECF46F311
:10021800EECF47F3EECF48F3EECF49F318D0E150D5
:10022800200FE96EEA6AEECF46F3EECF47F3EECF42
:1002380048F3EECF49F3E150240FE96EEA6A46C36A
:10024800EEFF47C3EEFF48C3EEFF49C3EEFFE1CF21
:1002580039F33551425D3651435937514459385174
:10026800455955E246C37DF347C37EF348C37FF340
:1002780049C380F3EBEC06F07DC346F37EC347F336
:100288007FC348F380C349F339C3E1FF020E465DDB
:10029800000E4759000E4859000E495901E299D0FD
:1002A800E150080FE96EEA6AEECF4AF3EECF4BF35E
:1002B800EECF4CF3EECF4DF34A51465D4B514759C3
:1002C8004C5148594D51495901E383D0E150240F0D
:1002D800E96EEA6A46C3EEFF47C3EEFF48C3EEFF86
:1002E80049C3EEFFE150180FE96EEA6A4251EE2663
:1002F8004351EE224451EE224551ED224251355FE1
:100308004351365B4451375B4551385BA2D739C3FB
:10031800E1FFE150180FE96EEA6A3551EE263651D1
:10032800EE223751EE223851ED2246C37DF347C302
:100338007EF348C37FF349C380F37CEC14F07DC39C
:100348003AF37EC33BF37FC33CF380C33DF33D5197
:100358003A113B113C113DE0E150030FE96EEA6AA6
:1003680035C34AF336C34BF337C34CF338C34DF3A5
:100378000A0E05D0D8904D334C334B334A33E82E10
:10038800F9D74A51EF6E35514A6F010E36154B6F4A
:100398004B514A1124E0E150030FE96EEA6AEF502D
:1003A800EF2A3A254A6F000E3B214B6F000E3C2185
:1003B8004C6F000E3D214D6FE150280FE96EEA6A3F
:1003C8004AC3EEFF4BC3EEFF4CC3EEFF4DC3EDFF38
:1003D80006D0E150020FE96EEA6A000EEF6A1200D9
:1003E800396B0C0E376F386B3DEC0BF059EC05F0A0
:1003F800000907E0010E0D6F000E0E6B0F6B106BFE
:10040800A8D100500C0A01106FE102010B51450AF6
:10041800570ED8B40819410ED8B40919560ED8B4D5
:100428000A1962E11C0E03013A6FE00E396F730E70
:10043800386F050E376F860E356F7F0E366FD7EC27
:1004480013F00301396B080E376F386B356B020EEA
:10045800366F59EC05F00050080A011046E100C259
:1004680011F301C212F302C213F303C214F304C25C
:1004780019F305C21AF306C21BF307C21CF321D1F4
:100488001C0E3A6FE00E396F550E386F050E376F38
:10049800970E356F7F0E366FD7EC13F0650E35EC7F
:1004A8000BF023E2100E35EC0BF01FE3396B19C388
:1004B80037F31AC338F33DEC0BF059EC05F0005054
:1004C800316F0150326F336B346B1C51341908E1B2
:1004D8001B51331905E11A51321902E11951311929
:1004E80004E10201000506E003010D6B0E6B0F6BC2
:1004F800106B2FD102C24CF04D6A4C044D1004E031
:100508004C50020A4D10F0E14C044D1010E11C0E45
:1005180003013A6FE00E396F460E386F0A0E376FD7
:10052800FA0E356F7F0E366FD7EC13F013D04C50A0
:10053800020A4D100FE11C0E03013A6FE00E396FED
:10054800460E386F0A0E376FEE0E356F7F0E366F18
:10055800D7EC13F002010EC24EF04F6A4E50080A53
:100568004F1004E04E50100A4F10BEE14E50080ADA
:100578004F1010E11C0E03013A6FE00E396F460E62
:10058800386F370E376FE70E356F7F0E366FD7EC43
:1005980013F013D04E50100A4F100FE11C0E030138
:1005A8003A6FE00E396F460E386F370E376FDF0E31
:1005B800356F7F0E366FD7EC13F004C215F305C202
:1005C80016F306C217F307C218F315C335F316C39B
:1005D80036F317C337F318C338F3BDEC16F015C359
:1005E80039F316C33AF317C33BF318C33CF3B60EFB
:1005F800376F7F0E386F1D0E356F030E366F13EC95
:100608000AF01C0E3A6FE00E396F3C0E386F0A0E76
:10061800376F1D0E356F030E366FCDEC14F011D702
:100628001C0E3A6FE00E396F280E386F050E376FC3
:10063800750E356F7F0E366FD7EC13F019C30DF3B7
:100648001AC30EF31BC30FF31CC310F382D01C0E86
:100658003A6FE00E396F280E386F050E376F510E5E
:10066800356F7F0E366FD7EC13F019512224356F92
:100678001A512320366F1B512420376F1C51252017
:10068800386F21EC00F01C0E3A6FE00E396F280E1F
:10069800386F050E376F630E356F7F0E366FD7ECE8
:1006A80013F0CFD61C0E3A6FE00E396F280E386F54
:1006B800050E376F010E356F7F0E366FD7EC13F0CE
:1006C80014D711C331F312C332F313C333F314C372
:1006D80034F335D005D03151660A01E1D1D6E2D7DD
:1006E80032516D0AF8E0DED704D031514C0AAFE040
:1006F800D9D73251490AF9E0D5D704D03151640A23
:100708008FE0D0D73251610AF9E0CCD704D031510B
:10071800660AABE0C7D73251610AF9E0C3D7335153
:10072800740AD8E0BFD73351530ADEE0BBD7335140
:10073800740AE3E0B7D73351630AE8E0B3D734511A
:10074800200AEDE0740AEFE0350AF1E0150AF3E05B
:10075800A9D71200E8CFD9FF096AD9CF01F3D96622
:1007680001D0A1D102EC0EF00301366F36A102D000
:10077800020E9AD10A6B0B6B0C6B0D6B0AC34BF311
:100788006DEC0BF015EC15F00301006F000522E18C
:10079800100E9E6F9F6BBE0E9C6F010E9D6F60ECDE
:1007A8000BF0B1EC12F0000902E0030E11D00301C6
:1007B800165110E01AC30AF31BC30BF31CC30CF346
:1007C8001DC30DF30AC34BF36DEC0BF015EC15F0DC
:1007D8000301006F0051030A10E0005102E0070E08
:1007E80063D1240E9E6F9F6B0D0E9C6F9D6B60EC0A
:1007F8000BF0B1EC12F0000902E0010E55D1030133
:100808001BC30EF31CC30FF3106B116B01C3E1FF85
:1008180011510E110F11101108E129C30EF32AC34B
:100828000FF32BC310F32CC311F315514B6F4C6B03
:100838004D6B4E6B0E0E496F030E4A6F9AEC16F015
:1008480013510A25366F14510B21376F000E0C21F6
:10085800386F000E0D21396FE1500C0FE96EEA6A0E
:1008680036C3EEFF37C3EEFF38C3EEFF39C3EDFFE3
:10087800E128E96EEA6A12C3EFFFE150040FE96E5E
:10088800EA6A16C3EEFF17C3EDFF18C306F319C3D0
:1008980007F3086B096B095106110711081108E1E4
:1008A80025C306F326C307F327C308F328C309F3B0
:1008B800E128E96EEA6AEF505A6F5B6B5C6B5D6B1F
:1008C800E150040FE96EEA6AEECF36F3EDCF37F365
:1008D800040E386FD89037333633382FFBD736515C
:1008E800396F37513A6F3B6B3C6B13513D6F145165
:1008F8003E6F3F6B406B3D1F3E1F3F1F401F3D2B10
:10090800000E3E233F23402339513D5D416F3A514C
:100918003E59426F3B513F59436F3C514059446FD8
:100928000E51415D456F0F514259466F1051435961
:10093800476F11514459486F06514525566F075165
:100948004621576F08514721586F09514821596F5F
:100958005AEC15F0020E5625026F000E5721036F50
:10096800000E5821046F000E5921056FE150080F41
:10097800E96EEA6A02C3EEFF03C3EEFF04C3EEFFAB
:1009880005C3EEFF010EF36EF70E025D0F0E5AEC73
:100998000BF002E3020EF36EF70E025DFF0E5AEC47
:1009A8000BF002E3030EF36EE150E96EEA6AF3CF4F
:1009B800EFFFF350030A0DE1E150100FE96EEA6A08
:1009C80031C3EEFF32C3EEFF33C3EEFF34C3EEFF95
:1009D80024D0E1500C0FE96EEA6AEECF36F3EECF81
:1009E80037F3EECF38F3EECF39F30E5136253A6FA1
:1009F8000F5137213B6F105138213C6F115139216C
:100A08003D6FE150100FE96EEA6A3AC3EEFF3BC34F
:100A1800EEFF3CC3EEFF3DC3EDFFE1500C0FE96E66
:100A2800EA6AEECF36F3EECF37F3EECF38F3EECFF8
:100A380039F3E150040FE96EEA6AEECF3AF3EDCFED
:100A48003BF3040E3C6FD8903B333A333C2FFBD733
:100A58003A5136253D6F3B5137213E6F000E382104
:100A68003F6F000E3921406F0E513D25416F0F51E8
:100A78003E21426F10513F21436F11514021446F75
:100A8800E150140FE96EEA6A41C3EEFF42C3EEFF7C
:100A980043C3EEFF44C3EDFFE150020FE96EEA6A7B
:100AA800EF6AE1CF09F0000E120035C33CF336C3FC
:100AB8003DF309C0E1FF3951E96EEA6A000EEE6ABA
:100AC800ED6AE16602D0060E81D1E150020FE96EAF
:100AD800EA6AEF504C6F4CB102D0050E77D1E15065
:100AE800180FE96EEA6AEECF4CF3EECF4DF3EECF76
:100AF8004EF3EECF4FF3E1501C0FE96EEA6AEECFEA
:100B080050F3EECF51F3EECF52F3EECF53F34C51F7
:100B1800505D406F4D515159416F4E515259426F7E
:100B28004F515359436F37514C6F38514D6F4E6B7E
:100B38004F6B4C51405D4D5141594E5142594F51A7
:100B4800435904E240C337F341C338F338513711EE
:100B580001E134D1E150180FE96EEA6AEECF4CF3A7
:100B6800EDCF4DF34C514E6F010E4D154F6F4F5158
:100B78004E1101E0B9D0E1CF3BF3E128E96EEA6A12
:100B8800EF50586F596B5A6B5B6BE150180FE96E59
:100B9800EA6AEECF4CF3EECF4DF3EECF4EF3EECF45
:100BA8004FF30A0E05D0D8904F334E334D334C33A4
:100BB800E82EF9D74CC354F34DC355F34EC356F33F
:100BC8004FC357F326EC16F05751541155115611CF
:100BD80050E13B51240FE96EEA6AEECF7DF3EECF88
:100BE8007EF3EECF7FF3EECF80F3EBEC06F07DC320
:100BF80048F37EC349F37FC34AF380C34BF33BC337
:100C0800E1FFE150180FE96EEA6AEECF4CF3EECF40
:100C18004DF3EECF4EF3EECF4FF34F514C114D1134
:100C28004E110CE1E150200FE96EEA6AEECF48F36D
:100C3800EECF49F3EECF4AF3EECF4BF3020E485D09
:100C4800000E4959000E4A59000E4B5901E2B8D01E
:100C5800E150240FE96EEA6A48C3EEFF49C3EEFF8C
:100C68004AC3EEFF4BC3EEFFE150030FE96EEA6A99
:100C7800EF6A3BC3E1FFE150240FE96EEA6AEECF69
:100C88007DF3EECF7EF3EECF7FF3EECF80F37CECF7
:100C980014F07DC344F37EC345F37FC346F380C39A
:100CA80047F3475144114511461101E189D0E150FC
:100CB800030FE96EEA6AEF50EF2A44254C6F000EE5
:100CC80045214D6F000E46214E6F000E47214F6F94
:100CD800E150280FE96EEA6A4CC3EEFF4DC3EEFF00
:100CE8004EC3EEFF4FC3EDFFE150180FE96EEA6AFD
:100CF800EECF4CF3EDCF4DF34C514E6F010E4D1529
:100D08004F6F4E5100083E6F4F51D8A0E82A020895
:100D18003F6F3E51375D3F51385904E237C33EF3C8
:100D280038C33FF3E1CF3BF33651351105E03CC3FF
:100D380096F33DC397F302D0966B976B3EC39EF331
:100D48003FC39FF33B51180FE96EEA6AEECF4CF3AD
:100D5800EDCF4DF34C519C6F010E4D159D6F3B51DE
:100D6800280FE96EEA6AEECF98F3EECF99F3EECF4B
:100D78009AF3EECF9BF3B1EC12F003013A6F3BC349
:100D8800E1FF3A511DE1E150180FE96EEA6A3E5160
:100D9800EE263F51EE22000EEE22ED223E513C2778
:100DA8003F513D233E51375F3F51385B3951E96E22
:100DB800EA6A3E51EE263F51ED22C8D6000E06D013
:100DC800E150020FE96EEA6AEF6A010E120009C0EB
:100DD800D9FF020E7D5D000E7E59000E7F59000E70
:100DE800805916E3D950080FE96EEA6AEECF8CF302
:100DF800EECF8DF3EECF8EF3EECF8FF38C517D5D7A
:100E08008D517E598E517F598F51805901E200D101
:100E1800010E0ED17DC386F37EC387F3D890873148
:100E28008D6F86318C6F8C5186278D518723865123
:100E3800846F010E8715856F090E8C6FD8908733E4
:100E480086338C2FFBD78429D8B485050CE0020E95
:100E58009E6F9F6B84C39CF385C39DF389EC0BF055
:100E6800B1EC12F03BD0010E9E6F9F6B9C699D6F99
:100E780089EC0BF0B1EC12F0000901E0D7D0010EBB
:100E880003019E6F9F6B9C6B9D6B83510C0FE96EEA
:100E9800EA6AEECF8CF3EECF8DF3EECF8EF3EECF82
:100EA8008FF386518C25906F87518D21916F000E9D
:100EB8008E21926F000E8F21936F9029986F000EEC
:100EC8009121996F000E92219A6F000E93219B6FCA
:100ED800890E966F030E976FB1EC12F0000901E0CE
:100EE800A5D088C3F3FF89C3F4FFF3500301816FD2
:100EF8000F0EF414826F7DA10FD0F3CF8CF3F4CFD3
:100F08008DF3040E8E6FD8908D338C338E2FFBD7D4
:100F18008CC381F38DC382F381C37DF382C37EF3D7
:100F280031D0020E9E6F9F6B7D518C6F8D6BD89068
:100F38008C359C6F8D359D6F83510C0FE96EEA6A75
:100F4800EECF8EF3EECF8FF3EECF90F3EECF91F39B
:100F58007DC392F37EC393F37FC394F380C395F369
:100F680093C392F394C393F395C394F3956B78EC7E
:100F78000BF0B1EC12F0000959E1030188C37DF3CD
:100F880089C37EF37F6B806B58D0040E9E6F9F6B76
:100F98007F0E7D158C6F8D6BD8908C378D37D890E0
:100FA8008C378D378CC39CF38DC39DF383510C0F05
:100FB800E96EEA6AEECF8EF3EECF8FF3EECF90F3C1
:100FC800EECF91F37DC392F37EC393F37FC394F383
:100FD80080C395F3080E05D0D89095339433933396
:100FE8009233E82EF9D778EC0BF0B1EC12F0000947
:100FF8001DE1030103EE88F0FF0EEE147D6FFF0E76
:10100800EE147E6FFF0EEE147F6F0F0EEE1414D0E9
:10101800D9CF83F3D950E96EEA6AEF50010A01E1AA
:10102800F9D6030A01E17DD7010AAFE0010E0301F9
:101038007D6F000E7E6B7F6B806F1200E8CF00F330
:10104800005158EC11F0000901E003D1F4EC01F073
:101058000DC303F30EC304F30FC305F310C306F364
:101068001C0E3A6FE00E396F640E386F0F0E376F33
:1010780000C335F3366F5F0E3565366BD7EC13F06A
:10108800000E035D010E0459000E0559000E0659A5
:1010980001E2DFD01C0E3A6FE00E396F140E386F84
:1010A8000A0E376FD20E356F7F0E366FD7EC13F0FE
:1010B800F90E94164C50020A4D1037E14E50100AA2
:1010C8004F1033E1396B52EC0BF059EC05F0076B1C
:1010D800086B096B0A6B07C30BF308C30CF3D890B2
:1010E8000B370C37D8900B370C37010E03010B2543
:1010F800E96E020E0C21EA6EEF50016F026B01AF30
:1011080002D0016B026B015131EC17F00301072B80
:10111800000E082309230A23400E4AEC0BF0DBE3F8
:101128000104001001E093D0CDD74C044D102CE100
:101138004E50100A4F1028E1396B52EC0BF059EC65
:1011480005F0076B086B096B0A6BD89007350B6FB6
:1011580008350C6F010E03010B25E96E020E0C21F8
:10116800EA6EEF50F36EF46AF3AE02D0F36AF46AF3
:10117800F35031EC17F042EC0BF04AEC0BF0E5E3DE
:101188000104001064E1D8D74C50020A4D1025E143
:101198004E50080A4F1021E1396B52EC0BF059EC14
:1011A80005F0076B086B096B0A6BD89007350B6F56
:1011B80008350C6F000E03010B25E96E020E0C2199
:1011C800EA6EEF5031EC17F042EC0BF04AEC0BF002
:1011D800ECE3010400103BE1DFD74C044D1029E19A
:1011E8004E50080A4F1025E1396B52EC0BF059ECC0
:1011F80005F0076B086B096B0A6B000E03010725E6
:10120800E96E020E0821EA6EEF5031EC17F0030187
:10121800072B000E082309230A23075D010E08592E
:10122800000E0959000E0A59E8E3010400100FE105
:10123800DBD71C0E3A6FE00E396F1E0E386F0A0EA0
:10124800376FC50E356F7F0E366FD7EC13F0060E6D
:1012580094121200D00E9216898689804E0E0301D0
:10126800006FEB0EE82EFED7002FFCD789909C0E5E
:101278000301006FD70EE82EFED7002FFCD7898018
:1012880089960301476B010EFDEC16F00301476BCD
:10129800110EFDEC16F00301476B030EFDEC16F082
:1012A8009C0E0301006FD70EE82EFED7002FFCD747
:1012B8000301476B290EFDEC16F00301476B200E66
:1012C800FDEC16F00301476B3A0EFDEC16F0010E2B
:1012D8000301476F020EFDEC16F00301476B2D0E5C
:1012E800FDEC16F0010E0301476F000EFDEC16F041
:1012F800010E0301476F020EFDEC16F0010E03010B
:10130800476F040EFDEC16F0010E0301476F060E41
:10131800FDEC16F0010E0301476F080EFDEC16F008
:10132800010E0301476F0A0EFDEC16F0010E0301D2
:10133800476F0C0EFDEC16F0010E0301476F0F0E00
:10134800FDEC16F0010E0301476F000EFDEC16F0E0
:10135800010E0301476F020EFDEC16F0010E0301AA
:10136800476F040EFDEC16F0010E0301476F060EE1
:10137800FDEC16F0010E0301476F080EFDEC16F0A8
:10138800010E0301476F0A0EFDEC16F0010E030172
:10139800476F0C0EFDEC16F0010E0301476F0F0EA0
:1013A800FDEC16F0010E0301476F000EFDEC16F080
:1013B800010E0301476F040EFDEC16F0010E030148
:1013C800476F090EFDEC16F0010E0301476F0F0E73
:1013D800FDEC16F0000E0301476BFDEC16F003015F
:1013E800476B360EFDEC16F0010E0301476F800EB9
:1013F800FDEC16F00301476B250EFDEC16F0010E0F
:101408000301476F3C0EFDEC16F01C0E0301046F40
:10141800830E036F026B016F000E3FEF12F0390E5F
:10142800436F030E446FC4D0D950250A09E035C371
:10143800E9FF36C3EAFFD9CFEFFF354B362BB8D0DB
:10144800D96A04D0C0D0D98801D012D037C3F6FFEA
:1014580038C3F7FF374B382B0800F5CFE9FFE950C1
:10146800F1E0640AF2E00D0AF0E0050AECE0A0D031
:1014780043C3E9FF44C3EAFFD9A80DD0040E4327AC
:10148800000E4423EECF45F3EECF46F3EECF47F3FD
:10149800EECF48F30CD0020E4327000E4423EECFC4
:1014A80045F3EDCF46F346BFFF0E476F486F48AF91
:1014B8000AD0030ED912481F471F461F456D000E5C
:1014C800462347234823010EE16EE150040DD90E4F
:1014D800F324F66EF76A7E0EF7220900F550455D93
:1014E8000900F55046590900F55047590900F550CB
:1014F800485904E3E12AE1500A0AE7E1D950030B0D
:1015080008E035C3E9FF36C3EAFF2D0EEF6E354B11
:10151800362BE150416F426B41BF42074107D8A0CB
:10152800420703014129D8B4422942E04151040D40
:10153800D90EF324F66EF76A7E0EF7220900F5CF6E
:101548005AF30900F5CF5BF30900F5CF5CF30A0005
:10155800F5CF5DF345C356F346C357F347C358F376
:1015680048C359F35AEC15F056C33DF357C33EF33D
:1015780058C33FF359C340F30A0E586F000E596B16
:101588005A6B5B6B3DC354F33EC355F33FC356F3ED
:1015980040C357F326EC16F05451300FE16E35C3B3
:1015A800E9FF36C3EAFFE1CFEFFF354B362BB6D75D
:1015B80037C3F6FF38C3F7FF374B382B0800F5CF92
:1015C800D9FFD96631D735C3E9FF36C3EAFFEF6AD9
:1015D800000C6C216E6F6D51F66EE96E030EEA6EAB
:1015E8006E5112005425E96E000E5521EA6EEECFB9
:1015F80059F3EDCF5AF30B0E5925E96E000E5A2117
:10160800EA6EEF501200F66EE96E030EEA6E57515D
:1016180012003551F66EE96E030EEA6E365112006D
:10162800E96EEA6A030EEA221200E96E000E312121
:10163800EA6E2F51120049C3E9FF4AC3EAFFEE528E
:10164800ED50410A460E12004BC398F34CC399F370
:101658004DC39AF34EC39BF349C396F34AC397F31A
:101668001200195D000E1A59000E1B59000E1C5964
:1016780012000301356B020E366F12000301072BAF
:10168800000E082309230A23800E1200075D000EAE
:101698000859000E0959000E0A591200376B010E3D
:1016A800386F0301356B020E366F12000359000EB6
:1016B8000459000E055912000AC398F30BC399F395
:1016C8000CC39AF30DC39BF3120E966F030E976F1C
:1016D80012000BC34CF30CC34DF30DC34EF3120EA3
:1016E800496F030E4A6F12008E519225986F8F51E1
:1016F8009321996F905194219A6F915195219B6FE5
:10170800880E966F030E976F120083510C0FE96EC7
:10171800EA6AEECF8CF3EECF8DF3EECF8EF3EECFF9
:101728008FF386518C25986F87518D21996F000E04
:101738008E219A6F000E8F219B6F880E966F030E75
:10174800976F12006C25E96E000E6D21EA6EEECFE0
:1017580075F3EECF76F3EECF77F3EECF78F37851DB
:101768007511761177111200565107EC0BF0EA64E7
:1017780003D0EA6EEF5003D0F76E0800F550200A48
:1017880003E1564B572BF0D7565107EC0BF0EA64A0
:1017980003D0EA6EEF5003D0F76E0800F5502F0A19
:1017A80002E1564B572B040E5425E96E000E5521C5
:1017B800EA6EEE6AEE6AEE6AED6A565107EC0BF0D5
:1017C800EA6403D0EA6EEF5003D0F76E0800F550D4
:1017D800596F210E595D15E254C36CF355C36DF36F
:1017E80057EC0FF0586F0950060FE96EEA6AEECF12
:1017F80059F3EDCF5AF359C3E9FF5AC3EAFFEF6A29
:1018080076D0560E676F030E686F54C365F355C3E1
:1018180066F37DEC0CF0586F585169E154C365F3D9
:1018280055C366F364EC10F0586F585108E05851EE
:10183800030A5DE1020EF6EC0AF059E11AD0020E35
:10184800F6EC0AF054E10950060FE96EEA6AEECFA9
:1018580059F3EDCF5AF359C3E1FF5AC3E2FF0B0E18
:10186800E124E96E000EE220EA6EEF50596F59B993
:1018780003D0040E586F3BD01A0EE124E96E000E17
:10188800E220EA6EEECF59F3EDCF5AF3140EE124BD
:10189800E96E000EE220EA6EEECF5BF3EDCF5CF36B
:1018A8005B515D6F5C515E6F5F6B606B5EC360F335
:1018B8005DC35FF35E6B5D6B59515D11616F5A518A
:1018C8005E11626F000E5F11636F000E6011646F2E
:1018D800040E5425E96E000E5521EA6E61C3EEFF31
:1018E80062C3EEFF63C3EEFF64C3EDFF8AD75851AE
:1018F8001200020E6525E96E000E6621EA6EEECF33
:101908006DF3EDCF6EF36DC3D9FF6EC3DAFF0B0E27
:10191800766F776B200E746F000E756BD9CF72F3EC
:10192800DACF73F36EEC17F0F36AF46A080E6A6F95
:1019380067C3E9FF68C3EAFFEECF6BF3EDCF6CF343
:10194800F4506B256D6FE86AF4BEE868EDEC0AF0B8
:10195800EA6403D0EA6EEF5003D0F76E0800F55042
:10196800E16EF42A200EE16468D0E1502F0A65E0A8
:10197800E1502E0A03E06A51F35C0BE36A51080A4E
:101988005CE1E1502E0A59E1080EF36E0B0E6A6F06
:10199800D7D7800EE16403D09F0EE16406D0DF0E36
:1019A800E1643AD0FD0EE16037D0FF0E6A256D6F15
:1019B8006E6BFF0E6E23F3CF6FF3706B7051800A5E
:1019C800716F6D516F5D6E51800A715925E3F45046
:1019D8006B256D6FE86AF4BEE868EDEC0AF0EA641E
:1019E80003D0EA6EEF5003D0F76E0800F550696F28
:1019F800F42AF350D924E96E000EDA20EA6EE1CF1A
:101A0800EFFFF32AF350D924E96E000EDA20EA6ECC
:101A180069C3EFFFF32A94D7600EE16405D07B0E0B
:101A2800E16002D0200EE15EF350D924E96E000E89
:101A3800DA20EA6EE1CFEFFFEDD7F4506B256D6F3A
:101A4800E86AF4BEE8686C216E6F67C3E9FF68C393
:101A5800EAFF6DC3EEFF6EC3EDFF0B0ED924E96EEE
:101A6800000EDA20EA6E200EE16401D002D0010EE9
:101A780001D0000EEF6E000C09C0D9FF6CC3E9FF5E
:101A88006DC3EAFFEECF75F3EDCF76F375296F6F6F
:101A9800000E7621706F70516F117EE00C0EA6EC6F
:101AA8000BF07AE06F510F0B01E09ED00C0E6C2505
:101AB800E96E000E6D21EA6EEE2A000EEE22EE228D
:101AC800ED22080EA6EC0BF00FE1D950040FE96ED9
:101AD800EA6AEECF75F3EDCF76F375516F5D765107
:101AE800705901E281D058D0D9CF6EF36FC375F326
:101AF80070C376F3040E776FD89076337533772FEB
:101B0800FBD7D928E96EEA6AEF50786FFF0F796F33
:101B18007A6BFF0E7A23755179157B6F76517A159A
:101B28007C6F7C517B1160E1080E6C25E96E000E1C
:101B38006D21EA6EEECF7DF3EECF7EF3EECF7FF32D
:101B4800EECF80F3EBEC06F07DC371F37EC372F346
:101B58007FC373F380C374F3020E715D000E725974
:101B6800000E7359000E745902E2010E46D06E51F0
:101B7800080FE96EEA6AEECF75F3EECF76F3EECF93
:101B880077F3EECF78F37551715D765172597751CD
:101B980073597851745902E3030E2FD0080E6C253F
:101BA800E96E000E6D21EA6E71C3EEFF72C3EEFF9F
:101BB80073C3EEFF74C3EEFF71C37DF372C37EF38C
:101BC80073C37FF374C380F37CEC14F00C0E6C25A4
:101BD800E96E000E6D21EA6E7DC3EEFF7EC3EEFF57
:101BE8007FC3EEFF80C3EDFF6CC3E9FF6DC3EAFF5F
:101BF8006FC3EEFF70C3EDFF000E12007FEC17F00D
:101C0800640EE16E03D0C3EC17F0E106E166FBD782
:101C1800D96A0301A46BA56BA66BA76B400EE2EC17
:101C280010F00301506F500501E08DD0AA0EA46F8B
:101C3800010EA56FA66BA76B480EE2EC10F0000929
:101C480049E1F36A03014C0EF32414EC0BF0C3ECE6
:101C580017F0EF6EF32A030EF364F4D74E0573E121
:101C68004F51AA0A70E1E00E4A6F2E0E4B6F0ED04C
:101C7800A46BA56BA66B400EA76FE90EE2EC10F003
:101C8800000907E003014A07D8A04B074B514A1146
:101C9800EFE103014B514A1156E0A46BA56BA66B0B
:101CA800A76B7A0EE2EC10F000094DE1E16A03013E
:101CB8004C0EE12414EC0BF0C3EC17F0EF6EE12AA4
:101CC800030EE164F4D7040ED96E4CAD3CD00C0E73
:101CD800D96E39D00301A46BA56BA66BA76BE90E6F
:101CE800E2EC10F00301506F020E505D04E2020EA8
:101CF800D96EE90E03D0010ED96E410E496FA80EB8
:101D08004A6F610E4B6F0DD0A46BA56BA66BA76BCA
:101D18004951E2EC10F0000907E003014A07D8A096
:101D28004B074B514A11F0E103014B514A110AE0AC
:101D3800A46B020EA56FA66BA76B500EE2EC10F019
:101D48000009D8A4D96AD9CF06F0C8EC17F0D95041
:101D580002E0F00EC616D95002E1010E01D0000EC5
:101D68001200E8CFF4FF2F51090FD96EF4500C0F71
:101D7800E96EEA6AEECF32F3EECF33F3EECF34F307
:101D8800EECF35F3355132113311341101E186D0DC
:101D98000950060FE96EEA6AEECF32F3EDCF33F35E
:101DA80032C3E1FF33C3E2FFF46AF450E124E96E81
:101DB800000EE220EA6EEF50F36EF350200A0FE0B7
:101DC800F350050A02E1E50EF36ED950E96EEA6AAE
:101DD800F3CFEFFFD92AF42A070EF464E6D7E1CF50
:101DE80030F3E2CF31F3080EE124E96E000EE22071
:101DF800EA6EEF50200A1EE0D950E96EEA6A2E0E0C
:101E0800EF6ED92A080EF36EF35003013025E96E00
:101E1800000E3121EA6EEF50E16EE150200A0AE02F
:101E2800D950E96EEA6AE1CFEFFFD92AF32A0A0E00
:101E3800F364EAD70B0E03013025E96E000E312159
:101E4800EA6E2F51080FE16EE26AEFCFE7FF1C0E32
:101E5800302519EC0BF0E16EE26AEECFE6FFEECF2B
:101E6800E6FFEECFE6FFEDCFE5FF180E3025E96E71
:101E7800000E3121EA6E2F51040FE16EE26AEECFB7
:101E8800E6FFEDCFE5FF160E302519EC0BF0060F37
:101E9800E16EE26AEECFE6FFEDCFE5FFD950E96EDD
:101EA800EA6AEF6A000C09C0D9FF6CC3E9FF6DC389
:101EB800EAFFEE6AED6A040E6C25E96E000E6D21EC
:101EC800EA6EEECF72F3EECF73F3EECF74F3EECF8C
:101ED80075F3720573117411751115E0D950080F57
:101EE800E96EEA6AEECF76F3EECF77F3EECF78F3CA
:101EF800EECF79F37651725D7751735978517459F1
:101F08007951755902E3010E57D075517211731149
:101F1800741112E1D950E96EEA6A030EEF620CD02F
:101F2800D950100FE96EEA6AEECF72F3EECF73F371
:101F3800EECF74F3EECF75F3080E6C25E96E000E44
:101F48006D21EA6E72C3EEFF73C3EEFF74C3EEFF3A
:101F580075C3EEFFD950100FE96EEA6AEECF6EF343
:101F6800EECF6FF3EECF70F3EECF71F375517211C0
:101F78007311741112E072C37DF373C37EF374C3DB
:101F88007FF375C380F37CEC14F07DC36EF37EC3DE
:101F98006FF37FC370F380C371F30C0E6C25E96E89
:101FA800000E6D21EA6E6EC3EEFF6FC3EEFF70C3C5
:101FB800EEFF71C3EEFF000E1200E8CF2FF3030E01
:101FC800306F0950060FE96EEA6AEECF31F3EDCFB4
:101FD80032F32F510C0FE96EEA6AEECF33F3EECFEE
:101FE80034F3EECF35F3EECF36F3365133113411E7
:101FF80035115AE0200E9E6F9F6B2F51E96EEA6AE9
:10200800EECF33F3EDCF34F30F0E3317346B050EE9
:10201800D89033373437E82EFBD733C39CF334C317
:102028009DF32F510C0FE96EEA6AEECF98F3EECFCD
:1020380099F3EECF9AF3EECF9BF331C396F332C305
:1020480097F3B1EC12F0000902E0010E01D0000E86
:102058000301306F305128E131C3E9FF32C3EAFF91
:10206800EF50D96ED96603D0030E306F1DD00B0E1A
:102078003125E96E000E3221EA6EEF503F0BE16E1A
:10208800D950E50A05E0D9502E0A02E0E1A60CD0A5
:102098002FC36CF30F0E6D6F5F0E6C656D6B40ECAC
:1020A8000DF0306F305195E0305108E02F510C0F92
:1020B800E96EEA6AEE6AEE6AEE6AED6A305112007B
:1020C80065C36CF366C36DF357EC0FF0E16EE15036
:1020D80002E0E15072D00950060FE96EEA6AEECFCD
:1020E80068F3EDCF69F3200E9E6F9F6B65C3E9FF20
:1020F80066C3EAFFEECF6AF3EDCF6BF30F0E6A17F4
:102108006B6B050ED8906A376B37E82EFBD76AC31E
:102118009CF36BC39DF30C0E6525E96E000E6621DA
:10212800EA6EEECF98F3EECF99F3EECF9AF3EECFB7
:102138009BF368C396F369C397F3B1EC12F00009F7
:1021480002E0010E01D0000E0301676F675134E110
:1021580068C3E9FF69C3EAFFEF50D96ED96603D0B7
:10216800030E676F29D00B0E6825E96E000E6921F2
:10217800EA6EEF506A6F6AB716D00B0E706F716B0C
:10218800020E6525E96E000E6621EA6EEECF6EF34B
:10219800EDCF6FF368C36CF369C36DF3C9EC15F049
:1021A8006D516C1109E065C36CF366C36DF340ECC7
:1021B8000DF0676F675197E067511200E8CFE9FFAC
:1021C8008B8C8B9C17EC17F00301A86FA82902E0F1
:1021D800FF0E69D0E9AE36D0E99EE950A8EC17F0B9
:1021E8000301A751A8EC17F00301A651A8EC17F0BA
:1021F8000301A551A8EC17F00301A451A8EC17F0AE
:10220800010EF36EE950400A02E1950EF36EE950B3
:10221800480A02E1870EF36EF350A8EC17F0E95074
:102228004C0AD8B4C3EC17F00A0EF36EC3EC17F0DF
:10223800E16EE1AE02D0F32EF9D7010EE16402D0CF
:10224800E15031D0E950A8EC17F00301A751A8ECF0
:1022580017F00301A651A8EC17F00301A551A8EC4B
:1022680017F00301A451A8EC17F0010EF36EE95022
:10227800400A02E1950EF36EE950480A02E1870E22
:10228800F36EF350A8EC17F0E9504C0AD8B4C3EC3D
:1022980017F00A0EE16EC3EC17F0F46EF4AE02D03C
:1022A800E12EF9D7F4501200E8CF0DF309C0E1FF91
:1022B800E16602D0060E6CD0E150020FE96EEA6AC0
:1022C800EF6AE150060FE96EEA6A2C0EEE6E030E15
:1022D800ED6EE1CF0FF3100E1E6F030E1F6F0DC3CF
:1022E80056F30F0E576F5F0E5665576B1C0E546FE3
:1022F800030E556FB8EC0BF00E6F0E5102E00E5145
:1023080047D02C5102E037A902D0030E41D00FC3A9
:10231800D9FF40514C6F41514D6F4E6B4F6B4DC3C0
:102328004FF34CC34EF34D6B4C6B46514C11506FF1
:1023380047514D11516F000E4E11526F000E4F1143
:10234800536FD950200FE96EEA6A50C3EEFF51C3AC
:10235800EEFF52C3EEFF53C3EDFFD9501C0FE96ED9
:10236800EA6A48C3EEFF49C3EEFF4AC3EEFF4BC318
:10237800EEFFD950180FE96EEA6AEE6AEE6AEE6A65
:10238800ED6AD950020FE96EEA6A010EEF6E000E8F
:1023980012002EEC09F0898ABAEC17F049EC17F014
:1023A8001C0E03013A6FE00E396F640E386F050E8C
:1023B800376F170E356F7F0E366FD7EC13F01C0E84
:1023C8003A6FE00E396F550E386F0A0E376F2C0EC4
:1023D800356F7F0E366FD7EC13F01C0E3A6FE00E98
:1023E800396F320E386F0A0E376FA70E356F7F0EB2
:1023F800366FD7EC13F00A0EAEEC03F00009CEE10D
:102408001C0E03013A6FE00E396F140E386F0A0E76
:10241800376F3F0E356F7F0E366FD7EC13F049ECF0
:1024280017F0B50E0301006F7F0E016F500E1AEC06
:1024380013F00009B3E115D0F50E006F7F0E016FA0
:102448003F0EF8EC15F000090CE01C0E046F830E2B
:10245800036F026B016F000E3FEC12F03F0E22EC8F
:1024680008F0360E006F500E82EC13F00009D9E127
:102478003F66E2D7D6D7E8CFE9FF025103C30DF391
:102488000E6B0D5F000E0E5B0D2B0E230DC389F333
:102498000EC38AF38ABFFF0E8B6F8C6FE950015D04
:1024A8000F6F106BD8A010071051116F126F0F2902
:1024B800856F000E1021866F000E1121876F000EA8
:1024C8001221886F4FEC16F085C305F386C306F317
:1024D80087C307F388C308F3476B2A0EFDEC16F091
:1024E800010E0301476FE950FDEC16F0010E0301E0
:1024F800476F0151FDEC16F00301476B2B0EFDEC05
:1025080016F0010E0301476F0251FDEC16F0010EA3
:102518000301476F0351FDEC16F00301476B2C0EC6
:10252800FDEC16F00301096B0A6B0B6B0C6B055184
:10253800095D06510A5907510B5908510C590CE20B
:10254800010E476F0451FDEC16F00301092B000E34
:102558000A230B230C23EBD7120006B608D0090E6A
:10256800D890983799379A379B37E82EF9D7010EC4
:10257800D96E98C3A4F399C3A5F39AC3A6F39BC3D2
:10258800A7F3510EE2EC10F000094CE1300E030104
:10259800A06F750EA16F07D0A007D8A0A1070301EF
:1025A800A151A01105E0C3EC17F0E16EE128F4E0B9
:1025B800E150FE0A37E19EC3A2F39FC3A3F3A21F13
:1025C800A31FA24BA32B9C51A25F9D51A35B020E9C
:1025D800A225F36E020EA321F46E9D519C1109E011
:1025E800C3EC17F09C07D8A09D0703019D519C11CF
:1025F800F7E1C3EC17F096C3E9FF97C3EAFFEF6E64
:10260800964B972B9E07D8A09F0703019F519E11B9
:10261800F0E1C3EC17F0F306D8A0F406F450F31079
:10262800F8E1D96AC8EC17F0D9501200E8CF02F3E4
:1026380009C0D9FFD96602D0060E5DD0D950060F61
:10264800E96EEA6A100EEE6E030EED6E0251020F8D
:10265800E96EEA6A040EEE6E030EED6E00C356F3E1
:1026680001C357F302C354F30F0E556F5F0E546541
:10267800556BB8EC0BF0036F036739D002C3E1FF69
:10268800105129E01BA925D02451306F2551316FF5
:10269800326B336B31C333F330C332F3316B306B8E
:1026A8002A513011346F2B513111356F000E321110
:1026B800366F000E3311376FE150040FE96EEA6A86
:1026C80034C3EEFF35C3EEFF36C3EEFF37C3EDFF6D
:1026D80002D0040E036F03670AD0E1CF6CF30F0E2C
:1026E8006D6F5F0E6C656D6B57EC0FF0036F0351E8
:1026F800030A02E1040E036F03511200E8CF01F34D
:1027080009C0D9FFD96602D0060E1BD0D950060FD2
:10271800E96EEA6A0F0EEE6E030EED6E0151020FBE
:10272800E96EEA6A030EEE6E030EED6E00670BD0DB
:1027380001C36CF30F0E6D6F5F0E6C656D6B57EC1C
:102748000FF0026F2ED00151E1EC0FF0026F025131
:10275800030A0AE101510C0FE96EEA6A000EEE6AFB
:10276800EE6AEE6AED6A026B02671BD000C32FF3B4
:102778000151B5EC0EF001C36CF30F0E6D6F5F0ED7
:102788006C656D6B40EC0DF0026F0251030A09E1B4
:1027980001510C0FE96EEA6AEE6AEE6AEE6AED6ABA
:1027A800026B02511200476B360EFDEC16F0010E5B
:1027B8000301476FA00EFDEC16F00301476B2A0ECC
:1027C800FDEC16F0010E0301476F3851FDEC16F0D1
:1027D800010E0301476F3851070FFDEC16F0030196
:1027E800476B2B0EFDEC16F0010E0301476F3751B6
:1027F800FDEC16F0010E0301476F830EFDEC16F099
:102808000301476B2C0EFDEC16F003010DEC0BF0E9
:10281800EA6403D0EA6EEF5003D0F76E0800F55073
:10282800000914E03AC33CF339C33BF30DEC0BF059
:10283800EA6403D0EA6EEF5003D0F76E0800F55053
:102848002BEC14F00301354B362BDFD71200E8CF01
:102858003DF37B0E03013D614AD0200E3D6101D05E
:1028680046D03E6B3F6B3D51050D120EF324406F71
:102878007D0EF420416F3E514027000E4123600E2B
:102888004025426FFF0E4121436F42C3F6FF43C309
:10289800F7FF0800F5CF44F33FC345F3800E466FBA
:1028A800452B02D0D8904633452FFCD746514415C6
:1028B800010E05E0476F3B51FDEC16F004D0476F61
:1028C8003C51FDEC16F003013F2B070E3F65CBD7BB
:1028D8003E2B040E3E65C6D7E96A010E0301476F19
:1028E8003C51FDEC16F0E92A070EE964F6D7120010
:1028F80009C0D9FF020E7D5F000E7E5B7F5B805BA7
:10290800D950080FE96EEA6AFE0EEE24816FFF0EB9
:10291800EE20826FFF0EEE20836FFF0EEE20846F95
:1029280081517D5D82517E5983517F5984518059EF
:1029380005E37D6B7E6B7F6B806B2AD0D950140FBB
:10294800E96EEA6AEECF81F3EECF82F3EECF83F33E
:10295800EECF84F37DC389F37EC38AF37FC38BF301
:1029680080C38CF3D928E96EEA6AEF50856F866BCD
:10297800876B886B4FEC16F0815185257D6F8251EE
:1029880086217E6F835187217F6F84518821806FD4
:102998001200476B360EFDEC16F0010E0301476F6F
:1029A800B00EFDEC16F00301476B2A0EFDEC16F095
:1029B800010E0301476F3851FDEC16F0010E0301BB
:1029C800476F3851070FFDEC16F00301476B2B0ECC
:1029D800FDEC16F0010E0301476F3751FDEC16F0C0
:1029E800010E0301476F830EFDEC16F00301476BE0
:1029F8002C0EFDEC16F035C3E9FF36C3EAFFEF50A5
:102A08000FE03AC33CF339C33BF335C3E9FF36C3A0
:102A1800EAFFEF502BEC14F00301354B362BEBD7C4
:102A28001200020E9E6F9F6BFE0E9C6F010E9D6F33
:102A380028EC0BF0B1EC12F0000902E0030E35D0DF
:102A480049C3E9FF4AC3EAFFEE52ED50AA0A550E00
:102A5800D8B4EF18020E01E028D003019E6F9F6BD7
:102A6800360E9C6F000E9D6B28EC0BF0B1EC12F04B
:102A7800000905E11FEC0BF0D8B4EF1813E0020EC3
:102A880003019E6F9F6B520E9C6F000E9D6B28EC8E
:102A98000BF0B1EC12F0000907E11FEC0BF0D8B411
:102AA800EF1802E1000E01D0010E12005E6B5F6BA1
:102AB800606B616B5D515A115B115C1129E0010E6D
:102AC800D96ED8905DBF07D05A375B375C375D3712
:102AD800D92AF7D7D8905E375F37603761375A51B0
:102AE800565D5B5157595C5158595D51595909E325
:102AF8005A51565F5B51575B5C51585B5D51595B4E
:102B08005E81D8905D335C335B335A33D92EE2D77C
:102B18005EC356F35FC357F360C358F361C359F3F9
:102B28001200E8CFD9FF0407D8A00507030104293C
:102B3800D8B4052927E0D950E96EEA6AEF500DE0CC
:102B480002C3F6FF03C3F7FF0800F5CF06F3D95019
:102B5800E96EEA6AEF50061911E0D950E96EEA6A9F
:102B6800EF50066F02C3F6FF03C3F7FF0800F550E6
:102B7800065D026F036BD8A0030706D0D92A024B63
:102B8800032BD1D7026B036B12006CC3E1FF6DC33B
:102B9800E2FF6EC3D9FF6FC3DAFFF36AF46A17D096
:102BA800E1CFE9FFE2CFEAFFE14AE22AEF50726F94
:102BB800D9CFE9FFDACFEAFFD94ADA2AEF50725DB6
:102BC800F36EF46AD8A0F406F450F31008E1700725
:102BD800D8A0710703017029D8B47129E1E1F3CFB6
:102BE8006CF3F4CF6DF31200E8CFE1FF22D000C3FD
:102BF80002F301C303F3E0EC16F002C304F303C3CA
:102C080005F300C302F301C303F3E15095EC15F09B
:102C18000351021102E1E15014D000C3F6FF01C3D1
:102C2800F7FF0800F550026F036BE1285CEC17F022
:102C3800E16EE15005E0E150E96EEA6AEF50D7E154
:102C4800000E12005B51581159115A1123E0010E60
:102C5800D96E5BBF07D0D890583759375A375B378A
:102C6800D92AF7D75851545D595155595A5156597F
:102C78005B51575908E35851545F5951555B5A51A4
:102C8800565B5B51575BD8905B335A335933583393
:102C9800D92EE8D712008D6B8E6B8F6B906B85A148
:102CA80008D089518D278A518E238B518F238C51BF
:102CB8009023D89089378A378B378C37D8908833C8
:102CC8008733863385338851851186118711E7E16B
:102CD8008DC385F38EC386F38FC387F390C388F3C0
:102CE800120006009DB09EA01CD008C0CFFF07C0F0
:102CF800CEFF0101000E0224E96E010E0320EA6EE8
:102D0800EF508DEC17F0024A032AFF0E0216000E50
:102D180003160550031802E104500218D8B49D8028
:102D28009E90AEC3EAFFADC3E9FF11004BC389F320
:102D38004CC38AF34DC38BF34EC38CF349C3E9FFED
:102D48004AC3EAFFEECF85F3EECF86F3EECF87F3E3
:102D5800EECF88F34FEC16F049C3E9FF4AC3EAFF08
:102D680085C3EEFF86C3EEFF87C3EEFF88C3EDFF82
:102D7800120035C35AF336C35BF337C35CF338C369
:102D88005DF30301566B1B0E576FB70E586F000E9D
:102D9800596B5AEC15F056510008396F000E57550B
:102DA8003A6F010E58553B6F000E59553C6F3AC3A8
:102DB80008F039C307F0120002C3F3FF03C3F4FF9E
:102DC800F3CFF6FFF4CFF7FFF34AF42A0800F550E3
:102DD800F7E1F3CF04F3F4CF05F303010251045FE5
:102DE8000351055BFF0E0425026FFF0E0521036FDB
:102DF8001200E8CFE1FF8996899489820301476729
:102E080001D0899200F08984080ED96E899489923C
:102E1800E1BE898200F08984D890E136D906D96666
:102E2800F5D7898612000301A9697F0EAA6F000EE3
:102E3800AB6BAC6B0BD00301A907000EAA5BAB5BB5
:102E4800AC5BAC51A911AA11AB1105E0C3EC17F0AA
:102E5800E16EE128F0E1E1501200E8CFD9FF042843
:102E68000218FDE0000E0424E96E010E0520EA6E4A
:102E7800D9CFEFFF042803010D6F000E05200E6F58
:102E88000D51046E056A9D801200030100690169F5
:102E9800070E026F036BFF0E0301000701230223D5
:102EA80003230351001101110211D8B41200F3D702
:102EB800E8CFD9FFD950E96EEA6A0251EF6202D031
:102EC800D95007D0D92AD904E96EEA6AEF50F2E15D
:102ED800000E120072C3E1FF73C3E2FF7607D8A0A9
:102EE800770703017629D8B4772904E074C3E7FF8C
:102EF800E652F4D71200949C949E93809392C168F2
:102F08003F0EC716C66AC78CC79EC682C68AC69EAB
:102F18001200E8CFAFF30301AF41E8423F0BBE6EAA
:102F2800CF0EBD16AF39F00B300BBD1212003F0E9D
:102F3800CB6E040ECA6E1F0EBE6E3C0EBD6E1F0E0B
:102F4800BB6E3C0EBA6E3C0CE8CFE1FFC9509E96B2
:102F5800E1CFC9FF9EB61200FDD7CD8ECD92CF6AC4
:102F6800CE6AF28EF28C9E90CD8012009BEC17F008
:102F7800B1EC17F0026A036A046A056A1200C968AC
:0E2F8800C7A0FED7C95012008B8CC3EF17F004
:107D1200000000000000002F000000070007001410
:107D22007F147F14242A7F2A12231308646236499F
:107D32005522500005030000001C22410000412290
:107D42001C0014083E081408083E080800005030C1
:107D520000101010101000606000002010080402D3
:107D62003E5149453E00427F400042615149462111
:107D720041454B311814127F1027454545393C4A7D
:107D820049493001710905033649494936064949CD
:107D9200291E003636000000563600000814224123
:107DA200001414141414004122140802015109068B
:107DB200324959513E7E1111117E7F494949363E61
:107DC200414141227F4141221C7F494949417F096A
:107DD2000909013E4149497A7F0808087F00417F2D
:107DE20041002040413F017F081422417F40404032
:107DF200407F020C027F7F0408107F3E4141413EDA
:107E02007F090909063E4151215E7F09192946462B
:107E12004949493101017F01013F4040403F1F2054
:107E220040201F3F4038403F631408146307087026
:107E320008076151494543007F414100552A552AAF
:107E4200550041417F00040201020440404040408D
:107E5200000102040020545454787F4844443838C6
:107E620044444420384444487F3854545418087ECB
:107E72000901020C5252523E7F0804047800447DEC
:107E820040002040443D007F1028440000417F40D4
:107E9200007C041804787C0804047838444444388C
:107EA2007C14141408081414187C7C080404084870
:107EB20054545420043F4440203C4040207C1C2029
:107EC20040201C3C4030403C44281028440C505078
:107ED200503C4464544C44010000000A0000006419
:107EE200000000E803000010270000A08601004007
:107EF200420F008096980000E1F50500CA9A3B55B2
:107F02006E6B6E6F776E206368756E6B202865727C
:107F1200726F7229005049432057415620417564BF
:107F2200696F20506C6179657200797573202D201C
:107F320070726F6A65637470726F746F00636172DE
:107F42006420696E697469616C697A65642E004C9B
:107F5200495354206368756E6B2028736B697029CE
:107F62000066616374206368756E6B2028736B69A9
:107F720070290064617461206368756E6B20666F9E
:107F8200756E6400574156452046696C6520666FE0
:107F9200756E643A00666D74206368756E6B206658
:107FA2006F756E6400696E73657274205344636109
:107FB20072642100256C64487A2053616D706C698B
:107FC2006E6700666F726D6174206572726F720007
:107FD20066696C652073697A65206F6B0031362D96
:107FE2006269747300382D62697473005374657228
:0E7FF200656F002E574156004D6F6E6F0000F8
:020000040030CA
:04000000040E161EB6
:020006000100F7
:00000001FF
