:020000040000fa
:080000000002040000000000f2
:020000040000fa
:100400006f8420000e7f24000e0188000000000091
:100410000c00070000a220000100200011000700ce
:10042000000020000000e000020032000000020096
:1004300000000000e2090200000000000040da00b5
:100440000000fe004440a900000020000000e00081
:100450000300320000002000a00188004440a800f2
:100460000000060091018800800078000000eb0089
:1004700015003700e280400032a0b4009101ba00bc
:10048000e280400032a0b4009102ba00e280400055
:1004900032a0b4000002eb00472bde00f507b200eb
:1004a000602ce10004003a000059eb008301e900f0
:1004b000fdff3e00040037006128e100010032002a
:1004c0000082eb00040007001101ba000200e00006
:1004d000e8ff3a00000006003159ba008301e90044
:1004e0000c0032002159ba008301e90008003200f3
:1004f0000400e00003003a00e280400032a0b400b3
:10050000f5ff370011d9ba008301e900faff3a007c
:100510008100e800e180400032a0b4000000060045
:100520003600f800809fbe00829fbe00849fbe0000
:10053000869fbe000000fa0005c1bf0001c8b300dd
:10054000014060000004e000320032008460a90035
:1005500005e1a9000000eb0000088800a10f800061
:10056000c0f92f000080400070418800210f8000fa
:10057000c0f92f0000804000604188000000eb00bf
:1005800000088800210f8000004280008080400029
:10059000c0f92f00008040000042880030408000f9
:1005a0000000e00007003200204080000000e00072
:1005b000040032000142800020428000808f500001
:1005c0000b0039000000200001f023001102070099
:1005d0000000200001f023002b0207000000eb00c8
:1005e00000428800a90207005503070004003700f5
:1005f00030408000ff02070020408000aa02070070
:1006000040062000200f880040062000a00f880030
:1006100005e1a8000080fa004f03be004f02be00b3
:100620004f01be004f00be003600f900004006003a
:10063000801f78000000fa008b40a9000040800075
:100640000000e800004088000080fa004f007800b9
:1006500000400600801f78000000fa008d60a900ad
:10066000004080000000e800004088000080fa00a0
:100670004f007800004006000040da000000fe0055
:10068000889fbe008a9fbe00010578000100e0003f
:100690000400350008003c000000e00020003200ab
:1006a0000500370060001000e080180002003b00e9
:1006b00001f02c001a0037000004be006011b800e1
:1006c0006b0920000982cf00020039000882cf00a8
:1006d0000441b000694252000e00320008003b00a5
:1006e00082817100610164008904d1000884d30013
:1006f0008b05e8000442e800f9ff3a0005003700e6
:100700000804440089844c008b05e9000442e90098
:10071000fbff3a00f60007000af0a70001f0a00076
:100720004f05be004f04be000000060003f0a2000b
:10073000889fbe008a9fbe008c1f780012010700b0
:10074000190133006450e1004f0032006420e100e1
:100750005200320003826c0007003b000905d00004
:100760000306d000820f54000c065d000200390021
:100770000200320089017800030678008582550066
:1007800004003d000003fd008103fd008502ea0036
:100790008b854200840f720002003b006000100055
:1007a000e08018006011b8000005eb007a28e10035
:1007b0000a00390006007800c75ddd00f707b200c7
:1007c000878075002d003700828171000a01780052
:1007d000610560008180d1000080d3008502e900be
:1007e000f9ff3b00060440008784480002003b00fc
:1007f00060041400e0841c000988a3000700320094
:100800008a81710082817100610164008904d100d4
:100810000884d3008b05e800170037000978a3008f
:1008200013003a000b00e000130034008b05e900d0
:100830000804440089844c000a4474000978a30029
:100840000d003a000b00e000070034008b05e900c2
:100850000804440089844c0001003a000b00200089
:100860000978a300f7ff32000001eb000200370017
:10087000828171000a0178009d0007000cf0a7003a
:1008800001f0a000d10037006420e10002003a002e
:10089000838f6c00d10033000801be000200be004f
:1008a000ca003700889fbe008a9fbe008c1f780058
:1008b000b5000700bc00330003866c006450e10003
:1008c000240032006420e100270032006150e10082
:1008d000220032006120e100210032008b854200bd
:1008e000eb07b1000134b800003ab8000804420038
:1008f00089844a00013ab8000030b800888040007e
:1009000009014a00040033000000400081804800d3
:10091000020149008b05e900c909dd00830170006f
:100920000100320013002000c814de004814dd006e
:100930004709de001200b200c808de00088470001b
:100940006b00070001f0a1000cf0a70001f0a0006f
:100950009e0037006120e100a00032000801be00c7
:100960000200be00f7ff37006150e100fcff3a00d3
:100970009a0037000001be009b0007000470a7002a
:1009800003f0a10003f8a30013003a006509b100c9
:1009900010003200090035006928e100020035002e
:1009a0000100280000000500000040008180480090
:1009b0008502e900fcff3a0000000600f88f4200c3
:1009c000050035008100d1000080d3008502e800d9
:1009d000fcff3a00000006008000eb00000005006c
:1009e000889fbe008a9fbe008c1f780066000700ab
:1009f0006d00330003866c006450e1002e0032006d
:100a00006420e100330032006150e1002f00320029
:100a10006120e1003100320085855500eb07b00010
:100a200009002000080420000500370008044400e5
:100a300089844c000a0031000603430087834b0081
:100a40000001530081815b00f8ff33000203be0008
:100a50000800a0000804440089844c00f6ff390017
:100a6000c639dd008301730001003200130020004d
:100a70008904d1000884d3000998a300050032003e
:100a80000800a7000300a0008904d1000884d30057
:100a90008b05e8008904d1000884d3000001eb0035
:100aa0000281d2001200070001f0a1000cf0a700a3
:100ab00001f0a000450037006420e100470032004b
:100ac0000801be000200be00f7ff37006120e10010
:100ad000420032006000b800f3ff37000000200041
:100ae00001f82700f0ff3700f4ff2f005300370014
:100af00081002000618055000b003d000b002000ac
:100b000061fe2f000100e1001d00340082817100b0
:100b1000610164008904d1000884d3000000e8006a
:100b2000faff3a00710020006100640003007000c9
:100b3000020060000900320061044400e0844c00bf
:100b40000988a500050032008b05e8006808e1006f
:100b500002003a008904d1000884d300f20f20007b
:100b60000258e10005003d00c75ddd00f907b20055
:100b70008980750008007800000006000bf8270047
:100b80008b007800000005000004be00160007007e
:100b90000003be000405be000200be0012000700f4
:100ba000844f7500000006000200be006450e100a2
:100bb000050036006420e100020036000968a30049
:100bc00001003a000800be000160a0004f06780056
:100bd0004f05be004f04be0000000600f0ff2f00ce
:100be000f1ff2700f9ff3700c70ade00f107b20066
:100bf000f50fb20008003200e1cf420002003200df
:100c00000170a00024000500810f70000100320077
:100c10000408050044000500810f700002003a003e
:100c2000140005008502e9000000400081c0480072
:100c3000fcff3b000170a00024000500889fbe005f
:100c40008a9fbe00841f7800cfff07004f00780006
:100c500011003300f0ff2f00838f6c0006003b0073
:100c6000040565000a00a7000800370009f0a60087
:100c70001000200008003700820f5400838f5c00b2
:100c8000030039001000200001003e000000200099
:100c900009f0a7000000ea004f05be004f04be00a7
:080ca0000000e0000000060066
:020000040000fa
:100008003c0300003c0300003c0300003c030000ec
:100018003c0300003c0300003c0300003c030000dc
:100028003c0300003c0300003c0300009002000079
:100038003c0300003c0300003c0300003c030000bc
:100048003c0300003c0300003c0300003c030000ac
:100058003c0300003c0300003c0300003c0300009c
:100068003c0300003c0300003c0300003c0300008c
:100078003c0300003c0300003c0300003c0300007c
:100088003c0300003c0300003c0300003c0300006c
:100098003c0300003c0300003c0300003c0300005c
:1000a8003c0300003c0300003c0300003c0300004c
:1000b8003c0300003c0300003c0300003c0300003c
:1000c8003c0300003c0300003c0300003c0300002c
:1000d8003c0300003c0300003c0300003c0300001c
:1000e8003c0300003c0300003c0300003c0300000c
:1000f8003c0300003c0300003c0300003c030000fc
:100108003c0300003c030000180300003c0300000f
:100118003c0300003c0300003c0300003c030000db
:100128003c0300003c0300003c0300003c030000cb
:100138003c0300003c0300003c0300003c030000bb
:100148003c0300003c0300003c0300002a030000bd
:100158003c0300003c0300003c0300003c0300009b
:100168003c0300003c0300003c0300003c0300008b
:100178003c0300003c0300003c0300003c0300007b
:100188003c0300003c0300003c0300003c0300006b
:100198003c0300003c0300003c0300003c0300005b
:1001a8003c0300003c0300003c0300003c0300004b
:1001b8003c0300003c0300003c0300003c0300003b
:1001c8003c0300003c0300003c0300003c0300002b
:1001d8003c0300003c0300003c0300003c0300001b
:1001e8003c0300003c0300003c0300003c0300000b
:0801f8003c0300003c03000081
:020000040000fa
:100208003c0300003c0300003c0300003c030000ea
:100218003c0300003c0300003c0300003c030000da
:100228003c0300003c0300003c0300009002000077
:100238003c0300003c0300003c0300003c030000ba
:100248003c0300003c0300003c0300003c030000aa
:100258003c0300003c0300003c0300003c0300009a
:100268003c0300003c0300003c0300003c0300008a
:100278003c0300003c0300003c0300003c0300007a
:100288003c0300003c0300003c0300003c0300006a
:100298003c0300003c0300003c0300003c0300005a
:1002a8003c0300003c0300003c0300003c0300004a
:1002b8003c0300003c0300003c0300003c0300003a
:1002c8003c0300003c0300003c0300003c0300002a
:1002d8003c0300003c0300003c0300003c0300001a
:1002e8003c0300003c0300003c0300003c0300000a
:1002f8003c0300003c0300003c0300003c030000fa
:100308003c0300003c030000180300003c0300000d
:100318003c0300003c0300003c0300003c030000d9
:100328003c0300003c0300003c0300003c030000c9
:100338003c0300003c0300003c0300003c030000b9
:100348003c0300003c0300003c0300002a030000bb
:100358003c0300003c0300003c0300003c03000099
:100368003c0300003c0300003c0300003c03000089
:100378003c0300003c0300003c0300003c03000079
:100388003c0300003c0300003c0300003c03000069
:100398003c0300003c0300003c0300003c03000059
:1003a8003c0300003c0300003c0300003c03000049
:1003b8003c0300003c0300003c0300003c03000039
:1003c8003c0300003c0300003c0300003c03000029
:1003d8003c0300003c0300003c0300003c03000019
:1003e8003c0300003c0300003c0300003c03000009
:0803f8003c0300003c0300007f
:020000040000fa
:100ca8000000fa00417420009140780000ceb300a3
:100cb80000c0600044e7b70044c7bf00f043b2007b
:100cc80044e7b70090022000303a880042c7bf00ce
:100cd8000042b2000004e000fcff32000080fa008d
:100ce800000006000000fa000080eb006019880090
:100cf80080de2f00600888000000eb0030088800c4
:100d080060002000200c8800c922a900c962a9003f
:100d1800c9a2a900c9e2a900c9c2a9000000eb0044
:100d2800000e88000000eb00002e880080de2f00f7
:100d3800200e880080de2f00202e8800c901a80020
:100d4800c921a800c941a800c905a800c801a80070
:100d5800c821a800c841a800c805a800d501a80056
:100d6800d541a800d581a800d505a8000000eb0052
:100d7800100e88000000eb00102e8800c1692000ca
:100d88009140780000ceb30000c060006040b3001e
:100d98009ce6b700d16920009140780000ceb300ee
:100da80000c060007040b3009de6b700c8c2a8004c
:100db800c8e2a800016a20009140780000ceb30084
:100dc80000c06000c040b300a0e6b700116a200070
:100dd8009140780000ceb30000c06000e040b3004e
:100de800a1e6b700c982a800c9c2a80042c0bf00d6
:100df8007f40600042e0b70081e0a9009b40a80066
:100e08009d60a8000080fa00000006000800fa00b3
:100e1800881f7800008fbe00200e80000000400070
:100e2800000478006140b90013fe0700200798000d
:100e3800310798000800e00007003d00020020008c
:100e4800037824002e009000be00900036fe0700b4
:100e580020079800310798001e01be002e00900060
:100e6800be0090008dfe0700c0fe0700b00e88008f
:100e7800c1e1a8004f0478000080fa0000000600d5
:100e88000800fa00881f7800008fbe00200e80003e
:100e980000004000000478006140b900f6fd07003a
:100ea80020079800310798000800e00007003d007f
:100eb80002002000037824002e009000be0090005d
:100ec80019fe070020079800310798001e01be0090
:100ed8002e009000be00900070fe0700a3fe0700e1
:100ee800c00e8800c1e1a8004f0478000080fa0015
:100ef800000006000200fa00000f78001e007800cb
:100f0800300f880040062000200f88000000eb000a
:100f1800000f8800e0c1a800e0e1a900e1c1bf001e
:100f28007040b300e1e1b7008b40a9000080fa00ef
:100f3800000006000200fa00000f78001e0078008a
:100f4800b00f880040062000a00f88000000eb00ca
:100f5800800f8800f0c1a800f0e1a800f1c1bf002f
:100f68007040b300f1e1b7008d60a9000080fa007d
:100f7800000006000000fa004110200091407800af
:100f8800f0ccb30000c0600001c2b30001407000a3
:100f980004e1b7000000eb0000088800a0862100eb
:100fa80010088800510a200091407800f0c8b3006a
:100fb80000c060000044a000a5e0b7008460a9005c
:100fc8009460a80005e1a8000080fa00000006006f
:100fd8000000fa00210f800080382100808f500027
:100fe80008003a008460a9000000200001f02300f6
:100ff80086ff07000000200001f02300a0ff070083
:10100800ffff37000080fa00000006000000fa0029
:1010180005e1a9000421a90004c1a900411020008c
:1010280091407800f0ccb30000c0600001c2b3006a
:101038000140700004e1b7000000eb0000088800e0
:10104800400d230010088800510a200091407800c4
:10105800f0c8b30000c060000044a000a5e0b700dd
:101068000080fa00000006000000fa0005e1a80070
:101078009460a8000000eb00000888000080fa00d7
:10108800000006000000fa0005e1a9009460a9002c
:101098000000eb00000888000080fa00000006004d
:1010a8000600fa00881f7800000f78006041800071
:1010b8006300b900000478006140b9006efd0700c4
:1010c80010079800210798000800e00007003d007d
:1010d80002002000037824001e009000ae0090005b
:1010e80091fd070010079800210798001e00900046
:1010f800ae00900040418800514188001e007800f1
:10110800cf80de005cfd0700424180005341800033
:1011180084fd0700604088007140880060408000be
:10112800714080008240800093408000dbfd070012
:10113800e0408800f1408800c0408000d140800035
:10114800624080007340800077fd0700c04088003f
:10115800d1408800c0408000d1408000a24080007b
:10116800b3408000cdfd0700004188001141880090
:10117800e0408000f140800002418000134180007f
:1011880069fd070002002000832c240012fe0700de
:1011980012d72300a3f0230063fd07004040880016
:1011a800514088004040800051408000d2a1250075
:1011b80043f223004afe07000000e00001003c0063
:1011c80004003700d0a1250041f2230040408800e8
:1011d8005140880040408000514080000bff0700cc
:1011e8004f0478000080fa00000006000600fa00ac
:1011f800881f7800000f7800704180006300b900f4
:10120800000478006140b9001bfd07001007980032
:10121800210798000800e00007003d0002002000b8
:10122800037824001e009000ae0090003efd0700e9
:1012380010079800210798001e009000ae0090004b
:1012480020418800314188001e007800cf80de00f0
:1012580009fd0700224180003341800031fd07006d
:101268008041880091418800804180009141800040
:10127800824080009340800088fd0700c0418800bc
:10128800d1418800a0418000b141800082418000a6
:101298009341800024fd0700a0418800b1418800e7
:1012a800a0418000b1418000a2408000b34080008e
:1012b8007afd0700e0418800f1418800c0418000c4
:1012c800d1418000e2418000f341800016fd070013
:1012d80002002000a3472400bffd070052b82e00db
:1012e80013f1230010fd070040408800514088009a
:1012f80040408000514080006266260063f223006f
:10130800f7fd07000000e00001003c000400370082
:101318006066260061f22300404088005140880042
:101328004040800051408000d5fe07004f047800ff
:101338000080fa00000006000000fa006000b80013
:1013480060408800714088006000b800c040880094
:10135800d14088006000b800e0408800f140880073
:101368006000b80000418800114188006000b800a2
:1013780020418800314188006000b8004041880061
:10138800514188006000b800804188009141880080
:101398006000b800a0418800b14188006000b80032
:1013a800c0418800d14188006000b800e041880051
:1013b800f14188000080fa00000006000000fa00f1
:1013c80037fe070047fe07000080eb00c9fe070054
:1013d8000080eb00d7fe07000000200001f023008a
:1013e8008afe07000000200001f02300a4fe070089
:1013f8001dff0700802c23002042880020032000c6
:10140800204088002003200030408800007122001e
:10141800b8fe0700401f2000c6fe07003033230037
:1014280031f3230079fe07003033230031f3230022
:0814380093fe0700ffff3700df
:020000040000fa
:10144000000800004600000002000000000000004c
:10145000000000000000000000003f00000000004d
:10146000006f1200833a0a00d7233d0000000000fd
:10147000000000000000000000000000000000006c
:10148000000000000000000000000000000000005c
:10149000000000000000000000000000000000004c
:1014a000000000000000000000000000000000003c
:00000001FF
