:020000040000fa
:080000000002040000000000f2
:020000040000fa
:100400004f8120000e7f24000e01880000000000b4
:100410000c000700c04c2000010020001f00070056
:10042000000020000000e000020032000000020096
:1004300000000000b0020200000000000040da00ee
:100440000000fe004440a900000020000000e00081
:100450000300320000002000a00188004440a800f2
:1004600000000600f03fb1000180b1000600350039
:10047000ee03090000000000403fb1000180b10020
:10048000fbff3d001000b000203fb000020035002f
:1004900000800900000000000000060091018800b3
:1004a000800078000000eb0015003700e28040007b
:1004b00032a0b4009101ba00e280400032a0b40042
:1004c0009102ba00e280400032a0b4000002eb00ca
:1004d000472bde00f507b200602ce10004003a0073
:1004e0000059eb008301e900fdff3e0004003700e6
:1004f0006128e100010032000082eb0004000700e7
:100500001101ba000200e000e8ff3a000000060016
:100510003159ba008301e9000c0032002159ba00b8
:100520008301e900080032000400e00003003a0003
:10053000e280400032a0b400f5ff370011d9ba00c4
:100540008301e900faff3a008100e800e180400001
:1005500032a0b400000006000040da000000fe00f7
:020000040000fa
:10000800ac020000ac020000ac020000ac02000030
:10001800ac020000ac020000ac020000ac02000020
:10002800ac020000ac020000ac020000ac02000010
:10003800ac020000ac020000ac020000ac02000000
:020000040000fa
:020000040000fa
:100560000000fa000080eb0060198800130007000b
:1005700000002200a1942a00baff0700290007000a
:1005800000402800717d2100b6ff07001d00070014
:1005900000402800717d2100b2ff070081c7b30031
:1005a00000c8b300bd00070081c7b30000c8b30096
:1005b000c90007000080fa00000006000000fa00f1
:1005c00090022000303a880044c7bf00f043b200d8
:1005d00044e7b700417420009140780000ceb3009a
:1005e00000c0600044e7b70040a7a90042c7bf00b1
:1005f0000042b2000004e000fcff32000080fa007c
:10060000000006000000fa00a0cab3003d00070089
:1006100000482800e101200092ff07000080fa0056
:10062000000006000000fa00516c200091407800a4
:1006300000ceb30000c060005040b300c5e6b70074
:10064000c8a2a9000080eb006019880000102000fb
:10065000c01188000000280080118800004420009c
:10066000901188000080fa00000006000000fa00e7
:10067000c902a800c922a900916c2000914078000d
:1006800000ceb30000c060003040b300c9e6b70040
:10069000416a20009140780000ceb30000c06000a5
:1006a0000034a000a4e6b70000102000401188002c
:1006b000000028000011880000442000101188006c
:1006c0000080fa00000006000200fa00004f7800e7
:1006d00023c2bf00614060000004e000fcff320064
:1006e0001e80fb002011880023c2bf006140600013
:1006f0000004e000fcff32008560a9000080fa00e1
:10070000000006000200fa00004f780033c2bf006c
:10071000614060000004e000fcff32001e80fb002e
:10072000a011880040062000010020004dff0700b6
:1007300033c2bf00614060000004e000fcff3200f3
:1007400087c0a900400620000100200045ff0700e7
:100750000080fa00000006000000fa0040062000b9
:10076000010020003fff070085c0bf006840600017
:100770000004e000fcff32008560a9003011800019
:100780000080fb000080fa00000006000200fa0072
:10079000004f78001e407800cbff0700eeff0700f7
:1007a0000080fb000080fa00000006000000fa0054
:1007b00040c1b300f5ff070000e8b70050c1b30027
:1007c000f2ff070001e8b70070c1b300efff0700b8
:1007d00002e8b70060c1b300ecff070003e8b70010
:1007e00080c1b300e9ff070006e8b70090c1b3007d
:1007f000e6ff070007e8b700a0c1b300e3ff07006a
:1008000004e8b700b0c1b300e0ff070005e8b70097
:10081000c0c0b300ddff07000de8b700d0c0b300d3
:10082000daff07000fe8b700f0c0b300d7ff0700fa
:100830000ee8b70080c0b300d4ff070008e8b70097
:1008400090c0b300d1ff070009e8b700a0c0b30013
:10085000ceff07000ae8b700b0c0b300cbff070027
:100860000be8b70040c0b300c8ff070010e8b700ae
:1008700060c0b300c5ff070011e8b70070c0b30047
:10088000c2ff070012e8b70050c0b300bfff070067
:1008900013e8b7000080fa00000006000200fa002a
:1008a000004f7800114798001e40780095ff070020
:1008b0000040eb0093ff07001e40900091ff0700ef
:1008c0001e4090001e4040000074a1008dff0700f4
:1008d0000080fa00000006000200fa00004f7800d5
:1008e000114798001e40780086ff070040c0b30003
:1008f00084ff07001e40900082ff07001e4090000a
:100900001e404000644040000074a1007dff0700cd
:100910000080fa00000006000200fa00004f780094
:10092000114798001e40780076ff070010c0b30002
:1009300074ff07001e40900072ff07001e409000e9
:100940001e4040000040e8000074a1006dff070059
:100950000080fa00000006000200fa00004f780054
:10096000114798001e40780066ff070050c0b30092
:1009700064ff07001e40900062ff07001e409000c9
:100980001e404000654040000074a1005dff07006c
:080990000080fa0000000600df
:020000040000fa
:100998000008000014000000020000000000000031
:1009a800000000000000000000000000000000003f
:0c09b80000000000000000000000000033
:00000001FF
