:020000040000fa
:080000000002040000000000f2
:020000040000fa
:100400006f892000007f24000001880000000000a8
:100410000a00070011000700000020000000e000b3
:10042000020032000000020000000000320702005b
:10043000000000000040da000000fe004440a90077
:10044000000020000000e000030032000000200057
:10045000a00188004440a80000000600c0752000ec
:10046000010020001500370062004000e0804800d5
:10047000910188009001ba0062004000e0804800cd
:10048000910188009002ba0062004000e0804800bc
:100490000002eb006028e10004003a000059eb0084
:1004a0008301e900fdff3e00040037006128e10000
:1004b000010032000082eb00050007009101880076
:1004c0001001ba000200e000e7ff3a00000005005a
:1004d000910188008002780062004000e0804800be
:1004e0003559ba008301e900080032002559ba00e5
:1004f0008301e900050032000400e000f4ff32004f
:1005000015d9ba008301e900f1ff3a0000000600a6
:10051000889fbe008a9fbe00010578000100e000b0
:100520000400350008003c000000e000200032001c
:100530000500370060001000e080180002003b005a
:1005400001f02c001a0037000004be006011b80052
:100550006b0920000982cf00020039000882cf0019
:100560000441b000694252000e00320008003b0016
:1005700082817100610164008904d1000884d30084
:100580008b05e8000442e800f9ff3a000500370057
:100590000804440089844c008b05e9000442e9000a
:1005a000fbff3a00b20007000af0a70001f0a0002c
:1005b0004f05be004f04be000000060003f0a2007d
:1005c000889fbe008a9fbe008c1f7800ce00070067
:1005d000d50033006450e1004f0032006420e10098
:1005e0005200320003826c0007003b000905d00076
:1005f0000306d000820f54000c065d000200390093
:1006000002003200890178000306780085825500d7
:1006100004003d000003fd008103fd008502ea00a7
:100620008b854200840f720002003b0060001000c6
:10063000e08018006011b8000005eb007a28e100a6
:100640000a00390006007800c75ddd00f707b20038
:10065000878075002d003700828171000a017800c3
:10066000610560008180d1000080d3008502e9002f
:10067000f9ff3b00060440008784480002003b006d
:1006800060041400e0841c000988a3000700320005
:100690008a81710082817100610164008904d10046
:1006a0000884d3008b05e800170037000978a30001
:1006b00013003a000b00e000130034008b05e90042
:1006c0000804440089844c000a4474000978a3009b
:1006d0000d003a000b00e000070034008b05e90034
:1006e0000804440089844c0001003a000b002000fb
:1006f0000978a300f7ff32000001eb000200370089
:10070000828171000a017800590007000cf0a700ef
:1007100001f0a0008d0037006420e10002003a00e3
:10072000838f6c008d0033000801be000200be0004
:1007300086003700889fbe008a9fbe008c1f78000d
:10074000710007007800330003866c006450e100fc
:10075000240032006420e100270032006150e100f3
:10076000220032006120e100210032008b8542002e
:10077000eb07b1000134b800003ab80008044200a9
:1007800089844a00013ab8000030b80088804000ef
:1007900009014a0004003300000040008180480045
:1007a000020149008b05e900c909dd0083017000e1
:1007b0000100320013002000c814de004814dd00e0
:1007c0004709de001200b200c808de00088470008d
:1007d0002700070001f0a1000cf0a70001f0a00025
:1007e0005a0037006120e1005c0032000801be00c1
:1007f0000200be00f7ff37006150e100fcff3a0045
:10080000560037000001be00570007000470a70023
:1008100003f0a10003f8a30013003a006509b1003a
:1008200010003200090035006928e100020035009f
:100830000100280000000500000040008180480001
:100840008502e900fcff3a0000000600f88f420034
:10085000050035008100d1000080d3008502e8004a
:10086000fcff3a00000006008000eb0000000500dd
:1008700081002000618055000b003d000b0020002e
:1008800061fe2f000100e1001d0034008281710033
:10089000610164008904d1000884d3000000e800ed
:1008a000faff3a007100200061006400030070004c
:1008b000020060000900320061044400e0844c0042
:1008c0000988a500050032008b05e8006808e100f2
:1008d00002003a008904d1000884d300f20f2000fe
:1008e0000258e10005003d00c75ddd00f907b200d8
:1008f0008980750008007800000006000bf82700ca
:100900008b007800000005000004be001600070000
:100910000003be000405be000200be001200070076
:10092000844f7500000006000200be006450e10024
:10093000050036006420e100020036000968a300cb
:1009400001003a000800be000160a0004f067800d8
:100950004f05be004f04be0000000600f0ff2f0050
:10096000f1ff2700f9ff3700c70ade00f107b200e8
:10097000f50fb20008003200e1cf42000200320061
:100980000170a00024000500810f700001003200fa
:100990000408050044000500810f700002003a00c1
:1009a000140005008502e9000000400081c04800f5
:0c09b000fcff3b000170a00024000500cb
:020000040000fa
:10000800940700009407000094070000940700007c
:10001800940700009407000094070000940700006c
:10002800940700009407000094070000940700005c
:10003800940700009407000094070000940700004c
:10004800940700009407000094070000940700003c
:10005800940700009407000094070000940700002c
:10006800940700009407000094070000940700001c
:10007800940700009407000094070000940700000c
:1000880094070000940700009407000094070000fc
:1000980094070000940700009407000094070000ec
:1000a80094070000940700009407000094070000dc
:1000b80094070000940700009407000094070000cc
:1000c80094070000940700009407000094070000bc
:1000d80094070000940700009407000094070000ac
:1000e800940700009407000094070000940700009c
:1000f800940700009407000094070000940700008c
:1001080094070000940700000e0700009407000001
:10011800940700009407000094070000940700006b
:10012800940700009407000094070000940700005b
:10013800940700009407000094070000940700004b
:1001480094070000940700009407000020070000af
:10015800940700009407000094070000940700002b
:10016800940700009407000094070000940700001b
:10017800940700009407000094070000940700000b
:1001880094070000940700009407000094070000fb
:1001980094070000940700009407000094070000eb
:1001a80094070000940700009407000094070000db
:1001b80094070000940700009407000094070000cb
:1001c80094070000940700009407000094070000bb
:1001d80094070000940700009407000094070000ab
:1001e800940700009407000094070000940700009b
:0801f8009407000094070000c9
:020000040000fa
:10020800940700009407000094070000940700007a
:10021800940700009407000094070000940700006a
:10022800940700009407000094070000940700005a
:10023800940700009407000094070000940700004a
:10024800940700009407000094070000940700003a
:10025800940700009407000094070000940700002a
:10026800940700009407000094070000940700001a
:10027800940700009407000094070000940700000a
:1002880094070000940700009407000094070000fa
:1002980094070000940700009407000094070000ea
:1002a80094070000940700009407000094070000da
:1002b80094070000940700009407000094070000ca
:1002c80094070000940700009407000094070000ba
:1002d80094070000940700009407000094070000aa
:1002e800940700009407000094070000940700009a
:1002f800940700009407000094070000940700008a
:1003080094070000940700000e07000094070000ff
:100318009407000094070000940700009407000069
:100328009407000094070000940700009407000059
:100338009407000094070000940700009407000049
:1003480094070000940700009407000020070000ad
:100358009407000094070000940700009407000029
:100368009407000094070000940700009407000019
:100378009407000094070000940700009407000009
:1003880094070000940700009407000094070000f9
:1003980094070000940700009407000094070000e9
:1003a80094070000940700009407000094070000d9
:1003b80094070000940700009407000094070000c9
:1003c80094070000940700009407000094070000b9
:1003d80094070000940700009407000094070000a9
:1003e8009407000094070000940700009407000099
:0803f8009407000094070000c7
:020000040000fa
:1009bc000000fa00417420009140780000ceb30092
:1009cc0000c0600044e7b70044c7bf00f043b2006a
:1009dc0044e7b70090022000303a880042c7bf00bd
:1009ec000042b2000004e000fcff32000080fa007c
:1009fc00000006000000fa000080eb00601988007f
:100a0c00407a2000600888000000eb003008880065
:100a1c0060002000200c8800c002a800c022a800a2
:100a2c00c842a800c862a800c042a800c062a800c2
:100a3c00c082a800c882a800816c20009140780078
:100a4c0000ceb30000c060002041b300c8e6b70080
:100a5c00c902a900c922a900c962a900c9a2a9009a
:100a6c00c9e2a9000000eb00000e88000000eb00ba
:100a7c00002e8800d0ff2f00200e8800d0ff2f0002
:100a8c00202e8800c901a800c921a800c941a800ce
:100a9c00c905a800c801a800c821a800c841a80021
:100aac00c805a800d501a800d541a800d581a8008b
:100abc00d505a8000000eb00100e88000000eb002c
:100acc00102e8800c16920009140780000ceb30040
:100adc0000c060006040b3009ce6b700d169200004
:100aec009140780000ceb30000c060007040b300ad
:100afc009de6b700c8c2a800c8e2a800016a2000a1
:100b0c009140780000ceb30000c06000c040b3003c
:100b1c00a0e6b700116a20009140780000ceb30027
:100b2c0000c06000e040b300a1e6b700c982a80095
:100b3c00c9c2a80042c0bf007f40600042e0b700bd
:100b4c0081e0a9009b40a8009d60a8000080fa00ed
:100b5c00000006000800fa00881f7800008fbe0015
:100b6c00200e800000004000000478006140b900b5
:100b7c0064fe070020079800310798000800e00089
:100b8c0007003d0002002000037824002e00900096
:100b9c00be00900087fe07002007980031079800e0
:100bac001e01be002e009000be009000defe07006d
:100bbc0011ff0700b00e8800c1e1a8004f047800b7
:100bcc000080fa00000006000800fa00881f780078
:100bdc00008fbe00200e8000000040000004780052
:100bec006140b90047fe07002007980031079800c4
:100bfc000800e00007003d000200200003782400fc
:100c0c002e009000be0090006afe0700200798009e
:100c1c00310798001e01be002e009000be0090000f
:100c2c00c1fe0700f4fe0700c00e8800c1e1a80059
:100c3c004f0478000080fa00000006000800fa005b
:100c4c00881f7800008fbe00200e8000000040003e
:100c5c00000478006140b9002afe070020079800c4
:100c6c00310798000800e00007003d00020020005a
:100c7c00037824002e009000be0090004dfe07006b
:100c8c0020079800310798001e01be002e0090002e
:100c9c00be009000a4fe0700d7fe0700d00e88000f
:100cac00c1e1a8004f0478000080fa0000000600a3
:100cbc000800fa00881f7800008fbe00202e8000ec
:100ccc0000004000000478006140b9000dfe0700f0
:100cdc0020079800310798000800e00007003d004d
:100cec0002002000037824002e009000be0090002b
:100cfc0030fe070020079800310798001e01be0047
:100d0c002e009000be00900087fe0700bafe070080
:100d1c00b02e8800c1e5a8004f0478000080fa00ce
:100d2c00000006000800fa00881f7800008fbe0043
:100d3c00680880006140b900f2fd070020079800a8
:100d4c00310798000800e00007003d000200200079
:100d5c00037824002e009000be00900015fe0700c2
:100d6c0020079800310798001e01be002e0090004d
:100d7c00be0090006cfe07009ffe0700000c880070
:100d8c0011e1a8004f0478000080fa000000060072
:100d9c000200fa00000f78001e007800300f880067
:100dac0040062000200f88000000eb00000f880098
:100dbc00e0c1a800e0e1a900e1c1bf007040b300b0
:100dcc00e1e1b7008b40a9000080fa0000000600aa
:100ddc000200fa00000f78001e007800b00f8800a7
:100dec0040062000a00f88000000eb00800f880058
:100dfc00f0c1a800f0e1a800f1c1bf007040b30041
:100e0c00f1e1b7008d60a9000080fa000000060037
:100e1c00801f78000000fa008b40a90080428000ff
:100e2c000000e800804288000080fa004f00780043
:100e3c0000400600801f78000000fa008d60a900b9
:100e4c00804280000000e800804288000080fa00a8
:100e5c004f007800004006000000fa00d4fe0700a6
:100e6c00e4fe0700a0ff2f00c9ff0700a0ff2f0022
:100e7c00d7ff0700d0cc2c00c1f4230035ff0700ae
:100e8c00d0cc2c00c1f423004fff0700d0cc2c0099
:100e9c00c1f4230069ff0700a10f800070de2f0052
:0c0eac00808f5000fcff3600ffff370075
:020000040000fa
:100eb800500800004600000002000000000000008a
:100ec800000000000000000000003f0000000000db
:100ed800006f1200833a0a00d7233d00000000008b
:100ee80000000000000000000000000000000000fa
:100ef80000000000000000000000000000000000ea
:100f080000000000000000000000000000000000d9
:100f180000000000000000000000000000000000c9
:020000040000fa
:040f28000000fe00c7
:00000001FF
