:020000040000fa
:080000000002040000000000f2
:020000040000fa
:10040000cfaf20000e7f24000e0188000000000006
:100410000c00070060712200010020001f0007008f
:10042000000020000000e000020032000000020096
:1004300000000000e6230200000000000040da0097
:100440000000fe004440a900800020000000e00001
:100450000300320000002000a00188004440a800f2
:1004600000000600f03fb1000180b1000600350039
:10047000ee03090000000000403fb1000180b10020
:10048000fbff3d001000b000203fb000020035002f
:1004900000800900000000000000060091018800b3
:1004a000800078000000eb0015003700e28040007b
:1004b00032a0b4009101ba00e280400032a0b40042
:1004c0009102ba00e280400032a0b4000002eb00ca
:1004d000472bde00f507b200602ce10004003a0073
:1004e0000059eb008301e900fdff3e0004003700e6
:1004f0006128e100010032000082eb0004000700e7
:100500001101ba000200e000e8ff3a000000060016
:100510003159ba008301e9000c0032002159ba00b8
:100520008301e900080032000400e00003003a0003
:10053000e280400032a0b400f5ff370011d9ba00c4
:100540008301e900faff3a008100e800e180400001
:1005500032a0b400000006000040da000000fe00f7
:100560006900e100040035006d00e1000300340083
:100570000002b1000100320000000500100005007b
:100580000a00fa0080017800e20f500028003e00c7
:10059000d0578000e10f5000080032008023200077
:1005a0000000e00005003200042320002523200085
:1005b0004623200080017800040037000422200038
:1005c0002522200046222000832220001440900093
:1005d0000004e000040035008009eb0014409000a6
:1005e0000074a00010429800154090000028a3005d
:1005f00003003a00154090000024a00090429800ab
:100600008001eb0007003700154090000008a300b0
:10061000fdff320063c078000000fb00000b780093
:100620008301e800828f5100f7ff3a00080037008d
:1006300030002000b0bf9f00c3bf9f00d1bf9f000c
:10064000e2bf9f006a80570000c0da006fb99700d0
:10065000020078000080fa0000000600020ab900db
:10066000001bb9000200b800810042008100430075
:10067000000006006022b800060220000000d00042
:100680008180d2000482d2008582d2000000a000c6
:100690000202520083825a0003003100020242002b
:1006a00083824a000000a1000603e900f3ff3a003c
:1006b00000000600889fbe008a9fbe0001057800ea
:1006c0000100e0000400350008003c000000e000ec
:1006d000200032000500370060001000e0801800a4
:1006e00002003b0001f02c001a0037000004be009d
:1006f0006011b8006b0920000982cf0002003900a8
:100700000882cf000441b000694252000e0032005e
:1007100008003b0082817100610164008904d100fe
:100720000884d3008b05e8000442e800f9ff3a0092
:10073000050037000804440089844c008b05e9005b
:100740000442e900fbff3a000d0107000af0a70090
:1007500001f0a0004f05be004f04be0000000600df
:1007600003f0a200889fbe008a9fbe008c1f780005
:1007700029010700300133006450e1004f003200ce
:100780006420e1005200320003826c0007003b004d
:100790000905d0000306d000820f54000c065d004e
:1007a0000200390002003200890178000306780057
:1007b0008582550004003d000003fd008103fd001b
:1007c0008502ea008b854200840f720002003b0024
:1007d00060001000e08018006011b8000005eb0018
:1007e0007a28e1000a00390006007800c75ddd00c4
:1007f000f707b200878075002d00370082817100f5
:100800000a017800610560008180d1000080d3007a
:100810008502e900f9ff3b00060440008784480098
:1008200002003b0060041400e0841c000988a3005f
:10083000070032008a8171008281710061016400c9
:100840008904d1000884d3008b05e8001700370025
:100850000978a30013003a000b00e00013003400f5
:100860008b05e9000804440089844c000a447400a4
:100870000978a3000d003a000b00e00007003400e7
:100880008b05e9000804440089844c0001003a000b
:100890000b0020000978a300f7ff32000001eb00f5
:1008a00002003700828171000a017800b40007005d
:1008b0000cf0a70001f0a000e80037006420e10080
:1008c00002003a00838f6c00e80033000801be008c
:1008d0000200be00e1003700889fbe008a9fbe0074
:1008e0008c1f7800cc000700d300330003866c0017
:1008f0006450e1002e0032006420e1003300320039
:100900006150e1002f0032006120e100310032002f
:1009100085855500eb07b000090020000804200081
:10092000050037000804440089844c000a003100a7
:100930000603430087834b000001530081815b0065
:10094000f8ff33000203be000800a00008044400c2
:1009500089844c00f6ff3900c639dd00830173003d
:1009600001003200130020008904d1000884d30064
:100970000998a300050032000800a7000300a000aa
:100980008904d1000884d3008b05e8008904d100d4
:100990000884d3000001eb000281d2007800070038
:1009a00001f0a1000cf0a70001f0a000ab0037009f
:1009b0006420e100ad0032000801be000200be006c
:1009c000f7ff37006120e100a80032006000b800a6
:1009d000f3ff37000000200001f82700f0ff370088
:1009e000839f68000100e00002003d0060001000ed
:1009f000e08018000300e00002003d0060011100eb
:100a0000e08119001bff07004f00e00002003b00df
:100a100060001000e08018000000060014002000b4
:100a200095003700889fbe008a9fbe008c1f78000b
:100a3000790007008000330003866c006450e100f9
:100a4000240032006420e100270032006150e10000
:100a5000220032006120e100210032008b8542003b
:100a6000eb07b1000134b800003ab80008044200b6
:100a700089844a00013ab8000030b80088804000fc
:100a800009014a0004003300000040008180480052
:100a9000020149008b05e900c909dd0083017000ee
:100aa0000100320013002000c814de004814dd00ed
:100ab0004709de001200b200c808de00088470009a
:100ac0002f00070001f0a1000cf0a70001f0a0002a
:100ad000620037006120e100640032000801be00be
:100ae0000200be00f7ff37006150e100fcff3a0052
:100af0005e0037000001be007a0007000470a70006
:100b000003f0a1006509b100160032000d003500a8
:100b10006828e10006003500f0ff2f00f1ff2700f4
:100b20000300e00013003b00010028000000050066
:100b300000004000818048008502e900fcff3a0087
:100b400008003700f88f420002003c008000eb00f4
:100b5000000005008100d1000080d3008502e8007c
:100b6000fcff3a000300e00002003b0060001000c0
:100b7000e080180000000600f4ff2f003e00370060
:100b800081002000618055000b003d000b0020001b
:100b900061fe2f000100e1001d0034008281710020
:100ba000610164008904d1000884d3000000e800da
:100bb000faff3a0071002000610064000300700039
:100bc000020060000900320061044400e0844c002f
:100bd0000988a500050032008b05e8006808e100df
:100be00002003a008904d1000884d300f20f2000eb
:100bf0000258e10005003d00c75ddd00f907b200c5
:100c00008980750008007800000006000bf82700b6
:100c10008b007800000005000004be0031000700d2
:100c20000003be000405be000200be002d00070048
:100c3000844f7500000006000200be006450e10011
:100c4000050036006420e100020036000968a300b8
:100c500001003a000800be000160a0004f067800c5
:100c60004f05be004f04be0000000600f0ff2f003d
:100c7000f1ff2700f9ff3700889fbe008a9fbe0062
:100c8000841f7800e4ff07004f0078001100330054
:100c9000f0ff2f00838f6c0006003b000405650009
:100ca0000a00a7000800370009f0a6001000200085
:100cb00008003700820f5400838f5c000300390066
:100cc0001000200001003e000000200009f0a700f5
:100cd0000000ea004f05be004f04be000000e00027
:100ce00000000600c70ade00f107b200f50fb200ef
:100cf00008003200e1cf4200020032000170a00083
:100d000024000500810f7000010032000408050076
:100d100044000500810f700002003a001400050035
:100d20008502e9000000400081c04800fcff3b0054
:100d30000170a000240005002800fa00889fbe0072
:100d40008a9fbe008c9fbe0003866b0017030700be
:100d50000028a30064003a000128a30067003a00bd
:100d60000008a30062003a000108a30065003a00f1
:100d70001e009000be08900081064000ed3fb100cb
:100d8000f4805700ee019000111ab8008e0990000f
:100d9000311bb8009e099000311cb800511db800ed
:100da000f485570046000700fe0190003a00070056
:100db0008b85e8003e0007008e0990004000070088
:100dc000ee019000340007008b85e8003800070032
:100dd0008e099000400007009e0990001b18b80083
:100de000890440000a854800fe0190003400070095
:100df0008b85e80038000700ee0190003000070006
:100e00008e0990001b18b800890440000a8548002c
:100e10000a98a30008003a000402420085824a00b2
:100e200006034b0087834b0008044c0089844c0068
:100e30000a054d008d06e900848272008502730068
:100e40004c3add00850272000100320015002000de
:100e5000443ade001400b2004538de00cb45dd0028
:100e60000b007000c540de00cb4ddd008b807000b4
:100e70004549de00cb55dd000b017100c551de0098
:100e80000d037800e202070003f0a1000cf0a700b8
:100e900003f0a000d90237001b18b80085024000fb
:100ea00006834800e0834b0060044c0007003700d5
:100eb0001b18b8000603400087834800faff37007c
:100ec0001b18b8008703400008844800e0844c00e9
:100ed00060054d00000006001b18b8000804400023
:100ee00089844800faff37000108a300c0023a00d5
:100ef0005800be005801be00e3ff37000008a30001
:100f0000bb023a0009047800f9ff3700810378003a
:100f100074ff07000001be006000b8000478a30061
:100f200013003a006220e10015003e000d00390078
:100f30008301d1000281d3008180d3008301d100dd
:100f40000281d3008180d3008301d1000281d300cc
:100f50008180d3000538b000c42add00f300b20060
:100f60008381720007f0a70003f0a00000000600d4
:100f7000f3ff2700f2ff2f006110b900fbff3700dd
:100f800003ff2700f7ff37008f1fd100cc020700b7
:100f90008f87e9000000e00000000600801feb00e2
:100fa000c70207008f87e9000000e000000006008c
:100fb0001400fa00889fbe008a9fbe008c9fbe006e
:100fc0000005be000206be00680047000c90be008f
:100fd0000a90be00e30207006400e1001a0032003c
:100fe00016003e006100e1001a0032006e0490001d
:100ff000fe0490000e0b90009e0b90006011b80054
:101000009e0590000b38b100d5012000828171004f
:10101000610164008703d1000683d3008984d30073
:101020000884d3008502e900f8ff3a00d4fe0700e7
:101030000df0a70001f0a00070023700f1ff2700bb
:10104000f0ff2f006d02370001f82700000020009c
:10105000f7ff37006000b800f5ff3700e80207002f
:101060000509780000000600809feb00940207004d
:101070008f87e9000000e000000006002800fa0069
:10108000889fbe008a9fbe008c9fbe000706780026
:10109000878669000c003b00030478008704780011
:1010a00008f0a10009f0a100840f5000858f5800be
:1010b000860f5900890f5c00030033000cf0a2007a
:1010c00001003a000cf0a100380207006400e100c2
:1010d0005f003200780147006408e10061003200df
:1010e0006c014700748557003200be001201be003b
:1010f0003a04be001a05be001e039000be0a90000e
:101100008503530006003d000004fd008104fd003e
:101110000205fd008305fd008703ea000503780052
:101120000df8a3000400320060041400e0841c00e9
:1011300060051d00e0851d006022b8007d032000d1
:101140000d38e1008006eb000b0039004433dd0070
:10115000f300b2008301730039003700848272000b
:101160000d027800e10664008b85d1000a85d3006a
:101170008984d3000884d3008703e900f7ff3b008c
:1011800008004000898048000a0149008b8149001d
:1011900004003b0060001000e080180060011900ae
:1011a000e08119000358a300090032008d8272000b
:1011b00084827200610260008301d1000281d30049
:1011c0008180d3000080d3000603e8001b003700b5
:1011d0000348a30017003a000600e000170034009f
:1011e0000603e9000d00a3000000480081804800cc
:1011f00002014900838149000348a3000f003a001f
:101200000600e000090034000603e9000000400089
:1012100081804800020149008381490001003a00b1
:101220000003eb000348a300f5ff32006022b80082
:10123000020037008482720061826600f4010700b8
:1012400003f0a1000cf0a70003f0a000eb013700b1
:10125000640147006408e10002003a000df8a300b1
:10126000e3013a003200be001201be00e301370084
:101270001400fa00889fbe008a9fbe008c9fbe00ab
:101280000004be000205be00680047000a90be00d0
:101290000890be00330207000070a7000bf0a10009
:1012a0000bf8a30020003a009e0990000e09900060
:1012b000fe0090006e0090009e02900034432000db
:1012c00084825200cd0132000a003c00b4fc2f00a1
:1012d0000428e100140034008301d1000281d3000e
:1012e0008180d3000080d3008502e800faff3a0035
:1012f000c2013700b40020000428e10007003c00d0
:1013000000004000818048000201490083814900bb
:101310008502e900faff3a00b8013700030028000f
:1013200002002000010037006011b8006000b80022
:10133000b20137002800fa00889fbe008a9fbe00d5
:101340008c9fbe0003866b00980107006400e100db
:10135000440032006408e1004a0032006100e1000c
:10136000460032006108e10049003200ec06470007
:101370006000b8003d02be003d03be00f486570089
:101380006011b8003d04be003d05be007d03200095
:101390000b0037000000a0008d06e90013003200aa
:1013a0000402420085824a0006034b0087834b00fb
:1013b000000040008180480002014900838149000b
:1013c0000802520089825a000a035b008b835b008b
:1013d000f0ff3b000802420089824a000a034b00ea
:1013e0008b834b008d06e900edff3a00848272008a
:1013f00086827200f707b200878272000100320015
:10140000150020001e0490003e0b900006035400bf
:10141000e63fb0000368a300070032000000a70009
:101420000500a0008301d1000281d3008180d30098
:101430000080d3000603e8008301d1000281d300bd
:101440008180d3000080d3000002eb000482d20030
:101450006f01070003f0a1000cf0a70003f0a0004b
:1014600066013700640247006408e1006001320051
:101470003400be003401be00f6ff37006108e10011
:101480005b0132006011b8006000b800f1ff370066
:1014900003ff270002002000fbff3700889fbe00eb
:1014a000830478000300e0002c00350003003c00ba
:1014b00000827000040271002600320036432000d2
:1014c000c50020008383cf000a0039000541b10028
:1014d0008283cf00070039000541b1008183cf002e
:1014e000040039000541b1008083cf0001003900bc
:1014f0000541b10085c353006022b80012003200dc
:101500000a003b0084827200610260008301d10006
:101510000281d3008180d3000080d3000603e8005d
:101520008743e800f7ff3a0007003700000040005b
:101530008180480002014900838149000603e900d7
:101540008743e900f9ff3a003101070009f0a700dd
:1015500003f0a0004f04be00000006006000100071
:10156000e080180060011900e0811900d3ff3b0002
:10157000033e2c00f7ff370007f0a200bffe370044
:10158000881f7800000478005001be004000be00b3
:101590000400400085804800060149008781490019
:1015a000009cbe000294be000400e1000588e1003a
:1015b0000690e1000798e100020031006800440055
:1015c0001008e8004f04780000000600f487470088
:1015d000889fbe008a9fbe008c9fbe008e1f780031
:1015e0000205be000004be00d4b79f00e5b79f000f
:1015f000f6b79f0087bf9f000000eb00c0b79f00b9
:10160000b0b79f00a0b79f0090b79f0080b79f0022
:101610000d042000bfb097004fb0970000014000bc
:101620000000e0000f003d004f08de0000007100e8
:10163000c0b79f009e00070001003d00120020007f
:10164000a100070001003d0012002000a6000700d5
:10165000b1000700b60007000f004000c8ff0700f8
:10166000220037004f08de0000067100ccb79f0053
:101670008f00070001003d001200200092000700cb
:1016800001003d001200200097000700a2000700a3
:101690000fb297009fb297002fb39700bfb3970088
:1016a000a90007000000520081805a0002015b007f
:1016b00083815b0080b79f0091b79f00a2b79f0016
:1016c000b3b79f000007eb009f0007000020e10078
:1016d00001a8e10002b0e10003b8e100010031001f
:1016e0001e0020000e005600c0b79f004fb29700aa
:1016f0000400e00007003500100020000100200079
:101700006011b80008047000898470000a05710037
:101710008b8571008d06e900beff3a000400e000f1
:1017200003003d00820007000f00400094ff070007
:101730004fa897000000e00004003a000fb49700a3
:101740009fb497002fb59700bfb59700940007008e
:101750004f0778004f06be004f05be004f04be0085
:101760004f01b10000000600881f7800180020001b
:10177000881f780095ff07008f87e9004f047800e5
:1017800000000600801feb0090ff07008f87e90034
:1017900000000600889fbe008a9fbe008c1f780054
:1017a0006e00070007003d0073000700e00f5b00bc
:1017b000e08f5b0007003d00320007000006eb00f1
:1017c000040037003400070002003d002a00070033
:1017d0001c00200072000700e3ff07000203be00a8
:1017e0000002be000c00e0000100320022000700f1
:1017f0000400be000601be004f0678004f05be0083
:101800004f04be0000000600889fbe008a9fbe00f5
:101810008c1f78005100070005003d0056000700ae
:10182000e00f5b00e08f5b0006003d000400370026
:101830001900070003003d006000b8006011b80007
:101840001000070056000700ceff07000203be008d
:101850000002be000c00e00001003200060007009c
:101860000400be000601be004f0678004f05be0012
:101870004f04be00000006006000b8006011b80010
:10188000000037000402500085825800060359000a
:1018900087835900000006000006eb00e00f5200ad
:1018a000e08f5a00e00f5b00e08f5b000000060055
:1018b0000180400090b79f000001eb008fb09700bf
:1018c0000100e000000006000200700090b79f00d9
:1018d0000180400080b79f000001eb00ffa8970047
:1018e0000100e000000006000200700080b79f00c9
:1018f000018040006faa9700cf20de000100700039
:10190000f0af9f0004024200250007004f18de00e0
:101910000002720000000600e4af9f0008044400cb
:1019200089844c000a054d008b854d00000006009f
:101930003fb29700cfb297005fb39700efb3970025
:1019400000fe2f00000006003fb09700cfb09700c8
:101950005fb19700efb19700000006000205be00de
:101960000004be00e00f5000e08f5800e00f590067
:10197000e08f5900000006006000b8006011b80058
:1019800008045000898458000a0559008b855900c5
:101990001c002000e00f5200e08f5a0000000600fb
:1019a0000800be000a01be000000060068044700ef
:1019b0000294be000094be00fc0447008694be0062
:1019c0008494be00090078006600070008007800d3
:1019d0006400070099007800814f70000b003b0005
:1019e0000800be00930007004f00b100030037005d
:1019f000f3ff2700f2ff2f006110b9004f06be0071
:101a00004f05be004f04be000080fa000000060033
:101a10001800200057002000080453000d003d006e
:101a20000600200097fc2f000740e1001e00340054
:101a300084827200610260008301d1000281d300c0
:101a40008180d3000080d3000804e800f8ff3a004a
:101a50004700200061046000050474000404640071
:101a60000d00320061004000e08048006001490044
:101a7000e081490003b8a500070032000603e80032
:101a80006538e10004003a008301d1000281d300ef
:101a90008180d3000080d300f87f20000830e1006f
:101aa00003003500080378006000b8006011b8003a
:101ab0004433dd00f300b200830173000000060030
:101ac000889fbe008a9fbe008c9fbe000404be009b
:101ad0000605be00809fbe00829fbe006300070017
:101ae000040678000800be000a01be005f0007007f
:101af000840678004f03be004f02be008d4f760073
:101b00007fb0970013003300f0ff2f008b8f6b0026
:101b100006003b000d0666000c00a7000a00370017
:101b200007f0a600100020000a003700880f5200be
:101b3000898f5a008a0f5b008b8f5b00030039008e
:101b40001000200001003e000000200007f0a70068
:101b50000000ea004f06be004f05be004f04be0065
:101b600000000600800078005002be005003be0056
:101b70004439de00f700b200f37f2000030161006a
:101b8000090032000218e10016003a0085017200d7
:101b900083017300838173000008200015003a0060
:101ba000400020001300370085017200830173009c
:101bb0008381730005003a0004a8be0006a8be0099
:101bc000100020000b0037000201e900040242006f
:101bd00085824a0006034b0087834b000748a30019
:101be000f9ff32000740a00004a8be0006a8be000e
:101bf000200020008000980092009800000006005d
:101c00000003be0037fc07006220e1000200320042
:101c10000600be0005000500e507b100f107b200af
:101c200004f023008480700007f0a70001f0a000fa
:101c300024000500e48240001078a3000700320071
:101c4000640240001178a3003400be001401be00fd
:101c5000040032000330a700000006003500be007b
:101c60001501be000330a0000000060005ff27009c
:101c700005826100070032000428e1000100320003
:101c8000240005000600070001003a00440005009a
:101c90000408050002000700f9ff3a0014000500df
:101ca0006f826100810270008502710085027200fe
:101cb000000006000c00fa00889fbe0000047800b7
:101cc000cfb09700f0ff2700d0bf9f008004eb004b
:101cd00099bf9f0088bf9f00a8bf9f00200c2000d5
:101ce000b0bf9f00788157007080570053010700f4
:101cf0000fb89700094878000fb897000804500003
:101d0000080078004f04be000080fa0000000600c2
:101d1000e6874700889fbe008a9fbe008c9fbe005a
:101d20008e1f780000047800810678000100e00032
:101d300003003200800e7800010037000804e8003c
:101d4000984478000900fb0005fa0700800078003d
:101d50000000e000f9ff3a00d0c2b30080cf540089
:101d600003003a000804e8001bc0b3000500370078
:101d7000b0c2b30080cf540001003a000804e8006c
:101d8000814578000005eb000a0778006000b80084
:101d9000f0b79f0081bf9f000b48a30005003a00e9
:101da000e0c2b300984f100002003a000b44a000bc
:101db0001e003700984478000900fb000cfd2f003e
:101dc0000c004000e90f50001a003e000b14a00068
:101dd0000b00fb00e90f5500110032000048a30082
:101de000010032000e07e9000a05e800a200200009
:101df000030020007fb097008fb8970017fa070004
:101e00000cc144000281fb000300200000004100df
:101e100081804900f0b79f0081bf9f000300370019
:101e20000048a30001003a000e07e8000804e8009b
:101e3000d9ff370050c6b30080cf540004003200f1
:101e40000002eb0050c4b30080cf540032003a00cf
:101e50008801e80093407800d0c2b30080cf5000e2
:101e600002003a000b34a00003003700b0c2b300f8
:101e700080cf500003003a008881e800010037005d
:101e80008301e8009340780006c3b30086cf50007a
:101e9000fbff32000100fb0005fd2f0005004000a4
:101ea000e90f500003003600030478000002eb0045
:101eb0001600370006c050000082fb000304e80053
:101ec000184178000200fb0005004000e90f5000b7
:101ed0000e003e006a20b900064151000281fb005d
:101ee000000241000384e800984078000100fb00f4
:101ef00005004000e90f500004003e006a21b900cf
:101f000006c050000080fb00020240000b38a30016
:101f1000010032000402ea00040547000d00e00061
:101f2000030032000b18a30001003200880e780075
:101f30007fb097008fb89700def907000004be005d
:101f40000006be006011b800b4fa07006011b800c6
:101f50000000e0005900320030f82f00800f5500db
:101f600003003d0020022000c057880053003700c6
:101f700000082000800f55000a00340020022000d5
:101f8000c05788000b08a3000300320002002000a5
:101f900003f82f00490037000200200003f8270053
:101fa000460037000a00e0001c003d000a05ea0078
:101fb00006003700922f2000530125000800be00c4
:101fc00045fa07000004be006a055500e90f5500f8
:101fd000f8ff3c000006eb0006003700020020007e
:101fe000031224000800be003bfa07000004be00f4
:101ff0000c06e8008a0f5600f8ff3a000806be00fb
:1020000002002000030820000800be0083fa070039
:102010000000e00025003d001c0037000a00e00041
:1020200007003c0021003700922f200053012500bb
:102030000800be007bfa07000004be006a055500d8
:10204000e94f5500f8ff3e000006eb0006003700a0
:1020500002002000031224000800be0071fa0700ed
:102060000004be000c06e8008a0f5600f8ff3a0094
:102070000806be00f2ff2f00f3f727000800be009d
:10208000bdfa07000000e000080034000b08a300c0
:102090000300320002002000030828000700370078
:1020a0000200200003082000040037000b08a300f2
:1020b000010032000df0a2000c01be000200be00c3
:1020c0004f0778004f06be004f05be004f04be000c
:1020d0006f00b100000006008000eb000cff37002d
:1020e000889fbe008a1f7800804078000004e000ce
:1020f00021003d008040ea00d0c6b30080cf5000f0
:10210000090034008104fb00420620001100090090
:102110008204d80000017800010078004311dd003e
:102120004a8b20001f0037000100fb00438b20007a
:1021300039003700a2002000110009000200d80079
:1021400000017800010078004311dd000301410027
:102150004300dd00030040003002be002003be004b
:1021600042209000d2209000f22190006221900045
:10217000f1fa07002e003700d0c6b30080cf500020
:10218000230034008104fb004206200011000900f6
:102190008204d80000017800010078004311dd00be
:1021a0004a9620000a014100a80020001100090001
:1021b0000800d8004300dd000a00400040229000e3
:1021c000d022900060239000f023900002889000bd
:1021d00092889000b289900022899000d6fa070078
:1021e000801f780001027800110009008804d800df
:1021f0000102fd004f0078000402fb004322dd00d5
:102200000a0242005403be004402be00d8ff370059
:102210000100fb0043962000eacf5000c5ff3c00c0
:102220004300dd00030040005001be004000be003e
:102230004f0578004f04be00000006004f03b000b9
:10224000889fbe008a9fbe008c9fbe008e1f7800b4
:10225000e0b79f00f1b79f0082bf9f000000eb0036
:10226000b0b79f00670437008001eb0050c2b30095
:1022700080cf5000090032000100fb00efb0970052
:102280006d040700e10f40005e043200bfb097000c
:102290008100e800b1b79f005a0437007fb1970072
:1022a00092407800d0c2b30080cf50000c003200c2
:1022b00007003c006d40500080cf50000d00320000
:1022c0006b40400080cf500019003a000e003700ec
:1022d00000c3b30080cf500015003a000f00370054
:1022e0000330a0007fb297000402e800f4b79f001b
:1022f000eaff37000300a000ffb297008502e80064
:10230000f5b79f00e5ff37000310a0007fb69700e8
:102310000c06e800fcb79f00e0ff37000320a00098
:102320007fb097000000e800f0b79f00dbff3700a8
:102330000318a300010032000300a1000338a3002a
:10234000010032000320a1000100fb0002fd2f006c
:1023500002004000e90f500010003e008000eb003a
:10236000c1a79f00020278004fa197006a10b90030
:10237000ffb297001501fb0000014100040141007c
:10238000c2a79f005500fb00f5b79f000400400066
:10239000e90f50000d003e00f3ff37000006eb0090
:1023a000cca79f00a0c2b30080cf500007003a0026
:1023b0000fb89700c000780080bf9f00c1a79f00a2
:1023c0007fb197000201e800f2b79f00e0c2b300be
:1023d0007fb29700944f100021003a0083067800e6
:1023e0000de0a0008400e80064405000914f100010
:1023f00004003200f1b79f008002eb00c5b79f00d8
:10240000100037000fbe97004c0078008cbf9f0073
:10241000c0b79f00ffb097008180e800f1b79f0030
:10242000130037004fb297006a20b9000000410046
:1024300003004000c0b79f00ffb297008502e8008c
:10244000f5b79f007fb697001c01fb0003fd2f002e
:1024500003004100e90f5000f2ff3600040037008e
:10246000830678000dc0a0000000eb00c0b79f00fd
:102470007fb19700b2407800f2b79f0081c79f00fc
:10248000c0c6b30080cf50001400320009003c00e9
:102490006940500080cf500065003200634040002a
:1024a00080cf5000130032000104e000db03320053
:1024b0007e00370050c7b30080cf50007f0032004d
:1024c0006340400080cf50000d0032006540500056
:1024d00080cf500075003a000c0037000000280043
:1024e0000d48a30001003a0000012000808676001c
:1024f000dfff37000d0778000ea0a0007100370045
:102500000d0778000e70a0006e0037008fb997009d
:102510004300780083bf9f00000478000000e000c3
:1025200001003a00a8ad20008004eb000100370054
:102530008104e80089007800088044001004e0006d
:10254000fbff3a004fb297000400e00003003200a6
:10255000890f520001003100840478000007eb006d
:10256000cfa29700898f52000100360009875200e0
:102570004368de00e106600019003a000d067800ad
:1025800009003700efb0970000022000aa030700ff
:10259000e10f4000030032003fb097000000e80068
:1025a000b0b79f000c06e8008e0f5600f5ff3a000a
:1025b0000087eb000a003700880078003100fb003c
:1025c00001047800efb097009b030700e10f400083
:1025d00003003200bfb097008100e800b1b79f0050
:1025e0000900e90080047800e10f4000f2ff3a00a2
:1025f0000006eb000d00e0000a003a0081033700fe
:10260000efb09700000220008b030700e10f4000ad
:10261000030032003fb197000201e800b2b79f000b
:102620000c06e8008e0f5600f5ff3a0075033700e0
:102630008fb997004300780083bf9f00cf80de00f2
:1026400001017800820178000205be000004be008e
:102650000203be000002be004822de00482edd005c
:102660000402760084c79f000d48a3000a003200d0
:102670000404e00008003200e14f4200060032008e
:1026800011fc2f0001804700044878001840980092
:10269000290020000200370090c79f001900200089
:1026a00012fc2f0002844700a6ff370003fc2f0016
:1026b0000384470019002000a2ff37000d077800af
:1026c0000e0cb300007020000002670027023200e9
:1026d0000ec8a3000200320064002000c4b79f00af
:1026e0000e48a300050032000fba97004401be0057
:1026f0004400be0084bf9f00040037008fba9700db
:102700004500be0085bf9f0000fa0700f0af9f00a4
:1027100081b79f0092b79f00a3b79f006022b800c7
:102720006033b8007fa897008fb097001fb1970063
:10273000afb1970014fa07000000e0000a003d0066
:102740007fa897008fb097001fb19700afb1970097
:1027500003f0a200f0af9f0081b79f0092b79f00e7
:10276000a3b79f003e00b3000000eb00a0a79f00ae
:102770006022b8006033b8007fa897008fb0970040
:102780001fb19700afb1970004fa07000000e00006
:10279000340032007fa897008fb097001fb19700d8
:1027a000afb1970002fa070043fc2f0003814700f6
:1027b0002afa07002fa097000000e9006300b90083
:1027c000a2002000110009000200d8008000fd00d6
:1027d000a1a79f000100e00002003d000100e90008
:1027e000a0a79f002fa497000840ea003cfe070026
:1027f0007faa97008fb297001fb39700afb39700df
:102800004df90700b0af9f00c1af9f00d2af9f004e
:10281000e3af9f006022b8000600200007ff2300fe
:10282000d9f907000000e00002003d000800e900bf
:102830000b0037006022b800060020004702240089
:102840003fa89700cfa897005fa99700efa997002e
:1028500005fa07000000e000020035000800e8006b
:10286000a0a79f004fb29700f80f520057003c00fe
:10287000d0c6b300804f5200290036000485fb000b
:1028800042062000110009000285d80000017800ee
:10289000010478004311dd004b8b20000b01410047
:1028a0006022b8000600200007fe23000288900086
:1028b00092889000b2899000228990001ef907004a
:1028c000a9002000809fbe00110009000984d800e3
:1028d000000478004f00be004344dd000b044400b8
:1028e00048229000d822900068239000f82390009e
:1028f00011f90700801f780001027800110009001b
:102900000985d8000102fd004f0078004322dd0058
:102910000b0242005403be004402be001f003700f9
:102920000480fb00498b2000ea4f5200140036005f
:10293000a2002000110009000280d80000017800e8
:10294000010478004311dd00090141006022b80054
:102950000600200007fe230042209000d2209000b5
:10296000f221900062219000f3f807004344dd005b
:10297000090444003802be002803be0007003700e7
:102980004300dd00090040006022b800060020007e
:1029900007fe23005001be004000be00e6f807001d
:1029a0000002be000203be007fa897008fb0970010
:1029b0001fb19700afb19700b0f90700f0af9f00cb
:1029c00081b79f0092b79f00a3b79f002fa49700e5
:1029d000e90f540015003c006022b8006033b800d5
:1029e0007fa897008fb097001fb19700afb19700f5
:1029f0006af907000000e000320032007fa897006b
:102a00008fb097001fb19700afb1970018fa070079
:102a1000e00f5000e08f5800e00f5900e08f5900a0
:102a200028003a00e10f5400260034000400200082
:102a300005002e00b6e02200170124003fa89700f1
:102a4000cfa897005fa99700efa997004ef907005c
:102a50000000e00002003d00730054000100370058
:102a600072005400a0a79f004fc097009cfd070074
:102a7000b0af9f00c1af9f00d2af9f00e3af9f00f8
:102a80000002be000203be007fa897008fb097002f
:102a90001fb19700afb1970026fa0700f4f90700bd
:102aa0000205be000004be006000b8006011b8005e
:102ab000d0a79f00e1a79f00f2a79f0083af9f00d0
:102ac0002e0037007fa897008fb097001fb19700a6
:102ad000afb19700e6f907000205be000004be0092
:102ae000e00f5000e08f5800e00f5900e08f5900d0
:102af0000200350069fa07001300370010002000bb
:102b0000010020006011b8000800600089806000aa
:102b10000a0161008b8161008b03d1000a83d3001d
:102b20008982d3000882d300000072008180720085
:102b3000020173008381730058fa07000002be008f
:102b40000203be004df907000002be000203be00f2
:102b50007fa897008fb097001fb19700afb1970083
:102b600085fa0700d0a79f00e1a79f00f2a79f006a
:102b700083af9f000000eb00a0a79f0014c0b3002c
:102b800045a120000b0037000400fb004300dd00de
:102b9000050040005001be004000be000040e100c2
:102ba00001c8e10002d0e10003d8e10003003900d0
:102bb0000442e800f44f5200f3ff3a0084c79f003c
:102bc0000400fb00cfb0970000804000afa097004a
:102bd000010040004fa1970080065100cfb197003f
:102be0000300e000010032008d06e9006300670089
:102bf000010032008d06e9000e28a30026003200f5
:102c0000e10067000e18a3000c003200d002200083
:102c10000100e00001003a000080e900efb09700f9
:102c200005020700e10f4000180032003fb2970094
:102c30000402e800b4b79f00140037000100e00070
:102c400012003200efb0970000022000fa010700e6
:102c5000e10f40000d003200bfb297008502e8008e
:102c6000b5b79f0009003700efb0970000032000c0
:102c7000f1010700e10f4000030032003fb697006a
:102c80000c06e800bcb79f008d06e9000d00e000cf
:102c9000f5ff3c003d0037000e38a3000a0032006b
:102ca0000b003700efb0970000022000e2010700a0
:102cb000e10f4000030032003fb097000000e80041
:102cc000b0b79f008d06e9000d00e000f5ff3c0065
:102cd000e10067000e18a3000c003200d0022000b3
:102ce0000100e00001003a000080e900efb0970029
:102cf000d1010700e10f400024003200bfb097006f
:102d00008100e800b1b79f00200037000100e0001b
:102d10001e003200efb0970000022000c60107003d
:102d2000e10f4000190032003fb197000201e800b6
:102d3000b2b79f00150037000000fb004300dd0024
:102d400041a12000010040003002be002003be006f
:102d50000800be000a01be0083fa0700a40020009c
:102d6000050020006033b80086fa07000003b000b9
:102d7000efb09700b0010700e10f40000300320000
:102d8000bfb197008301e800b3b79f000fc297005f
:102d90000440e90080c79f00e14f4000e6ff3a0091
:102da0000b003700efb0970000032000a2010700de
:102db000e10f400003003200bfb297008502e80037
:102dc000b5b79f002fa097000000e900a0a79f00c3
:102dd0002fa097000000e000f2ff3c004fb69700e4
:102de00020c1b300f20f560001003c000fe897002d
:102df00080c79f008fc097000100fb004fb1970074
:102e00000000510090af9f000104e0000800320074
:102e1000efb09700e002200087010700e10f4000bb
:102e200003003200bfb197008301e800b3b79f00f1
:102e30000fc09700aafc07000002be000203be00fc
:102e40005fa09700efa097007fa197008fa9970040
:102e5000b9f7070006f907001e0037000000fb0065
:102e60004300dd004ca120000c0040003002be00f9
:102e70002003be000800be000a01be003afa0700a7
:102e8000a4002000050020006033b8003dfa0700d0
:102e90000003b000efb0970067010700e10f4000aa
:102ea000030032003fb297000402e800b4b79f006d
:102eb0008fc297000500fb004300dd000c004000be
:102ec0003002be002003be000800be000a01be00a2
:102ed0002cfa07000205be000004be000fc69700d2
:102ee0000c40e90080c79f00e14f4000dbff3a0043
:102ef0000006eb0009003700efb097000003200048
:102f00004d010700e10f4000030032003fb0970081
:102f10000000e800b0b79f000c06e8009fa89700eb
:102f2000810f5600f4ff3a000e38a300350132003d
:102f30000d00e000330134000006eb00efb0970015
:102f4000000220003c010700e10f400003003200b6
:102f50003fb197000201e800b2b79f000c06e800fd
:102f60008d0f560027013200f4ff37000e00e000fd
:102f700005003d008fb997004305be004304be0025
:102f800083bf9f00110037000e48a30008003200e5
:102f90008fba97004500be0085bf9f0004017800ee
:102fa000840178000205be000004be00070037005f
:102fb0000fbe97004c0078008cbf9f000004780083
:102fc000090020000a0020000b0020004fb09700ed
:102fd0000000e00007003a00e00f5400e08f5c00c2
:102fe000e00f5d00e08f5d0002003a00110020005c
:102ff000c1b79f000e017800020cb200d2b79f004b
:1030000000082000800f510014003200000c200046
:10301000800f510025003a0014c0b30045a12000e4
:103020000b0037000400fb004300dd0005004000fa
:103030005001be004000be000040e10001c8e100b8
:1030400002d0e10003d8e100170039000442e80093
:10305000f44f5200f3ff3a00130037000001200044
:10306000010020006011b80014c0b3000040e1006e
:1030700001c8e10002d0e10003d8e1000a003900f4
:10308000450020000000d0008180d2000281d200e3
:103090008381d2008502e900faff3a000442e80089
:1030a000f04f5200f1ff3a0084c79f000fc697000f
:1030b0000c00fb00cfb09700810f500002003d00d4
:1030c00081c79f00040037004fb19700800f510067
:1030d00001003d00c0b79f00cfa197000300e000b2
:1030e0000400320063006700020032008301e9003f
:1030f000c3a79f000ee8a3000b0032004fa2970069
:10310000cfb29700850f520003003c000006eb0091
:10311000cca79f00040037004fa09700cfb09700c6
:1031200001005000c0a79f000fc197000200fb00e4
:103130008001eb00b3a79f004fa29700800f5200c1
:103140000200340000005200b0a79f000e28a30028
:1031500034003200e10067000e18a3000c003200ba
:10316000d00220000100e00001003a000080e900e8
:10317000efb09700b0000700e10f40000e003200f2
:10318000bfb297008502e800b5b79f000a0037007c
:103190000100e00008003200efb0970000022000bc
:1031a000a5000700e10f4000030032003fb6970082
:1031b0000c06e800bcb79f003fa097000000e000ad
:1031c0000f0032000006eb00efb097000003200074
:1031d00099000700e10f400003003200bfb09700e4
:1031e0008100e800b1b79f000c06e8003fa19700fe
:1031f000820f5600f4ff3a008001eb00b3a79f0056
:103200004fb297004320dd00c1a02000810640009e
:103210004220dd00640650008002eb00a5af9f0055
:10322000620037003fa697000c00e000110032005a
:10323000680067000f003a0000067800efb09700c2
:10324000000220007c000700e10f40000300320074
:103250003fb097000000e800b0b79f000c06e80000
:10326000bfa09700810f5600f4ff3a000001eb0069
:10327000b2a79f00e10067000e18a3000c00320007
:10328000d00220000100e00001003a000080e900c7
:10329000efb0970068000700e10f4000d8ff320050
:1032a000bfb197008301e800b3b79f00d4ff370098
:1032b0000100e000d2ff3200efb0970000022000d2
:1032c0005d000700e10f4000cdff32003fb29700e4
:1032d0000402e800b4b79f00c9ff370000082000cf
:1032e000dfb29700808f520010003200000c2000e7
:1032f000808f52001f003a003d02be002d03be0029
:103300000800be000a01be0017f90700a400200053
:10331000050020006033b8001af9070004c3b300a9
:103320000442400084c79f001200370014002000b0
:10333000050020006033b8000c0078000000e900b0
:10334000050033000402d0008582d2000683d2003b
:103350008783d200f9ff37000800be000a01be00d3
:1033600001f907006f00600014ae2000644278008d
:1033700084c79f008fc097000100fb00efb097004b
:103380002d000700e10f4000030032003fb197001d
:103390000201e800b2b79f00afa997008301e800df
:1033a000a3af9f00e8865600640656002faa970038
:1033b000cfb29700850f5200c8ff3a000e38a30025
:1033c000100032003fa697000c00e0000d00340012
:1033d0000006eb00efb09700000220001600070087
:1033e000e10f4000030032003fb097000000e8000a
:1033f000b0b79f000c06e800bfa09700810f5600f1
:10340000f4ff3a007fb19700b2407800f2b79f0016
:1034100081c79f000104e00093fb3a003fb0970092
:103420004f0778004f06be004f05be004f04be0098
:103430004f03b10000000600889fbe000001780025
:1034400001047800b10090000118a3003d00320093
:103450000198a30003003a00180090000000e0006b
:1034600038003a000190a0003104980082047800ee
:10347000f90fb200180090000000e00002003a00ce
:1034800028009000000c7800ea8f540006003a00f3
:10349000380090000078a30003003a00880078000c
:1034a000d0002000e4ff0700980090005800900032
:1034b000808f50000b0032000100e80010049800db
:1034c0001800780009587800000c780011c0b3008b
:1034d00060af200001487800ea8f540006003200f7
:1034e00019003700880078000940780019000700ab
:1034f0008004780014003700380090000088a30092
:103500001100320018019000a800900048009000bf
:103510001bf4070098009000810f50000400320057
:10352000380090000003b300300498008084eb0062
:103530000000eb001004980028009000000c7800b8
:10354000010037008084eb00090078004f04be00c2
:10355000000006000200fa00889fbe00a0ff9f0046
:1035600001047800b1009000810478000904b200e1
:10357000020032000000fb00360037000118a300f3
:1035800005003a000103b3003104980019049800c3
:103590000080eb002f003700580090000000e00092
:1035a00006003a004800900012002000e680570014
:1035b000f3f3070019049800240037002800900056
:1035c0000000e00008003a0020af2000200498002e
:1035d000000c78002000200050049800100498008f
:1035e0000130a0003104980018019000a80090005c
:1035f00048009000e2f3070028009000000c7800db
:103600000080eb001004980018007800aff89700d5
:1036100001587800000c78002ff89700ea4f50000e
:103620000a003a00380090000088a300070032002a
:1036300018019000a800900048009000d0f3070007
:1036400019049800a8009000010c7800aff89700ca
:103650000100fb004f04be000080fa0000000600dd
:020000040000fa
:10000800ac020000ac020000ac020000ac02000030
:10001800ac020000ac020000ac020000ac02000020
:10002800ac020000ac020000ac020000ac02000010
:10003800ac020000ac020000ac020000ac02000000
:020000040000fa
:020000040000fa
:103660002566000000000000256600000000000044
:020000040000fa
:103670000000fa0000202100a107200079f30700d4
:1036800000202100a107200076f3070050c5b300f9
:10369000ce06070030118000e60f5000fdff3a0013
:1036a00050c4b300c906070030118000e60f500077
:1036b000fdff3a0090c5b300c406070040c0b30048
:1036c000c206070010c0b300c0060700301180001a
:1036d000e60f5000fdff3a0020c4b300bb06070010
:1036e0000040eb00b90607000040eb00b7060700fa
:1036f00030118000e60f5000fdff3a00f0c4b30027
:10370000b206070010c0b300b006070030118000f9
:10371000e60f5000fdff3a000080fa0000000600ae
:103720000000fa0060c4b300a806070030c0b30070
:10373000a606070030118000e60f5000fdff3a009a
:1037400000a821006100200046f3070040c5b30037
:103750009e06070020c4b3009c06070010c0b300fb
:103760009a06070010c0b3009806070000c0eb00df
:103770009606070000c0eb00940607003011800099
:10378000e60f5000fdff3a0000a821006100200074
:1037900034f3070040c5b3008c06070090c6b300a1
:1037a0008a06070020c0b3008806070010c0b300d7
:1037b0008606070000c0eb008406070000c0eb008f
:1037c0008206070030118000e60f5000fdff3a002e
:1037d00000a821006100200022f3070040c5b300cb
:1037e0007a060700e0c6b3007806070030c0b300d1
:1037f0007606070010c0b3007406070000c0eb0097
:103800007206070000c0eb00700607003011800050
:10381000e60f5000fdff3a0000a8210061002000e3
:1038200010f3070040c5b30068060700f0c6b300f8
:103830006606070040c0b3006406070010c0b3006e
:103840006206070000c0eb006006070000c0eb0046
:103850005e06070030118000e60f5000fdff3a00c1
:1038600000a8210061002000fef2070040c5b3005f
:103870005606070030c6b3005406070050c0b30018
:103880005206070010c0b3005006070000c0eb004e
:103890004e06070000c0eb004c0607003011800008
:1038a000e60f5000fdff3a0000a821006100200053
:1038b000ecf2070040c5b3004406070050c7b30050
:1038c0004206070060c0b3004006070010c0b30006
:1038d0003e06070000c0eb003c06070000c0eb00fe
:1038e0003a06070030118000e60f5000fdff3a0055
:1038f00000a8210061002000daf2070040c5b300f3
:1039000032060700c0c6b3003006070070c0b3001f
:103910002e06070010c0b3002c06070000c0eb0005
:103920002a06070000c0eb002806070030118000bf
:10393000e60f5000fdff3a0000a8210061002000c2
:10394000c8f2070040c5b3002006070010c6b30048
:103950001e06070080c0b3001c06070010c0b3009d
:103960001a06070000c0eb001806070000c0eb00b5
:103970001606070030118000e60f5000fdff3a00e8
:1039800000a8210061002000b6f2070040c5b30086
:103990000e06070020c7b3000c06070090c0b30056
:1039a0000a06070010c0b3000806070000c0eb00bd
:1039b0000606070000c0eb00040607003011800077
:1039c000e60f5000fdff3a0000a821006100200032
:1039d000a4f2070040c5b300fc05070080c4b30093
:1039e000fa05070020c0b300f805070030c0b30097
:1039f000f605070000c0eb00f405070000c0eb006f
:103a0000f205070030118000e60f5000fdff3a007c
:103a100000a821006100200092f2070040c5b30019
:103a2000ea05070050c6b300e805070030c0b30040
:103a3000e605070030c0b300e405070000c0eb0056
:103a4000e205070000c0eb00e00507003011800030
:103a5000e60f5000fdff3a0000a8210061002000a1
:103a600080f2070040c5b300d805070010c6b300b8
:103a7000d605070040c0b300d405070030c0b3002e
:103a8000d205070000c0eb00d005070000c0eb0026
:103a9000ce05070030118000e60f5000fdff3a0010
:103aa00000a82100610020006ef2070040c5b300ad
:103ab000c605070040c6b300c405070050c0b300e8
:103ac000c205070030c0b300c005070000c0eb000e
:103ad000be05070000c0eb00bc05070030118000e8
:103ae000e60f5000fdff3a0000a821006100200011
:103af0005cf2070040c5b300b405070000c2b30084
:103b0000b205070060c0b300b005070030c0b300c5
:103b1000ae05070000c0eb00ac05070000c0eb00dd
:103b2000aa05070030118000e60f5000fdff3a00a3
:103b300000a82100610020004af2070040c5b30040
:103b4000a2050700a0c3b300a005070070c0b30022
:103b50009e05070030c0b3009c05070000c0eb00c5
:103b60009a05070000c0eb0098050700301180009f
:103b7000e60f5000fdff3a0000a821006100200080
:103b800038f2070040c5b3009005070000c5b30038
:103b90008e05070020c0b3008c05070040c0b300ad
:103ba0008a05070000c0eb008805070000c0eb0095
:103bb0008605070030118000e60f5000fdff3a0037
:103bc00000a821006100200026f2070040c5b300d4
:103bd0007e05070090c6b3007c05070030c0b30027
:103be0007a05070040c0b3007805070000c0eb006d
:103bf0007605070000c0eb00740507003011800057
:103c0000e60f5000fdff3a0000a8210061002000ef
:103c100014f2070040c5b3006c05070040c7b300ad
:103c20006a05070040c0b3006805070040c0b30044
:103c30006605070000c0eb006405070000c0eb004c
:103c40006205070030118000e60f5000fdff3a00ca
:103c500000a821006100200002f2070040c5b30067
:103c60005a05070030c6b3005805070050c0b3001e
:103c70005605070040c0b3005405070000c0eb0024
:103c80005205070000c0eb0050050700301180000e
:103c9000e60f5000fdff3a0000a82100610020005f
:103ca000f0f1070040c5b3004805070080c6b30027
:103cb0004605070060c0b3004405070040c0b300dc
:103cc0004205070000c0eb004005070000c0eb0004
:103cd0003e05070030118000e60f5000fdff3a005e
:103ce00000a8210061002000def1070040c5b300fc
:103cf00036050700a0c3b3003405070070c0b30049
:103d00003205070040c0b3003005070000c0eb00db
:103d10002e05070000c0eb002c05070030118000c5
:103d2000e60f5000fdff3a0000a8210061002000ce
:103d3000ccf1070040c5b3002405070020c5b3003f
:103d40002205070020c0b3002005070050c0b300c3
:103d50001e05070000c0eb001c05070000c0eb00bb
:103d60001a05070030118000e60f5000fdff3a00f1
:103d700000a8210061002000baf1070040c5b3008f
:103d80001205070010c6b3001005070030c0b300cd
:103d90000e05070050c0b3000c05070000c0eb0083
:103da0000a05070000c0eb0008050700301180007d
:103db000e60f5000fdff3a0000a82100610020003e
:103dc000a8f1070040c5b30000050700e0c6b30036
:103dd000fe04070040c0b300fc04070050c0b3005d
:103de000fa04070000c0eb00f804070000c0eb0075
:103df000f604070030118000e60f5000fdff3a0086
:103e000000a821006100200096f1070040c5b30022
:103e1000ee04070070c6b300ec04070050c0b30006
:103e2000ea04070050c0b300e804070000c0eb003c
:103e3000e604070000c0eb00e40407003011800036
:103e4000e60f5000fdff3a0000a8210061002000ad
:103e500084f1070040c5b300dc04070050c6b3007e
:103e6000da04070060c0b300d804070050c0b300f4
:103e7000d604070000c0eb00d404070000c0eb002c
:103e8000d204070030118000e60f5000fdff3a0019
:103e900000a821006100200072f1070040c5b300b6
:103ea000ca040700a0c3b300c804070070c0b30071
:103eb000c604070050c0b300c404070000c0eb00f4
:103ec000c204070000c0eb00c004070030118000ee
:103ed000e60f5000fdff3a0000a82100610020001d
:103ee00060f1070040c5b300b8040700c0c4b300c8
:103ef000b604070010c0b300b404070070c0b300dc
:103f0000b204070000c0eb00b004070000c0eb00e3
:103f1000ae04070030118000e60f5000fdff3a00ac
:103f200000a82100610020004ef1070040c5b30049
:103f3000a604070010c6b300a404070020c0b30005
:103f4000a204070070c0b300a004070000c0eb008b
:103f50009e04070000c0eb009c04070030118000a5
:103f6000e60f5000fdff3a0000a82100610020008c
:103f70003cf1070040c5b3009404070050c7b300ec
:103f80009204070030c0b3009004070070c0b30073
:103f90008e04070000c0eb008c04070000c0eb009b
:103fa0008a04070030118000e60f5000fdff3a0040
:103fb00000a82100610020002af1070040c5b300dd
:103fc00082040700e0c6b3008004070040c0b300cd
:103fd0007e04070070c0b3007c04070000c0eb0043
:103fe0007a04070000c0eb0078040700301180005d
:103ff000e60f5000fdff3a0000a8210061002000fc
:1040000018f1070040c5b3007004070030c6b300c4
:104010006e04070050c0b3006c04070070c0b3000a
:104020006a04070000c0eb006804070000c0eb0052
:104030006604070030118000e60f5000fdff3a00d3
:1040400000a821006100200006f1070040c5b30070
:104050005e04070080c6b3005c04070060c0b300c4
:104060005a04070070c0b3005804070000c0eb00fa
:104070005604070000c0eb00540407003011800014
:10408000e60f5000fdff3a0000a82100610020006b
:10409000f4f0070040c5b3004c04070000c2b300b1
:1040a0004a04070070c0b3004804070070c0b300a2
:1040b0004604070000c0eb004404070000c0eb000a
:1040c0004204070030118000e60f5000fdff3a0067
:1040d00000a8210061002000e2f0070040c5b30005
:1040e0003a04070000c5b3003804070080c0b300dd
:1040f0003604070070c0b3003404070000c0eb00b2
:104100003204070000c0eb003004070030118000cb
:10411000e60f5000fdff3a0000a8210061002000da
:10412000d0f0070040c5b3002804070010c6b30054
:104130002604070090c0b3002404070070c0b30039
:104140002204070000c0eb002004070000c0eb00c1
:104150001e04070030118000e60f5000fdff3a00fa
:1041600000a8210061002000bef0070040c5b30098
:104170001604070040c6b30014040700a0c0b30033
:104180001204070070c0b3001004070000c0eb0069
:104190000e04070000c0eb000c0407003011800083
:1041a000e60f5000fdff3a0000a82100610020004a
:1041b000acf0070040c5b3000404070080c4b3009e
:1041c0000204070020c0b3000004070090c0b30041
:1041d000fe03070000c0eb00fc03070000c0eb007b
:1041e000fa03070030118000e60f5000fdff3a008f
:1041f00000a82100610020009af0070040c5b3002c
:10420000f203070050c6b300f003070030c0b3004c
:10421000ee03070090c0b300ec03070000c0eb0002
:10422000ea03070000c0eb00e8030700301180003c
:10423000e60f5000fdff3a0000a8210061002000b9
:1042400088f0070040c5b300e003070010c6b300c4
:10425000de03070040c0b300dc03070090c0b300da
:10426000da03070000c0eb00d803070000c0eb0032
:10427000d603070030118000e60f5000fdff3a0022
:1042800000a821006100200076f0070040c5b300bf
:10429000ce03070040c6b300cc03070050c0b300f4
:1042a000ca03070090c0b300c803070000c0eb00ba
:1042b000c603070000c0eb00c403070030118000f4
:1042c000e60f5000fdff3a0000a821006100200029
:1042d00064f0070040c5b300bc03070000c2b30090
:1042e000ba03070060c0b300b803070090c0b30072
:1042f000b603070000c0eb00b403070000c0eb00ea
:10430000b203070030118000e60f5000fdff3a00b5
:1043100000a821006100200052f0070040c5b30052
:10432000aa030700a0c3b300a803070070c0b3002e
:10433000a603070090c0b300a403070000c0eb0071
:10434000a203070000c0eb00a003070030118000ab
:10435000e60f5000fdff3a0000a821006100200098
:1043600040f0070040c5b3009803070000c5b30044
:104370009603070020c0b30094030700a0c0b30059
:104380009203070000c0eb009003070000c0eb00a1
:104390008e03070030118000e60f5000fdff3a0049
:1043a00000a82100610020002ef0070040c5b300e6
:1043b0008603070090c6b3008403070030c0b30033
:1043c00082030700a0c0b3008003070000c0eb0019
:1043d0007e03070000c0eb007c0307003011800063
:1043e000e60f5000fdff3a0000a821006100200008
:1043f0001cf0070040c5b3007403070040c7b300ba
:104400007203070040c0b30070030700a0c0b300f0
:104410006e03070000c0eb006c03070000c0eb0058
:104420006a03070030118000e60f5000fdff3a00dc
:1044300000a82100610020000af0070040c5b30079
:104440006203070030c6b3006003070050c0b3002a
:104450005e030700a0c0b3005c03070000c0eb00d0
:104460005a03070000c0eb0058030700301180001a
:10447000e60f5000fdff3a0000a821006100200077
:10448000f8ef070040c5b3005003070080c6b30033
:104490004e03070060c0b3004c030700a0c0b30088
:1044a0004a03070000c0eb004803070000c0eb0010
:1044b0004603070030118000e60f5000fdff3a0070
:1044c00000a8210061002000e6ef070040c5b3000e
:1044d0003e030700a0c3b3003c03070070c0b30055
:1044e0003a030700a0c0b3003803070000c0eb0088
:1044f0003603070000c0eb003403070030118000d2
:10450000e60f5000fdff3a0000a8210061002000e6
:10451000d4ef07000080fa00000006001e00fa0039
:104520000000eb00100798000000eb00000f78007f
:10453000204180003141800064014700809fbe001f
:1045400000b32900801f780002007800d9f5070029
:10455000e687570010079800e0408000f140800097
:1045600069014700809fbe0000b32900801f7800ca
:1045700002007800cff50700e68757001007980083
:1045800000418000114180006e014700809fbe0005
:1045900000b32900801f780002007800c5f50700ed
:1045a000e687570010079800804080009140800007
:1045b00073014700809fbe0000b32900801f780070
:1045c00002007800bbf50700e68757001007980047
:1045d000a0408000b140800078014700809fbe006d
:1045e00000b32900801f780002007800b1f50700b1
:1045f000e6875700100798000000eb00000f7800d6
:104600006d00370040c5b300f00207009e0078003f
:104610006900470061407800ec0207001e00780046
:1046200069404000e902070030c0b300e70207001c
:1046300000c0eb00e502070000c0eb00e30207004a
:1046400030118000e60f5000fdff3a0000a8210065
:104650006100200083ef070040c5b300db020700c4
:104660009e0078006e0047000080400010407800f7
:10467000d60207001e00780069404000d302070000
:1046800040c0b300d102070000c0eb00cf0207001a
:1046900000c0eb00cd02070030118000e60f500093
:1046a000fdff3a0000a82100610020006def070027
:1046b00040c5b300c50207009e00780064004700b3
:1046c0000080400010407800c00207001e00780003
:1046d00069404000bd02070050c0b300bb020700a4
:1046e00000c0eb00b902070000c0eb00b7020700f2
:1046f00030118000e60f5000fdff3a0000a82100b5
:104700006100200057ef070040c5b300af0207006b
:104710009e0078007300470061407800ab020700fc
:104720001e00780069404000a802070090c0b30056
:10473000a602070000c0eb00a402070000c0eb00c7
:10474000a202070030118000e60f5000fdff3a0082
:1047500000a821006100200042ef070040c5b3001f
:104760009a0207009e007800780047000080400011
:1047700010407800950207001e0078006940400054
:1047800092020700a0c0b3009002070000c0eb0037
:104790008e02070000c0eb008c0207003011800081
:1047a000e60f5000fdff3a0000a821006100200044
:1047b0002cef07001e0fe800400020009e0f1000a5
:1047c00090ff36000080fa00000006000200fa00a8
:1047d00000c3b300104798002f0507000d00070025
:1047e000ca020700a904070014030700f502070026
:1047f000cb22a800f2bf2e00f3d22200000020003e
:10480000011224001c00070010c3b30010479800d9
:10481000f8ff37000000fa000080eb006019880004
:10482000d0a2a900c8a2a900c8e2a800c902a90094
:10483000d042a900c882a800d082a800d062a900f6
:10484000d0c2a800d0e2a800c842a900c862a9004e
:10485000d002a900d022a900c922a900c942a900fa
:10486000d022a900c9a2a900d102a900d122a90081
:104870000080fa00000006001200fa0030079800dd
:104880004107980052079800630798000000eb006a
:10489000200798000000eb00100798000000eb00d4
:1048a000000f7800cb22a90000003700c6030700e4
:1048b00011030700e0408000f1408000824080004a
:1048c00093408000a6ef070002002000031224009e
:1048d000a4ef07002040880031408800204080007d
:1048e000314080005e019000ee0190004df0070025
:1048f00062408000734080009aef070060408800ab
:1049000071408800204080003140800079f007002d
:10491000000f98000e0890000000e00003003d002a
:104920008e0890008100ea00010f98000e099000a7
:104930006110b9005fef070002002000433b240034
:10494000e5ef070002002000e32f240035f0070008
:104950003e019000ce01900032f0070062408000de
:10496000734080007fef070040408800514088007e
:1049700040408000514080005ef0070070079800c2
:104980007e0090000000e00003003d00fe0090006b
:104990008100ea0071079800f00720007e01900076
:1049a000800f51000400340000002000e12f24009b
:1049b0004040880051408800204080003140800005
:1049c0004cf00700e20f4000080035002040800056
:1049d0003140800047f00700e20f500003003c0028
:1049e0006000b800404088005140880020408000ae
:1049f0003140800002002000030424005ef0070024
:104a00000000e00001003c000c0037004040800046
:104a10005140800037f007008040780000c8b300a4
:104a20007d040700404080005140800031f00700c5
:104a30008040780000c8b300870407002040800051
:104a4000314080000200200003042c00f3ef070037
:104a50000000e0000100350094ff37004040800076
:104a60005140800023f007008040780000c8b30068
:104a70004a04070040408000514080001df00700bc
:104a80008040780000c8b3005304070087ff370058
:104a90001e00fa00889fbe00600f98000000eb0027
:104aa000500f98000000eb00400f98000000eb0052
:104ab000300f98000000eb00200f9800000020004d
:104ac00001082400000f9800110f9800f06f2e00cd
:104ad000b1f5220060079800710798006000b800e7
:104ae00040079800510798000000eb00300798003d
:104af0000000eb00200798000000eb001007980072
:104b00000000eb00000f7800000037003e0090002e
:104b1000500f98005e089000cf80de00e5ee0700a1
:104b20000e0990009e099000beef0700f1ef07000c
:104b3000400f9800be0890005e0890000080400082
:104b4000300f9800be089000301f2000808f50006a
:104b500002003400401f2000300f9800be08900073
:104b6000c0e02f00808f500002003c00c0e02f000a
:104b7000300f98003e089000cf80de00cdee070099
:104b80006e019000fe019000a6ef0700400798001c
:104b9000510798004e089000cf80de00c5ee070058
:104ba0004e019000de019000eeee0700d1ef07000d
:104bb000200f98002e009000e10f500016003a00e0
:104bc00000458000e10f500013003a000000eb00a8
:104bd000004588000000eb00f04488001000200031
:104be000104588000000eb0020458800ae089000ca
:104bf00030072000808f50002c00340031c7b300f4
:104c000000c8b3000404070031c7b30000c8b300f4
:104c100011040700250037002e0090000000e0007e
:104c200022003a00f0448000e10f50001f003a00db
:104c30000000eb00f04488000000eb000045880015
:104c400010002000204588000000eb00104588007f
:104c5000ae08900030072000808f5000070034001d
:104c600031c7b30000c8b300cc03070031c7b3009d
:104c700000c8b300d80307000c003700ae0890004e
:104c800030072000808f500008003c002e08900064
:104c90008040780000c8b300c00307002e089000d1
:104ca0008040780000c8b300cb030700c6020700ad
:104cb000110207008040800091408000704488000d
:104cc00081448800e0408000f140800089ef0700c7
:104cd000a04488007844800089448000a04480007b
:104ce000cf80de0073ee07000001be000800be00aa
:104cf0009bee07007fef0700300798003e00900012
:104d00000000e00022003400be009000400b2000b4
:104d1000808f500016003400784480008944800061
:104d2000a0448000cf80de0062ee07000001be00dc
:104d30000800be008aee07000001be00000020004f
:104d4000413b240086ee07006aef07003007980019
:104d50000000eb0020079800f04480000000e8000d
:104d6000f04488000000eb000045880067ff370032
:104d70001000200020079800004580000000e80097
:104d8000004588000000eb00f04488005fff37001a
:104d90003e0090000000e0005cff3d00be0090007f
:104da0000080eb000088b90030079800be0090003a
:104db000400b2000808f500014003400a04480007d
:104dc000cf80de003bee0700724480008344800009
:104dd00063ee07000001be0000002000413b2400fc
:104de0005fee070043ef0700300798001000200037
:104df00020079800004580000000e800004588007a
:104e00000000eb00f044880040ff37000000eb009a
:104e100020079800f04480000000e800f04488007b
:0c4e20000000eb000045880038ff370060
:020000040000fa
:104e2c00980800001c0000000200000000000000b8
:104e3c000000000000000000000000000000000066
:104e4c000000000000000000000000000000000056
:104e5c0000000000000800009800000000000000a6
:104e6c00140a0000a0000000020000000100000075
:104e7c000000000000000a0000000000000000001c
:104e8c00006400000000000000000000e8030000c7
:104e9c0000000000000010002700000000000000cf
:104eac0000a08600010000000000000040420f003e
:104ebc000000000000008000969800000000000038
:104ecc000000e100f50500000000000000ca9a0097
:104edc003b00000000000000e40b54000200000046
:104eec000000e80076481700000000000010a50044
:104efc00d4e8000000000000a0724e001809000069
:104f0c00000040007a10f3005a0000000080c60038
:104f1c00a47e8d000300000000c16f00f286230008
:104f2c00000000008a5d7800456301000000640009
:104f3c00a7b3b600e00d000000e889000423c70009
:104f4c008a000000da0a00001800000002000000cd
:104f5c00286e75006c6c290000303100323334003f
:104f6c0035363700383961006263640065660000cd
:104f7c00f80a00000200000000000000b408000065
:104f8c0060010000020000000000000000000000b2
:104f9c00f03f00000000a0009999b9003f0000000c
:104fac000040e1007a843f0000000000e04d620008
:104fbc00503f00000000e000e2361a003f00000005
:104fcc000080b500f8e43e0000000000a0f7c60029
:104fdc00b03e00000000a000f2d77a003e000000b6
:104fec0000e08e0079453e0000000000e00b2e0032
:104ffc00113e00000000e000df7cdb003d00000003
:10500c000000a1009cc73b0000000000004c4800c1
:10501c00b439000000000000206ca1003700000033
:10502c000000000000000000000000000000000074
:10503c000000000000000000000000000000000064
:10504c000000000000000000000000000000000054
:10505c000000000000000000000000000000000044
:10506c000000000000000000000000000000000034
:10507c0000000000000000000000f0003f000000f5
:10508c0000000000002440000000000000000000b0
:10509c00594000000000000000408f00400000005c
:1050ac000000000088c340000000000000006a00ff
:1050bc00f84000000000000080842e004100000039
:1050cc000000d00012634100000000000084d700f3
:1050dc00974100000000000065cdcd0041000000ac
:1050ec0000205f00a002420000000000801daf0005
:1050fc001544000000004000593e29004600000005
:10510c000000000000f07f00000000000000000024
:10511c00f07f0000000000000000f0007f000000a5
:10512c000000000000f07f00000000000000000004
:10513c00f07f0000000000000000f0007f00000085
:10514c000000000000f07f000000000000000000e4
:10515c00f07f0000000000000000f0007f00000065
:10516c00b40a00002600000002000000b60af40099
:10517c000a000000f40a0900000000000200f2001e
:10518c000a000000f20a0600020100000000000004
:10519c0000000000000006000202000000000000f9
:1051ac00f20a00000600000000000000fa0a0000ed
:1051bc0002000000020000000100000000000000de
:020000040000fa
:1051cc000200fa00004f780023c2bf00614060006b
:1051dc000004e000fcff32001e80fb002011880060
:1051ec0023c2bf00614060000004e000fcff3200fd
:1051fc008560a9000080fa00000006000200fa0099
:10520c00004f780033c2bf00614060000004e00032
:10521c00fcff32001e80fb00a011880033c2bf00cf
:10522c00614060000004e000fcff320087c0a90070
:10523c000080fa00000006000000fa0085c0bf00e4
:10524c00684060000004e000fcff32008560a900ab
:10525c00301180000080fb000080fa000000060086
:10526c000000fa0087c0bf000044b2000004e00058
:10527c00fcff320087c0a900b01180000080fb0049
:10528c000080fa00000006000000fa00c8e2a80046
:10529c00c902a900816c20009140780000ceb300b7
:1052ac0000c060003040b300c8e6b700416a20007f
:1052bc009140780000ceb30000c060007040b30095
:1052cc00a4e6b7000010200040118800910a2000cd
:1052dc0091407800f0c8b30000c06000a9e0b700ae
:1052ec008560a9009560a9000000280000118800c5
:1052fc0000442000101188000080fa000000060015
:10530c000000fa00c8a2a900516c2000914078005e
:10531c0000ceb30000c060005040b300c5e6b7003b
:10532c0000102000c0118800310b20009140780043
:10533c0080cfb30000c06000b3e0b70087c0a90005
:10534c0097c0a900000028008011880000442000ac
:10535c00901188000080fa00000006000000fa009e
:10536c00d0a2a900516d20009140780000ceb3006e
:10537c0000c060005040b300d5e6b700001020001c
:10538c00c0118800310b20009140780080cfb30011
:10539c0000c06000b3e0b70087c0a90097c0a900a7
:1053ac000000280080118800004420009011880023
:1053bc000080fa00000006000000fa00d082a8006d
:1053cc00d062a900316d20009140780000ceb3006e
:1053dc0000c060003040b300d3e6b700416a200043
:1053ec009140780000ceb30000c060004041b30093
:1053fc00a4e6b7000010200040118800910a20009c
:10540c0091407800f0c8b30000c06000a9e0b7007c
:10541c008560a9009560a900000028000011880093
:10542c0000442000101188000080fa0000000600e3
:10543c000000fa00d042a900c882a800616a2000ce
:10544c009140780000ceb30000c060000024a000a2
:10545c00a6e6b70000102000c0118800310b200018
:10546c009140780080cfb30000c06000b3e0b7007b
:10547c0087c0a90097c0a9000000280080118800ef
:10548c0000442000901188000080fa000000060003
:10549c000000fa00d0a2a900516a200091407800c7
:1054ac0000ceb30000c060005041b300a5e6b700c9
:1054bc000010200040118800910a200091407800d3
:1054cc00f0c8b30000c06000a9e0b7008560a90077
:1054dc009560a900000028000011880000442000fd
:1054ec00101188000080fa00000006002400fa0069
:1054fc00881f78000000eb00400798000040eb008c
:10550c00204f98006000b8002007980031079800e1
:10551c006000b800008fbe003222a90050ff0700c7
:10552c00204f98002e489000ed4f500001003200a3
:10553c00faff37000040eb00204f980008003700be
:10554c004e04900046ff0700804078006b00470037
:10555c00017478004e0090000000e80040079800ad
:10556c004e009000ee0f5000f5ff36000000eb00ef
:10557c00400798006b004700104890000080fb002b
:10558c004800dd000100200020079800310798003a
:10559c006b004700004890000081fb0003002000d6
:1055ac002e009000be009000000041008180490058
:1055bc002007980031079800ae009000803e200034
:1055cc000009b8002e0090006000b90003027800ba
:1055dc0000024200be009000803e20000088b9000e
:1055ec0000024200840178002207980033079800db
:1055fc002e009000be009000f2ff2f000300200050
:10560c0019ec07002007980031079800ae009000b5
:10561c00801620000009b8002e0090006000b90030
:10562c000302780000024200be00900080162000a9
:10563c000088b9000002420084017800220798001b
:10564c00330798002e009000be009000e00f500031
:10565c00e08f5800060035002e009000be00900030
:10566c0011ec07000017980011179800170037006d
:10567c002e009000be009000610160006000b80038
:10568c000300200002007000838070002e01900047
:10569c00be0190008301d1000281d3000200700092
:1056ac008380700000ec0700001798001117980019
:1056bc000e1190009e1190000e1090009e10900004
:1056cc0025ec070000179800111798000200200025
:1056dc00a34724000e1090009e1090007bec070056
:1056ec0080408800914088006b004700704090001b
:1056fc000080fb004800dd00cf80de00008fbe0084
:10570c006b004700604090000080fb00010020000f
:10571c001e0f40005e9748009e007800803e2000df
:10572c000009b8001e0078006000b9000302780080
:10573c00000242009e009000803e20000088b900cc
:10574c000002420084017800028fbe001e00be00e1
:10575c00f2ff2f00030020009eec0700008fbe001c
:10576c009e007800801620000009b8001e0078000a
:10577c006000b90003027800000242009e00900015
:10578c00801620000088b9000002420084017800d5
:10579c00028fbe001e00be00c3eb070002002000fb
:1057ac00a347240049ec0700a0408800b1408800c2
:1057bc004f0478000080fa00000006001200fa0086
:1057cc00881f78000000eb00000f78002222a9004f
:1057dc0099fe07008040780080c4b30080cf500051
:1057ec00fbff3a000000eb00000f780007003700c9
:1057fc001e04780090fe0700804078000e80e800c0
:10580c0000004400014878001e0fe8005000200002
:10581c009e0f1000f6ff36009e0078000e80e80008
:10582c00808040000040eb008048780082fe07003a
:10583c008040780000c5b30080cf5000fbff3a00d9
:10584c000000eb00000f7800060037001e04780003
:10585c0079fe0700804078006700470001747800eb
:10586c001e0fe800500020009e0f1000f7ff3600be
:10587c001e017800e70047000040eb0000f17800c3
:10588c006dfe07008040780020c5b30080cf50002b
:10589c00fbff3a000000eb00000f78000700370018
:1058ac001e04780064fe0700804078006c004700fe
:1058bc0000004400014878001e0fe8005000200052
:1058cc009e0f1000f6ff36009e0078006c0047001b
:1058dc00808040000040eb00804878000e80e8009b
:1058ec00faf10700e0408800f140880067004700ab
:1058fc00f6f1070000418800114188006c00470058
:10590c00f2f1070020418800314188004f047800f3
:10591c000080fa00000006001400fa000000eb0002
:10592c00100798000000eb00000f7800a0408000ea
:10593c00b1408000020020000312240034ec070068
:10594c000000e000010035000400370000002000da
:10595c0001122400a0408800b140880080408000e3
:10596c009140800064014700809fbe0040b3290035
:10597c00801f780002007800cbf00700e687570004
:10598c0010079800a0408000b140800069014700da
:10599c00809fbe0040b32900801f78000200780071
:1059ac00c1f00700e687570010079800c040800040
:1059bc00d14080006e014700809fbe0040b329009b
:1059cc00801f780002007800b7f00700e6875700c8
:1059dc001007980080c4b300f9fd07000000eb002d
:1059ec00000f7800060037009e0078006400470026
:1059fc000080400010407800f1fd07001e0fe80009
:105a0c00400020009e0f1000f7ff360000c5b300c9
:105a1c00ebfd07000000eb00000f780005003700dd
:105a2c009e0078006900470061407800e4fd0700a3
:105a3c001e0fe800400020009e0f1000f8ff3600fb
:105a4c0020c5b300defd07000000eb00000f78005e
:105a5c00060037009e0078006e0047000080400072
:105a6c0010407800d6fd07001e0fe8004000200013
:105a7c009e0f1000f7ff36000080fa0000000600b1
:105a8c000000fa0000482800e101200072ea07003b
:105a9c0000482800e10120006fea070000482800b8
:105aac00e10120006cea070000482800e101200019
:105abc0069ea070000482800e101200066ea0700b7
:105acc0000482800e101200063ea07000048280094
:105adc00e101200060ea070000482800e1012000f5
:105aec005dea070000482800e10120005aea07009f
:105afc0000482800e101200057ea07000048280070
:105b0c00e101200054ea0700a0cab300bbfd070066
:105b1c0000482800e10120004fea07000048280057
:105b2c00e10120004cea070000482800e1012000b8
:105b3c0049ea070000482800e101200046ea070076
:105b4c0000482800e101200043ea07000048280033
:105b5c00e101200040ea070000482800e101200094
:105b6c003dea070000482800e10120003aea07005e
:105b7c0000482800e101200037ea0700004828000f
:105b8c00e101200034ea07000080fa000000060062
:105b9c000200fa00004f7800114798001e40780070
:105bac0096fd07000040eb0094fd07001e4090009e
:105bbc0092fd07001e4090001e4040000074a100a2
:105bcc008efd07000080fa00000006000200fa00bb
:105bdc00004f7800114798001e40780087fd0700a1
:105bec0040c0b30085fd07001e40900083fd0700f8
:105bfc001e4090001e404000644040000074a10014
:105c0c007efd07000080fa00000006000200fa008a
:105c1c00004f7800114798001e40780077fd070070
:105c2c0010c0b30075fd07001e40900073fd070007
:105c3c001e4090001e4040000040e8000074a1008f
:105c4c006efd07000080fa00000006000200fa005a
:105c5c00004f7800114798001e40780067fd070040
:105c6c0050c0b30065fd07001e40900063fd0700a7
:105c7c001e4090001e404000654040000074a10092
:105c8c005efd07000080fa00000006000000fa002c
:105c9c0090022000303a880044c7bf00f043b200a5
:105cac0044e7b700417420009140780000ceb30067
:105cbc0000c0600044e7b70040a7a90042c7bf007e
:105ccc000042b2000004e000fcff32000080fa0049
:045cdc0000000600be
:00000001FF
