:020000040000fa
:080000000002040000000000f2
:020000040000fa
:10040000cfaa20000e7f24000e018800000000000b
:100410000c000700a03a2200010020001f00070086
:10042000000020000000e000020032000000020096
:1004300000000000ee290200000000000040da0089
:100440000000fe004440a900e00020000000e000a1
:100450000300320000002000a00188004440a800f2
:1004600000000600f03fb1000180b1000600350039
:10047000ee03090000000000403fb1000180b10020
:10048000fbff3d001000b000203fb000020035002f
:1004900000800900000000000000060091018800b3
:1004a000800078000000eb0015003700e28040007b
:1004b00032a0b4009101ba00e280400032a0b40042
:1004c0009102ba00e280400032a0b4000002eb00ca
:1004d000472bde00f507b200602ce10004003a0073
:1004e0000059eb008301e900fdff3e0004003700e6
:1004f0006128e100010032000082eb0004000700e7
:100500001101ba000200e000e8ff3a000000060016
:100510003159ba008301e9000c0032002159ba00b8
:100520008301e900080032000400e00003003a0003
:10053000e280400032a0b400f5ff370011d9ba00c4
:100540008301e900faff3a008100e800e180400001
:1005500032a0b400000006000040da000000fe00f7
:100560006900e100040035006d00e1000300340083
:100570000002b1000100320000000500100005007b
:100580000a00fa0080017800e20f500028003e00c7
:1005900050558000e10f50000800320080232000f9
:1005a0000000e00005003200042320002523200085
:1005b0004623200080017800040037000422200038
:1005c0002522200046222000832220001440900093
:1005d0000004e000040035008009eb0014409000a6
:1005e0000074a00010429800154090000028a3005d
:1005f00003003a00154090000024a00090429800ab
:100600008001eb0007003700154090000008a300b0
:10061000fdff320063c078000000fb00000b780093
:100620008301e800828f5100f7ff3a00080037008d
:1006300030002000b0bf9f00c3bf9f00d1bf9f000c
:10064000e2bf9f006a80570000c0da006fb99700d0
:10065000020078000080fa0000000600020ab900db
:10066000001bb9000200b800810042008100430075
:10067000000006006022b800060220000000d00042
:100680008180d2000482d2008582d2000000a000c6
:100690000202520083825a0003003100020242002b
:1006a00083824a000000a1000603e900f3ff3a003c
:1006b00000000600889fbe008a9fbe0001057800ea
:1006c0000100e0000400350008003c000000e000ec
:1006d000200032000500370060001000e0801800a4
:1006e00002003b0001f02c001a0037000004be009d
:1006f0006011b8006b0920000982cf0002003900a8
:100700000882cf000441b000694252000e0032005e
:1007100008003b0082817100610164008904d100fe
:100720000884d3008b05e8000442e800f9ff3a0092
:10073000050037000804440089844c008b05e9005b
:100740000442e900fbff3a00b40007000af0a700ea
:1007500001f0a0004f05be004f04be0000000600df
:1007600003f0a200889fbe008a9fbe008c1f780005
:10077000d0000700d70033006450e1004f00320082
:100780006420e1005200320003826c0007003b004d
:100790000905d0000306d000820f54000c065d004e
:1007a0000200390002003200890178000306780057
:1007b0008582550004003d000003fd008103fd001b
:1007c0008502ea008b854200840f720002003b0024
:1007d00060001000e08018006011b8000005eb0018
:1007e0007a28e1000a00390006007800c75ddd00c4
:1007f000f707b200878075002d00370082817100f5
:100800000a017800610560008180d1000080d3007a
:100810008502e900f9ff3b00060440008784480098
:1008200002003b0060041400e0841c000988a3005f
:10083000070032008a8171008281710061016400c9
:100840008904d1000884d3008b05e8001700370025
:100850000978a30013003a000b00e00013003400f5
:100860008b05e9000804440089844c000a447400a4
:100870000978a3000d003a000b00e00007003400e7
:100880008b05e9000804440089844c0001003a000b
:100890000b0020000978a300f7ff32000001eb00f5
:1008a00002003700828171000a0178005b000700b6
:1008b0000cf0a70001f0a0008f0037006420e100d9
:1008c00002003a00838f6c008f0033000801be00e5
:1008d0000200be0088003700889fbe008a9fbe00cd
:1008e0008c1f7800730007007a00330003866c00c9
:1008f0006450e1002e0032006420e1003300320039
:100900006150e1002f0032006120e100310032002f
:1009100085855500eb07b000090020000804200081
:10092000050037000804440089844c000a003100a7
:100930000603430087834b000001530081815b0065
:10094000f8ff33000203be000800a00008044400c2
:1009500089844c00f6ff3900c639dd00830173003d
:1009600001003200130020008904d1000884d30064
:100970000998a300050032000800a7000300a000aa
:100980008904d1000884d3008b05e8008904d100d4
:100990000884d3000001eb000281d2001f00070091
:1009a00001f0a1000cf0a70001f0a00052003700f8
:1009b0006420e100540032000801be000200be00c5
:1009c000f7ff37006120e1004f0032006000b800ff
:1009d000f3ff37000000200001f82700f0ff370088
:1009e000839f68000100e00002003d0060001000ed
:1009f000e08018000300e00002003d0060011100eb
:100a0000e08119001bff07004f00e00002003b00df
:100a100060001000e0801800000006008100200047
:100a2000618055000b003d000b00200061fe2f008f
:100a30000100e1001d003400828171006101640049
:100a40008904d1000884d3000000e800faff3a00ce
:100a5000710020006100640003007000020060006b
:100a60000900320061044400e0844c000988a500bc
:100a7000050032008b05e8006808e10002003a003a
:100a80008904d1000884d300f20f20000258e1004d
:100a900005003d00c75ddd00f907b20089807500e3
:100aa00008007800000006000bf827008b00780093
:100ab000000005000004be00160007000003be0091
:100ac0000405be000200be0012000700844f75003e
:100ad000000006000200be006450e1000500360080
:100ae0006420e100020036000968a30001003a001a
:100af0000800be000160a0004f0678004f05be0050
:100b00004f04be0000000600f0ff2f00f1ff270099
:100b1000f9ff3700c70ade00f107b200f50fb20097
:100b200008003200e1cf4200020032000170a00054
:100b300024000500810f7000010032000408050048
:100b400044000500810f700002003a001400050007
:100b50008502e9000000400081c04800fcff3b0026
:100b60000170a0002400050014002000530337008a
:100b7000889fbe008a9fbe008c1f7800cdff0700b3
:100b8000d4ff330003866c006450e100240032007f
:100b90006420e100270032006150e10022003200b1
:100ba0006120e100210032008b854200eb07b1009b
:100bb0000134b800003ab8000804420089844a00b1
:100bc000013ab8000030b8008880400009014a00ae
:100bd0000400330000004000818048000201490009
:100be0008b05e900c909dd008301700001003200b6
:100bf00013002000c814de004814dd004709de00a1
:100c00001200b200c808de000884700083ff0700ed
:100c100001f0a1000cf0a70001f0a000b6ff370022
:100c20006120e100b8ff32000801be000200be00f2
:100c3000f7ff37006150e100fcff3a00b2ff3700d8
:100c4000f4ff2f001d0337002800fa00889fbe0024
:100c50008a9fbe008c9fbe0003866b003203070094
:100c60000028a30064003a000128a30067003a00ae
:100c70000008a30062003a000108a30065003a00e2
:100c80001e009000be08900081064000ed3fb100bc
:100c9000f4805700ee019000111ab8008e09900000
:100ca000311bb8009e099000311cb800511db800de
:100cb000f485570046000700fe0190003a00070047
:100cc0008b85e8003e0007008e0990004000070079
:100cd000ee019000340007008b85e8003800070023
:100ce0008e099000400007009e0990001b18b80074
:100cf000890440000a854800fe0190003400070086
:100d00008b85e80038000700ee01900030000700f6
:100d10008e0990001b18b800890440000a8548001d
:100d20000a98a30008003a000402420085824a00a3
:100d300006034b0087834b0008044c0089844c0059
:100d40000a054d008d06e900848272008502730059
:100d50004c3add00850272000100320015002000cf
:100d6000443ade001400b2004538de00cb45dd0019
:100d70000b007000c540de00cb4ddd008b807000a5
:100d80004549de00cb55dd000b017100c551de0089
:100d90000d037800fd02070003f0a1000cf0a7008e
:100da00003f0a000f40237001b18b80085024000d1
:100db00006834800e0834b0060044c0007003700c6
:100dc0001b18b8000603400087834800faff37006d
:100dd0001b18b8008703400008844800e0844c00da
:100de00060054d00000006001b18b8000804400014
:100df00089844800faff37000108a300db023a00ab
:100e00005800be005801be00e3ff37000008a300f1
:100e1000d6023a0009047800f9ff37008103780010
:100e20003cff07000001be006000b8000478a3008a
:100e300013003a006220e10015003e000d00390069
:100e40008301d1000281d3008180d3008301d100ce
:100e50000281d3008180d3008301d1000281d300bd
:100e60008180d3000538b000c42add00f300b20051
:100e70008381720007f0a70003f0a00000000600c5
:100e8000f3ff2700f2ff2f006110b900fbff3700ce
:100e900003ff2700f7ff37008f1fd100e70207008d
:100ea0008f87e9000000e00000000600801feb00d3
:100eb000e20207008f87e9000000e0000000060062
:100ec0001400fa00889fbe008a9fbe008c9fbe005f
:100ed0000005be000206be00680047000c90be0080
:100ee0000a90be00fe0207006400e1001a00320012
:100ef00016003e006100e1001a0032006e0490000e
:100f0000fe0490000e0b90009e0b90006011b80044
:100f10009e0590000b38b100d50120008281710040
:100f2000610164008703d1000683d3008984d30064
:100f30000884d3008502e900f8ff3a00b7fe0700f5
:100f40000df0a70001f0a0008b023700f1ff270091
:100f5000f0ff2f008802370001f827000000200072
:100f6000f7ff37006000b800f5ff37000303070004
:100f70000509780000000600809feb00af02070023
:100f80008f87e9000000e000000006002800fa005a
:100f9000889fbe008a9fbe008c9fbe000706780017
:100fa000878669000c003b00030478008704780002
:100fb00008f0a10009f0a100840f5000858f5800af
:100fc000860f5900890f5c00030033000cf0a2006b
:100fd00001003a000cf0a100530207006400e10098
:100fe0005f003200780147006408e10061003200d0
:100ff0006c014700748557003200be001201be002c
:101000003a04be001a05be001e039000be0a9000fe
:101010008503530006003d000004fd008104fd002f
:101020000205fd008305fd008703ea000503780043
:101030000df8a3000400320060041400e0841c00da
:1010400060051d00e0851d006022b8007d032000c2
:101050000d38e1008006eb000b0039004433dd0061
:10106000f300b200830173003900370084827200fc
:101070000d027800e10664008b85d1000a85d3005b
:101080008984d3000884d3008703e900f7ff3b007d
:1010900008004000898048000a0149008b8149000e
:1010a00004003b0060001000e0801800600119009f
:1010b000e08119000358a300090032008d827200fc
:1010c00084827200610260008301d1000281d3003a
:1010d0008180d3000080d3000603e8001b003700a6
:1010e0000348a30017003a000600e0001700340090
:1010f0000603e9000d00a3000000480081804800bd
:1011000002014900838149000348a3000f003a000f
:101110000600e000090034000603e900000040007a
:1011200081804800020149008381490001003a00a2
:101130000003eb000348a300f5ff32006022b80073
:101140000200370084827200618266000f0207008d
:1011500003f0a1000cf0a70003f0a0000602370086
:10116000640147006408e10002003a000df8a300a2
:10117000fe013a003200be001201be00fe0137003f
:101180001400fa00889fbe008a9fbe008c9fbe009c
:101190000004be000205be00680047000a90be00c1
:1011a0000890be004e0207000070a7000bf0a100df
:1011b0000bf8a30020003a009e0990000e09900051
:1011c000fe0090006e0090009e02900034432000cc
:1011d00084825200e80132000a003c00b4fc2f0077
:1011e0000428e100140034008301d1000281d300ff
:1011f0008180d3000080d3008502e800faff3a0026
:10120000dd013700b40020000428e10007003c00a5
:1012100000004000818048000201490083814900ac
:101220008502e900faff3a00d301370003002800e5
:1012300002002000010037006011b8006000b80013
:10124000cd0137002800fa00889fbe008a9fbe00ab
:101250008c9fbe0003866b00b30107006400e100b1
:10126000440032006408e1004a0032006100e100fd
:10127000460032006108e10049003200ec064700f8
:101280006000b8003d02be003d03be00f48657007a
:101290006011b8003d04be003d05be007d03200086
:1012a0000b0037000000a0008d06e900130032009b
:1012b0000402420085824a0006034b0087834b00ec
:1012c00000004000818048000201490083814900fc
:1012d0000802520089825a000a035b008b835b007c
:1012e000f0ff3b000802420089824a000a034b00db
:1012f0008b834b008d06e900edff3a00848272007b
:1013000086827200f707b200878272000100320005
:10131000150020001e0490003e0b900006035400b0
:10132000e63fb0000368a300070032000000a700fa
:101330000500a0008301d1000281d3008180d30089
:101340000080d3000603e8008301d1000281d300ae
:101350008180d3000080d3000002eb000482d20021
:101360008a01070003f0a1000cf0a70003f0a00021
:1013700081013700640247006408e1007b0132000c
:101380003400be003401be00f6ff37006108e10002
:10139000760132006011b8006000b800f1ff37003c
:1013a00003ff270002002000fbff3700889fbe00dc
:1013b000830478000300e0002c00350003003c00ab
:1013c00000827000040271002600320036432000c3
:1013d000c50020008383cf000a0039000541b10019
:1013e0008283cf00070039000541b1008183cf001f
:1013f000040039000541b1008083cf0001003900ad
:101400000541b10085c353006022b80012003200cc
:101410000a003b0084827200610260008301d100f7
:101420000281d3008180d3000080d3000603e8004e
:101430008743e800f7ff3a0007003700000040004c
:101440008180480002014900838149000603e900c8
:101450008743e900f9ff3a004c01070009f0a700b3
:1014600003f0a0004f04be00000006006000100062
:10147000e080180060011900e0811900d3ff3b00f3
:10148000033e2c00f7ff370007f0a200bffe370035
:10149000881f7800000478005001be004000be00a4
:1014a000040040008580480006014900878149000a
:1014b000009cbe000294be000400e1000588e1002b
:1014c0000690e1000798e100020031006800440046
:1014d0001008e8004f04780000000600f487470079
:1014e000889fbe008a9fbe008c9fbe008e1f780022
:1014f0000205be000004be00d4b79f00e5b79f0000
:10150000f6b79f0087bf9f000000eb00c0b79f00a9
:10151000b0b79f00a0b79f0090b79f0080b79f0013
:101520000d042000bfb097004fb0970000014000ad
:101530000000e0000f003d004f08de0000007100d9
:10154000c0b79f009e00070001003d001200200070
:10155000a100070001003d0012002000a6000700c6
:10156000b1000700b60007000f004000c8ff0700e9
:10157000220037004f08de0000067100ccb79f0044
:101580008f00070001003d001200200092000700bc
:1015900001003d001200200097000700a200070094
:1015a0000fb297009fb297002fb39700bfb3970079
:1015b000a90007000000520081805a0002015b0070
:1015c00083815b0080b79f0091b79f00a2b79f0007
:1015d000b3b79f000007eb009f0007000020e10069
:1015e00001a8e10002b0e10003b8e1000100310010
:1015f0001e0020000e005600c0b79f004fb297009b
:101600000400e00007003500100020000100200069
:101610006011b80008047000898470000a05710028
:101620008b8571008d06e900beff3a000400e000e2
:1016300003003d00820007000f00400094ff0700f8
:101640004fa897000000e00004003a000fb4970094
:101650009fb497002fb59700bfb59700940007007f
:101660004f0778004f06be004f05be004f04be0076
:101670004f01b10000000600881f7800180020000c
:10168000881f780095ff07008f87e9004f047800d6
:1016900000000600801feb0090ff07008f87e90025
:1016a00000000600889fbe008a9fbe008c1f780045
:1016b0006e00070007003d0073000700e00f5b00ad
:1016c000e08f5b0007003d00320007000006eb00e2
:1016d000040037003400070002003d002a00070024
:1016e0001c00200072000700e3ff07000203be0099
:1016f0000002be000c00e0000100320022000700e2
:101700000400be000601be004f0678004f05be0073
:101710004f04be0000000600889fbe008a9fbe00e6
:101720008c1f78005100070005003d00560007009f
:10173000e00f5b00e08f5b0006003d000400370017
:101740001900070003003d006000b8006011b800f8
:101750001000070056000700ceff07000203be007e
:101760000002be000c00e00001003200060007008d
:101770000400be000601be004f0678004f05be0003
:101780004f04be00000006006000b8006011b80001
:1017900000003700040250008582580006035900fb
:1017a00087835900000006000006eb00e00f52009e
:1017b000e08f5a00e00f5b00e08f5b000000060046
:1017c0000180400090b79f000001eb008fb09700b0
:1017d0000100e000000006000200700090b79f00ca
:1017e0000180400080b79f000001eb00ffa8970038
:1017f0000100e000000006000200700080b79f00ba
:10180000018040006faa9700cf20de000100700029
:10181000f0af9f0004024200250007004f18de00d1
:101820000002720000000600e4af9f0008044400bc
:1018300089844c000a054d008b854d000000060090
:101840003fb29700cfb297005fb39700efb3970016
:1018500000fe2f00000006003fb09700cfb09700b9
:101860005fb19700efb19700000006000205be00cf
:101870000004be00e00f5000e08f5800e00f590058
:10188000e08f5900000006006000b8006011b80049
:1018900008045000898458000a0559008b855900b6
:1018a0001c002000e00f5200e08f5a0000000600ec
:1018b0000800be000a01be0000000600889fbe00ae
:1018c0008a9fbe00841f78007afc07004f007800d2
:1018d00011003300f0ff2f00838f6c0006003b00e7
:1018e000040565000a00a7000800370009f0a600fb
:1018f0001000200008003700820f5400838f5c0026
:10190000030039001000200001003e00000020000c
:1019100009f0a7000000ea004f05be004f04be001a
:101920000000e00000000600680447000294be00ca
:101930000094be00fc0447008694be008494be0060
:1019400009007800660007000800780064000700be
:1019500099007800814f70000b003b000800be002a
:10196000930007004f00b10003003700f3ff27008a
:10197000f2ff2f006110b9004f06be004f05be00f8
:101980004f04be000080fa0000000600180020008e
:1019900057002000080453000d003d000600200001
:1019a00097fc2f000740e1001e0034008482720083
:1019b000610260008301d1000281d3008180d300e5
:1019c0000080d3000804e800f8ff3a004700200038
:1019d0006104600005047400040464000d0032001a
:1019e00061004000e080480060014900e08149005a
:1019f00003b8a500070032000603e8006538e100df
:101a000004003a008301d1000281d3008180d30019
:101a10000080d300f87f20000830e100030035008b
:101a2000080378006000b8006011b8004433dd009e
:101a3000f300b2008301730000000600889fbe001f
:101a40008a9fbe008c9fbe000404be000605be0037
:101a5000809fbe00829fbe006300070004067800de
:101a60000800be000a01be005f000700840678007f
:101a70004f03be004f02be008d4f76007fb097002f
:101a800013003300f0ff2f008b8f6b0006003b002c
:101a90000d0666000c00a7000a00370007f0a6003c
:101aa000100020000a003700880f5200898f5a006a
:101ab0008a0f5b008b8f5b00030039001000200051
:101ac00001003e000000200007f0a7000000ea002f
:101ad0004f06be004f05be004f04be0000000600ca
:101ae000800078005002be005003be004439de0082
:101af000f700b200f37f200003016100090032000b
:101b00000218e10016003a0085017200830173009b
:101b1000838173000008200015003a004000200077
:101b20001300370085017200830173008381730005
:101b300005003a0004a8be0006a8be001000200060
:101b40000b0037000201e9000402420085824a00ce
:101b500006034b0087834b000748a300f9ff3200c0
:101b60000740a00004a8be0006a8be002000200078
:101b70008000980092009800000006000003be005c
:101b8000e4fb07006220e100020032000600be0014
:101b900005000500e507b100f107b20004f02300dd
:101ba0008480700007f0a70001f0a0002400050069
:101bb000e48240001078a300070032006402400075
:101bc0001178a3003400be001401be0004003200ee
:101bd0000330a700000006003500be001501be005e
:101be0000330a0000000060005ff27000582610009
:101bf000070032000428e100010032002400050043
:101c00000600070001003a00440005000408050032
:101c100002000700f9ff3a00140005006f8261001e
:101c200081027000850271008502720000000600ca
:101c30000c00fa00889fbe0000047800cfb0970027
:101c4000f0ff2700d0bf9f008004eb0099bf9f00ea
:101c500088bf9f00a8bf9f00200c2000b0bf9f003e
:101c60007881570070805700530107000fb8970024
:101c7000094878000fb89700080450000800780061
:101c80004f04be000080fa0000000600e68747000f
:101c9000889fbe008a9fbe008c9fbe008e1f78006a
:101ca00000047800810678000100e00003003200a3
:101cb000800e7800010037000804e800984478009e
:101cc0000900fb0026fa0700800078000000e00011
:101cd000f9ff3a00d0c2b30080cf540003003a00ad
:101ce0000804e8001bc0b30005003700b0c2b30011
:101cf00080cf540001003a000804e80081457800d4
:101d00000005eb000a0778006000b800f0b79f00fc
:101d100081bf9f000b48a30005003a00e0c2b3005a
:101d2000984f100002003a000b44a0001e0037003c
:101d3000984478000900fb000cfd2f000c004000c7
:101d4000e90f50001a003e000b14a0000b00fb002e
:101d5000e90f5500110032000048a30001003200d5
:101d60000e07e9000a05e800a20020000300200099
:101d70007fb097008fb8970038fa07000cc1440075
:101d80000281fb0003002000000041008180490027
:101d9000f0b79f0081bf9f00030037000048a300f9
:101da00001003a000e07e8000804e800d9ff3700f8
:101db00050c6b30080cf5400040032000002eb0094
:101dc00050c4b30080cf540032003a008801e800cc
:101dd00093407800d0c2b30080cf500002003a0098
:101de0000b34a00003003700b0c2b30080cf500016
:101df00003003a008881e800010037008301e80011
:101e00009340780006c3b30086cf5000fbff32003a
:101e10000100fb0005fd2f0005004000e90f500008
:101e200003003600030478000002eb0016003700c0
:101e300006c050000082fb000304e800184178004f
:101e40000200fb0005004000e90f50000e003e00bc
:101e50006a20b900064151000281fb0000024100e6
:101e60000384e800984078000100fb000500400072
:101e7000e90f500004003e006a21b90006c050007e
:101e80000080fb00020240000b38a300010032007a
:101e90000402ea00040547000d00e00003003200e0
:101ea0000b18a30001003200880e78007fb0970065
:101eb0008fb89700fff907000004be000006be00bf
:101ec0006011b80028fb07006011b8000000e000b6
:101ed0005900320030f82f00800f550003003d00fc
:101ee00020022000405588005300370000082000e1
:101ef000800f55000a003400200220004055880061
:101f00000b08a300030032000200200003f82f009a
:101f1000490037000200200003f827004600370080
:101f20000a00e0001c003d000a05ea000600370038
:101f3000922f2000530125000800be0066fa07001a
:101f40000004be006a055500e90f5500f8ff3c008b
:101f50000006eb00060037000200200003122400f8
:101f60000800be005cfa07000004be000c06e80092
:101f70008a0f5600f8ff3a000806be000200200053
:101f8000030820000800be00f7fa07000000e00088
:101f900025003d001c0037000a00e00007003c005f
:101fa00021003700922f2000530125000800be00b9
:101fb000effa07000004be006a055500e94f55001e
:101fc000f8ff3e000006eb0006003700020020008c
:101fd000031224000800be00e5fa07000004be005a
:101fe0000c06e8008a0f5600f8ff3a000806be000b
:101ff000f2ff2f00f3f727000800be0010fb0700d8
:102000000000e000080034000b08a30003003200c9
:10201000020020000308280007003700020020000b
:1020200003082000040037000b08a3000100320061
:102030000df0a2000c01be000200be004f077800a8
:102040004f06be004f05be004f04be006f00b1003a
:10205000000006008000eb000cff3700889fbe00e8
:102060008a1f7800804078000004e00021003d00d5
:102070008040ea00d0c6b30080cf50000900340091
:102080008104fb0042062000110009008204d800f0
:1020900000017800010078004311dd004a8620002d
:1020a0001f0037000100fb00438620003900370085
:1020b000a2002000110009000200d80000017800f1
:1020c000010078004311dd00030141004300dd0001
:1020d000030040003002be002003be0042209000fa
:1020e000d2209000f221900062219000d6fa0700e1
:1020f0002e003700d0c6b30080cf5000230034003c
:102100008104fb0042062000110009008204d8006f
:1021100000017800010078004311dd004a912000a1
:102120000a014100a8002000110009000800d800a1
:102130004300dd000a00400040229000d0229000c1
:1021400060239000f0239000028890009288900015
:10215000b289900022899000bbfa0700801f7800a6
:1021600001027800110009008804d8000102fd0076
:102170004f0078000402fb004322dd000a02420007
:102180005403be004402be00d8ff37000100fb002c
:1021900043912000eacf5000c5ff3c004300dd0022
:1021a000030040005001be004000be004f05780013
:1021b0004f04be00000006004f03b000889fbe0021
:1021c0008a9fbe008c9fbe008e1f7800e0b79f00e4
:1021d000f1b79f0082bf9f000000eb00b0b79f00e7
:1021e000670437008001eb0050c2b30080cf50007d
:1021f000090032000100fb00efb097006d040700fa
:10220000e10f40005e043200bfb097008100e8009b
:10221000b1b79f005a0437007fb197009240780011
:10222000d0c2b30080cf50000c00320007003c0049
:102230006d40500080cf50000d0032006b404000d8
:1022400080cf500019003a000e00370000c3b300e1
:1022500080cf500015003a000f0037000330a00077
:102260007fb297000402e800f4b79f00eaff37004e
:102270000300a000ffb297008502e800f5b79f00b9
:10228000e5ff37000310a0007fb697000c06e800ba
:10229000fcb79f00e0ff37000320a0007fb097004d
:1022a0000000e800f0b79f00dbff37000318a30031
:1022b000010032000300a1000338a3000100320036
:1022c0000320a1000100fb0002fd2f0002004000de
:1022d000e90f500010003e008000eb00c1a79f00f6
:1022e000020278004fa197006a10b900ffb2970070
:1022f0001501fb000001410004014100c2a79f003d
:102300005500fb00f5b79f0004004000e90f5000a6
:102310000d003e00f3ff37000006eb00cca79f0046
:10232000a0c2b30080cf500007003a000fb897005a
:10233000c000780080bf9f00c1a79f007fb19700b9
:102340000201e800f2b79f00e0c2b3007fb297003d
:10235000944f100021003a00830678000de0a000a1
:102360008400e80064405000914f100004003200e7
:10237000f1b79f008002eb00c5b79f001000370047
:102380000fbe97004c0078008cbf9f00c0b79f0025
:10239000ffb097008180e800f1b79f00130037007d
:1023a0004fb297006a20b9000000410003004000ce
:1023b000c0b79f00ffb297008502e800f5b79f0005
:1023c0007fb697001c01fb0003fd2f0003004100b6
:1023d000e90f5000f2ff3600040037008306780052
:1023e0000dc0a0000000eb00c0b79f007fb19700b8
:1023f000b2407800f2b79f0081c79f00c0c6b3000b
:1024000080cf50001400320009003c0069405000a9
:1024100080cf5000650032006340400080cf500004
:10242000130032000104e000db0332007e003700bd
:1024300050c7b30080cf50007f003200634040009f
:1024400080cf50000d0032006540500080cf50001a
:1024500075003a000c003700000028000d48a3006a
:1024600001003a000001200080867600dfff37007f
:102470000d0778000ea0a000710037000d0778004e
:102480000e70a0006e0037008fb9970043007800ef
:1024900083bf9f00000478000000e00001003a00c4
:1024a000a8a820008004eb00010037008104e800a8
:1024b00089007800088044001004e000fbff3a0027
:1024c0004fb297000400e00003003200890f520071
:1024d00001003100840478000007eb00cfa29700d0
:1024e000898f520001003600098752004368de00e0
:1024f000e106600019003a000d0678000900370077
:10250000efb0970000022000aa030700e10f40008f
:10251000030032003fb097000000e800b0b79f0012
:102520000c06e8008e0f5600f5ff3a000087eb001e
:102530000a003700880078003100fb0001047800b1
:10254000efb097009b030700e10f4000030032004b
:10255000bfb097008100e800b1b79f000900e90013
:1025600080047800e10f4000f2ff3a000006eb0023
:102570000d00e0000a003a0081033700efb0970039
:10258000000220008b030700e10f4000030032002f
:102590003fb197000201e800b2b79f000c06e800c7
:1025a0008e0f5600f5ff3a00750337008fb997007c
:1025b0004300780083bf9f00cf80de0001017800d8
:1025c000820178000205be000004be000203be00c6
:1025d0000002be004822de00482edd000402760024
:1025e00084c79f000d48a3000a0032000404e000e5
:1025f00008003200e14f42000600320011fc2f00bb
:102600000180470004487800184098002900200005
:102610000200370090c79f001900200012fc2f0015
:1026200002844700a6ff370003fc2f000384470005
:1026300019002000a2ff37000d0778000e0cb30030
:102640000070200000026700270232000ec8a300bd
:102650000200320064002000c4b79f000e48a300af
:10266000050032000fba97004401be004400be00ce
:1026700084bf9f00040037008fba97004500be005a
:1026800085bf9f00e5f90700f0af9f0081b79f006d
:1026900092b79f00a3b79f006022b8006033b800d4
:1026a0007fa897008fb097001fb19700afb1970038
:1026b000f9f907000000e0000a003d007fa897003c
:1026c0008fb097001fb19700afb1970003f0a20041
:1026d000f0af9f0081b79f0092b79f00a3b79f0004
:1026e0003e00b3000000eb00a0a79f006022b800ee
:1026f0006033b8007fa897008fb097001fb1970094
:10270000afb19700e9f907000000e00034003200a3
:102710007fa897008fb097001fb19700afb19700c7
:10272000e7f9070043fc2f00038147000ffa070079
:102730002fa097000000e9006300b900a20020006c
:10274000110009000200d8008000fd00a1a79f0031
:102750000100e00002003d000100e900a0a79f0089
:102760002fa497000840ea003cfe07007faa9700cc
:102770008fb297001fb39700afb3970032f90700ed
:10278000b0af9f00c1af9f00d2af9f00e3af9f00eb
:102790006022b8000600200007ff2300bef90700f2
:1027a0000000e00002003d000800e9000b003700d7
:1027b0006022b80006002000470224003fa89700ce
:1027c000cfa897005fa99700efa99700eaf9070043
:1027d0000000e000020035000800e800a0a79f000c
:1027e0004fb29700f80f520057003c00d0c6b3001c
:1027f000804f5200290036000485fb00420620006d
:10280000110009000285d800000178000104780059
:102810004311dd004b8620000b0141006022b8000f
:102820000600200007fe2300028890009288900096
:10283000b28990002289900003f90700a9002000c6
:10284000809fbe00110009000984d80000047800b0
:102850004f00be004344dd000b04440048229000ba
:10286000d822900068239000f8239000f6f8070023
:10287000801f780001027800110009000985d80046
:102880000102fd004f0078004322dd000b024200f0
:102890005403be004402be001f0037000480fb004a
:1028a00049862000ea4f520014003600a2002000a2
:1028b000110009000280d8000001780001047800ae
:1028c0004311dd00090141006022b800060020002c
:1028d00007fe230042209000d2209000f2219000b9
:1028e00062219000d8f807004344dd000904440049
:1028f0003802be002803be00070037004300dd0099
:10290000090040006022b8000600200007fe2300f6
:102910005001be004000be00cbf807000002be0020
:102920000203be007fa897008fb097001fb19700e9
:10293000afb1970095f90700f0af9f0081b79f00f6
:1029400092b79f00a3b79f002fa49700e90f5400f0
:1029500015003c006022b8006033b8007fa89700e3
:102960008fb097001fb19700afb197004ff90700e4
:102970000000e000320032007fa897008fb097007f
:102980001fb19700afb19700fdf90700e00f5000ad
:10299000e08f5800e00f5900e08f590028003a00fe
:1029a000e10f5400260034000400200005002e0032
:1029b000b6e02200170124003fa89700cfa8970097
:1029c0005fa99700efa9970033f907000000e00026
:1029d00002003d00730054000100370072005400f3
:1029e000a0a79f004fc097009cfd0700b0af9f00bd
:1029f000c1af9f00d2af9f00e3af9f000002be00b7
:102a00000203be007fa897008fb097001fb1970008
:102a1000afb197000bfa0700d9f907000205be0015
:102a20000004be006000b8006011b800d0a79f008d
:102a3000e1a79f00f2a79f0083af9f002e00370001
:102a40007fa897008fb097001fb19700afb1970094
:102a5000cbf907000205be000004be00e00f5000e5
:102a6000e08f5800e00f5900e08f59000200350058
:102a70004efa07001300370010002000010020006c
:102a80006011b80008006000898060000a016100e0
:102a90008b8161008b03d1000a83d3008982d3002c
:102aa0000882d3000000720081807200020173006e
:102ab000838173003dfa07000002be000203be00de
:102ac00032f907000002be000203be007fa8970093
:102ad0008fb097001fb19700afb197006afa070057
:102ae000d0a79f00e1a79f00f2a79f0083af9f00a0
:102af0000000eb00a0a79f0014c0b300459c20007d
:102b00000b0037000400fb004300dd00050040001f
:102b10005001be004000be000040e10001c8e100dd
:102b200002d0e10003d8e100030039000442e800cc
:102b3000f44f5200f3ff3a0084c79f000400fb00eb
:102b4000cfb0970000804000afa097000100400088
:102b50004fa1970080065100cfb197000300e0001d
:102b6000010032008d06e9006300670001003200b9
:102b70008d06e9000e28a30026003200e100670060
:102b80000e18a3000c003200d00220000100e0006b
:102b900001003a000080e900efb09700050207004d
:102ba000e10f4000180032003fb297000402e80035
:102bb000b4b79f00140037000100e000120032009b
:102bc000efb0970000022000fa010700e10f40007b
:102bd0000d003200bfb297008502e800b5b79f0034
:102be00009003700efb0970000032000f101070053
:102bf000e10f4000030032003fb697000c06e800ea
:102c0000bcb79f008d06e9000d00e000f5ff3c0019
:102c10003d0037000e38a3000a0032000b003700d9
:102c2000efb0970000022000e2010700e10f400032
:102c3000030032003fb097000000e800b0b79f00eb
:102c40008d06e9000d00e000f5ff3c00e1006700a3
:102c50000e18a3000c003200d00220000100e0009a
:102c600001003a000080e900efb09700d1010700b1
:102c7000e10f400024003200bfb097008100e8005f
:102c8000b1b79f00200037000100e0001e003200b5
:102c9000efb0970000022000c6010700e10f4000de
:102ca000190032003fb197000201e800b2b79f005f
:102cb000150037000000fb004300dd00419c2000b0
:102cc000010040003002be002003be000800be002c
:102cd0000a01be0068fa0700a400200005002000d9
:102ce0006033b8006bfa07000003b000efb0970044
:102cf000b0010700e10f400003003200bfb19700b0
:102d00008301e800b3b79f000fc297000440e900b9
:102d100080c79f00e14f4000e6ff3a000b003700fc
:102d2000efb0970000032000a2010700e10f400070
:102d300003003200bfb297008502e800b5b79f00dc
:102d40002fa097000000e900a0a79f002fa09700e8
:102d50000000e000f2ff3c004fb6970020c1b30036
:102d6000f20f560001003c000fe8970080c79f005b
:102d70008fc097000100fb004fb197000000510089
:102d800090af9f000104e00008003200efb0970010
:102d9000e002200087010700e10f4000030032003d
:102da000bfb197008301e800b3b79f000fc0970041
:102db000aafc07000002be000203be005fa097004d
:102dc000efa097007fa197008fa997009ef70700bb
:102dd000ebf807001e0037000000fb004300dd0099
:102de0004c9c20000c0040003002be002003be00be
:102df0000800be000a01be001ffa0700a400200060
:102e0000050020006033b80022fa07000003b0007c
:102e1000efb0970067010700e10f400003003200a8
:102e20003fb297000402e800b4b79f008fc297003a
:102e30000500fb004300dd000c0040003002be0036
:102e40002003be000800be000a01be0011fa070000
:102e50000205be000004be000fc697000c40e9004a
:102e600080c79f00e14f4000dbff3a000006eb0007
:102e700009003700efb09700000320004d01070064
:102e8000e10f4000030032003fb097000000e8006f
:102e9000b0b79f000c06e8009fa89700810f56006e
:102ea000f4ff3a000e38a300350132000d00e000b7
:102eb000330134000006eb00efb097000002200061
:102ec0003c010700e10f4000030032003fb19700d2
:102ed0000201e800b2b79f000c06e8008d0f560013
:102ee00027013200f4ff37000e00e00005003d002e
:102ef0008fb997004305be004304be0083bf9f0007
:102f0000110037000e48a300080032008fba970066
:102f10004500be0085bf9f00040178008401780051
:102f20000205be000004be00070037000fbe970078
:102f30004c0078008cbf9f0000047800090020003e
:102f40000a0020000b0020004fb097000000e000b6
:102f500007003a00e00f5400e08f5c00e00f5d00d6
:102f6000e08f5d0002003a0011002000c1b79f0011
:102f70000e017800020cb200d2b79f0000082000ba
:102f8000800f510014003200000c2000800f51000f
:102f900025003a0014c0b300459c20000b00370008
:102fa0000400fb004300dd00050040005001be00ae
:102fb0004000be000040e10001c8e10002d0e10095
:102fc00003d8e100170039000442e800f44f520032
:102fd000f3ff3a0013003700000120000100200039
:102fe0006011b80014c0b3000040e10001c8e10066
:102ff00002d0e10003d8e1000a00390045002000ba
:103000000000d0008180d2000281d2008381d200f2
:103010008502e900faff3a000442e800f04f52004e
:10302000f1ff3a0084c79f000fc697000c00fb0019
:10303000cfb09700810f500002003d0081c79f0074
:10304000040037004fb19700800f510001003d0090
:10305000c0b79f00cfa197000300e000040032003a
:1030600063006700020032008301e900c3a79f00ec
:103070000ee8a3000b0032004fa29700cfb29700da
:10308000850f520003003c000006eb00cca79f0018
:10309000040037004fa09700cfb097000100500008
:1030a000c0a79f000fc197000200fb008001eb004a
:1030b000b3a79f004fa29700800f52000200340078
:1030c00000005200b0a79f000e28a3003400320079
:1030d000e10067000e18a3000c003200d0022000af
:1030e0000100e00001003a000080e900efb0970025
:1030f000b0000700e10f40000e003200bfb29700a1
:103100008502e800b5b79f000a0037000100e00023
:1031100008003200efb0970000022000a500070071
:10312000e10f4000030032003fb697000c06e800b4
:10313000bcb79f003fa097000000e0000f003200e6
:103140000006eb00efb09700000320009900070095
:10315000e10f400003003200bfb097008100e8009b
:10316000b1b79f000c06e8003fa19700820f560000
:10317000f4ff3a008001eb00b3a79f004fb2970025
:103180004320dd00c19b2000810640004220dd007d
:10319000640650008002eb00a5af9f00620037007c
:1031a0003fa697000c00e0001100320068006700a5
:1031b0000f003a0000067800efb0970000022000f0
:1031c0007c000700e10f4000030032003fb0970091
:1031d0000000e800b0b79f000c06e800bfa0970011
:1031e000810f5600f4ff3a000001eb00b2a79f00e8
:1031f000e10067000e18a3000c003200d00220008e
:103200000100e00001003a000080e900efb0970003
:1032100068000700e10f4000d8ff3200bfb19700ff
:103220008301e800b3b79f00d4ff37000100e0003e
:10323000d2ff3200efb09700000220005d000700cf
:10324000e10f4000cdff32003fb297000402e800da
:10325000b4b79f00c9ff370000082000dfb2970015
:10326000808f520010003200000c2000808f52002e
:103270001f003a003d02be002d03be000800be0044
:103280000a01be00fcf80700a40020000500200091
:103290006033b800fff8070004c3b30004424000e5
:1032a00084c79f0012003700140020000500200092
:1032b0006033b8000c0078000000e900050033001e
:1032c0000402d0008582d2000683d2008783d20018
:1032d000f9ff37000800be000a01be00e6f807004b
:1032e0006f00600014a920006442780084c79f002a
:1032f0008fc097000100fb00efb097002d00070082
:10330000e10f4000030032003fb197000201e800e6
:10331000b2b79f00afa997008301e800a3af9f0059
:10332000e8865600640656002faa9700cfb2970091
:10333000850f5200c8ff3a000e38a300100032007b
:103340003fa697000c00e0000d0034000006eb00e3
:10335000efb097000002200016000700e10f4000c8
:10336000030032003fb097000000e800b0b79f00b4
:103370000c06e800bfa09700810f5600f4ff3a004a
:103380007fb19700b2407800f2b79f0081c79f00dd
:103390000104e00093fb3a003fb097004f0778002c
:1033a0004f06be004f05be004f04be004f03b100e4
:1033b00000000600889fbe0000017800010478002c
:1033c000b10090000118a3003d0032000198a30055
:1033d00003003a00180090000000e00038003a00b6
:1033e0000190a0003104980082047800f90fb20027
:1033f000180090000000e00002003a002800900051
:10340000000c7800ea8f540006003a003800900063
:103410000078a30003003a0088007800d000200064
:10342000e4ff07009800900058009000808f500043
:103430000b0032000100e80010049800180078002a
:1034400009587800000c780011c0b30060aa200071
:1034500001487800ea8f5400060032001900370056
:10346000880078000940780019000700800478007f
:1034700014003700380090000088a30011003200cb
:1034800018019000a8009000480090003cf407004c
:1034900098009000810f5000040032003800900026
:1034a0000003b300300498008084eb000000eb00c0
:1034b0001004980028009000000c780001003700ec
:1034c0008084eb00090078004f04be000000060075
:1034d0000200fa00889fbe00a0ff9f000104780050
:1034e000b1009000810478000904b20002003200ab
:1034f0000000fb00360037000118a30005003a0069
:103500000103b30031049800190498000080eb0017
:103510002f003700580090000000e00006003a003d
:103520004800900012002000e680570014f40700c5
:103530001904980024003700280090000000e000e3
:1035400008003a0020aa200020049800000c78000f
:103550002000200050049800100498000130a000c2
:103560003104980018019000a800900048009000d5
:1035700003f4070028009000000c78000080eb00a6
:103580001004980018007800aff8970001587800f0
:10359000000c78002ff89700ea4f50000a003a001c
:1035a000380090000088a300070032001801900046
:1035b000a800900048009000f1f30700190498005b
:1035c000a8009000010c7800aff897000100fb0004
:0c35d0004f04be000080fa00000006005e
:020000040000fa
:10000800ac020000ac020000ac020000ac02000030
:10001800ac020000ac020000ac020000ac02000020
:10002800ac020000ac020000ac020000ac02000010
:10003800ac020000ac020000ac020000ac02000000
:020000040000fa
:020000040000fa
:1035dc0074610000696d00006f6f000072000000e4
:0c35ec0000000000256600000000000048
:020000040000fa
:1035f8000000fa0000202100a107200097f307002f
:1036080000202100a107200094f3070050c5b30053
:103618002905070030118000e60f5000fdff3a0031
:1036280050c4b3002405070030118000e60f500095
:10363800fdff3a0090c5b3001f05070040c0b30066
:103648001d05070010c0b3001b05070030118000de
:10365800e60f5000fdff3a0020c4b300160507002e
:103668000040eb00140507000040eb0012050700be
:1036780030118000e60f5000fdff3a00f0c4b3009f
:103688000d05070010c0b3000b05070030118000be
:10369800e60f5000fdff3a000080fa000000060027
:1036a8000000fa0060c4b3000305070030c0b3008f
:1036b8000105070030118000e60f5000fdff3a00b9
:1036c80000a821006100200064f3070040c5b30092
:1036d800f904070020c4b300f704070010c0b300c2
:1036e800f504070010c0b300f304070000c0eb00a6
:1036f800f104070000c0eb00ef0407003011800060
:10370800e60f5000fdff3a0000a8210061002000ec
:1037180052f3070040c5b300e704070090c6b300a2
:10372800e504070020c0b300e304070010c0b3009d
:10373800e104070000c0eb00df04070000c0eb0055
:10374800dd04070030118000e60f5000fdff3a004d
:1037580000a821006100200040f3070040c5b30025
:10376800d5040700e0c6b300d304070030c0b30097
:10377800d104070010c0b300cf04070000c0eb005d
:10378800cd04070000c0eb00cb0407003011800017
:10379800e60f5000fdff3a0000a82100610020005c
:1037a8002ef3070040c5b300c3040700f0c6b300fa
:1037b800c104070040c0b300bf04070010c0b30035
:1037c800bd04070000c0eb00bb04070000c0eb000d
:1037d800b904070030118000e60f5000fdff3a00e1
:1037e80000a82100610020001cf3070040c5b300b9
:1037f800b104070030c6b300af04070050c0b300df
:10380800ad04070010c0b300ab04070000c0eb0014
:10381800a904070000c0eb00a704070030118000ce
:10382800e60f5000fdff3a0000a8210061002000cb
:103838000af3070040c5b3009f04070050c7b30050
:103848009d04070060c0b3009b04070010c0b300cc
:103858009904070000c0eb009704070000c0eb00c4
:103868009504070030118000e60f5000fdff3a0074
:1038780000a8210061002000f8f2070040c5b3004d
:103888008d040700c0c6b3008b04070070c0b300e6
:103898008904070010c0b3008704070000c0eb00cc
:1038a8008504070000c0eb00830407003011800086
:1038b800e60f5000fdff3a0000a82100610020003b
:1038c800e6f2070040c5b3007b04070010c6b3004a
:1038d8007904070080c0b3007704070010c0b30064
:1038e8007504070000c0eb007304070000c0eb007c
:1038f8007104070030118000e60f5000fdff3a0008
:1039080000a8210061002000d4f2070040c5b300e0
:103918006904070020c7b3006704070090c0b3001c
:103928006504070010c0b3006304070000c0eb0083
:103938006104070000c0eb005f040700301180003d
:10394800e60f5000fdff3a0000a8210061002000aa
:10395800c2f2070040c5b3005704070080c4b30093
:103968005504070020c0b3005304070030c0b3005b
:103978005104070000c0eb004f04070000c0eb0033
:103988004d04070030118000e60f5000fdff3a009b
:1039980000a8210061002000b0f2070040c5b30074
:1039a8004504070050c6b3004304070030c0b30005
:1039b8004104070030c0b3003f04070000c0eb001b
:1039c8003d04070000c0eb003b04070030118000f5
:1039d800e60f5000fdff3a0000a82100610020001a
:1039e8009ef2070040c5b3003304070010c6b300b9
:1039f8003104070040c0b3002f04070030c0b300f3
:103a08002d04070000c0eb002b04070000c0eb00ea
:103a18002904070030118000e60f5000fdff3a002e
:103a280000a82100610020008cf2070040c5b30007
:103a38002104070040c6b3001f04070050c0b300ac
:103a48001d04070030c0b3001b04070000c0eb00d2
:103a58001904070000c0eb001704070030118000ac
:103a6800e60f5000fdff3a0000a821006100200089
:103a78007af2070040c5b3000f04070000c2b30084
:103a88000d04070060c0b3000b04070030c0b3008a
:103a98000904070000c0eb000704070000c0eb00a2
:103aa8000504070030118000e60f5000fdff3a00c2
:103ab80000a821006100200068f2070040c5b3009b
:103ac800fd030700a0c3b300fb03070070c0b300e9
:103ad800f903070030c0b300f703070000c0eb008c
:103ae800f503070000c0eb00f30307003011800066
:103af800e60f5000fdff3a0000a8210061002000f9
:103b080056f2070040c5b300eb03070000c5b30039
:103b1800e903070020c0b300e703070040c0b30073
:103b2800e503070000c0eb00e303070000c0eb005b
:103b3800e103070030118000e60f5000fdff3a0056
:103b480000a821006100200044f2070040c5b3002e
:103b5800d903070090c6b300d703070030c0b300ed
:103b6800d503070040c0b300d303070000c0eb0033
:103b7800d103070000c0eb00cf030700301180001d
:103b8800e60f5000fdff3a0000a821006100200068
:103b980032f2070040c5b300c703070040c7b300af
:103ba800c503070040c0b300c303070040c0b3000b
:103bb800c103070000c0eb00bf03070000c0eb0013
:103bc800bd03070030118000e60f5000fdff3a00ea
:103bd80000a821006100200020f2070040c5b300c2
:103be800b503070030c6b300b303070050c0b300e5
:103bf800b103070040c0b300af03070000c0eb00eb
:103c0800ad03070000c0eb00ab03070030118000d4
:103c1800e60f5000fdff3a0000a8210061002000d7
:103c28000ef2070040c5b300a303070080c6b30027
:103c3800a103070060c0b3009f03070040c0b300a2
:103c48009d03070000c0eb009b03070000c0eb00ca
:103c58009903070030118000e60f5000fdff3a007d
:103c680000a8210061002000fcf1070040c5b30056
:103c780091030700a0c3b3008f03070070c0b3000f
:103c88008d03070040c0b3008b03070000c0eb00a2
:103c98008903070000c0eb0087030700301180008c
:103ca800e60f5000fdff3a0000a821006100200047
:103cb800eaf1070040c5b3007f03070020c5b30041
:103cc8007d03070020c0b3007b03070050c0b3008a
:103cd8007903070000c0eb007703070000c0eb0082
:103ce8007503070030118000e60f5000fdff3a0011
:103cf80000a8210061002000d8f1070040c5b300ea
:103d08006d03070010c6b3006b03070030c0b30093
:103d18006903070050c0b3006703070000c0eb0049
:103d28006503070000c0eb00630307003011800043
:103d3800e60f5000fdff3a0000a8210061002000b6
:103d4800c6f1070040c5b3005b030700e0c6b30037
:103d58005903070040c0b3005703070050c0b30021
:103d68005503070000c0eb005303070000c0eb0039
:103d78005103070030118000e60f5000fdff3a00a4
:103d880000a8210061002000b4f1070040c5b3007d
:103d98004903070070c6b3004703070050c0b300cb
:103da8004503070050c0b3004303070000c0eb0001
:103db8004103070000c0eb003f03070030118000fb
:103dc800e60f5000fdff3a0000a821006100200026
:103dd800a2f1070040c5b3003703070050c6b3007f
:103de8003503070060c0b3003303070050c0b300b9
:103df8003103070000c0eb002f03070000c0eb00f1
:103e08002d03070030118000e60f5000fdff3a0037
:103e180000a821006100200090f1070040c5b30010
:103e280025030700a0c3b3002303070070c0b30035
:103e38002103070050c0b3001f03070000c0eb00b8
:103e48001d03070000c0eb001b03070030118000b2
:103e5800e60f5000fdff3a0000a821006100200095
:103e68007ef1070040c5b30013030700c0c4b300c8
:103e78001103070010c0b3000f03070070c0b300a0
:103e88000d03070000c0eb000b03070000c0eb00a8
:103e98000903070030118000e60f5000fdff3a00cb
:103ea80000a82100610020006cf1070040c5b300a4
:103eb8000103070010c6b300ff02070020c0b300cb
:103ec800fd02070070c0b300fb02070000c0eb0052
:103ed800f902070000c0eb00f7020700301180006c
:103ee800e60f5000fdff3a0000a821006100200005
:103ef8005af1070040c5b300ef02070050c7b300ee
:103f0800ed02070030c0b300eb02070070c0b30039
:103f1800e902070000c0eb00e702070000c0eb0061
:103f2800e502070030118000e60f5000fdff3a005f
:103f380000a821006100200048f1070040c5b30037
:103f4800dd020700e0c6b300db02070040c0b30093
:103f5800d902070070c0b300d702070000c0eb0009
:103f6800d502070000c0eb00d30207003011800023
:103f7800e60f5000fdff3a0000a821006100200074
:103f880036f1070040c5b300cb02070030c6b300c6
:103f9800c902070050c0b300c702070070c0b300d1
:103fa800c502070000c0eb00c302070000c0eb0019
:103fb800c102070030118000e60f5000fdff3a00f3
:103fc80000a821006100200024f1070040c5b300cb
:103fd800b902070080c6b300b702070060c0b3008b
:103fe800b502070070c0b300b302070000c0eb00c1
:103ff800b102070000c0eb00af02070030118000db
:10400800e60f5000fdff3a0000a8210061002000e3
:1040180012f1070040c5b300a702070000c2b300b1
:10402800a502070070c0b300a302070070c0b30068
:10403800a102070000c0eb009f02070000c0eb00d0
:104048009d02070030118000e60f5000fdff3a0086
:1040580000a821006100200000f1070040c5b3005e
:104068009502070000c5b3009302070080c0b300a3
:104078009102070070c0b3008f02070000c0eb0078
:104088008d02070000c0eb008b0207003011800092
:10409800e60f5000fdff3a0000a821006100200053
:1040a800eef0070040c5b3008302070010c6b30056
:1040b8008102070090c0b3007f02070070c0b30000
:1040c8007d02070000c0eb007b02070000c0eb0088
:1040d8007902070030118000e60f5000fdff3a001a
:1040e80000a8210061002000dcf0070040c5b300f3
:1040f8007102070040c6b3006f020700a0c0b300fa
:104108006d02070070c0b3006b02070000c0eb002f
:104118006902070000c0eb00670207003011800049
:10412800e60f5000fdff3a0000a8210061002000c2
:10413800caf0070040c5b3005f02070080c4b3009f
:104148005d02070020c0b3005b02070090c0b30007
:104158005902070000c0eb005702070000c0eb003f
:104168005502070030118000e60f5000fdff3a00ad
:1041780000a8210061002000b8f0070040c5b30086
:104188004d02070050c6b3004b02070030c0b30011
:104198004902070090c0b3004702070000c0eb00c7
:1041a8004502070000c0eb00430207003011800001
:1041b800e60f5000fdff3a0000a821006100200032
:1041c800a6f0070040c5b3003b02070010c6b300c5
:1041d8003902070040c0b3003702070090c0b3009f
:1041e8003502070000c0eb003302070000c0eb00f7
:1041f8003102070030118000e60f5000fdff3a0041
:1042080000a821006100200094f0070040c5b30019
:104218002902070040c6b3002702070050c0b300b8
:104228002502070090c0b3002302070000c0eb007e
:104238002102070000c0eb001f02070030118000b8
:10424800e60f5000fdff3a0000a8210061002000a1
:1042580082f0070040c5b3001702070000c2b30090
:104268001502070060c0b3001302070090c0b30036
:104278001102070000c0eb000f02070000c0eb00ae
:104288000d02070030118000e60f5000fdff3a00d4
:1042980000a821006100200070f0070040c5b300ad
:1042a80005020700a0c3b3000302070070c0b300f3
:1042b8000102070090c0b300ff01070000c0eb0037
:1042c800fd01070000c0eb00fb0107003011800072
:1042d800e60f5000fdff3a0000a821006100200011
:1042e8005ef0070040c5b300f301070000c5b30046
:1042f800f101070020c0b300ef010700a0c0b30020
:10430800ed01070000c0eb00eb01070000c0eb0067
:10431800e901070030118000e60f5000fdff3a0068
:1043280000a82100610020004cf0070040c5b30040
:10433800e101070090c6b300df01070030c0b300f9
:10434800dd010700a0c0b300db01070000c0eb00df
:10435800d901070000c0eb00d70107003011800029
:10436800e60f5000fdff3a0000a821006100200080
:104378003af0070040c5b300cf01070040c7b300bb
:10438800cd01070040c0b300cb010700a0c0b300b7
:10439800c901070000c0eb00c701070000c0eb001f
:1043a800c501070030118000e60f5000fdff3a00fc
:1043b80000a821006100200028f0070040c5b300d4
:1043c800bd01070030c6b300bb01070050c0b300f1
:1043d800b9010700a0c0b300b701070000c0eb0097
:1043e800b501070000c0eb00b301070030118000e1
:1043f800e60f5000fdff3a0000a8210061002000f0
:1044080016f0070040c5b300ab01070080c6b30033
:10441800a901070060c0b300a7010700a0c0b3004e
:10442800a501070000c0eb00a301070000c0eb00d6
:10443800a101070030118000e60f5000fdff3a008f
:1044480000a821006100200004f0070040c5b30067
:1044580099010700a0c3b3009701070070c0b3001b
:1044680095010700a0c0b3009301070000c0eb004e
:104478009101070000c0eb008f0107003011800098
:10448800e60f5000fdff3a0000a82100610020005f
:10449800f2ef07000080fa00000006001e00fa0094
:1044a8000000eb00100798000000eb00000f7800f8
:1044b800004380001143800064014700809fbe00d4
:1044c80080af2900801f780002007800d6f5070029
:1044d800e687570010079800c0428000d14280004c
:1044e80069014700809fbe0080af2900801f7800c7
:1044f80002007800ccf50700e687570010079800ff
:10450800e0428000f14280006e014700809fbe00bb
:1045180080af2900801f780002007800c2f50700ec
:10452800e68757001007980080428000914280007b
:1045380073014700809fbe0080af2900801f78006c
:1045480002007800b8f50700e687570010079800c2
:10455800a0428000b142800078014700809fbe00e1
:1045680080af2900801f780002007800aef50700b0
:10457800e6875700100798000000eb00000f78004e
:104588006d00370040c5b3004b0107009e0078005e
:104598006900470061407800470107001e00780065
:1045a800694040004401070030c0b30042010700e1
:1045b80000c0eb004001070000c0eb003e0107000f
:1045c80030118000e60f5000fdff3a0000a82100de
:1045d80061002000a1ef070040c5b30036010700c5
:1045e8009e0078006e004700008040001040780070
:1045f800310107001e007800694040002e010700c5
:1046080040c0b3002c01070000c0eb002a010700de
:1046180000c0eb002801070030118000e60f5000b1
:10462800fdff3a0000a82100610020008bef070081
:1046380040c5b300200107009e00780064004700d1
:1046480000804000104078001b0107001e00780021
:10465800694040001801070050c0b3001601070068
:1046680000c0eb001401070000c0eb0012010700b6
:1046780030118000e60f5000fdff3a0000a821002d
:104688006100200075ef070040c5b3000a0107006c
:104698009e0078007300470061407800060107001b
:1046a8001e007800694040000301070090c0b30075
:1046b8000101070000c0eb00ff00070000c0eb008d
:1046c800fd00070030118000e60f5000fdff3a00a2
:1046d80000a821006100200060ef070040c5b3007a
:1046e800f50007009e007800780047000080400031
:1046f80010407800f00007001e0078006940400074
:10470800ed000700a0c0b300eb00070000c0eb00fd
:10471800e900070000c0eb00e70007003011800047
:10472800e60f5000fdff3a0000a8210061002000bc
:104738004aef07001e0fe800400020009e0f1000ff
:0c47480090ff36000080fa000000060020
:020000040000fa
:10475400500800001400000000000000c40900001c
:10476400a0000000020000000100000000000000a2
:1047740000000a00000000000000000000640000c7
:104784000000000000000000e8030000000000003a
:1047940000001000270000000000000000a08600b8
:1047a400010000000000000040420f000000000073
:1047b4000000800096980000000000000000e10066
:1047c400f50500000000000000ca9a003b0000004c
:1047d40000000000e40b5400020000000000e800a8
:1047e40076481700000000000010a500d4e800007f
:1047f40000000000a0724e001809000000004000f4
:104804007a10f3005a0000000080c600a47e8d00d8
:104814000300000000c16f00f286230000000000c6
:104824008a5d78004563010000006400a7b3b60008
:10483400e00d000000e889000423c7008a0000009e
:104844008a0a00001800000002000000286e7500ab
:104854006c6c2900003031003233340035363700b7
:10486400383961006263640065660000a80a0000cc
:104874000200000000000000640800006001000065
:10488400020000000000000000000000f03f0000f3
:104894000000a0009999b9003f0000000040e10029
:1048a4007a843f0000000000e04d6200503f0000a9
:1048b4000000e000e2361a003f0000000080b5006e
:1048c400f8e43e0000000000a0f7c600b03e00007f
:1048d4000000a000f2d77a003e00000000e08e0045
:1048e40079453e0000000000e00b2e00113e000060
:1048f4000000e000df7cdb003d0000000000a100c0
:104904009cc73b0000000000004c4800b439000084
:1049140000000000206ca10037000000000000002f
:104924000000000000000000000000000000000083
:104934000000000000000000000000000000000073
:104944000000000000000000000000000000000063
:104954000000000000000000000000000000000053
:104964000000000000000000000000000000000043
:10497400000000000000f0003f0000000000000004
:104984000024400000000000000000005940000026
:104994000000000000408f00400000000000000004
:1049a40088c340000000000000006a00f8400000d6
:1049b4000000000080842e00410000000000d000b0
:1049c40012634100000000000084d70097410000fa
:1049d4000000000065cdcd004100000000205f0014
:1049e400a002420000000000801daf00154400003a
:1049f40000004000593e290046000000000000006d
:104a040000f07f000000000000000000f07f0000c4
:104a1400000000000000f0007f0000000000000023
:104a240000f07f000000000000000000f07f0000a4
:104a3400000000000000f0007f0000000000000003
:104a440000f07f000000000000000000f07f000084
:104a5400000000000000f0007f000000640a000075
:104a64002600000002000000660aa4000a000000fc
:104a7400a40a0900000000000200a2000a000000cd
:104a8400a20a06000201000000000000000000006d
:104a9400000006000202000000000000a20a00005c
:104aa4000600000000000000aa0a00000200000046
:0c4ab400020000000100000000000000f3
:020000040000fa
:104ac0000200fa00004f780023c2bf00614060007e
:104ad0000004e000fcff32001e80fb002011880073
:104ae00023c2bf00614060000004e000fcff320010
:104af0008560a9000080fa00000006000200fa00ac
:104b0000004f780033c2bf00614060000004e00045
:104b1000fcff32001e80fb00a011880033c2bf00e2
:104b2000614060000004e000fcff320087c0a90083
:104b30000080fa00000006000000fa0022c2bf0058
:104b400022c2bf00624060000004e00001003200a9
:104b500022c2bf0022c2bf00614060000004e0002a
:104b6000010032008560a900301180000080fb0048
:104b70000080fa00000006000000fa0032c2bf0008
:104b800032c2bf00624060000004e0000100320059
:104b900032c2bf0032c2bf00614060000004e000ca
:104ba0000100320087c0a900b01180000080fb0026
:104bb0000080fa00000006000000fa00c8e2a80029
:104bc000c902a900816c20009140780000ceb3009a
:104bd00000c060003040b300c8e6b700416a200062
:104be0009140780000ceb30000c060007040b30078
:104bf000a4e6b7000010200040118800910a2000b0
:104c000091407800f0c8b30000c06000a9e0b70090
:104c10008560a9009560a9000000280000118800a7
:104c200000442000101188000080fa0000000600f7
:104c30000000fa00c8a2a900516c20009140780041
:104c400000ceb30000c060003040b300c5e6b7003e
:104c50000010200040118800910a20009140780047
:104c6000f0c8b30000c06000a9e0b7008560a900eb
:104c70009560a90000002800001188000044200071
:104c8000101188000080fa00000006000000fa0001
:104c9000d082a800d062a900316d20009140780038
:104ca00000ceb30000c060003040b300d3e6b700d0
:104cb000416a20009140780000ceb30000c060003f
:104cc0004041b300a4e6b700001020004011880066
:104cd000910a200091407800f0c8b30000c0600045
:104ce000a9e0b7008560a9009560a9000000280030
:104cf0000011880000442000101188000080fa0094
:104d0000000006000000fa00d042a900c882a800f6
:104d1000216d20009140780000ceb30000c06000fb
:104d20005040b300d2e6b700616a2000914078009d
:104d300000ceb30000c060000024a000a6e6b700cb
:104d400000102000c0118800310b20009140780035
:104d500080cfb30000c06000b3e0b70087c0a900f7
:104d600097c0a9000000280080118800004420009e
:104d7000901188000080fa00000006000000fa0090
:104d8000d0a2a900516a20009140780000ceb30063
:104d900000c060005041b300a5e6b700001020003d
:104da00040118800910a200091407800f0c8b300bb
:104db00000c06000a9e0b7008560a9009560a90067
:104dc0000000280000118800004420001011880015
:104dd0000080fa00000006002400fa00881f780016
:104de0000000eb00400798000040eb00204f9800c7
:104df0006000b80020079800310798006000b800f4
:104e0000008fbe003222a9005bff0700204f9800f0
:104e10002e489000ed4f500001003a00faff370095
:104e20000040eb00204f9800080037004e0490002f
:104e300051ff0700804078006b0047000174780044
:104e40004e0090000000e800400798004e009000df
:104e5000ee0f5000f5ff36000000eb004007980011
:104e60006b004700104890000080fb004800dd0008
:104e70000100200020079800310798006b004700d0
:104e8000004890000081fb00030020002e009000ed
:104e9000be0090000000410081804900200798007a
:104ea00031079800ae009000803e20000009b80055
:104eb0002e0090006000b90003027800000242005a
:104ec000be009000803e20000088b9000002420031
:104ed0008401780022079800330798002e00900084
:104ee000be009000f2ff2f0003002000e1ed07005c
:104ef0002007980031079800ae009000801620002f
:104f00000009b8002e0090006000b900030278008c
:104f100000024200be009000801620000088b90008
:104f200000024200840178002207980033079800ad
:104f30002e009000be009000e00f5000e08f58005f
:104f4000060035002e009000be009000d9ed07004d
:104f50000017980011179800170037002e009000d6
:104f6000be009000610160006000b80003002000f6
:104f700002007000838070002e019000be0190003e
:104f80008301d1000281d300020070008380700091
:104f9000c8ed070000179800111798000e11900037
:104fa0009e1190000e1090009e109000eded0700f5
:104fb000001798001117980002002000a347240052
:104fc0000e1090009e10900043ee07008042880073
:104fd000914288006b004700704090000080fb0009
:104fe0004800dd00cf80de00008fbe006b00470070
:104ff000604090000080fb00010020001e0f400078
:105000005e9748009e007800803e20000009b800ae
:105010001e0078006000b900030278000002420020
:105020009e009000803e20000088b90000024200ef
:1050300084017800028fbe001e00be00f2ff2f0028
:105040000300200066ee0700008fbe009e0078007f
:10505000801620000009b8001e0078006000b9002a
:1050600003027800000242009e009000801620009b
:105070000088b9000002420084017800028fbe005f
:105080001e00be008bed070002002000a347240095
:1050900011ee0700a0428800b14288004f0478005a
:1050a0000080fa00000006001200fa00881f780055
:1050b0000000eb00000f78002222a9009efe0700ee
:1050c0008040780080c4b30080cf5000fbff3a00de
:1050d0000000eb00000f7800070037001e04780086
:1050e00095fe0700804078000e80e8000000440034
:1050f000014878001e0fe800500020009e0f1000ad
:10510000f6ff36009e0078000e80e80080804000a8
:105110000040eb008048780087fe07008040780060
:1051200000c5b30080cf5000fbff3a000000eb0049
:10513000000f7800060037001e0478007efe07008e
:105140008040780067004700017478001e0fe80077
:10515000500020009e0f1000f7ff36001e0178005f
:10516000e70047000040eb0000f1780072fe070006
:105170008040780020c5b30080cf5000fbff3a008c
:105180000000eb00000f7800070037001e047800d5
:1051900069fe0700804078006c0047000000440072
:1051a000014878001e0fe800500020009e0f1000fc
:1051b000f6ff36009e0078006c00470080804000bb
:1051c0000040eb00804878000e80e80090407800b6
:1051d00090c3b30080cf50002a003a000e80e80050
:1051e0009040900090c3b30080cf500025003a005b
:1051f0000e80e800a040900090c3b30080cf500024
:1052000020003a000e80e800b040900090c3b30048
:1052100080cf50001b003a000e80e800c040900094
:1052200090c3b30080cf500016003a00cae2a80035
:10523000007122008bec0700cac2a800a08c2000dd
:10524000d00e880000d022001113200085ec07004a
:105250000000eb00000e88000070280031392000ab
:1052600080ec070030752000b02e880000d02200ae
:10527000111320007bec07000000eb00002e8800db
:10528000ffff37000e80e80072f30700c04288007d
:10529000d1428800670047006ef30700e0428800b3
:1052a000f14288006c0047006af307000043880061
:1052b000114388004f0478000080fa0000000600c7
:1052c0000000fa00a0cab3000cfe07000048280046
:1052d000e101200063ec07000080fa0000000600f6
:1052e0000200fa00004f7800114798001e40780035
:1052f00002fe07000040eb0000fe07001e40900089
:10530000fefd07001e4090001e4040000074a100fa
:10531000fafd07000080fa00000006000200fa0013
:10532000004f7800114798001e407800f3fd0700f9
:1053300040c0b300f1fd07001e409000effd0700e4
:105340001e4090001e404000644040000074a100d8
:10535000eafd07000080fa00000006000200fa00e3
:10536000004f7800114798001e407800e3fd0700c9
:1053700010c0b300e1fd07001e409000dffd0700f4
:105380001e4090001e4040000040e8000074a10054
:10539000dafd07000080fa00000006000200fa00b3
:1053a000004f7800114798001e407800d3fd070099
:1053b00050c0b300d1fd07001e409000cffd070094
:1053c0001e4090001e404000654040000074a10057
:1053d000cafd07000080fa00000006000e00fa0077
:1053e00000c3b3003047980000c3b30020479800c3
:1053f00064004700e1ae2900070009003158780039
:105400008000b100e80040000000eb008008780058
:105410000000eb00000f7800280007000d000700d7
:1054200038fe070019fe07000000eb00000f7800af
:105430000400370068fe070030c7b300204798001b
:105440001e0fe800600020009e0f1000f9ff3400de
:10545000f5ff37000000fa000080eb0060198800bb
:10546000c9a2a900d0a2a900c8a2a900c8e2a800a8
:10547000c902a900d042a900c882a800d082a80011
:10548000d062a900d0c2a800d0e2a800c842a900fa
:10549000c862a900d002a900d022a900c922a9008f
:1054a000c942a900d022a900c9a2a900d102a9001d
:1054b000d122a9000080fa00000006000000fa00d6
:1054c00090022000303a880044c7bf00f043b20089
:1054d00044e7b700417420009140780000ceb3004b
:1054e00000c0600044e7b70040a7a90042c7bf0062
:1054f0000042b2000004e000fcff32000080fa002d
:0455000000000600a1
:00000001FF
