:020000040000fa
:080000000002040000000000f2
:020000040000fa
:100400002fa820000e7f24000e01880000000000ad
:100410000c000700207e2200010020001f000700c2
:10042000000020000000e000020032000000020096
:100430000000000018240200000000000040da0064
:100440000000fe004440a900400020000000e00041
:100450000300320000002000a00188004440a800f2
:1004600000000600f03fb1000180b1000600350039
:10047000ee03090000000000403fb1000180b10020
:10048000fbff3d001000b000203fb000020035002f
:1004900000800900000000000000060091018800b3
:1004a000800078000000eb0015003700e28040007b
:1004b00032a0b4009101ba00e280400032a0b40042
:1004c0009102ba00e280400032a0b4000002eb00ca
:1004d000472bde00f507b200602ce10004003a0073
:1004e0000059eb008301e900fdff3e0004003700e6
:1004f0006128e100010032000082eb0004000700e7
:100500001101ba000200e000e8ff3a000000060016
:100510003159ba008301e9000c0032002159ba00b8
:100520008301e900080032000400e00003003a0003
:10053000e280400032a0b400f5ff370011d9ba00c4
:100540008301e900faff3a008100e800e180400001
:1005500032a0b400000006000040da000000fe00f7
:100560006900e100040035006d00e1000300340083
:100570000002b1000100320000000500100005007b
:100580000a00fa0080017800e20f500028003e00c7
:1005900000548000e10f500008003200802320004a
:1005a0000000e00005003200042320002523200085
:1005b0004623200080017800040037000422200038
:1005c0002522200046222000832220001440900093
:1005d0000004e000040035008009eb0014409000a6
:1005e0000074a00010429800154090000028a3005d
:1005f00003003a00154090000024a00090429800ab
:100600008001eb0007003700154090000008a300b0
:10061000fdff320063c078000000fb00000b780093
:100620008301e800828f5100f7ff3a00080037008d
:1006300030002000b0bf9f00c3bf9f00d1bf9f000c
:10064000e2bf9f006a80570000c0da006fb99700d0
:10065000020078000080fa0000000600020ab900db
:10066000001bb9000200b800810042008100430075
:10067000000006006022b800060220000000d00042
:100680008180d2000482d2008582d2000000a000c6
:100690000202520083825a0003003100020242002b
:1006a00083824a000000a1000603e900f3ff3a003c
:1006b00000000600889fbe008a9fbe0001057800ea
:1006c0000100e0000400350008003c000000e000ec
:1006d000200032000500370060001000e0801800a4
:1006e00002003b0001f02c001a0037000004be009d
:1006f0006011b8006b0920000982cf0002003900a8
:100700000882cf000441b000694252000e0032005e
:1007100008003b0082817100610164008904d100fe
:100720000884d3008b05e8000442e800f9ff3a0092
:10073000050037000804440089844c008b05e9005b
:100740000442e900fbff3a00280107000af0a70075
:1007500001f0a0004f05be004f04be0000000600df
:1007600003f0a200889fbe008a9fbe008c1f780005
:10077000440107004b0133006450e1004f00320098
:100780006420e1005200320003826c0007003b004d
:100790000905d0000306d000820f54000c065d004e
:1007a0000200390002003200890178000306780057
:1007b0008582550004003d000003fd008103fd001b
:1007c0008502ea008b854200840f720002003b0024
:1007d00060001000e08018006011b8000005eb0018
:1007e0007a28e1000a00390006007800c75ddd00c4
:1007f000f707b200878075002d00370082817100f5
:100800000a017800610560008180d1000080d3007a
:100810008502e900f9ff3b00060440008784480098
:1008200002003b0060041400e0841c000988a3005f
:10083000070032008a8171008281710061016400c9
:100840008904d1000884d3008b05e8001700370025
:100850000978a30013003a000b00e00013003400f5
:100860008b05e9000804440089844c000a447400a4
:100870000978a3000d003a000b00e00007003400e7
:100880008b05e9000804440089844c0001003a000b
:100890000b0020000978a300f7ff32000001eb00f5
:1008a00002003700828171000a017800cf00070042
:1008b0000cf0a70001f0a000030137006420e10064
:1008c00002003a00838f6c00030133000801be0070
:1008d0000200be00fc003700889fbe008a9fbe0059
:1008e0008c1f7800e7000700ee00330003866c00e1
:1008f0006450e1002e0032006420e1003300320039
:100900006150e1002f0032006120e100310032002f
:1009100085855500eb07b000090020000804200081
:10092000050037000804440089844c000a003100a7
:100930000603430087834b000001530081815b0065
:10094000f8ff33000203be000800a00008044400c2
:1009500089844c00f6ff3900c639dd00830173003d
:1009600001003200130020008904d1000884d30064
:100970000998a300050032000800a7000300a000aa
:100980008904d1000884d3008b05e8008904d100d4
:100990000884d3000001eb000281d200930007001d
:1009a00001f0a1000cf0a70001f0a000c600370084
:1009b0006420e100c80032000801be000200be0051
:1009c000f7ff37006120e100c30032006000b8008b
:1009d000f3ff37000000200001f82700f0ff370088
:1009e000839f68000100e00002003d0060001000ed
:1009f000e08018000300e00002003d0060011100eb
:100a0000e08119001bff07004f00e00002003b00df
:100a100060001000e08018000000060014002000b4
:100a2000b0003700889fbe008a9fbe008c1f7800f0
:100a3000940007009b00330003866c006450e100c3
:100a4000240032006420e100270032006150e10000
:100a5000220032006120e100210032008b8542003b
:100a6000eb07b1000134b800003ab80008044200b6
:100a700089844a00013ab8000030b80088804000fc
:100a800009014a0004003300000040008180480052
:100a9000020149008b05e900c909dd0083017000ee
:100aa0000100320013002000c814de004814dd00ed
:100ab0004709de001200b200c808de00088470009a
:100ac0004a00070001f0a1000cf0a70001f0a0000f
:100ad0007d0037006120e1007f0032000801be0088
:100ae0000200be00f7ff37006150e100fcff3a0052
:100af000790037000001be00950007000470a700d0
:100b000003f0a10003f8a30013003a006509b10047
:100b100010003200090035006928e10002003500ac
:100b2000010028000000050000004000818048000e
:100b30008502e900fcff3a0000000600f88f420041
:100b4000050035008100d1000080d3008502e80057
:100b5000fcff3a00000006008000eb0000000500ea
:100b60000001be007a0007000470a70003f0a10096
:100b70006509b100160032000d0035006828e1005b
:100b800006003500f0ff2f00f1ff27000300e00012
:100b900013003b0001002800000005000000400099
:100ba000818048008502e900fcff3a000800370018
:100bb000f88f420002003c008000eb0000000500be
:100bc0008100d1000080d3008502e800fcff3a00dc
:100bd0000300e00002003b0060001000e08018000d
:100be00000000600f4ff2f003e00370081002000c7
:100bf000618055000b003d000b00200061fe2f00be
:100c00000100e1001d003400828171006101640077
:100c10008904d1000884d3000000e800faff3a00fc
:100c20007100200061006400030070000200600099
:100c30000900320061044400e0844c000988a500ea
:100c4000050032008b05e8006808e10002003a0068
:100c50008904d1000884d300f20f20000258e1007b
:100c600005003d00c75ddd00f907b2008980750011
:100c700008007800000006000bf827008b007800c1
:100c8000000005000004be00310007000003be00a4
:100c90000405be000200be002d000700844f750051
:100ca000000006000200be006450e10005003600ae
:100cb0006420e100020036000968a30001003a0048
:100cc0000800be000160a0004f0678004f05be007e
:100cd0004f04be0000000600f0ff2f00f1ff2700c8
:100ce000f9ff3700889fbe008a9fbe00841f7800ee
:100cf000e4ff07004f00780011003300f0ff2f00e1
:100d0000838f6c0006003b00040565000a00a70005
:100d10000800370009f0a600100020000800370086
:100d2000820f5400838f5c00030039001000200004
:100d300001003e000000200009f0a7000000ea00ca
:100d40004f05be004f04be000000e000000006009a
:100d5000c70ade00f107b200f50fb200080032004a
:100d6000e1cf4200020032000170a0002400050023
:100d7000810f7000010032000408050044000500e6
:100d8000810f700002003a00140005008502e9009e
:100d90000000400081c04800fcff3b000170a00043
:100da000240005002800fa00889fbe008a9fbe002c
:100db0008c9fbe0003866b00170307000028a3006a
:100dc00064003a000128a30067003a000008a3006d
:100dd00062003a000108a30065003a001e0090007e
:100de000be08900081064000ed3fb100f48057003e
:100df000ee019000111ab8008e099000311bb80066
:100e00009e099000311cb800511db800f4855700b0
:100e100046000700fe0190003a0007008b85e800bd
:100e20003e0007008e09900040000700ee01900090
:100e3000340007008b85e800380007008e09900019
:100e4000400007009e0990001b18b800890440006c
:100e50000a854800fe019000340007008b85e800f9
:100e600038000700ee019000300007008e09900066
:100e70001b18b800890440000a8548000a98a3009e
:100e800008003a000402420085824a0006034b0033
:100e900087834b0008044c0089844c000a054d00f0
:100ea0008d06e90084827200850273004c3add00f1
:100eb000850272000100320015002000443ade0075
:100ec0001400b2004538de00cb45dd000b00700099
:100ed000c540de00cb4ddd008b8070004549de0053
:100ee000cb55dd000b017100c551de000d0378000c
:100ef000e202070003f0a1000cf0a70003f0a0003d
:100f0000d90237001b18b80085024000068348004c
:100f1000e0834b0060044c00070037001b18b8004a
:100f20000603400087834800faff37001b18b8000b
:100f30008703400008844800e0844c0060054d00b1
:100f4000000006001b18b80008044000898448000f
:100f5000faff37000108a300c0023a005800be00a3
:100f60005801be00e3ff37000008a300bb023a00af
:100f700009047800f9ff37008103780074ff070047
:100f80000001be006000b8000478a30013003a001e
:100f90006220e10015003e000d0039008301d10000
:100fa0000281d3008180d3008301d1000281d3006c
:100fb0008180d3008301d1000281d3008180d300de
:100fc0000538b000c42add00f300b200838172004e
:100fd00007f0a70003f0a00000000600f3ff2700c1
:100fe000f2ff2f006110b900fbff370003ff27005d
:100ff000f7ff37008f1fd100cc0207008f87e90071
:101000000000e00000000600801feb00c7020700a0
:101010008f87e9000000e000000006001400fa00dd
:10102000889fbe008a9fbe008c9fbe000005be0048
:101030000206be00680047000c90be000a90be0089
:10104000e30207006400e1001a00320016003e00cf
:101050006100e1001a0032006e049000fe0490006e
:101060000e0b90009e0b90006011b8009e05900042
:101070000b38b100d501200082817100610164004c
:101080008703d1000683d3008984d3000884d3006a
:101090008502e900f8ff3a00d4fe07000df0a70032
:1010a00001f0a00070023700f1ff2700f0ff2f00d1
:1010b0006d02370001f8270000002000f7ff37001d
:1010c0006000b800f5ff3700e80207000509780066
:1010d00000000600809feb00940207008f87e90064
:1010e0000000e000000006002800fa00889fbe0013
:1010f0008a9fbe008c9fbe00070678008786690025
:101100000c003b00030478008704780008f0a1007d
:1011100009f0a100840f5000858f5800860f5900f8
:10112000890f5c00030033000cf0a20001003a00bc
:101130000cf0a100380207006400e1005f003200fb
:10114000780147006408e100610032006c0147004b
:10115000748557003200be001201be003a04be0082
:101160001a05be001e039000be0a900085035300be
:1011700006003d000004fd008104fd000205fd00a5
:101180008305fd008703ea00050378000df8a3003e
:101190000400320060041400e0841c0060051d009f
:1011a000e0851d006022b8007d0320000d38e100bd
:1011b0008006eb000b0039004433dd00f300b20081
:1011c0008301730039003700848272000d027800b9
:1011d000e10664008b85d1000a85d3008984d300a1
:1011e0000884d3008703e900f7ff3b0008004000b4
:1011f000898048000a0149008b81490004003b00b6
:1012000060001000e080180060011900e081190002
:101210000358a300090032008d827200848272009c
:10122000610260008301d1000281d3008180d3007c
:101230000080d3000603e8001b0037000348a3002a
:1012400017003a000600e000170034000603e9002a
:101250000d00a30000004800818048000201490001
:10126000838149000348a3000f003a000600e00014
:10127000090034000603e9000000400081804800b6
:10128000020149008381490001003a000003eb009c
:101290000348a300f5ff32006022b80002003700c7
:1012a0008482720061826600f401070003f0a100ed
:1012b0000cf0a70003f0a000eb0137006401470029
:1012c0006408e10002003a000df8a300e3013a00cf
:1012d0003200be001201be00e30137001400fa0024
:1012e000889fbe008a9fbe008c9fbe000004be0087
:1012f0000205be00680047000a90be000890be00cc
:10130000330207000070a7000bf0a1000bf8a30048
:1013100020003a009e0990000e099000fe00900007
:101320006e0090009e0290003443200084825200a0
:10133000cd0132000a003c00b4fc2f000428e1007b
:10134000140034008301d1000281d3008180d300d6
:101350000080d3008502e800faff3a00c20137009e
:10136000b40020000428e10007003c000000400019
:101370008180480002014900838149008502e9001b
:10138000faff3a00b80137000300280002002000ed
:10139000010037006011b8006000b800b2013700ea
:1013a0002800fa00889fbe008a9fbe008c9fbe0066
:1013b00003866b00980107006400e10044003200de
:1013c0006408e1004a0032006100e100460032009a
:1013d0006108e10049003200ec0647006000b800f7
:1013e0003d02be003d03be00f48657006011b80008
:1013f0003d04be003d05be007d0320000b0037000c
:101400000000a0008d06e900130032000402420033
:1014100085824a0006034b0087834b000000400092
:10142000818048000201490083814900080252007e
:1014300089825a000a035b008b835b00f0ff3b004c
:101440000802420089824a000a034b008b834b004a
:101450008d06e900edff3a008482720086827200f8
:10146000f707b200878272000100320015002000e9
:101470001e0490003e0b900006035400e63fb000af
:101480000368a300070032000000a7000500a000c9
:101490008301d1000281d3008180d3000080d3007a
:1014a0000603e8008301d1000281d3008180d300cc
:1014b0000080d3000002eb000482d2006f0107001d
:1014c00003f0a1000cf0a70003f0a00066013700b4
:1014d000640247006408e100600132003400be008d
:1014e0003401be00f6ff37006108e1005b01320005
:1014f0006011b8006000b800f1ff370003ff27005b
:1015000002002000fbff3700889fbe0083047800a4
:101510000300e0002c00350003003c000082700056
:10152000040271002600320036432000c50020006e
:101530008383cf000a0039000541b1008283cf00c8
:10154000070039000541b1008183cf000400390054
:101550000541b1008083cf00010039000541b10091
:1015600085c353006022b800120032000a003b001d
:1015700084827200610260008301d1000281d30085
:101580008180d3000080d3000603e8008743e80091
:10159000f7ff3a0007003700000040008180480054
:1015a00002014900838149000603e9008743e900fd
:1015b000f9ff3a003101070009f0a70003f0a0008d
:1015c0004f04be000000060060001000e08018001c
:1015d00060011900e0811900d3ff3b00033e2c009d
:1015e000f7ff370007f0a200bffe3700881f780022
:1015f000000478005001be004000be00040040001e
:10160000858048000601490087814900009cbe0092
:101610000294be000400e1000588e1000690e100ac
:101620000798e10002003100680044001008e8005b
:101630004f04780000000600f4874700889fbe0032
:101640008a9fbe008c9fbe008e1f78000205be00e0
:101650000004be00d4b79f00e5b79f00f6b79f0017
:1016600087bf9f000000eb00c0b79f00b0b79f008e
:10167000a0b79f0090b79f0080b79f000d04200087
:10168000bfb097004fb09700000140000000e0009d
:101690000f003d004f08de0000007100c0b79f0042
:1016a0009e00070001003d0012002000a10007007d
:1016b00001003d0012002000a6000700b100070055
:1016c000b60007000f004000c8ff070022003700e7
:1016d0004f08de0000067100ccb79f008f000700a6
:1016e00001003d00120020009200070001003d00b3
:1016f0001200200097000700a20007000fb2970019
:101700009fb297002fb39700bfb39700a9000700bf
:101710000000520081805a0002015b0083815b005f
:1017200080b79f0091b79f00a2b79f00b3b79f00fb
:101730000007eb009f0007000020e10001a8e10086
:1017400002b0e10003b8e100010031001e002000fa
:101750000e005600c0b79f004fb297000400e00093
:101760000700350010002000010020006011b800c3
:1017700008047000898470000a0571008b8571006f
:101780008d06e900beff3a000400e00003003d00c2
:10179000820007000f00400094ff07004fa8970049
:1017a0000000e00004003a000fb497009fb49700d7
:1017b0002fb59700bfb59700940007004f0778003a
:1017c0004f06be004f05be004f04be004f01b100e2
:1017d00000000600881f780018002000881f78008d
:1017e00095ff07008f87e9004f047800000006008e
:1017f000801feb0090ff07008f87e90000000600c4
:10180000889fbe008a9fbe008c1f78006e00070074
:1018100007003d0073000700e00f5b00e08f5b00f6
:1018200007003d00320007000006eb00040037000f
:101830003400070002003d002a0007001c002000c1
:1018400072000700e3ff07000203be000002be00b3
:101850000c00e00001003200220007000400be007e
:101860000601be004f0678004f05be004f04be00c3
:1018700000000600889fbe008a9fbe008c1f780073
:101880005100070005003d0056000700e00f5b0017
:10189000e08f5b0006003d000400370019000700e0
:1018a00003003d006000b8006011b80010000700a0
:1018b00056000700ceff07000203be000002be0074
:1018c0000c00e00001003200060007000400be002a
:1018d0000601be004f0678004f05be004f04be0053
:1018e000000006006000b8006011b800000037007a
:1018f000040250008582580006035900878359006e
:10190000000006000006eb00e00f5200e08f5a00d6
:10191000e00f5b00e08f5b000000060001804000ec
:1019200090b79f000001eb008fb097000100e0002e
:10193000000006000200700090b79f000180400088
:1019400080b79f000001eb00ffa897000100e000b6
:10195000000006000200700080b79f000180400078
:101960006faa9700cf20de0001007000f0af9f004b
:1019700004024200250007004f18de00000272003a
:1019800000000600e4af9f000804440089844c0076
:101990000a054d008b854d00000006003fb2970000
:1019a000cfb297005fb39700efb3970000fe2f0010
:1019b000000006003fb09700cfb097005fb19700de
:1019c000efb19700000006000205be000004be0053
:1019d000e00f5000e08f5800e00f5900e08f5900f1
:1019e000000006006000b8006011b8000804500054
:1019f000898458000a0559008b8559001c00200075
:101a0000e00f5200e08f5a00000006000800be0000
:101a10000a01be0000000600680447000294be00f0
:101a20000094be00fc0447008694be008494be006f
:101a300009007800660007000800780064000700cd
:101a400099007800814f70000b003b000800be0039
:101a5000930007004f00b10003003700f3ff270099
:101a6000f2ff2f006110b9004f06be004f05be0007
:101a70004f04be000080fa0000000600180020009d
:101a800057002000080453000d003d000600200010
:101a900097fc2f000740e1001e0034008482720092
:101aa000610260008301d1000281d3008180d300f4
:101ab0000080d3000804e800f8ff3a004700200047
:101ac0006104600005047400040464000d00320029
:101ad00061004000e080480060014900e081490069
:101ae00003b8a500070032000603e8006538e100ee
:101af00004003a008301d1000281d3008180d30029
:101b00000080d300f87f20000830e100030035009a
:101b1000080378006000b8006011b8004433dd00ad
:101b2000f300b2008301730000000600889fbe002e
:101b30008a9fbe008c9fbe000404be000605be0046
:101b4000809fbe00829fbe006300070004067800ed
:101b50000800be000a01be005f000700840678008e
:101b60004f03be004f02be008d4f76007fb097003e
:101b700013003300f0ff2f008b8f6b0006003b003b
:101b80000d0666000c00a7000a00370007f0a6004b
:101b9000100020000a003700880f5200898f5a0079
:101ba0008a0f5b008b8f5b00030039001000200060
:101bb00001003e000000200007f0a7000000ea003e
:101bc0004f06be004f05be004f04be0000000600d9
:101bd000800078005002be005003be004439de0091
:101be000f700b200f37f200003016100090032001a
:101bf0000218e10016003a008501720083017300ab
:101c0000838173000008200015003a004000200086
:101c10001300370085017200830173008381730014
:101c200005003a0004a8be0006a8be00100020006f
:101c30000b0037000201e9000402420085824a00dd
:101c400006034b0087834b000748a300f9ff3200cf
:101c50000740a00004a8be0006a8be002000200087
:101c60008000980092009800000006000003be006b
:101c700037fc07006220e100020032000600be00cf
:101c800005000500e507b100f107b20004f02300ec
:101c90008480700007f0a70001f0a0002400050078
:101ca000e48240001078a300070032006402400084
:101cb0001178a3003400be001401be0004003200fd
:101cc0000330a700000006003500be001501be006d
:101cd0000330a0000000060005ff27000582610018
:101ce000070032000428e100010032002400050052
:101cf0000600070001003a00440005000408050042
:101d000002000700f9ff3a00140005006f8261002d
:101d100081027000850271008502720000000600d9
:101d20000c00fa00889fbe0000047800cfb0970036
:101d3000f0ff2700d0bf9f008004eb0099bf9f00f9
:101d400088bf9f00a8bf9f00200c2000b0bf9f004d
:101d50007881570070805700530107000fb8970033
:101d6000094878000fb89700080450000800780070
:101d70004f04be000080fa0000000600e68747001e
:101d8000889fbe008a9fbe008c9fbe008e1f780079
:101d900000047800810678000100e00003003200b2
:101da000800e7800010037000804e80098447800ad
:101db0000900fb00eaf90700800078000000e0005d
:101dc000f9ff3a00d0c2b30080cf540003003a00bc
:101dd0000804e8001bc0b30005003700b0c2b30020
:101de00080cf540001003a000804e80081457800e3
:101df0000005eb000a0778006000b800f0b79f000c
:101e000081bf9f000b48a30005003a00e0c2b30069
:101e1000984f100002003a000b44a0001e0037004b
:101e2000984478000900fb000cfd2f000c004000d6
:101e3000e90f50001a003e000b14a0000b00fb003d
:101e4000e90f5500110032000048a30001003200e4
:101e50000e07e9000a05e800a200200003002000a8
:101e60007fb097008fb89700fcf907000cc14400c1
:101e70000281fb0003002000000041008180490036
:101e8000f0b79f0081bf9f00030037000048a30008
:101e900001003a000e07e8000804e800d9ff370007
:101ea00050c6b30080cf5400040032000002eb00a3
:101eb00050c4b30080cf540032003a008801e800db
:101ec00093407800d0c2b30080cf500002003a00a7
:101ed0000b34a00003003700b0c2b30080cf500025
:101ee00003003a008881e800010037008301e80020
:101ef0009340780006c3b30086cf5000fbff32004a
:101f00000100fb0005fd2f0005004000e90f500017
:101f100003003600030478000002eb0016003700cf
:101f200006c050000082fb000304e800184178005e
:101f30000200fb0005004000e90f50000e003e00cb
:101f40006a20b900064151000281fb0000024100f5
:101f50000384e800984078000100fb000500400081
:101f6000e90f500004003e006a21b90006c050008d
:101f70000080fb00020240000b38a3000100320089
:101f80000402ea00040547000d00e00003003200ef
:101f90000b18a30001003200880e78007fb0970074
:101fa0008fb89700c3f907000004be000006be000a
:101fb0006011b80099fa07006011b8000000e00055
:101fc0005900320030f82f00800f550003003d000b
:101fd00020022000f0538800530037000008200042
:101fe000800f55000a00340020022000f0538800c2
:101ff0000b08a300030032000200200003f82f00aa
:10200000490037000200200003f82700460037008f
:102010000a00e0001c003d000a05ea000600370047
:10202000922f2000530125000800be002afa070065
:102030000004be006a055500e90f5500f8ff3c009a
:102040000006eb0006003700020020000312240007
:102050000800be0020fa07000004be000c06e800dd
:102060008a0f5600f8ff3a000806be000200200062
:10207000030820000800be0068fa07000000e00026
:1020800025003d001c0037000a00e00007003c006e
:1020900021003700922f2000530125000800be00c8
:1020a00060fa07000004be006a055500e94f5500bc
:1020b000f8ff3e000006eb0006003700020020009b
:1020c000031224000800be0056fa07000004be00f8
:1020d0000c06e8008a0f5600f8ff3a000806be001a
:1020e000f2ff2f00f3f727000800be00bdfa07003b
:1020f0000000e000080034000b08a30003003200d9
:10210000020020000308280007003700020020001a
:1021100003082000040037000b08a3000100320070
:102120000df0a2000c01be000200be004f077800b7
:102130004f06be004f05be004f04be006f00b10049
:10214000000006008000eb000cff3700889fbe00f7
:102150008a1f7800804078000004e00021003d00e4
:102160008040ea00d0c6b30080cf500009003400a0
:102170008104fb0042062000110009008204d800ff
:1021800000017800010078004311dd00aa832000df
:102190001f0037000100fb00a38320003900370037
:1021a000a2002000110009000200d8000001780000
:1021b000010078004311dd00030141004300dd0010
:1021c000030040003002be002003be004220900009
:1021d000d2209000f221900062219000f1fa0700d5
:1021e0002e003700d0c6b30080cf5000230034004b
:1021f0008104fb0042062000110009008204d8007f
:1022000000017800010078004311dd00aa8e200053
:102210000a014100a8002000110009000800d800b0
:102220004300dd000a00400040229000d0229000d0
:1022300060239000f0239000028890009288900024
:10224000b289900022899000d6fa0700801f78009a
:1022500001027800110009008804d8000102fd0085
:102260004f0078000402fb004322dd000a02420016
:102270005403be004402be00d8ff37000100fb003b
:10228000a38e2000eacf5000c5ff3c004300dd00d4
:10229000030040005001be004000be004f05780022
:1022a0004f04be00000006004f03b000889fbe0030
:1022b0008a9fbe008c9fbe008e1f7800e0b79f00f3
:1022c000f1b79f0082bf9f000000eb00b0b79f00f6
:1022d000670437008001eb0050c2b30080cf50008c
:1022e000090032000100fb00efb097006d04070009
:1022f000e10f40005e043200bfb097008100e800ab
:10230000b1b79f005a0437007fb197009240780020
:10231000d0c2b30080cf50000c00320007003c0058
:102320006d40500080cf50000d0032006b404000e7
:1023300080cf500019003a000e00370000c3b300f0
:1023400080cf500015003a000f0037000330a00086
:102350007fb297000402e800f4b79f00eaff37005d
:102360000300a000ffb297008502e800f5b79f00c8
:10237000e5ff37000310a0007fb697000c06e800c9
:10238000fcb79f00e0ff37000320a0007fb097005c
:102390000000e800f0b79f00dbff37000318a30040
:1023a000010032000300a1000338a3000100320045
:1023b0000320a1000100fb0002fd2f0002004000ed
:1023c000e90f500010003e008000eb00c1a79f0005
:1023d000020278004fa197006a10b900ffb297007f
:1023e0001501fb000001410004014100c2a79f004c
:1023f0005500fb00f5b79f0004004000e90f5000b6
:102400000d003e00f3ff37000006eb00cca79f0055
:10241000a0c2b30080cf500007003a000fb8970069
:10242000c000780080bf9f00c1a79f007fb19700c8
:102430000201e800f2b79f00e0c2b3007fb297004c
:10244000944f100021003a00830678000de0a000b0
:102450008400e80064405000914f100004003200f6
:10246000f1b79f008002eb00c5b79f001000370056
:102470000fbe97004c0078008cbf9f00c0b79f0034
:10248000ffb097008180e800f1b79f00130037008c
:102490004fb297006a20b9000000410003004000dd
:1024a000c0b79f00ffb297008502e800f5b79f0014
:1024b0007fb697001c01fb0003fd2f0003004100c5
:1024c000e90f5000f2ff3600040037008306780061
:1024d0000dc0a0000000eb00c0b79f007fb19700c7
:1024e000b2407800f2b79f0081c79f00c0c6b3001a
:1024f00080cf50001400320009003c0069405000b9
:1025000080cf5000650032006340400080cf500013
:10251000130032000104e000db0332007e003700cc
:1025200050c7b30080cf50007f00320063404000ae
:1025300080cf50000d0032006540500080cf500029
:1025400075003a000c003700000028000d48a30079
:1025500001003a000001200080867600dfff37008e
:102560000d0778000ea0a000710037000d0778005d
:102570000e70a0006e0037008fb9970043007800fe
:1025800083bf9f00000478000000e00001003a00d3
:1025900008a620008004eb00010037008104e80059
:1025a00089007800088044001004e000fbff3a0036
:1025b0004fb297000400e00003003200890f520080
:1025c00001003100840478000007eb00cfa29700df
:1025d000898f520001003600098752004368de00ef
:1025e000e106600019003a000d0678000900370086
:1025f000efb0970000022000aa030700e10f40009f
:10260000030032003fb097000000e800b0b79f0021
:102610000c06e8008e0f5600f5ff3a000087eb002d
:102620000a003700880078003100fb0001047800c0
:10263000efb097009b030700e10f4000030032005a
:10264000bfb097008100e800b1b79f000900e90022
:1026500080047800e10f4000f2ff3a000006eb0032
:102660000d00e0000a003a0081033700efb0970048
:10267000000220008b030700e10f4000030032003e
:102680003fb197000201e800b2b79f000c06e800d6
:102690008e0f5600f5ff3a00750337008fb997008b
:1026a0004300780083bf9f00cf80de0001017800e7
:1026b000820178000205be000004be000203be00d5
:1026c0000002be004822de00482edd000402760033
:1026d00084c79f000d48a3000a0032000404e000f4
:1026e00008003200e14f42000600320011fc2f00ca
:1026f0000180470004487800184098002900200015
:102700000200370090c79f001900200012fc2f0024
:1027100002844700a6ff370003fc2f000384470014
:1027200019002000a2ff37000d0778000e0cb3003f
:102730000070200000026700270232000ec8a300cc
:102740000200320064002000c4b79f000e48a300be
:10275000050032000fba97004401be004400be00dd
:1027600084bf9f00040037008fba97004500be0069
:1027700085bf9f0000fa0700f0af9f0081b79f0060
:1027800092b79f00a3b79f006022b8006033b800e3
:102790007fa897008fb097001fb19700afb1970047
:1027a00014fa07000000e0000a003d007fa897002f
:1027b0008fb097001fb19700afb1970003f0a20050
:1027c000f0af9f0081b79f0092b79f00a3b79f0013
:1027d0003e00b3000000eb00a0a79f006022b800fd
:1027e0006033b8007fa897008fb097001fb19700a3
:1027f000afb1970004fa07000000e0003400320097
:102800007fa897008fb097001fb19700afb19700d6
:1028100002fa070043fc2f00038147002afa070051
:102820002fa097000000e9006300b900a20020007b
:10283000110009000200d8008000fd00a1a79f0040
:102840000100e00002003d000100e900a0a79f0098
:102850002fa497000840ea003cfe07007faa9700db
:102860008fb297001fb39700afb397004df90700e1
:10287000b0af9f00c1af9f00d2af9f00e3af9f00fa
:102880006022b8000600200007ff2300d9f90700e6
:102890000000e00002003d000800e9000b003700e6
:1028a0006022b80006002000470224003fa89700dd
:1028b000cfa897005fa99700efa9970005fa070036
:1028c0000000e000020035000800e800a0a79f001b
:1028d0004fb29700f80f520057003c00d0c6b3002b
:1028e000804f5200290036000485fb00420620007c
:1028f000110009000285d800000178000104780069
:102900004311dd00ab8320000b0141006022b800c1
:102910000600200007fe23000288900092889000a5
:10292000b2899000228990001ef90700a9002000ba
:10293000809fbe00110009000984d80000047800bf
:102940004f00be004344dd000b04440048229000c9
:10295000d822900068239000f823900011f9070016
:10296000801f780001027800110009000985d80055
:102970000102fd004f0078004322dd000b024200ff
:102980005403be004402be001f0037000480fb0059
:10299000a9832000ea4f520014003600a200200054
:1029a000110009000280d8000001780001047800bd
:1029b0004311dd00090141006022b800060020003b
:1029c00007fe230042209000d2209000f2219000c8
:1029d00062219000f3f807004344dd00090444003d
:1029e0003802be002803be00070037004300dd00a8
:1029f000090040006022b8000600200007fe230006
:102a00005001be004000be00e6f807000002be0014
:102a10000203be007fa897008fb097001fb19700f8
:102a2000afb19700b0f90700f0af9f0081b79f00ea
:102a300092b79f00a3b79f002fa49700e90f5400ff
:102a400015003c006022b8006033b8007fa89700f2
:102a50008fb097001fb19700afb197006af90700d8
:102a60000000e000320032007fa897008fb097008e
:102a70001fb19700afb1970018fa0700e00f5000a0
:102a8000e08f5800e00f5900e08f590028003a000d
:102a9000e10f5400260034000400200005002e0041
:102aa000b6e02200170124003fa89700cfa89700a6
:102ab0005fa99700efa997004ef907000000e0001a
:102ac00002003d0073005400010037007200540002
:102ad000a0a79f004fc097009cfd0700b0af9f00cc
:102ae000c1af9f00d2af9f00e3af9f000002be00c6
:102af0000203be007fa897008fb097001fb1970018
:102b0000afb1970026fa0700f4f907000205be00ee
:102b10000004be006000b8006011b800d0a79f009c
:102b2000e1a79f00f2a79f0083af9f002e00370010
:102b30007fa897008fb097001fb19700afb19700a3
:102b4000e6f907000205be000004be00e00f5000d9
:102b5000e08f5800e00f5900e08f59000200350067
:102b600069fa070013003700100020000100200060
:102b70006011b80008006000898060000a016100ef
:102b80008b8161008b03d1000a83d3008982d3003b
:102b90000882d3000000720081807200020173007d
:102ba0008381730058fa07000002be000203be00d2
:102bb0004df907000002be000203be007fa8970087
:102bc0008fb097001fb19700afb1970085fa07004b
:102bd000d0a79f00e1a79f00f2a79f0083af9f00af
:102be0000000eb00a0a79f0014c0b300a59920002f
:102bf0000b0037000400fb004300dd00050040002f
:102c00005001be004000be000040e10001c8e100ec
:102c100002d0e10003d8e100030039000442e800db
:102c2000f44f5200f3ff3a0084c79f000400fb00fa
:102c3000cfb0970000804000afa097000100400097
:102c40004fa1970080065100cfb197000300e0002c
:102c5000010032008d06e9006300670001003200c8
:102c60008d06e9000e28a30026003200e10067006f
:102c70000e18a3000c003200d00220000100e0007a
:102c800001003a000080e900efb09700050207005c
:102c9000e10f4000180032003fb297000402e80044
:102ca000b4b79f00140037000100e00012003200aa
:102cb000efb0970000022000fa010700e10f40008a
:102cc0000d003200bfb297008502e800b5b79f0043
:102cd00009003700efb0970000032000f101070062
:102ce000e10f4000030032003fb697000c06e800f9
:102cf000bcb79f008d06e9000d00e000f5ff3c0029
:102d00003d0037000e38a3000a0032000b003700e8
:102d1000efb0970000022000e2010700e10f400041
:102d2000030032003fb097000000e800b0b79f00fa
:102d30008d06e9000d00e000f5ff3c00e1006700b2
:102d40000e18a3000c003200d00220000100e000a9
:102d500001003a000080e900efb09700d1010700c0
:102d6000e10f400024003200bfb097008100e8006e
:102d7000b1b79f00200037000100e0001e003200c4
:102d8000efb0970000022000c6010700e10f4000ed
:102d9000190032003fb197000201e800b2b79f006e
:102da000150037000000fb004300dd00a199200062
:102db000010040003002be002003be000800be003b
:102dc0000a01be0083fa0700a400200005002000cd
:102dd0006033b80086fa07000003b000efb0970038
:102de000b0010700e10f400003003200bfb19700bf
:102df0008301e800b3b79f000fc297000440e900c9
:102e000080c79f00e14f4000e6ff3a000b0037000b
:102e1000efb0970000032000a2010700e10f40007f
:102e200003003200bfb297008502e800b5b79f00eb
:102e30002fa097000000e900a0a79f002fa09700f7
:102e40000000e000f2ff3c004fb6970020c1b30045
:102e5000f20f560001003c000fe8970080c79f006a
:102e60008fc097000100fb004fb197000000510098
:102e700090af9f000104e00008003200efb097001f
:102e8000e002200087010700e10f4000030032004c
:102e9000bfb197008301e800b3b79f000fc0970050
:102ea000aafc07000002be000203be005fa097005c
:102eb000efa097007fa197008fa99700b9f70700af
:102ec00006f907001e0037000000fb004300dd008c
:102ed000ac9920000c0040003002be002003be0070
:102ee0000800be000a01be003afa0700a400200054
:102ef000050020006033b8003dfa07000003b00071
:102f0000efb0970067010700e10f400003003200b7
:102f10003fb297000402e800b4b79f008fc2970049
:102f20000500fb004300dd000c0040003002be0045
:102f30002003be000800be000a01be002cfa0700f4
:102f40000205be000004be000fc697000c40e90059
:102f500080c79f00e14f4000dbff3a000006eb0016
:102f600009003700efb09700000320004d01070073
:102f7000e10f4000030032003fb097000000e8007e
:102f8000b0b79f000c06e8009fa89700810f56007d
:102f9000f4ff3a000e38a300350132000d00e000c6
:102fa000330134000006eb00efb097000002200070
:102fb0003c010700e10f4000030032003fb19700e1
:102fc0000201e800b2b79f000c06e8008d0f560022
:102fd00027013200f4ff37000e00e00005003d003d
:102fe0008fb997004305be004304be0083bf9f0016
:102ff000110037000e48a300080032008fba970076
:103000004500be0085bf9f00040178008401780060
:103010000205be000004be00070037000fbe970087
:103020004c0078008cbf9f0000047800090020004d
:103030000a0020000b0020004fb097000000e000c5
:1030400007003a00e00f5400e08f5c00e00f5d00e5
:10305000e08f5d0002003a0011002000c1b79f0020
:103060000e017800020cb200d2b79f0000082000c9
:10307000800f510014003200000c2000800f51001e
:1030800025003a0014c0b300a59920000b003700ba
:103090000400fb004300dd00050040005001be00bd
:1030a0004000be000040e10001c8e10002d0e100a4
:1030b00003d8e100170039000442e800f44f520041
:1030c000f3ff3a0013003700000120000100200048
:1030d0006011b80014c0b3000040e10001c8e10075
:1030e00002d0e10003d8e1000a00390045002000c9
:1030f0000000d0008180d2000281d2008381d20002
:103100008502e900faff3a000442e800f04f52005d
:10311000f1ff3a0084c79f000fc697000c00fb0028
:10312000cfb09700810f500002003d0081c79f0083
:10313000040037004fb19700800f510001003d009f
:10314000c0b79f00cfa197000300e0000400320049
:1031500063006700020032008301e900c3a79f00fb
:103160000ee8a3000b0032004fa29700cfb29700e9
:10317000850f520003003c000006eb00cca79f0027
:10318000040037004fa09700cfb097000100500017
:10319000c0a79f000fc197000200fb008001eb0059
:1031a000b3a79f004fa29700800f52000200340087
:1031b00000005200b0a79f000e28a3003400320088
:1031c000e10067000e18a3000c003200d0022000be
:1031d0000100e00001003a000080e900efb0970034
:1031e000b0000700e10f40000e003200bfb29700b0
:1031f0008502e800b5b79f000a0037000100e00033
:1032000008003200efb0970000022000a500070080
:10321000e10f4000030032003fb697000c06e800c3
:10322000bcb79f003fa097000000e0000f003200f5
:103230000006eb00efb097000003200099000700a4
:10324000e10f400003003200bfb097008100e800aa
:10325000b1b79f000c06e8003fa19700820f56000f
:10326000f4ff3a008001eb00b3a79f004fb2970034
:103270004320dd0021992000810640004220dd002e
:10328000640650008002eb00a5af9f00620037008b
:103290003fa697000c00e0001100320068006700b4
:1032a0000f003a0000067800efb0970000022000ff
:1032b0007c000700e10f4000030032003fb09700a0
:1032c0000000e800b0b79f000c06e800bfa0970020
:1032d000810f5600f4ff3a000001eb00b2a79f00f7
:1032e000e10067000e18a3000c003200d00220009d
:1032f0000100e00001003a000080e900efb0970013
:1033000068000700e10f4000d8ff3200bfb197000e
:103310008301e800b3b79f00d4ff37000100e0004d
:10332000d2ff3200efb09700000220005d000700de
:10333000e10f4000cdff32003fb297000402e800e9
:10334000b4b79f00c9ff370000082000dfb2970024
:10335000808f520010003200000c2000808f52003d
:103360001f003a003d02be002d03be000800be0053
:103370000a01be0017f90700a40020000500200084
:103380006033b8001af9070004c3b30004424000d8
:1033900084c79f00120037001400200005002000a1
:1033a0006033b8000c0078000000e900050033002d
:1033b0000402d0008582d2000683d2008783d20027
:1033c000f9ff37000800be000a01be0001f907003e
:1033d0006f00600074a620006442780084c79f00dc
:1033e0008fc097000100fb00efb097002d00070091
:1033f000e10f4000030032003fb197000201e800f6
:10340000b2b79f00afa997008301e800a3af9f0068
:10341000e8865600640656002faa9700cfb29700a0
:10342000850f5200c8ff3a000e38a300100032008a
:103430003fa697000c00e0000d0034000006eb00f2
:10344000efb097000002200016000700e10f4000d7
:10345000030032003fb097000000e800b0b79f00c3
:103460000c06e800bfa09700810f5600f4ff3a0059
:103470007fb19700b2407800f2b79f0081c79f00ec
:103480000104e00093fb3a003fb097004f0778003b
:103490004f06be004f05be004f04be004f03b100f3
:1034a00000000600889fbe0000017800010478003b
:1034b000b10090000118a3003d0032000198a30064
:1034c00003003a00180090000000e00038003a00c5
:1034d0000190a0003104980082047800f90fb20036
:1034e000180090000000e00002003a002800900060
:1034f000000c7800ea8f540006003a003800900073
:103500000078a30003003a0088007800d000200073
:10351000e4ff07009800900058009000808f500052
:103520000b0032000100e800100498001800780039
:1035300009587800000c780011c0b300c0a7200023
:1035400001487800ea8f5400060032001900370065
:10355000880078000940780019000700800478008e
:1035600014003700380090000088a30011003200da
:1035700018019000a80090004800900000f4070097
:1035800098009000810f5000040032003800900035
:103590000003b300300498008084eb000000eb00cf
:1035a0001004980028009000000c780001003700fb
:1035b0008084eb00090078004f04be000000060084
:1035c0000200fa00889fbe00a0ff9f00010478005f
:1035d000b1009000810478000904b20002003200ba
:1035e0000000fb00360037000118a30005003a0078
:1035f0000103b30031049800190498000080eb0027
:103600002f003700580090000000e00006003a004c
:103610004800900012002000e6805700d8f3070011
:103620001904980024003700280090000000e000f2
:1036300008003a0080a7200020049800000c7800c1
:103640002000200050049800100498000130a000d1
:103650003104980018019000a800900048009000e4
:10366000c7f3070028009000000c78000080eb00f2
:103670001004980018007800aff8970001587800ff
:10368000000c78002ff89700ea4f50000a003a002b
:10369000380090000088a300070032001801900055
:1036a000a800900048009000b5f3070019049800a6
:1036b000a8009000010c7800aff897000100fb0013
:0c36c0004f04be000080fa00000006006d
:020000040000fa
:10000800ac020000ac020000ac020000ac02000030
:10001800ac020000ac020000ac020000ac02000020
:10002800ac020000ac020000ac020000ac02000010
:10003800ac020000ac020000ac020000ac02000000
:020000040000fa
:020000040000fa
:0836cc0025660000000000006b
:020000040000fa
:1036d4000000fa0000202100a107200060f3070089
:1036e40000202100a10720005df3070050c5b300ae
:1036f4001607070030118000e60f5000fdff3a0066
:1037040050c4b3001107070030118000e60f5000c9
:10371400fdff3a0090c5b3000c07070040c0b3009a
:103724000a07070010c0b300080707003011800023
:10373400e60f5000fdff3a0020c4b3000307070062
:103744000040eb00010707000040eb00ff06070004
:1037540030118000e60f5000fdff3a00f0c4b300c2
:10376400fa06070010c0b300f80607003011800005
:10377400e60f5000fdff3a000080fa00000006004a
:103784000000fa0060c4b300f006070030c0b300c4
:10379400ee06070030118000e60f5000fdff3a00ee
:1037a40000a82100610020002df3070040c5b300ec
:1037b400e606070020c4b300e406070010c0b30007
:1037c400e206070010c0b300e006070000c0eb00eb
:1037d400de06070000c0eb00dc06070030118000a5
:1037e400e60f5000fdff3a0000a821006100200010
:1037f4001bf3070040c5b300d406070090c6b3000e
:10380400d206070020c0b300d006070010c0b300e2
:10381400ce06070000c0eb00cc06070000c0eb009a
:10382400ca06070030118000e60f5000fdff3a0081
:1038340000a821006100200009f3070040c5b3007f
:10384400c2060700e0c6b300c006070030c0b300dc
:10385400be06070010c0b300bc06070000c0eb00a2
:10386400ba06070000c0eb00b8060700301180005c
:10387400e60f5000fdff3a0000a82100610020007f
:10388400f7f2070040c5b300b0060700f0c6b30066
:10389400ae06070040c0b300ac06070010c0b3007a
:1038a400aa06070000c0eb00a806070000c0eb0052
:1038b400a606070030118000e60f5000fdff3a0015
:1038c40000a8210061002000e5f2070040c5b30014
:1038d4009e06070030c6b3009c06070050c0b30024
:1038e4009a06070010c0b3009806070000c0eb005a
:1038f4009606070000c0eb00940607003011800014
:10390400e60f5000fdff3a0000a8210061002000ee
:10391400d3f2070040c5b3008c06070050c7b300bc
:103924008a06070060c0b3008806070010c0b30011
:103934008606070000c0eb008406070000c0eb0009
:103944008206070030118000e60f5000fdff3a00a8
:1039540000a8210061002000c1f2070040c5b300a7
:103964007a060700c0c6b3007806070070c0b3002b
:103974007606070010c0b3007406070000c0eb0011
:103984007206070000c0eb007006070030118000cb
:10399400e60f5000fdff3a0000a82100610020005e
:1039a400aff2070040c5b3006806070010c6b300b5
:1039b4006606070080c0b3006406070010c0b300a9
:1039c4006206070000c0eb006006070000c0eb00c1
:1039d4005e06070030118000e60f5000fdff3a003c
:1039e40000a82100610020009df2070040c5b3003b
:1039f4005606070020c7b3005406070090c0b30062
:103a04005206070010c0b3005006070000c0eb00c8
:103a14004e06070000c0eb004c0607003011800082
:103a2400e60f5000fdff3a0000a8210061002000cd
:103a34008bf2070040c5b3004406070080c4b300fe
:103a44004206070020c0b3004006070030c0b300a0
:103a54003e06070000c0eb003c06070000c0eb0078
:103a64003a06070030118000e60f5000fdff3a00cf
:103a740000a821006100200079f2070040c5b300ce
:103a84003206070050c6b3003006070030c0b3004a
:103a94002e06070030c0b3002c06070000c0eb0060
:103aa4002a06070000c0eb0028060700301180003a
:103ab400e60f5000fdff3a0000a82100610020003d
:103ac40067f2070040c5b3002006070010c6b30024
:103ad4001e06070040c0b3001c06070030c0b30038
:103ae4001a06070000c0eb001806070000c0eb0030
:103af4001606070030118000e60f5000fdff3a0063
:103b040000a821006100200055f2070040c5b30061
:103b14000e06070040c6b3000c06070050c0b300f1
:103b24000a06070030c0b3000806070000c0eb0017
:103b34000606070000c0eb000406070030118000f1
:103b4400e60f5000fdff3a0000a8210061002000ac
:103b540043f2070040c5b300fc05070000c2b300f0
:103b6400fa05070060c0b300f805070030c0b300d1
:103b7400f605070000c0eb00f405070000c0eb00e9
:103b8400f205070030118000e60f5000fdff3a00f7
:103b940000a821006100200031f2070040c5b300f5
:103ba400ea050700a0c3b300e805070070c0b3002e
:103bb400e605070030c0b300e405070000c0eb00d1
:103bc400e205070000c0eb00e005070030118000ab
:103bd400e60f5000fdff3a0000a82100610020001c
:103be4001ff2070040c5b300d805070000c5b300a5
:103bf400d605070020c0b300d405070040c0b300b9
:103c0400d205070000c0eb00d005070000c0eb00a0
:103c1400ce05070030118000e60f5000fdff3a008a
:103c240000a82100610020000df2070040c5b30088
:103c3400c605070090c6b300c405070030c0b30032
:103c4400c205070040c0b300c005070000c0eb0078
:103c5400be05070000c0eb00bc0507003011800062
:103c6400e60f5000fdff3a0000a82100610020008b
:103c7400fbf1070040c5b300b405070040c7b3001b
:103c8400b205070040c0b300b005070040c0b30050
:103c9400ae05070000c0eb00ac05070000c0eb0058
:103ca400aa05070030118000e60f5000fdff3a001e
:103cb40000a8210061002000e9f1070040c5b3001d
:103cc400a205070030c6b300a005070050c0b3002a
:103cd4009e05070040c0b3009c05070000c0eb0030
:103ce4009a05070000c0eb0098050700301180001a
:103cf400e60f5000fdff3a0000a8210061002000fb
:103d0400d7f1070040c5b3009005070080c6b30093
:103d14008e05070060c0b3008c05070040c0b300e7
:103d24008a05070000c0eb008805070000c0eb000f
:103d34008605070030118000e60f5000fdff3a00b1
:103d440000a8210061002000c5f1070040c5b300b0
:103d54007e050700a0c3b3007c05070070c0b30054
:103d64007a05070040c0b3007805070000c0eb00e7
:103d74007605070000c0eb007405070030118000d1
:103d8400e60f5000fdff3a0000a82100610020006a
:103d9400b3f1070040c5b3006c05070020c5b300ac
:103da4006a05070020c0b3006805070050c0b300cf
:103db4006605070000c0eb006405070000c0eb00c7
:103dc4006205070030118000e60f5000fdff3a0045
:103dd40000a8210061002000a1f1070040c5b30044
:103de4005a05070010c6b3005805070030c0b300d9
:103df4005605070050c0b3005405070000c0eb008f
:103e04005205070000c0eb00500507003011800088
:103e1400e60f5000fdff3a0000a8210061002000d9
:103e24008ff1070040c5b30048050700e0c6b300a2
:103e34004605070040c0b3004405070050c0b30066
:103e44004205070000c0eb004005070000c0eb007e
:103e54003e05070030118000e60f5000fdff3a00d8
:103e640000a82100610020007df1070040c5b300d7
:103e74003605070070c6b3003405070050c0b30010
:103e84003205070050c0b3003005070000c0eb0046
:103e94002e05070000c0eb002c0507003011800040
:103ea400e60f5000fdff3a0000a821006100200049
:103eb4006bf1070040c5b3002405070050c6b300ea
:103ec4002205070060c0b3002005070050c0b300fe
:103ed4001e05070000c0eb001c05070000c0eb0036
:103ee4001a05070030118000e60f5000fdff3a006c
:103ef40000a821006100200059f1070040c5b3006b
:103f040012050700a0c3b3001005070070c0b3007a
:103f14000e05070050c0b3000c05070000c0eb00fd
:103f24000a05070000c0eb000805070030118000f7
:103f3400e60f5000fdff3a0000a8210061002000b8
:103f440047f1070040c5b30000050700c0c4b30033
:103f5400fe04070010c0b300fc04070070c0b300e7
:103f6400fa04070000c0eb00f804070000c0eb00ef
:103f7400f604070030118000e60f5000fdff3a0000
:103f840000a821006100200035f1070040c5b300fe
:103f9400ee04070010c6b300ec04070020c0b30011
:103fa400ea04070070c0b300e804070000c0eb0097
:103fb400e604070000c0eb00e404070030118000b1
:103fc400e60f5000fdff3a0000a821006100200028
:103fd40023f1070040c5b300dc04070050c7b30059
:103fe400da04070030c0b300d804070070c0b3007f
:103ff400d604070000c0eb00d404070000c0eb00a7
:10400400d204070030118000e60f5000fdff3a0093
:1040140000a821006100200011f1070040c5b30091
:10402400ca040700e0c6b300c804070040c0b300d8
:10403400c604070070c0b300c404070000c0eb004e
:10404400c204070000c0eb00c00407003011800068
:10405400e60f5000fdff3a0000a821006100200097
:10406400fff0070040c5b300b804070030c6b30032
:10407400b604070050c0b300b404070070c0b30016
:10408400b204070000c0eb00b004070000c0eb005e
:10409400ae04070030118000e60f5000fdff3a0027
:1040a40000a8210061002000edf0070040c5b30026
:1040b400a604070080c6b300a404070060c0b300d0
:1040c400a204070070c0b300a004070000c0eb0006
:1040d4009e04070000c0eb009c0407003011800020
:1040e400e60f5000fdff3a0000a821006100200007
:1040f400dbf0070040c5b3009404070000c2b3001e
:104104009204070070c0b3009004070070c0b300ad
:104114008e04070000c0eb008c04070000c0eb0015
:104124008a04070030118000e60f5000fdff3a00ba
:1041340000a8210061002000c9f0070040c5b300b9
:104144008204070000c5b3008004070080c0b300e8
:104154007e04070070c0b3007c04070000c0eb00bd
:104164007a04070000c0eb007804070030118000d7
:10417400e60f5000fdff3a0000a821006100200076
:10418400b7f0070040c5b3007004070010c6b300c1
:104194006e04070090c0b3006c04070070c0b30045
:1041a4006a04070000c0eb006804070000c0eb00cd
:1041b4006604070030118000e60f5000fdff3a004e
:1041c40000a8210061002000a5f0070040c5b3004d
:1041d4005e04070040c6b3005c040700a0c0b3003f
:1041e4005a04070070c0b3005804070000c0eb0075
:1041f4005604070000c0eb0054040700301180008f
:10420400e60f5000fdff3a0000a8210061002000e5
:1042140093f0070040c5b3004c04070080c4b3000a
:104224004a04070020c0b3004804070090c0b3004c
:104234004604070000c0eb004404070000c0eb0084
:104244004204070030118000e60f5000fdff3a00e1
:1042540000a821006100200081f0070040c5b300e0
:104264003a04070050c6b3003804070030c0b30056
:104274003604070090c0b3003404070000c0eb000c
:104284003204070000c0eb00300407003011800046
:10429400e60f5000fdff3a0000a821006100200055
:1042a4006ff0070040c5b3002804070010c6b30030
:1042b4002604070040c0b3002404070090c0b300e4
:1042c4002204070000c0eb002004070000c0eb003c
:1042d4001e04070030118000e60f5000fdff3a0075
:1042e40000a82100610020005df0070040c5b30074
:1042f4001604070040c6b3001404070050c0b300fe
:104304001204070090c0b3001004070000c0eb00c3
:104314000e04070000c0eb000c04070030118000fd
:10432400e60f5000fdff3a0000a8210061002000c4
:104334004bf0070040c5b3000404070000c2b300fb
:104344000204070060c0b3000004070090c0b3007b
:10435400fe03070000c0eb00fc03070000c0eb00f5
:10436400fa03070030118000e60f5000fdff3a0009
:1043740000a821006100200039f0070040c5b30007
:10438400f2030700a0c3b300f003070070c0b3003a
:10439400ee03070090c0b300ec03070000c0eb007d
:1043a400ea03070000c0eb00e803070030118000b7
:1043b400e60f5000fdff3a0000a821006100200034
:1043c40027f0070040c5b300e003070000c5b300b1
:1043d400de03070020c0b300dc030700a0c0b30065
:1043e400da03070000c0eb00d803070000c0eb00ad
:1043f400d603070030118000e60f5000fdff3a009d
:1044040000a821006100200015f0070040c5b3009a
:10441400ce03070090c6b300cc03070030c0b3003e
:10442400ca030700a0c0b300c803070000c0eb0024
:10443400c603070000c0eb00c4030700301180006e
:10444400e60f5000fdff3a0000a8210061002000a3
:1044540003f0070040c5b300bc03070040c7b30026
:10446400ba03070040c0b300b8030700a0c0b300fc
:10447400b603070000c0eb00b403070000c0eb0064
:10448400b203070030118000e60f5000fdff3a0030
:1044940000a8210061002000f1ef070040c5b3002f
:1044a400aa03070030c6b300a803070050c0b30036
:1044b400a6030700a0c0b300a403070000c0eb00dc
:1044c400a203070000c0eb00a00307003011800026
:1044d400e60f5000fdff3a0000a821006100200013
:1044e400dfef070040c5b3009803070080c6b300a0
:1044f4009603070060c0b30094030700a0c0b30094
:104504009203070000c0eb009003070000c0eb001b
:104514008e03070030118000e60f5000fdff3a00c3
:1045240000a8210061002000cdef070040c5b300c2
:1045340086030700a0c3b3008403070070c0b30060
:1045440082030700a0c0b3008003070000c0eb0093
:104554007e03070000c0eb007c03070030118000dd
:10456400e60f5000fdff3a0000a821006100200082
:10457400bbef07000080fa00000006001e00fa00ee
:104584000000eb00100798000000eb00000f78001b
:10459400604180007141800064014700809fbe003b
:1045a40060b62900801f780002007800dbf5070060
:1045b400e6875700100798002041800031418000b1
:1045c40069014700809fbe0060b62900801f780003
:1045d40002007800d1f50700e6875700100798001d
:1045e40040418000514180006e014700809fbe0021
:1045f40060b62900801f780002007800c7f5070024
:10460400e687570010079800c0408000d140800022
:1046140073014700809fbe0060b62900801f7800a8
:1046240002007800bdf50700e687570010079800e0
:10463400e0408000f140800078014700809fbe0088
:1046440060b62900801f780002007800b3f50700e7
:10465400e6875700100798000000eb00000f780071
:104664006d00370040c5b300380307009e00780092
:104674006900470061407800340307001e00780099
:10468400694040003103070030c0b3002f03070026
:1046940000c0eb002d03070000c0eb002b03070054
:1046a40030118000e60f5000fdff3a0000a8210001
:1046b400610020006aef070040c5b3002303070030
:1046c4009e0078006e004700008040001040780093
:1046d4001e0307001e007800694040001b0307000a
:1046e40040c0b3001903070000c0eb001703070024
:1046f40000c0eb001503070030118000e60f5000e6
:10470400fdff3a0000a821006100200054ef0700db
:1047140040c5b3000d0307009e0078006400470005
:104724000080400010407800080307001e00780055
:10473400694040000503070050c0b30003030700ad
:1047440000c0eb000103070000c0eb00ff020700fc
:1047540030118000e60f5000fdff3a0000a8210050
:10476400610020003eef070040c5b300f7020700d8
:104774009e0078007300470061407800f302070050
:104784001e00780069404000f002070090c0b300aa
:10479400ee02070000c0eb00ec02070000c0eb00d3
:1047a400ea02070030118000e60f5000fdff3a00d6
:1047b40000a821006100200029ef070040c5b300d4
:1047c400e20207009e007800780047000080400065
:1047d40010407800dd0207001e00780069404000a8
:1047e400da020700a0c0b300d802070000c0eb0043
:1047f400d602070000c0eb00d4020700301180008d
:10480400e60f5000fdff3a0000a8210061002000df
:1048140013ef07001e0fe800400020009e0f100059
:1048240090ff36000080fa00000006000200fa0043
:1048340000c3b30010479800b00507002800070024
:1048440012030700400407005c0307003d03070050
:1048540000003700f6bf2e00f7d22200040020002b
:1048640005022400f2bf2e00f3d222000000200033
:10487400011224008b00070038c8bf00b3020700f0
:1048840010c3b3001047980030c8bf00e14f500078
:1048940004003a00d0cc2c00c1d4230056000700f9
:1048a400ecff370031c8bf00e14f500004003a006c
:1048b400d0cc2c00c1dc23004f000700e5ff3700fb
:1048c400a099290091d923004b0007000071220010
:1048d400e3ee07006000b80047000700ddff370083
:1048e4000000fa000080eb0060198800d0a2a90043
:1048f400c8a2a900c8e2a800c902a900d042a90020
:10490400c882a800d082a800d062a900d0c2a800a2
:10491400d0e2a800c842a900c862a900d002a90038
:10492400d022a900c922a900c942a900d022a90005
:10493400c9a2a900d102a900d122a900d0c2a9000c
:10494400d0e2a9000080fa00000006000800fa0086
:10495400881f7800008fbe00d0c2a900d0e2a90051
:104964000000eb00000e8800c0c5bf00c040b300cb
:10497400c0e5b700e0032300202e8800c905a80085
:10498400c805a900c885a800202e800000004000aa
:10499400000478006140b90045ef07002007980043
:1049a400310798000800e00007003d0002002000e5
:1049b400037824002e009000be00900068ef0700ea
:1049c40020079800310798001e01be002e009000b9
:1049d400be00900012f0070045f00700b02e8800da
:1049e4000000eb00102e8800c1e5a8004f047800f9
:1049f4000080fa00000006000800fa00881f780012
:104a0400008fbe00d0c2a900d0e2a9000000eb00d4
:104a1400000e8800c0c5bf00c040b300c0e5b700a9
:104a2400e0032300202e8800c905a800c805a800bb
:104a3400c885a900202e80000000400000047800f2
:104a44006140b9001aef0700200798003107980069
:104a54000800e00007003d00020020000378240065
:104a64002e009000be0090003def07002007980044
:104a7400310798001e01be002e009000be00900079
:104a8400e7ef07001af00700b02e88000000eb00e3
:104a9400102e8800c1e5a8004f0478000080fa00b9
:104aa400000006001800fa00008fbe0022079800dc
:104ab4003307980044079800550798006607980044
:104ac4007707980023040700eb02070020418000c9
:104ad40031418000c2408000d34080001fef0700b6
:104ae40002002000031224001def0700404088004c
:104af4005140880040408000514080002e019000c9
:104b0400be019000c6ef0700024080001340800001
:104b140013ef0700004088001140880040418000e6
:104b240051418000e2408000f34080000bef070019
:104b3400a0408800b1408800a0408000b1408000bf
:104b44006e019000fe019000b5ef07006240800006
:104b54007340800002ef07006040880071408800c5
:104b64004040800051408000fcef0700300f980067
:104b74003e0890000000e00003003d00be089000e5
:104b84008100ea00310f98003e0990006110b900dd
:104b9400c7ee070002002000433b24004def07004e
:104ba40002002000e32f24009def07001e01be0039
:104bb4009bef07000240800013408000e8ee0700ee
:104bc400204088003140880020408000314080002f
:104bd400e2ef0700200f98002e0890000000e0008c
:104be40003003d00ae0890008100ea00210f980008
:104bf400f00720002e099000800f510004003400bb
:104c040000002000e12f240020408800314088006b
:104c1400a0408000b1408000d0ef0700100f980042
:104c24001e0890000000e00003003d009e08900074
:104c34008100ea00110f98001e0990006110b9006c
:104c44009bee070002002000432b240021ef070005
:104c540002002000c32d240071ef07004e019000d4
:104c6400de0190006eef0700624080007340800018
:104c7400bbee07008040880091408800804080009f
:104c840091408000b5ef0700000f98000e089000d7
:104c94000000e00003003d008e0890008100ea005f
:104ca400010f9800a00520000e099000800f51000c
:104cb4000400340000002000412b240080408800c0
:104cc400914088004040800051408000a3ef0700dd
:104cd4000000e000080035004040800051408000a2
:104ce4009eef07000000e00003003c006000b800f5
:104cf40020408800314088004040800051408000be
:104d04000200200003f82300b5ef07000000e000d4
:104d140001003c00290037004040800051408000e1
:104d240002002000433324003bef07000000e000b2
:104d3400010035000d003700204080003140800024
:104d440086ef07008040780000c8b30061030700c5
:104d5400204080003140800080ef070080407800d0
:104d640000c8b3006b030700140037004040800004
:104d740051408000020020004333240098ef0700d4
:104d84000000e00001003c000c00370020408000df
:104d94003140800071ef07008040780000c8b30004
:104da4002d03070020408000314080006bef070096
:104db4008040780000c8b3003603070040408000fc
:104dc400514080000200200003f82b0012ef07007e
:104dd4000000e00001003500290037004040800059
:104de400514080000200200043332c007cef070078
:104df4000000e00001003c000d003700204080006e
:104e04003140800055ef07008040780000c8b300af
:104e14001103070020408000314080004fef07005d
:104e24008040780000c8b3001a030700140037005c
:104e340040408000514080000200200043332c0099
:104e4400f5ee07000000e000010035000c0037001b
:104e5400204080003140800040ef0700804078000f
:104e640000c8b3001b0307002040800031408000cd
:104e74003aef07008040780000c8b300250307001c
:104e8400a0408000b140800034ef07000000e00043
:104e940008003500a0408000b14080002fef0700db
:104ea4000000e00003003c006000b800804088007f
:104eb40091408800a0408000b140800027ef0700a7
:104ec400e20f400012003500a0408000b140800095
:104ed40022ef0700e20f50000d003c00404080002c
:104ee400514080001def0700e20f4000080035002c
:104ef400404080005140800018ef0700e20f50004e
:104f040003003c0010c6b30038e8b70002003700c5
:104f140020c6b30038e8b700a0408000b14080004c
:104f24000200200003f823002def07000000e0003a
:104f340001003c000c00370080408000914080005c
:104f440006ef07008040780010c8b300c2020700d3
:104f5400804080009140800000ef0700804078008e
:104f640010c8b300cb020700a0408000b14080000d
:104f74000200200003f82b00a7ee07000000e00069
:104f8400010035000c003700804080009140800013
:104f9400f2ee07008040780010c8b300cd0207008d
:104fa4008040800091408000ecee07008040780053
:104fb40010c8b300d70207000080fa000000060002
:020000040000fa
:104fc4003808000002000000000000000008000093
:104fd4003400000000000000340800000400000059
:104fe4000200000000000000000000009a09000018
:104ff400a00000000200000001000000000000000a
:1050040000000a000000000000000000006400002e
:105014000000000000000000e803000000000000a1
:1050240000001000270000000000000000a086001f
:10503400010000000000000040420f0000000000da
:105044000000800096980000000000000000e100cd
:10505400f50500000000000000ca9a003b000000b3
:1050640000000000e40b5400020000000000e8000f
:1050740076481700000000000010a500d4e80000e6
:1050840000000000a0724e0018090000000040005b
:105094007a10f3005a0000000080c600a47e8d0040
:1050a4000300000000c16f00f2862300000000002e
:1050b4008a5d78004563010000006400a7b3b60070
:1050c400e00d000000e889000423c7008a00000006
:1050d400600a00001800000002000000286e75003d
:1050e4006c6c29000030310032333400353637001f
:1050f4003839610062636400656600007e0a00005e
:1051040002000000000000003a08000060010000f6
:10511400020000000000000000000000f03f00005a
:105124000000a0009999b9003f0000000040e10090
:105134007a843f0000000000e04d6200503f000010
:105144000000e000e2361a003f0000000080b500d5
:10515400f8e43e0000000000a0f7c600b03e0000e6
:105164000000a000f2d77a003e00000000e08e00ac
:1051740079453e0000000000e00b2e00113e0000c7
:105184000000e000df7cdb003d0000000000a10027
:105194009cc73b0000000000004c4800b4390000ec
:1051a40000000000206ca100370000000000000097
:1051b40000000000000000000000000000000000eb
:1051c40000000000000000000000000000000000db
:1051d40000000000000000000000000000000000cb
:1051e40000000000000000000000000000000000bb
:1051f40000000000000000000000000000000000ab
:10520400000000000000f0003f000000000000006b
:10521400002440000000000000000000594000008d
:105224000000000000408f0040000000000000006b
:1052340088c340000000000000006a00f84000003d
:105244000000000080842e00410000000000d00017
:1052540012634100000000000084d7009741000061
:105264000000000065cdcd004100000000205f007b
:10527400a002420000000000801daf0015440000a1
:1052840000004000593e29004600000000000000d4
:1052940000f07f000000000000000000f07f00002c
:1052a400000000000000f0007f000000000000008b
:1052b40000f07f000000000000000000f07f00000c
:1052c400000000000000f0007f000000000000006b
:1052d40000f07f000000000000000000f07f0000ec
:1052e400000000000000f0007f0000003a0a000007
:1052f40026000000020000003c0a7a000a000000b8
:105304007a0a090000000000020078000a00000088
:10531400780a0600020100000000000000000000fe
:10532400000006000202000000000000780a0000ed
:105334000600000000000000800a000002000000d7
:0c5344000200000001000000000000005a
:020000040000fa
:105350000200fa00004f780023c2bf0061406000e5
:105360000004e000fcff32001e80fb0020118800da
:1053700023c2bf00614060000004e000fcff320077
:105380008560a9000080fa00000006000200fa0013
:10539000004f780033c2bf00614060000004e000ad
:1053a000fcff32001e80fb00a011880033c2bf004a
:1053b000614060000004e000fcff320087c0a900eb
:1053c0000080fa00000006000000fa0085c0bf005f
:1053d000684060000004e000fcff32008560a90026
:1053e000301180000080fb000080fa000000060001
:1053f0000000fa0087c0bf000044b2000004e000d3
:10540000fcff320087c0a900b01180000080fb00c3
:105410000080fa00000006000000fa00c8e2a800c0
:10542000c902a900816c20009140780000ceb30031
:1054300000c060003040b300c8e6b700416a2000f9
:105440009140780000ceb30000c060007040b3000f
:10545000a4e6b7000010200040118800910a200047
:1054600091407800f0c8b30000c06000a9e0b70028
:105470008560a9009560a90000002800001188003f
:1054800000442000101188000080fa00000006008f
:105490000000fa00c8a2a900516c200091407800d9
:1054a00000ceb30000c060005040b300c5e6b700b6
:1054b00000102000c0118800310b200091407800be
:1054c00080cfb30000c06000b3e0b70087c0a90080
:1054d00097c0a90000002800801188000044200027
:1054e000901188000080fa00000006000000fa0019
:1054f000d0a2a900516d20009140780000ceb300e9
:1055000000c060005040b300d5e6b7000010200096
:10551000c0118800310b20009140780080cfb3008b
:1055200000c06000b3e0b70087c0a90097c0a90021
:10553000000028008011880000442000901188009d
:105540000080fa00000006000000fa00d082a800e7
:10555000d062a900316d20009140780000ceb300e8
:1055600000c060003040b300d3e6b700416a2000bd
:105570009140780000ceb30000c060004041b3000d
:10558000a4e6b7000010200040118800910a200016
:1055900091407800f0c8b30000c06000a9e0b700f7
:1055a0008560a9009560a90000002800001188000e
:1055b00000442000101188000080fa00000006005e
:1055c0000000fa00d042a900c882a800616a200049
:1055d0009140780000ceb30000c060000024a0001d
:1055e000a6e6b70000102000c0118800310b200093
:1055f0009140780080cfb30000c06000b3e0b700f6
:1056000087c0a90097c0a900000028008011880069
:1056100000442000901188000080fa00000006007d
:105620000000fa00d0a2a900516a20009140780041
:1056300000ceb30000c060005041b300a5e6b70043
:105640000010200040118800910a2000914078004d
:10565000f0c8b30000c06000a9e0b7008560a900f1
:105660009560a90000002800001188000044200077
:10567000101188000080fa00000006002400fa00e3
:10568000881f78000000eb00400798000040eb0006
:10569000204f98006000b80020079800310798005c
:1056a0006000b800008fbe003222a90050ff070042
:1056b000204f98002e489000ed4f5000010032001e
:1056c000faff37000040eb00204f98000800370039
:1056d0004e04900046ff0700804078006b004700b2
:1056e000017478004e0090000000e8004007980028
:1056f0004e009000ee0f5000f5ff36000000eb006a
:10570000400798006b004700104890000080fb00a5
:105710004800dd00010020002007980031079800b4
:105720006b004700004890000081fb000300200050
:105730002e009000be0090000000410081804900d2
:105740002007980031079800ae009000803e2000ae
:105750000009b8002e0090006000b9000302780034
:1057600000024200be009000803e20000088b90088
:105770000002420084017800220798003307980055
:105780002e009000be009000f2ff2f0003002000ca
:10579000b8eb07002007980031079800ae00900092
:1057a000801620000009b8002e0090006000b900ab
:1057b0000302780000024200be0090008016200024
:1057c0000088b90000024200840178002207980096
:1057d000330798002e009000be009000e00f5000ac
:1057e000e08f5800060035002e009000be009000ab
:1057f000b0eb07000017980011179800170037004a
:105800002e009000be009000610160006000b800b2
:105810000300200002007000838070002e019000c1
:10582000be0190008301d1000281d300020070000c
:10583000838070009feb07000017980011179800f5
:105840000e1190009e1190000e1090009e1090007e
:10585000c4eb070000179800111798000200200001
:10586000a34724000e1090009e1090001aec070031
:10587000c0408800d14088006b0047007040900015
:105880000080fb004800dd00cf80de00008fbe00fe
:105890006b004700604090000080fb00010020008a
:1058a0001e0f40005e9748009e007800803e20005a
:1058b0000009b8001e0078006000b90003027800fb
:1058c000000242009e009000803e20000088b90047
:1058d0000002420084017800028fbe001e00be005c
:1058e000f2ff2f00030020003dec0700008fbe00f8
:1058f0009e007800801620000009b8001e00780085
:105900006000b90003027800000242009e0090008f
:10591000801620000088b90000024200840178004f
:10592000028fbe001e00be0062eb070002002000d6
:10593000a3472400e8eb0700e0408800f14088001e
:105940004f0478000080fa00000006000000fa0012
:1059500000482800e1012000c2ea070000482800b2
:10596000e1012000bfea070000482800e101200013
:10597000bcea070000482800e1012000b9ea07005e
:1059800000482800e1012000b6ea0700004828008e
:10599000e1012000b3ea070000482800e1012000ef
:1059a000b0ea070000482800e1012000adea070046
:1059b00000482800e1012000aaea0700004828006a
:1059c000e1012000a7ea070000482800e1012000cb
:1059d000a4ea0700a0cab3006cfe07000048280034
:1059e000e10120009fea070000482800e1012000b3
:1059f0009cea070000482800e101200099ea07001e
:105a000000482800e101200096ea0700004828002d
:105a1000e101200093ea070000482800e10120008e
:105a200090ea070000482800e10120008dea070005
:105a300000482800e10120008aea07000048280009
:105a4000e101200087ea070000482800e10120006a
:105a500084ea07000080fa00000006000200fa0055
:105a6000004f7800114798001e40780047fe07005d
:105a70000040eb0045fe07001e40900043fe07007b
:105a80001e4090001e4040000074a1003ffe070031
:105a90000080fa00000006000200fa00004f7800c3
:105aa000114798001e40780038fe070040c0b30040
:105ab00036fe07001e40900034fe07001e40900096
:105ac0001e404000644040000074a1002ffe07000b
:105ad0000080fa00000006000200fa00004f780083
:105ae000114798001e40780028fe070010c0b30040
:105af00026fe07001e40900024fe07001e40900076
:105b00001e4040000040e8000074a1001ffe070096
:105b10000080fa00000006000200fa00004f780042
:105b2000114798001e40780018fe070050c0b300cf
:105b300016fe07001e40900014fe07001e40900055
:105b40001e404000654040000074a1000ffe0700a9
:105b50000080fa00000006001200fa00881f78009a
:105b60000000eb00000f78002222a9000e00370091
:105b7000e0408000f1408000020020000317240074
:105b8000a6eb07000000e00001003500060037002a
:105b90008000eb0010082000b0ff07008000eb0041
:105ba00010082000bcff070007fe070080407800b7
:105bb00080c4b30080cf5000edff3a000000eb003e
:105bc000000f7800070037001e047800fefd070074
:105bd000804078000e80e800000044000148780012
:105be0001e0fe800500020009e0f1000f6ff360048
:105bf0009e0078000e80e800808040000040eb00ae
:105c000080487800f0fd07008040780000c5b300b0
:105c100080cf5000fbff3a000000eb00000f78003f
:105c2000060037001e047800e7fd0700804078007a
:105c300067004700017478001e0fe8005000200044
:105c40009e0f1000f7ff36001e017800e7004700a6
:105c50000040eb0000f17800dbfd07008040780099
:105c600020c5b30080cf5000fbff3a000000eb00de
:105c7000000f7800070037001e047800d2fd0700ef
:105c8000804078006c004700000044000148780024
:105c90001e0fe800500020009e0f1000f6ff360097
:105ca000c9fd07008040780020c4b30080cf5000b9
:105cb000fbff3a000000eb00000f78000700370000
:105cc0001e047800c0fd070080407800008320009b
:105cd00000004400014878001e0fe800300020005a
:105ce0009e0f1000f6ff36009e0078000083200013
:105cf000808040000040eb00804878000e80e80083
:105d000010f10700204188003141880067004700fa
:105d10000cf1070040418800514188006c004700a9
:105d200008f1070060418800714188000000eb0025
:105d3000000f78004f0478000080fa000000060091
:105d40000000fa0070c5b30081fd070038c8bf002d
:0c5d50007ffd07000080fa000000060044
:020000040000fa
:105d5c000000fa00d0c2a900d0e2a9000000eb00bc
:105d6c00000e8800015c20009140780030cfb30019
:105d7c0000c060000034a000c0e5b700c05c21008a
:105d8c00202e8800c905a800c805a900c885a80050
:105d9c000000eb00102e88000080fa0000000600c6
:105dac000000fa000080eb00601988000000eb0096
:105dbc00600888000000eb003008880060002000bc
:105dcc00200c88000000eb00000e88000000eb00a7
:105ddc00002e8800c0c1bf00c040b300c0e1b700b6
:105dec0010272000200e880010272000202e88006d
:105dfc00c905a800c885a800d525a800d425a800e9
:105e0c00c905a900c805a900d505a900d405a90094
:105e1c000000eb00100e88000000eb00102e880034
:105e2c000080fa00000006000000fa0000eb2f00d2
:105e3c00600888000000eb00300888000000eb00d0
:105e4c00002e880080c02400202e8800c905a800e0
