:04000000BEEF3FF020
:107F7C000001C1EF3FF0000E0A6E000E096E000EFC
:107F8C00086EC1689268000E956E80A2FED7030E33
:107F9C00026EE80E016EDFEC3FF080B480A2F5D7E4
:107FAC00084A092A070E026ED00E016EDFEC3FF074
:107FBC00ECD7000E056E000E046E11D0000E076E8D
:107FCC00000E066E0750800A790FD00ED8B4065CEE
:107FDC00D8B003D0064A072AF5D7044A052A05501B
:107FEC00800A036E0150045C0250800A0358D8B01A
:047FFC001200E4D7B4
:020000040030CA
:020002001F1EBF
:00000001FF
