:020000040000fa
:080000000002040000000000f2
:020000040000fa
:100400006f842000007f24000001880000000000ad
:100410000a00070011000700000020000000e000b3
:10042000020032000000020000000000040c020084
:10043000000000000040da000000fe004440a90077
:10044000000020000000e000030032000000200057
:10045000a00188004440a80000000600a0c22000bf
:10046000010020001500370062004000e0804800d5
:10047000910188009001ba0062004000e0804800cd
:10048000910188009002ba0062004000e0804800bc
:100490000002eb006028e10004003a000059eb0084
:1004a0008301e900fdff3e00040037006128e10000
:1004b000010032000082eb00050007009101880076
:1004c0001001ba000200e000e7ff3a00000005005a
:1004d000910188008002780062004000e0804800be
:1004e0003559ba008301e900080032002559ba00e5
:1004f0008301e900050032000400e000f4ff32004f
:1005000015d9ba008301e900f1ff3a0000000600a6
:10051000889fbe008a9fbe00010578000100e000b0
:100520000400350008003c000000e000200032001c
:100530000500370060001000e080180002003b005a
:1005400001f02c001a0037000004be006011b80052
:100550006b0920000982cf00020039000882cf0019
:100560000441b000694252000e00320008003b0016
:1005700082817100610164008904d1000884d30084
:100580008b05e8000442e800f9ff3a000500370057
:100590000804440089844c008b05e9000442e9000a
:1005a000fbff3a00b20007000af0a70001f0a0002c
:1005b0004f05be004f04be000000060003f0a2007d
:1005c000889fbe008a9fbe008c1f7800ce00070067
:1005d000d50033006450e1004f0032006420e10098
:1005e0005200320003826c0007003b000905d00076
:1005f0000306d000820f54000c065d000200390093
:1006000002003200890178000306780085825500d7
:1006100004003d000003fd008103fd008502ea00a7
:100620008b854200840f720002003b0060001000c6
:10063000e08018006011b8000005eb007a28e100a6
:100640000a00390006007800c75ddd00f707b20038
:10065000878075002d003700828171000a017800c3
:10066000610560008180d1000080d3008502e9002f
:10067000f9ff3b00060440008784480002003b006d
:1006800060041400e0841c000988a3000700320005
:100690008a81710082817100610164008904d10046
:1006a0000884d3008b05e800170037000978a30001
:1006b00013003a000b00e000130034008b05e90042
:1006c0000804440089844c000a4474000978a3009b
:1006d0000d003a000b00e000070034008b05e90034
:1006e0000804440089844c0001003a000b002000fb
:1006f0000978a300f7ff32000001eb000200370089
:10070000828171000a017800590007000cf0a700ef
:1007100001f0a0008d0037006420e10002003a00e3
:10072000838f6c008d0033000801be000200be0004
:1007300086003700889fbe008a9fbe008c1f78000d
:10074000710007007800330003866c006450e100fc
:10075000240032006420e100270032006150e100f3
:10076000220032006120e100210032008b8542002e
:10077000eb07b1000134b800003ab80008044200a9
:1007800089844a00013ab8000030b80088804000ef
:1007900009014a0004003300000040008180480045
:1007a000020149008b05e900c909dd0083017000e1
:1007b0000100320013002000c814de004814dd00e0
:1007c0004709de001200b200c808de00088470008d
:1007d0002700070001f0a1000cf0a70001f0a00025
:1007e0005a0037006120e1005c0032000801be00c1
:1007f0000200be00f7ff37006150e100fcff3a0045
:10080000560037000001be00570007000470a70023
:1008100003f0a10003f8a30013003a006509b1003a
:1008200010003200090035006928e100020035009f
:100830000100280000000500000040008180480001
:100840008502e900fcff3a0000000600f88f420034
:10085000050035008100d1000080d3008502e8004a
:10086000fcff3a00000006008000eb0000000500dd
:1008700081002000618055000b003d000b0020002e
:1008800061fe2f000100e1001d0034008281710033
:10089000610164008904d1000884d3000000e800ed
:1008a000faff3a007100200061006400030070004c
:1008b000020060000900320061044400e0844c0042
:1008c0000988a500050032008b05e8006808e100f2
:1008d00002003a008904d1000884d300f20f2000fe
:1008e0000258e10005003d00c75ddd00f907b200d8
:1008f0008980750008007800000006000bf82700ca
:100900008b007800000005000004be001600070000
:100910000003be000405be000200be001200070076
:10092000844f7500000006000200be006450e10024
:10093000050036006420e100020036000968a300cb
:1009400001003a000800be000160a0004f067800d8
:100950004f05be004f04be0000000600f0ff2f0050
:10096000f1ff2700f9ff3700c70ade00f107b200e8
:10097000f50fb20008003200e1cf42000200320061
:100980000170a00024000500810f700001003200fa
:100990000408050044000500810f700002003a00c1
:1009a000140005008502e9000000400081c04800f5
:0c09b000fcff3b000170a00024000500cb
:020000040000fa
:10000800620c0000620c0000620c0000620c000030
:10001800620c0000620c0000620c0000620c000020
:10002800620c0000620c0000620c0000620c000010
:10003800620c0000620c0000620c0000620c000000
:020000040000fa
:020000040000fa
:1009bc000000fa00417420009140780000ceb30092
:1009cc0000c0600044e7b70044c7bf00f043b2006a
:1009dc0044e7b70090022000303a880042c7bf00bd
:1009ec000042b2000004e000fcff32000080fa007c
:1009fc00000006000000fa000080eb00601988007f
:100a0c0080de2f00600888000000eb0030088800b2
:100a1c0060002000200c8800c002a800c022a800a2
:100a2c00c842a800c862a800c042a800c062a800c2
:100a3c00c082a800c882a800816c20009140780078
:100a4c0000ceb30000c060002041b300c8e6b70080
:100a5c00c902a900c922a900c962a900c9a2a9009a
:100a6c00c9e2a9000000eb00000e88000000eb00ba
:100a7c00002e880080de2f00200e880080de2f00e4
:100a8c00202e8800c901a800c921a800c941a800ce
:100a9c00c905a800c801a800c821a800c841a80021
:100aac00c805a800d501a800d541a800d581a8008b
:100abc00d505a8000000eb00100e88000000eb002c
:100acc00102e88000080fa00000006000800fa00d2
:100adc00881f7800008fbe00200e800000004000b0
:100aec00000478006140b90086fe070020079800da
:100afc00310798000800e00007003d0002002000cc
:100b0c00037824002e009000be009000a9fe070080
:100b1c0020079800310798001e01be002e0090009f
:100b2c00be00900000ff070033ff0700b00e8800e6
:100b3c00c1e1a8004f0478000080fa000000060014
:100b4c000800fa00881f7800008fbe00200e80007d
:100b5c0000004000000478006140b90069fe070005
:100b6c0020079800310798000800e00007003d00be
:100b7c0002002000037824002e009000be0090009c
:100b8c008cfe070020079800310798001e01be005c
:100b9c002e009000be009000e3fe070016ff070039
:100bac00c00e8800c1e1a8004f0478000080fa0054
:100bbc00000006000800fa00881f7800008fbe00b5
:100bcc00200e800000004000000478006140b90055
:100bdc004cfe070020079800310798000800e00041
:100bec0007003d0002002000037824002e00900036
:100bfc00be0090006ffe0700200798003107980098
:100c0c001e01be002e009000be009000c6fe070024
:100c1c00f9fe0700d00e8800c1e1a8004f0478004f
:100c2c000080fa00000006000800fa00881f780017
:100c3c00008fbe00202e80000000400000047800d1
:100c4c006140b9002ffe070020079800310798007b
:100c5c000800e00007003d0002002000037824009b
:100c6c002e009000be00900052fe07002007980056
:100c7c00310798001e01be002e009000be009000af
:100c8c00a9fe0700dcfe0700b02e8800c1e5a80015
:100c9c004f0478000080fa00000006000800fa00fb
:100cac00881f7800008fbe00680880006140b90082
:100cbc0014fe070020079800310798000800e00098
:100ccc0007003d0002002000037824002e00900055
:100cdc00be00900037fe07002007980031079800ef
:100cec001e01be002e009000be0090008efe07007c
:100cfc00c1fe0700000c880011e1a8004f04780029
:100d0c000080fa00000006000a00fa006000b8003b
:100d1c003007980041079800a0702d0031ca2300bd
:100d2c0010079800210798000000eb00000f7800d6
:100d3c000000370000408000e10f5000ad0232008f
:100d4c00c2c2bf00614060000004e0003500320008
:100d5c00c2c2bf00624060000004e00031003200fb
:100d6c00cac2bf00684060000004e0002d003200e1
:100d7c00c2c2bf00644060000004e00029003200e1
:100d8c00c2c2bf00704060000004e00025003200c9
:100d9c00cac2bf00704060000004e00021003200b5
:100dac00b0472100e1f2230048ff07003033230055
:100dbc0031f3230062ff07000000200001f0230044
:100dcc007cff0700c2c2bf00614060000004e0006d
:100ddc0014003200c2c2bf00624060000004e00098
:100dec0010003200cac2bf00684060000004e0007e
:100dfc000c003200c2c2bf00644060000004e0007e
:100e0c0008003200c2c2bf00704060000004e00065
:100e1c0004003200cac2bf00704060000004e00051
:100e2c00e8ff3a00c2c2bf00614060000004e0006d
:100e3c003f003a00c2c2bf00624060000004e00004
:100e4c003b003a00cac2bf00684060000004e000ea
:100e5c0037003200c2c2bf00644060000004e000f2
:100e6c0033003200c2c2bf00704060000004e000da
:100e7c002f003a00cac2bf00704060000004e000be
:100e8c002b003a000000eb00000f78001e007800e9
:100e9c00cf80de009bfd07001e019000ae0190008c
:100eac0021fe07003007980041079800b047210049
:100ebc00e1f2230005ff07003033230031f3230058
:100ecc001fff07000000200001f0230039ff07007e
:100edc00c2c2bf00614060000004e00014003a0090
:100eec00c2c2bf00624060000004e00010003a0083
:100efc00cac2bf00684060000004e0000c00320071
:100f0c00c2c2bf00644060000004e0000800320070
:100f1c00c2c2bf00704060000004e00004003a0050
:100f2c00cac2bf00704060000004e000e8ff32005d
:100f3c00c2c2bf00614060000004e00042003a0001
:100f4c00c2c2bf00624060000004e0003e003a00f4
:100f5c00cac2bf00684060000004e0003a003a00da
:100f6c00c2c2bf00644060000004e00036003200e2
:100f7c00c2c2bf00704060000004e00032003a00c2
:100f8c00cac2bf00704060000004e0002e003a00ae
:100f9c000080eb00000f78001e007800cf80de0090
:100fac0058fd07001e019000ae019000defd070009
:100fbc003007980041079800b2472100e3f2230064
:100fcc003e009000ce0090007afd0700bffe0700a7
:100fdc003033230031f32300d9fe0700000020003a
:100fec0001f02300f3fe0700c2c2bf0061406000a5
:100ffc000004e00014003a00c2c2bf00624060006e
:10100c000004e00010003a00cac2bf006840600053
:10101c000004e0000c003a00c2c2bf006440600053
:10102c000004e00008003200c2c2bf007040600043
:10103c000004e00004003a00cac2bf007040600027
:10104c000004e000e8ff3200c2c2bf006140600053
:10105c000004e00042003a00c2c2bf0062406000df
:10106c000004e0003e003a00cac2bf0068406000c5
:10107c000004e0003a003a00c2c2bf0064406000c5
:10108c000004e00036003a00c2c2bf0070406000ad
:10109c000004e00032003200cac2bf0070406000a1
:1010ac000004e0002e003a00e0ff2f00000f780053
:1010bc001e007800cf80de0012fd07001e0190009c
:1010cc00ae01900098fd070030079800410798008a
:1010dc00b2472100e3f223003e009000ce009000c6
:1010ec0034fd070079fe07003033230031f3230071
:1010fc0093fe07000000200001f02300adfe070066
:10110c00c2c2bf00614060000004e00014003a005d
:10111c00c2c2bf00624060000004e00010003a0050
:10112c00cac2bf00684060000004e0000c003a0036
:10113c00c2c2bf00644060000004e00008003a0036
:10114c00c2c2bf00704060000004e0000400320026
:10115c00cac2bf00704060000004e000e8ff32002b
:10116c00c2c2bf00614060000004e00042003a00cf
:10117c00c2c2bf00624060000004e0003e003a00c2
:10118c00cac2bf00684060000004e0003a003a00a8
:10119c00c2c2bf00644060000004e00036003a00a8
:1011ac00c2c2bf00704060000004e0003200320098
:1011bc00cac2bf00704060000004e0002e00320084
:1011cc00d0ff2f00000f78001e007800cf80de00cb
:1011dc00ccfc07001e019000ae01900052fd0700f0
:1011ec003007980041079800b2472100e3f2230032
:1011fc003e009000ce009000eefc070033fe07008e
:10120c003033230031f323004dfe07000000200093
:10121c0001f0230067fe0700c2c2bf0061406000fe
:10122c000004e00014003a00c2c2bf00624060003b
:10123c000004e00010003a00cac2bf006840600021
:10124c000004e0000c003a00c2c2bf006440600021
:10125c000004e00008003a00c2c2bf007040600009
:10126c000004e00004003200cac2bf0070406000fd
:10127c000004e000e8ff3a00c2c2bf006140600019
:10128c000004e00042003a00c2c2bf0062406000ad
:10129c000004e0003e003a00cac2bf006840600093
:1012ac000004e0003a003a00c2c2bf006440600093
:1012bc000004e00036003a00c2c2bf00704060007b
:1012cc000004e00032003a00cac2bf007040600067
:1012dc000004e0002e003200c0ff2f00000f780049
:1012ec001e007800cf80de0086fc07001e019000f7
:1012fc00ae0190000cfd07003007980041079800e4
:10130c00b2472100e3f223003e009000ce00900093
:10131c00a8fc0700edfd07003033230031f3230058
:10132c0007fe07000000200001f0230021fe07004b
:10133c00c2c2bf00614060000004e00014003a002b
:10134c00c2c2bf00624060000004e00010003a001e
:10135c00cac2bf00684060000004e0000c003a0004
:10136c00c2c2bf00644060000004e00008003a0004
:10137c00c2c2bf00704060000004e00004003a00ec
:10138c00cac2bf00704060000004e000e8ff3a00f1
:10139c00c2c2bf00614060000004e00042003a009d
:1013ac00c2c2bf00624060000004e0003e003a0090
:1013bc00cac2bf00684060000004e0003a0032007e
:1013cc00c2c2bf00644060000004e00036003a0076
:1013dc00c2c2bf00704060000004e00032003a005e
:1013ec00cac2bf00704060000004e0002e003a004a
:1013fc0020002000000f78001e007800cf80de0057
:10140c0040fc07001e019000ae019000c6fc0700d6
:10141c003007980041079800b0472100e1f2230003
:10142c00aafd07003e019000ce019000303323004e
:10143c0031f323005efc0700c1fd07000000200013
:10144c0001f02300dbfd0700c2c2bf006140600059
:10145c000004e00014003a00c2c2bf006240600009
:10146c000004e00010003a00cac2bf0068406000ef
:10147c000004e0000c003200c2c2bf0064406000f7
:10148c000004e00008003a00c2c2bf0070406000d7
:10149c000004e00004003a00cac2bf0070406000c3
:1014ac000004e000e8ff3200c2c2bf0061406000ef
:1014bc000004e00042003a00c2c2bf00624060007b
:1014cc000004e0003e003200cac2bf006840600069
:1014dc000004e0003a003a00c2c2bf006440600061
:1014ec000004e00036003a00c2c2bf007040600049
:1014fc000004e00032003a00cac2bf007040600035
:10150c000004e0002e003a0030002000000f7800ac
:10151c001e007800cf80de00fafb07001e01900051
:10152c00ae01900080fc070030079800410798003e
:10153c00b0472100e1f2230064fd07003e0190005a
:10154c00ce0190003033230031f3230018fc070048
:10155c007bfd07000000200001f0230095fd070033
:10156c00c2c2bf00614060000004e00014003a00f9
:10157c00c2c2bf00624060000004e00010003200f4
:10158c00cac2bf00684060000004e0000c003a00d2
:10159c00c2c2bf00644060000004e00008003a00d2
:1015ac00c2c2bf00704060000004e00004003a00ba
:1015bc00cac2bf00704060000004e000e8ff3200c7
:1015cc00c2c2bf00614060000004e0004200320073
:1015dc00c2c2bf00624060000004e0003e00320066
:1015ec00cac2bf00684060000004e0003a003a0044
:1015fc00c2c2bf00644060000004e00036003a0044
:10160c00c2c2bf00704060000004e00032003a002b
:10161c00cac2bf00704060000004e0002e003a0017
:10162c0040002000000f78001e007800cf80de0004
:10163c00b4fb07001e019000ae0190003afc0700bd
:10164c003007980041079800b0472100e1f22300d1
:10165c001efd07003e019000ce01900030332300a8
:10166c0031f32300d2fb070035fd070000002000fa
:10167c0001f023004ffd0700c2c2bf0061406000b3
:10168c000004e00014003200c2c2bf0062406000df
:10169c000004e00010003200cac2bf0068406000c5
:1016ac000004e0000c003a00c2c2bf0064406000bd
:1016bc000004e00008003a00c2c2bf0070406000a5
:1016cc000004e00004003a00cac2bf007040600091
:1016dc000004e000e8ff3200c2c2bf0061406000bd
:1016ec000004e00093fd3200c2c2bf006240600003
:1016fc000004e0008ffd3a00cac2bf0068406000e1
:10170c000004e0008bfd3a00c2c2bf0064406000e0
:10171c000004e00087fd3a00c2c2bf0070406000c8
:10172c000004e00083fd3a00cac2bf0070406000b4
:10173c000004e0007ffd3a0050002000000f78000c
:10174c001e007800cf80de006efb07001e019000ab
:10175c00ae019000f4fb0700300798004107980099
:10176c00b0472100e1f22300d8fc07003e019000b5
:10177c00ce0190003033230031f323008cfb0700a3
:10178c00effc07000000200001f0230009fd07001a
:10179c00c2c2bf00614060000004e00065fd320081
:1017ac00c2c2bf00624060000004e00061fd3a006c
:1017bc00cac2bf00684060000004e0005dfd3a0052
:1017cc00c2c2bf00644060000004e00059fd3a0052
:1017dc00c2c2bf00704060000004e00055fd3a003a
:1017ec00cac2bf00704060000004e000e8ff320095
:1017fc0050fd37000080fa00000006000000fa00df
:10180c006bfc07007bfc0700d0cc2c00c1f4230040
:10181c00aefc0700d0cc2c00c1f42300c8fc0700a0
:10182c00d0cc2c00c1f42300e2fc0700d0cc2c005f
:10183c00c1f42300fcfc0700d0cc2c00c1f4230025
:08184c0016fd0700ffff370045
:020000040000fa
:101854000008000046000000020000000000000034
:10186400000000000000000000003f000000000035
:10187400006f1200833a0a00d7233d0000000000e5
:101884000000000000000000000000000000000054
:101894000000000000000000000000000000000044
:1018a4000000000000000000000000000000000034
:1018b4000000000000000000000000000000000024
:020000040000fa
:0418c4000000fe0022
:00000001FF
