:020000040000fa
:080000000002040000000000f2
:020000040000fa
:100400002fa620000e7f24000e01880000000000af
:100410000c00070080132200010020001f000700cd
:10042000000020000000e000020032000000020096
:1004300000000000da270200000000000040da009f
:100440000000fe004440a900800020000000e00001
:100450000300320000002000a00188004440a800f2
:1004600000000600f03fb1000180b1000600350039
:10047000ee03090000000000403fb1000180b10020
:10048000fbff3d001000b000203fb000020035002f
:1004900000800900000000000000060091018800b3
:1004a000800078000000eb0015003700e28040007b
:1004b00032a0b4009101ba00e280400032a0b40042
:1004c0009102ba00e280400032a0b4000002eb00ca
:1004d000472bde00f507b200602ce10004003a0073
:1004e0000059eb008301e900fdff3e0004003700e6
:1004f0006128e100010032000082eb0004000700e7
:100500001101ba000200e000e8ff3a000000060016
:100510003159ba008301e9000c0032002159ba00b8
:100520008301e900080032000400e00003003a0003
:10053000e280400032a0b400f5ff370011d9ba00c4
:100540008301e900faff3a008100e800e180400001
:1005500032a0b400000006000040da000000fe00f7
:100560000a00fa0080017800e20f500028003e00e7
:1005700000538000e10f500008003200802320006b
:100580000000e000050032000423200025232000a5
:100590004623200080017800040037000422200058
:1005a00025222000462220008322200014409000b3
:1005b0000004e000040035008009eb0014409000c6
:1005c0000074a00010429800154090000028a3007d
:1005d00003003a00154090000024a00090429800cb
:1005e0008001eb0007003700154090000008a300d1
:1005f000fdff320063c078000000fb00000b7800b4
:100600008301e800828f5100f7ff3a0008003700ad
:1006100030002000b0bf9f00c3bf9f00d1bf9f002c
:10062000e2bf9f006a80570000c0da006fb99700f0
:10063000020078000080fa00000006006022b80086
:10064000060220000000d0008180d2000482d20087
:100650008582d2000000a0000202520083825a006c
:10066000030031000202420083824a000000a10020
:100670000603e900f3ff3a0000000600889fbe0071
:100680008a9fbe00010578000100e00004003500eb
:1006900008003c000000e0002000320005003700a8
:1006a00060001000e080180002003b0001f02c0008
:1006b0001a0037000004be006011b8006b0920006a
:1006c0000982cf00020039000882cf000441b00047
:1006d000694252000e00320008003b008281710026
:1006e000610164008904d1000884d3008b05e8000f
:1006f0000442e800f9ff3a0005003700080444000e
:1007000089844c008b05e9000442e900fbff3a00b4
:10071000b80007000af0a70001f0a0004f05be00d6
:100720004f04be000000060003f0a200889fbe0038
:100730008a9fbe008c1f7800d4000700db003300c6
:100740006450e1004f0032006420e10052003200aa
:1007500003826c0007003b000905d0000306d000af
:10076000820f54000c065d000200390002003200c6
:1007700089017800030678008582550004003d0059
:100780000003fd008103fd008502ea008b85420025
:10079000840f720002003b0060001000e08018002f
:1007a0006011b8000005eb007a28e1000a0039006a
:1007b00006007800c75ddd00f707b200878075008e
:1007c0002d003700828171000a0178006105600008
:1007d0008180d1000080d3008502e900f9ff3b0051
:1007e000060440008784480002003b0060041400b7
:1007f000e0841c000988a300070032008a81710090
:1008000082817100610164008904d1000884d300f1
:100810008b05e800170037000978a30013003a00a1
:100820000b00e000130034008b05e90008044400cd
:1008300089844c000a4474000978a3000d003a0032
:100840000b00e000070034008b05e90008044400b9
:1008500089844c0001003a000b0020000978a300b5
:10086000f7ff32000001eb000200370082817100c7
:100870000a0178005f0007000cf0a70001f0a0005b
:10088000930037006420e10002003a00838f6c007f
:10089000930033000801be000200be008c00370048
:1008a000889fbe008a9fbe008c1f780077000700db
:1008b0007e00330003866c006450e1002e0032009d
:1008c0006420e100330032006150e1002f0032006b
:1008d0006120e1003100320085855500eb07b00052
:1008e0000900200008042000050037000804440027
:1008f00089844c000a0031000603430087834b00c3
:100900000001530081815b00f8ff33000203be0049
:100910000800a0000804440089844c00f6ff390058
:10092000c639dd008301730001003200130020008e
:100930008904d1000884d3000998a300050032007f
:100940000800a7000300a0008904d1000884d30098
:100950008b05e8008904d1000884d3000001eb0076
:100960000281d2002300070001f0a1000cf0a700d3
:1009700001f0a000560037006420e100580032006a
:100980000801be000200be00f7ff37006120e10051
:10099000530032006000b800f3ff37000000200071
:1009a00001f82700f0ff3700839f68000100e00096
:1009b00002003d0060001000e08018000300e0002d
:1009c00002003d0060011100e08119001bff0700db
:1009d0004f00e00002003b0060001000e0801800c3
:1009e000000006001400200040003700f4ff2f0034
:1009f0003e00370081002000618055000b003d0063
:100a00000b00200061fe2f000100e1001d003400fa
:100a100082817100610164008904d1000884d300df
:100a20000000e800faff3a00710020006100640055
:100a300003007000020060000900320061044400fd
:100a4000e0844c000988a500050032008b05e80011
:100a50006808e10002003a008904d1000884d3004c
:100a6000f20f20000258e10005003d00c75ddd00e7
:100a7000f907b200898075000800780000000600c0
:100a80000bf827008b007800000005000004be0072
:100a9000310007000003be000405be000200be00d6
:100aa0002d000700844f7500000006000200be0004
:100ab0006450e100050036006420e10002003600c9
:100ac0000968a30001003a000800be000160a00010
:100ad0004f0678004f05be004f04be000000060020
:100ae000f0ff2f00f1ff2700f9ff3700889fbe00bd
:100af0008a9fbe00841f7800e4ff07004f00780043
:100b000011003300f0ff2f00838f6c0006003b00c4
:100b1000040565000a00a7000800370009f0a600d8
:100b20001000200008003700820f5400838f5c0003
:100b3000030039001000200001003e0000002000ea
:100b400009f0a7000000ea004f05be004f04be00f8
:100b50000000e00000000600c70ade00f107b20056
:100b6000f50fb20008003200e1cf4200020032006f
:100b70000170a00024000500810f70000100320008
:100b80000408050044000500810f700002003a00cf
:100b9000140005008502e9000000400081c0480003
:100ba000fcff3b000170a000240005002800fa00b3
:100bb000889fbe008a9fbe008c9fbe0003866b008c
:100bc000170307000028a30064003a000128a300cf
:100bd00067003a000008a30062003a000108a30081
:100be00065003a001e009000be089000810640009b
:100bf000ed3fb100f4805700ee019000111ab800eb
:100c00008e099000311bb8009e099000311cb8007d
:100c1000511db800f485570046000700fe01900002
:100c20003a0007008b85e8003e0007008e0990001f
:100c300040000700ee019000340007008b85e800bb
:100c4000380007008e099000400007009e099000c0
:100c50001b18b800890440000a854800fe01900076
:100c6000340007008b85e80038000700ee01900093
:100c7000300007008e0990001b18b800890440005e
:100c80000a8548000a98a30008003a0004024200be
:100c900085824a0006034b0087834b0008044c0002
:100ca00089844c000a054d008d06e900848272009b
:100cb000850273004c3add008502720001003200ab
:100cc00015002000443ade001400b2004538de0072
:100cd000cb45dd000b007000c540de00cb4ddd00d4
:100ce0008b8070004549de00cb55dd000b017100a3
:100cf000c551de000d037800e202070003f0a100f9
:100d00000cf0a70003f0a000d90237001b18b800b0
:100d10008502400006834800e0834b0060044c00dd
:100d2000070037001b18b8000603400087834800ff
:100d3000faff37001b18b8008703400008844800fa
:100d4000e0844c0060054d00000006001b18b80050
:100d50000804400089844800faff37000108a30016
:100d6000c0023a005800be005801be00e3ff370041
:100d70000008a300bb023a0009047800f9ff37001d
:100d80008103780074ff07000001be006000b80016
:100d90000478a30013003a006220e10015003e0031
:100da0000d0039008301d1000281d3008180d3007e
:100db0008301d1000281d3008180d3008301d1005f
:100dc0000281d3008180d3000538b000c42add0041
:100dd000f300b2008381720007f0a70003f0a000c7
:100de00000000600f3ff2700f2ff2f006110b9009a
:100df000fbff370003ff2700f7ff37008f1fd100ed
:100e0000cc0207008f87e9000000e0000000060028
:100e1000801feb00c70207008f87e9000000e00099
:100e2000000006001400fa00889fbe008a9fbe00e2
:100e30008c9fbe000005be000206be006800470091
:100e40000c90be000a90be00e30207006400e100bf
:100e50001a00320016003e006100e1001a00320064
:100e60006e049000fe0490000e0b90009e0b90000c
:100e70006011b8009e0590000b38b100d50120002c
:100e800082817100610164008703d1000683d30071
:100e90008984d3000884d3008502e900f8ff3a0072
:100ea000d4fe07000df0a70001f0a000700237008b
:100eb000f1ff2700f0ff2f006d02370001f8270037
:100ec00000002000f7ff37006000b800f5ff370092
:100ed000e80207000509780000000600809feb008b
:100ee000940207008f87e9000000e0000000060080
:100ef0002800fa00889fbe008a9fbe008c9fbe001b
:100f000007067800878669000c003b000304780020
:100f10008704780008f0a10009f0a100840f5000b8
:100f2000858f5800860f5900890f5c00030033003d
:100f30000cf0a20001003a000cf0a10038020700fa
:100f40006400e1005f003200780147006408e100be
:100f5000610032006c014700748557003200be000a
:100f60001201be003a04be001a05be001e03900026
:100f7000be0a90008503530006003d000004fd00fa
:100f80008104fd000205fd008305fd008703ea00e2
:100f9000050378000df8a30004003200600414007b
:100fa000e0841c0060051d00e0851d006022b80083
:100fb0007d0320000d38e1008006eb000b003900b6
:100fc0004433dd00f300b2008301730039003700c1
:100fd000848272000d027800e10664008b85d100e6
:100fe0000a85d3008984d3000884d3008703e900ed
:100ff000f7ff3b0008004000898048000a014900d3
:101000008b81490004003b0060001000e080180064
:1010100060011900e08119000358a30009003200a3
:101020008d82720084827200610260008301d100af
:101030000281d3008180d3000080d3000603e80042
:101040001b0037000348a30017003a000600e00029
:10105000170034000603e9000d00a300000048005b
:101060008180480002014900838149000348a300b0
:101070000f003a000600e000090034000603e90012
:10108000000040008180480002014900838149003e
:1010900001003a000003eb000348a300f5ff320013
:1010a0006022b8000200370084827200618266000c
:1010b000f401070003f0a1000cf0a70003f0a0006a
:1010c000eb013700640147006408e10002003a00c8
:1010d0000df8a300e3013a003200be001201be0089
:1010e000e30137001400fa00889fbe008a9fbe000b
:1010f0008c9fbe000004be000205be0068004700d1
:101100000a90be000890be00330207000070a700de
:101110000bf0a1000bf8a30020003a009e099000fc
:101120000e099000fe0090006e0090009e0290005c
:101130003443200084825200cd0132000a003c007a
:10114000b4fc2f000428e100140034008301d10016
:101150000281d3008180d3000080d3008502e800a3
:10116000faff3a00c2013700b40020000428e10071
:1011700007003c0000004000818048000201490057
:10118000838149008502e900faff3a00b80137007f
:101190000300280002002000010037006011b800a1
:1011a0006000b800b20137002800fa00889fbe0036
:1011b0008a9fbe008c9fbe0003866b0098010700cb
:1011c0006400e100440032006408e1004a0032009b
:1011d0006100e100460032006108e1004900320090
:1011e000ec0647006000b8003d02be003d03be00b3
:1011f000f48657006011b8003d04be003d05be00f6
:101200007d0320000b0037000000a0008d06e900e0
:10121000130032000402420085824a0006034b009c
:1012200087834b0000004000818048000201490094
:10123000838149000802520089825a000a035b0038
:101240008b835b00f0ff3b000802420089824a006a
:101250000a034b008b834b008d06e900edff3a003b
:101260008482720086827200f707b2008782720061
:1012700001003200150020001e0490003e0b90007b
:1012800006035400e63fb0000368a30007003200e5
:101290000000a7000500a0008301d1000281d30057
:1012a0008180d3000080d3000603e8008301d100d1
:1012b0000281d3008180d3000080d3000002eb00c4
:1012c0000482d2006f01070003f0a1000cf0a70018
:1012d00003f0a00066013700640247006408e100e3
:1012e000600132003400be003401be00f6ff37005a
:1012f0006108e1005b0132006011b8006000b800d5
:10130000f1ff370003ff270002002000fbff37003a
:10131000889fbe00830478000300e0002c003500a5
:1013200003003c00008270000402710026003200bd
:1013300036432000c50020008383cf000a00390017
:101340000541b1008283cf00070039000541b1009b
:101350008183cf00040039000541b1008083cf00b4
:10136000010039000541b10085c353006022b80077
:10137000120032000a003b008482720061026000a9
:101380008301d1000281d3008180d3000080d3008b
:101390000603e8008743e800f7ff3a00070037003c
:1013a000000040008180480002014900838149001b
:1013b0000603e9008743e900f9ff3a00310107001d
:1013c00009f0a70003f0a0004f04be0000000600d3
:1013d00060001000e080180060011900e081190031
:1013e000d3ff3b00033e2c00f7ff370007f0a200bd
:1013f000bffe3700881f7800000478005001be004f
:101400004000be00040040008580480006014900fd
:1014100087814900009cbe000294be000400e100e8
:101420000588e1000690e1000798e1000200310024
:10143000680044001008e8004f047800000006002f
:10144000f4874700889fbe008a9fbe008c9fbe0025
:101450008e1f78000205be000004be00d4b79f00b6
:10146000e5b79f00f6b79f0087bf9f000000eb0025
:10147000c0b79f00b0b79f00a0b79f0090b79f0074
:1014800080b79f000d042000bfb097004fb09700b9
:10149000000140000000e0000f003d004f08de00aa
:1014a00000007100c0b79f009e00070001003d00d2
:1014b00012002000a100070001003d0012002000e2
:1014c000a6000700b1000700b60007000f004000ab
:1014d000c8ff0700220037004f08de000006710039
:1014e000ccb79f008f00070001003d0012002000d4
:1014f0009200070001003d00120020009700070045
:10150000a20007000fb297009fb297002fb3970079
:10151000bfb39700a90007000000520081805a0065
:1015200002015b0083815b0080b79f0091b79f0041
:10153000a2b79f00b3b79f000007eb009f00070012
:101540000020e10001a8e10002b0e10003b8e100e1
:10155000010031001e0020000e005600c0b79f00a1
:101560004fb297000400e000070035001000200093
:10157000010020006011b800080470008984700028
:101580000a0571008b8571008d06e900beff3a00e7
:101590000400e00003003d00820007000f0040004f
:1015a00094ff07004fa897000000e00004003a00f5
:1015b0000fb497009fb497002fb59700bfb5970061
:1015c000940007004f0778004f06be004f05be008d
:1015d0004f04be004f01b10000000600881f7800d4
:1015e00018002000881f780095ff07008f87e9000a
:1015f0004f04780000000600801feb0090ff0700fa
:101600008f87e90000000600889fbe008a9fbe0009
:101610008c1f78006e00070007003d007300070074
:10162000e00f5b00e08f5b0007003d003200070029
:101630000006eb00040037003400070002003d0004
:101640002a0007001c00200072000700e3ff0700cb
:101650000203be000002be000c00e00001003200e8
:10166000220007000400be000601be004f067800fd
:101670004f05be004f04be0000000600889fbe005c
:101680008a9fbe008c1f78005100070005003d00b6
:1016900056000700e00f5b00e08f5b0006003d0096
:1016a000040037001900070003003d006000b80087
:1016b0006011b8001000070056000700ceff0700b9
:1016c0000203be000002be000c00e0000100320078
:1016d000060007000400be000601be004f067800a9
:1016e0004f05be004f04be00000006006000b800b9
:1016f0006011b800000037000402500085825800d5
:101700000603590087835900000006000006eb001d
:10171000e00f5200e08f5a00e00f5b00e08f5b00ab
:10172000000006000180400090b79f000001eb0020
:101730008fb097000100e00000000600020070007a
:1017400090b79f000180400080b79f000001eb0030
:10175000ffa897000100e0000000060002007000f2
:1017600080b79f00018040006faa9700cf20de0065
:1017700001007000f0af9f00040242002500070046
:101780004f18de000002720000000600e4af9f0068
:101790000804440089844c000a054d008b854d00e7
:1017a000000006003fb29700cfb297005fb39700ea
:1017b000efb3970000fe2f00000006003fb0970037
:1017c000cfb097005fb19700efb19700000006001f
:1017d0000205be000004be00e00f5000e08f58007c
:1017e000e00f5900e08f5900000006006000b800cb
:1017f0006011b80008045000898458000a05590097
:101800008b8559001c002000e00f5200e08f5a0029
:10181000000006000800be000a01be00000006002d
:10182000680447000294be000094be00fc04470018
:101830008694be008494be0009007800660007000c
:10184000080078006400070099007800814f70005c
:101850000b003b000800be00930007004f00b100e2
:1018600003003700f3ff2700f2ff2f006110b900db
:101870004f06be004f05be004f04be000080fa00b8
:101880000000060018002000570020000804530044
:101890000d003d000600200097fc2f000740e100ee
:1018a0001e00340084827200610260008301d10056
:1018b0000281d3008180d3000080d3000804e800b7
:1018c000f8ff3a004700200061046000050474003e
:1018d000040464000d00320061004000e080480014
:1018e00060014900e081490003b8a500070032000b
:1018f0000603e8006538e10004003a008301d100e6
:101900000281d3008180d3000080d300f87f2000c3
:101910000830e10003003500080378006000b800db
:101920006011b8004433dd00f300b200830173009e
:1019300000000600889fbe008a9fbe008c9fbe00ec
:101940000404be000605be00809fbe00829fbe004c
:1019500063000700040678000800be000a01be000c
:101960005f000700840678004f03be004f02be00f0
:101970008d4f76007fb0970013003300f0ff2f00eb
:101980008b8f6b0006003b000d0666000c00a70065
:101990000a00370007f0a600100020000a003700f8
:1019a000880f5200898f5a008a0f5b008b8f5b0073
:1019b000030039001000200001003e00000020005c
:1019c00007f0a7000000ea004f06be004f05be006a
:1019d0004f04be0000000600800078005002be00e8
:1019e0005003be004439de00f700b200f37f200050
:1019f00003016100090032000218e10016003a00fc
:101a00008501720083017300838173000008200048
:101a100015003a00400020001300370085017200d5
:101a2000830173008381730005003a0004a8be009f
:101a300006a8be00100020000b0037000201e900dc
:101a40000402420085824a0006034b0087834b0054
:101a50000748a300f9ff32000740a00004a8be0019
:101a600006a8be0020002000800098009200980088
:101a7000000006000003be0037fc07006220e10002
:101a8000020032000600be0005000500e507b100b7
:101a9000f107b20004f023008480700007f0a70073
:101aa00001f0a00024000500e48240001078a300ab
:101ab00007003200640240001178a3003400be0029
:101ac0001401be00040032000330a700000006002d
:101ad0003500be001501be000330a0000000060066
:101ae00005ff270005826100070032000428e1009d
:101af00001003200240005000600070001003a0042
:101b0000440005000408050002000700f9ff3a0040
:101b1000140005006f82610081027000850271006f
:101b200085027200000006000c00fa00889fbe00cb
:101b300000047800cfb09700f0ff2700d0bf9f00cf
:101b40008004eb0099bf9f0088bf9f00a8bf9f0043
:101b5000200c2000b0bf9f00788157007080570094
:101b60005f0007000fb89700094878000fb897008a
:101b700008045000080078004f04be000080fa00fe
:101b800000000600889fbe008a1f78008040780011
:101b90000004e00021003d008040ea00d0c6b30010
:101ba00080cf5000090034008104fb004206200071
:101bb000110009008204d8000001780001007800bb
:101bc0004311dd00ca8120001f0037000100fb0027
:101bd000c381200039003700a20020001100090055
:101be0000200d80000017800010078004311dd00f8
:101bf000030141004300dd00030040003002be004d
:101c00002003be0042209000d2209000f2219000dc
:101c100062219000e5fb07002e003700d0c6b3001c
:101c200080cf5000230034008104fb0042062000d6
:101c3000110009008204d80000017800010078003a
:101c40004311dd00ca8c20000a014100a8002000d9
:101c5000110009000800d8004300dd000a00400020
:101c600040229000d022900060239000f02390004a
:101c70000288900092889000b2899000228990009a
:101c8000cafb0700801f78000102780011000900dc
:101c90008804d8000102fd004f0078000402fb0018
:101ca0004322dd000a0242005403be004402be008b
:101cb000d8ff37000100fb00c38c2000eacf5000a2
:101cc000c5ff3c004300dd00030040005001be00a2
:101cd0004000be004f0578004f04be000000060023
:101ce0004f03b000889fbe008a9fbe008c9fbe003d
:101cf0008e1f7800e0b79f00f1b79f0082bf9f0062
:101d00000000eb00b0b79f00670437008001eb00d4
:101d100050c2b30080cf5000090032000100fb0028
:101d2000efb097006d040700e10f40005e04320041
:101d3000bfb097008100e800b1b79f005a04370098
:101d40007fb1970092407800d0c2b30080cf50009e
:101d50000c00320007003c006d40500080cf500066
:101d60000d0032006b40400080cf500019003a0057
:101d70000e00370000c3b30080cf500015003a00ba
:101d80000f0037000330a0007fb297000402e80084
:101d9000f4b79f00eaff37000300a000ffb29700ee
:101da0008502e800f5b79f00e5ff37000310a000ab
:101db0007fb697000c06e800fcb79f00e0ff3700f5
:101dc0000320a0007fb097000000e800f0b79f005c
:101dd000dbff37000318a300010032000300a1005d
:101de0000338a300010032000320a1000100fb0022
:101df00002fd2f0002004000e90f500010003e00dd
:101e00008000eb00c1a79f00020278004fa197005d
:101e10006a10b900ffb297001501fb0000014100f4
:101e200004014100c2a79f005500fb00f5b79f00c9
:101e300004004000e90f50000d003e00f3ff3700a2
:101e40000006eb00cca79f00a0c2b30080cf5000db
:101e500007003a000fb89700c000780080bf9f00cd
:101e6000c1a79f007fb197000201e800f2b79f0071
:101e7000e0c2b3007fb29700944f100021003a00f7
:101e8000830678000de0a0008400e8006440500064
:101e9000914f100004003200f1b79f008002eb0068
:101ea000c5b79f00100037000fbe97004c007800a8
:101eb0008cbf9f00c0b79f00ffb097008180e800f3
:101ec000f1b79f00130037004fb297006a20b900a6
:101ed0000000410003004000c0b79f00ffb2970020
:101ee0008502e800f5b79f007fb697001c01fb0054
:101ef00003fd2f0003004100e90f5000f2ff360000
:101f000004003700830678000dc0a0000000eb003d
:101f1000c0b79f007fb19700b2407800f2b79f0032
:101f200081c79f00c0c6b30080cf500014003200ac
:101f300009003c006940500080cf5000650032002d
:101f40006340400080cf5000130032000104e000e5
:101f5000db0332007e00370050c7b30080cf500053
:101f60007f0032006340400080cf50000d003200ff
:101f70006540500080cf500075003a000c003700db
:101f8000000028000d48a30001003a0000012000d5
:101f900080867600dfff37000d0778000ea0a000d6
:101fa000710037000d0778000e70a0006e0037003a
:101fb0008fb997004300780083bf9f00000478002a
:101fc0000000e00001003a0028a420008004eb009b
:101fd000010037008104e80089007800088044008f
:101fe0001004e000fbff3a004fb297000400e0004d
:101ff00003003200890f5200010031008404780090
:102000000007eb00cfa29700898f52000100360035
:10201000098752004368de00e106600019003a00bb
:102020000d06780009003700efb09700000220008d
:10203000aa030700e10f4000030032003fb0970001
:102040000000e800b0b79f000c06e8008e0f5600b5
:10205000f5ff3a000087eb000a003700880078009f
:102060003100fb0001047800efb097009b030700ec
:10207000e10f400003003200bfb097008100e8008c
:10208000b1b79f000900e90080047800e10f40002b
:10209000f2ff3a000006eb000d00e0000a003a00f3
:1020a00081033700efb09700000220008b03070088
:1020b000e10f4000030032003fb197000201e80049
:1020c000b2b79f000c06e8008e0f5600f5ff3a00ed
:1020d000750337008fb997004300780083bf9f00d6
:1020e000cf80de0001017800820178000205be0089
:1020f0000004be000203be000002be004822de0053
:10210000482edd000402760084c79f000d48a3001e
:102110000a0032000404e00008003200e14f4200ef
:102120000600320011fc2f000180470004487800af
:1021300018409800290020000200370090c79f0037
:102140001900200012fc2f0002844700a6ff370070
:1021500003fc2f000384470019002000a2ff370072
:102160000d0778000e0cb30000702000000267001d
:10217000270232000ec8a3000200320064002000d3
:10218000c4b79f000e48a300050032000fba9700a5
:102190004401be004400be0084bf9f00040037001d
:1021a0008fba97004500be0085bf9f00f4fa070074
:1021b000f0af9f0081b79f0092b79f00a3b79f0029
:1021c0006022b8006033b8007fa897008fb09700f6
:1021d0001fb19700afb1970008fb07000000e000b7
:1021e0000a003d007fa897008fb097001fb19700ad
:1021f000afb1970003f0a200f0af9f0081b79f003e
:1022000092b79f00a3b79f003e00b3000000eb0011
:10221000a0a79f006022b8006033b8007fa8970095
:102220008fb097001fb19700afb19700f8fa070081
:102230000000e000340032007fa897008fb09700c4
:102240001fb19700afb19700f6fa070043fc2f00cb
:10225000038147001efb07002fa097000000e90044
:102260006300b900a2002000110009000200d8009c
:102270008000fd00a1a79f000100e00002003d00da
:102280000100e900a0a79f002fa497000840ea00e2
:102290003cfe07007faa97008fb297001fb39700fc
:1022a000afb3970041fa0700b0af9f00c1af9f00e6
:1022b000d2af9f00e3af9f006022b800060020006d
:1022c00007ff2300cdfa07000000e00002003d00f8
:1022d0000800e9000b0037006022b800060020006b
:1022e000470224003fa89700cfa897005fa9970056
:1022f000efa99700f9fa07000000e000020035009e
:102300000800e800a0a79f004fb29700f80f520006
:1023100057003c00d0c6b300804f52002900360061
:102320000485fb0042062000110009000285d80048
:1023300000017800010478004311dd00cb8120000a
:102340000b0141006022b8000600200007fe2300b8
:102350000288900092889000b289900022899000b3
:1023600012fa0700a9002000809fbe00110009009a
:102370000984d800000478004f00be004344dd000b
:102380000b04440048229000d8229000682390005b
:10239000f823900005fa0700801f780001027800fa
:1023a000110009000985d8000102fd004f007800e6
:1023b0004322dd000b0242005403be004402be0073
:1023c0001f0037000480fb00c9812000ea4f520043
:1023d00014003600a2002000110009000280d8007d
:1023e00000017800010478004311dd00090141007b
:1023f0006022b8000600200007fe23004220900063
:10240000d2209000f221900062219000e7f90700ad
:102410004344dd00090444003802be002803be0026
:10242000070037004300dd00090040006022b800cb
:102430000600200007fe23005001be004000be0041
:10244000daf907000002be000203be007fa8970071
:102450008fb097001fb19700afb19700a4fa0700a3
:10246000f0af9f0081b79f0092b79f00a3b79f0076
:102470002fa49700e90f540015003c006022b8001b
:102480006033b8007fa897008fb097001fb1970006
:10249000afb197005efa07000000e00032003200a2
:1024a0007fa897008fb097001fb19700afb197003a
:1024b0000cfb0700e00f5000e08f5800e00f5900c0
:1024c000e08f590028003a00e10f54002600340044
:1024d0000400200005002e00b6e0220017012400b1
:1024e0003fa89700cfa897005fa99700efa9970092
:1024f00042fa07000000e00002003d0073005400b3
:102500000100370072005400a0a79f004fc0970041
:102510009cfd0700b0af9f00c1af9f00d2af9f00ee
:10252000e3af9f000002be000203be007fa8970039
:102530008fb097001fb19700afb197001afb07004b
:10254000e8fa07000205be000004be006000b80003
:102550006011b800d0a79f00e1a79f00f2a79f00dd
:1025600083af9f002e0037007fa897008fb09700a1
:102570001fb19700afb19700dafa07000205be005d
:102580000004be00e00f5000e08f5800e00f59003b
:10259000e08f5900020035005dfb07001300370093
:1025a00010002000010020006011b8000800600049
:1025b000898060000a0161008b8161008b03d1007a
:1025c0000a83d3008982d3000882d30000007200fe
:1025d0008180720002017300838173004cfb07004d
:1025e0000002be000203be0041fa07000002be0066
:1025f0000203be007fa897008fb097001fb197001d
:10260000afb1970079fb0700d0a79f00e1a79f001b
:10261000f2a79f0083af9f000000eb00a0a79f00e0
:1026200014c0b300c59720000b0037000400fb0066
:102630004300dd00050040005001be004000be0028
:102640000040e10001c8e10002d0e10003d8e10050
:10265000030039000442e800f44f5200f3ff3a004f
:1026600084c79f000400fb00cfb0970000804000ab
:10267000afa09700010040004fa1970080065100d5
:10268000cfb197000300e000010032008d06e900a1
:1026900063006700010032008d06e9000e28a300e8
:1026a00026003200e10067000e18a3000c00320083
:1026b000d00220000100e00001003a000080e900a3
:1026c000efb0970005020700e10f4000180032004c
:1026d0003fb297000402e800b4b79f00140037002f
:1026e0000100e00012003200efb09700000220006d
:1026f000fa010700e10f40000d003200bfb2970061
:102700008502e800b5b79f0009003700efb09700d9
:1027100000032000f1010700e10f40000300320038
:102720003fb697000c06e800bcb79f008d06e90095
:102730000d00e000f5ff3c003d0037000e38a3001f
:102740000a0032000b003700efb0970000022000b3
:10275000e2010700e10f4000030032003fb09700a4
:102760000000e800b0b79f008d06e9000d00e00012
:10277000f5ff3c00e10067000e18a3000c003200da
:10278000d00220000100e00001003a000080e900d2
:10279000efb09700d1010700e10f400024003200a4
:1027a000bfb097008100e800b1b79f00200037005c
:1027b0000100e0001e003200efb097000002200090
:1027c000c6010700e10f4000190032003fb1970039
:1027d0000201e800b2b79f00150037000000fb00bf
:1027e0004300dd00c1972000010040003002be0020
:1027f0002003be000800be000a01be0077fb0700f0
:10280000a4002000050020006033b8007afb070018
:102810000003b000efb09700b0010700e10f4000e7
:1028200003003200bfb197008301e800b3b79f00f7
:102830000fc297000440e90080c79f00e14f4000ad
:10284000e6ff3a000b003700efb0970000032000ce
:10285000a2010700e10f400003003200bfb2970061
:102860008502e800b5b79f002fa097000000e9009f
:10287000a0a79f002fa097000000e000f2ff3c00ff
:102880004fb6970020c1b300f20f560001003c0084
:102890000fe8970080c79f008fc097000100fb00e2
:1028a0004fb197000000510090af9f000104e0007d
:1028b00008003200efb09700e00220008701070017
:1028c000e10f400003003200bfb197008301e80030
:1028d000b3b79f000fc09700aafc07000002be001c
:1028e0000203be005fa09700efa097007fa19700b2
:1028f0008fa99700adf80700faf907001e0037000e
:102900000000fb004300dd00cc9720000c004000dd
:102910003002be002003be000800be000a01be0057
:102920002efb0700a4002000050020006033b80043
:1029300031fb07000003b000efb09700670107000c
:10294000e10f4000030032003fb297000402e800ac
:10295000b4b79f008fc297000500fb004300dd0065
:102960000c0040003002be002003be000800be0084
:102970000a01be0020fb07000205be000004be00e5
:102980000fc697000c40e90080c79f00e14f400050
:10299000dbff3a000006eb0009003700efb09700bc
:1029a000000320004d010700e10f4000030032004a
:1029b0003fb097000000e800b0b79f000c06e800a9
:1029c0009fa89700810f5600f4ff3a000e38a3002d
:1029d000350132000d00e000330134000006eb0049
:1029e000efb09700000220003c010700e10f40001b
:1029f000030032003fb197000201e800b2b79f0028
:102a00000c06e8008d0f560027013200f4ff370056
:102a10000e00e00005003d008fb997004305be00a1
:102a20004304be0083bf9f00110037000e48a3007f
:102a3000080032008fba97004500be0085bf9f0096
:102a400004017800840178000205be000004be0085
:102a5000070037000fbe97004c0078008cbf9f0026
:102a600000047800090020000a0020000b0020006c
:102a70004fb097000000e00007003a00e00f54005c
:102a8000e08f5c00e00f5d00e08f5d0002003a0027
:102a900011002000c1b79f000e017800020cb200a7
:102aa000d2b79f0000082000800f510014003200b0
:102ab000000c2000800f510025003a0014c0b30024
:102ac000c59720000b0037000400fb004300dd0029
:102ad000050040005001be004000be000040e10083
:102ae00001c8e10002d0e10003d8e100170039007d
:102af0000442e800f44f5200f3ff3a00130037009d
:102b000000012000010020006011b80014c0b300d3
:102b10000040e10001c8e10002d0e10003d8e1007b
:102b20000a003900450020000000d0008180d2005a
:102b30000281d2008381d2008502e900faff3a00c7
:102b40000442e800f04f5200f1ff3a0084c79f00b2
:102b50000fc697000c00fb00cfb09700810f50000c
:102b600002003d0081c79f00040037004fb197006d
:102b7000800f510001003d00c0b79f00cfa197001a
:102b80000300e0000400320063006700020032002e
:102b90008301e900c3a79f000ee8a3000b003200e9
:102ba0004fa29700cfb29700850f520003003c0060
:102bb0000006eb00cca79f00040037004fa0970051
:102bc000cfb0970001005000c0a79f000fc1970031
:102bd0000200fb008001eb00b3a79f004fa297000b
:102be000800f52000200340000005200b0a79f0086
:102bf0000e28a30034003200e10067000e18a30085
:102c00000c003200d00220000100e00001003a0078
:102c10000080e900efb09700b0000700e10f40002e
:102c20000e003200bfb297008502e800b5b79f00e2
:102c30000a0037000100e00008003200efb0970002
:102c400000022000a5000700e10f40000300320051
:102c50003fb697000c06e800bcb79f003fa0970066
:102c60000000e0000f0032000006eb00efb097001c
:102c70000003200099000700e10f4000030032002c
:102c8000bfb097008100e800b1b79f000c06e800d4
:102c90003fa19700820f5600f4ff3a008001eb003d
:102ca000b3a79f004fb297004320dd00419720005b
:102cb000810640004220dd00640650008002eb00e7
:102cc000a5af9f00620037003fa697000c00e00010
:102cd00011003200680067000f003a00000678001b
:102ce000efb09700000220007c000700e10f4000d9
:102cf000030032003fb097000000e800b0b79f002b
:102d00000c06e800bfa09700810f5600f4ff3a00c0
:102d10000001eb00b2a79f00e10067000e18a300be
:102d20000c003200d00220000100e00001003a0057
:102d30000080e900efb0970068000700e10f400055
:102d4000d8ff3200bfb197008301e800b3b79f00fe
:102d5000d4ff37000100e000d2ff3200efb097004f
:102d6000000220005d000700e10f4000cdff3200af
:102d70003fb297000402e800b4b79f00c9ff3700d4
:102d800000082000dfb29700808f52001000320050
:102d9000000c2000808f52001f003a003d02be0050
:102da0002d03be000800be000a01be000bfa07009a
:102db000a4002000050020006033b8000efa0700d0
:102dc00004c3b3000442400084c79f0012003700d0
:102dd00014002000050020006033b8000c007800cb
:102de0000000e900050033000402d0008582d20013
:102df0000683d2008783d200f9ff37000800be00a7
:102e00000a01be00f5f907006f00600094a42000dd
:102e10006442780084c79f008fc097000100fb00c8
:102e2000efb097002d000700e10f400003003200d3
:102e30003fb197000201e800b2b79f00afa9970029
:102e40008301e800a3af9f00e886560064065600a1
:102e50002faa9700cfb29700850f5200c8ff3a0003
:102e60000e38a300100032003fa697000c00e000cf
:102e70000d0034000006eb00efb0970000022000c8
:102e800016000700e10f4000030032003fb097003a
:102e90000000e800b0b79f000c06e800bfa0970054
:102ea000810f5600f4ff3a007fb19700b2407800de
:102eb000f2b79f0081c79f000104e00093fb3a0036
:102ec0003fb097004f0778004f06be004f05be0089
:102ed0004f04be004f03b10000000600889fbe00f3
:102ee0000001780001047800b10090000118a300ef
:102ef0003d0032000198a30003003a001800900042
:102f00000000e00038003a000190a0003104980071
:102f100082047800f90fb200180090000000e00071
:102f200002003a0028009000000c7800ea8f54005c
:102f300006003a00380090000078a30003003a0031
:102f400088007800d0002000e4ff0700980090007f
:102f500058009000808f50000b0032000100e80004
:102f6000100498001800780009587800000c7800c8
:102f700011c0b300e0a5200001487800ea8f54009a
:102f800006003200190037008800780009407800f8
:102f90001900070080047800140037003800900002
:102fa0000088a3001100320018019000a8009000d2
:102fb000480090006af5070098009000810f5000cb
:102fc00004003200380090000003b3003004980081
:102fd0008084eb000000eb001004980028009000b3
:102fe000000c7800010037008084eb0009007800b5
:102ff0004f04be00000006000200fa00889fbe00d9
:10300000a0ff9f0001047800b100900081047800c7
:103010000904b200020032000000fb003600370055
:103020000118a30005003a000103b3003104980021
:10303000190498000080eb002f0037005800900022
:103040000000e00006003a00480090001200200056
:10305000e680570042f50700190498002400370065
:10306000280090000000e00008003a00a0a5200021
:1030700020049800000c78002000200050049800e4
:10308000100498000130a00031049800180190004d
:10309000a80090004800900031f50700280090003b
:1030a000000c78000080eb001004980018007800f5
:1030b000aff8970001587800000c78002ff89700bf
:1030c000ea4f50000a003a00380090000088a30040
:1030d0000700320018019000a800900048009000fe
:1030e0001ff5070019049800a8009000010c780053
:1030f000aff897000100fb004f04be000080fa000b
:0431000000000600c5
:020000040000fa
:10000800ac020000ac020000ac020000ac02000030
:10001800ac020000ac020000ac020000ac02000020
:10002800ac020000ac020000ac020000ac02000010
:10003800ac020000ac020000ac020000ac02000000
:020000040000fa
:020000040000fa
:1031040025660000000000002566000000000000a5
:020000040000fa
:103114000000fa0000202100a1072000d0f40700dd
:1031240000202100a1072000cdf4070050c5b30002
:10313400ed05070030118000e60f5000fdff3a0056
:1031440050c4b300e805070030118000e60f5000ba
:10315400fdff3a0090c5b300e305070040c0b3008b
:10316400e105070010c0b300df050700301180003f
:10317400e60f5000fdff3a0020c4b300da05070053
:103184000040eb00d80507000040eb00d60507001f
:1031940030118000e60f5000fdff3a00f0c4b30088
:1031a400d105070010c0b300cf050700301180001f
:1031b400e60f5000fdff3a000080fa000000060010
:1031c4000000fa0060c4b300c705070030c0b300b4
:1031d400c505070030118000e60f5000fdff3a00de
:1031e40000a82100610020009df4070040c5b30041
:1031f400bd05070020c4b300bb05070010c0b30021
:10320400b905070010c0b300b705070000c0eb0004
:10321400b505070000c0eb00b305070030118000be
:10322400e60f5000fdff3a0000a8210061002000d5
:103234008bf4070040c5b300ab05070090c6b3008c
:10324400a905070020c0b300a705070010c0b300fc
:10325400a505070000c0eb00a305070000c0eb00b4
:10326400a105070030118000e60f5000fdff3a0071
:1032740000a821006100200079f4070040c5b300d4
:1032840099050700e0c6b3009705070030c0b300f6
:103294009505070010c0b3009305070000c0eb00bc
:1032a4009105070000c0eb008f0507003011800076
:1032b400e60f5000fdff3a0000a821006100200045
:1032c40067f4070040c5b30087050700f0c6b300e4
:1032d4008505070040c0b3008305070010c0b30094
:1032e4008105070000c0eb007f05070000c0eb006c
:1032f4007d05070030118000e60f5000fdff3a0005
:1033040000a821006100200055f4070040c5b30067
:103314007505070030c6b3007305070050c0b3003d
:103324007105070010c0b3006f05070000c0eb0073
:103334006d05070000c0eb006b050700301180002d
:10334400e60f5000fdff3a0000a8210061002000b4
:1033540043f4070040c5b3006305070050c7b3003a
:103364006105070060c0b3005f05070010c0b3002b
:103374005d05070000c0eb005b05070000c0eb0023
:103384005905070030118000e60f5000fdff3a0098
:1033940000a821006100200031f4070040c5b300fb
:1033a40051050700c0c6b3004f05070070c0b30045
:1033b4004d05070010c0b3004b05070000c0eb002b
:1033c4004905070000c0eb004705070030118000e5
:1033d400e60f5000fdff3a0000a821006100200024
:1033e4001ff4070040c5b3003f05070010c6b30033
:1033f4003d05070080c0b3003b05070010c0b300c3
:103404003905070000c0eb003705070000c0eb00da
:103414003505070030118000e60f5000fdff3a002b
:1034240000a82100610020000df4070040c5b3008e
:103434002d05070020c7b3002b05070090c0b3007b
:103444002905070010c0b3002705070000c0eb00e2
:103454002505070000c0eb0023050700301180009c
:10346400e60f5000fdff3a0000a821006100200093
:10347400fbf3070040c5b3001b05070080c4b3007d
:103484001905070020c0b3001705070030c0b300ba
:103494001505070000c0eb001305070000c0eb0092
:1034a4001105070030118000e60f5000fdff3a00bf
:1034b40000a8210061002000e9f3070040c5b30023
:1034c4000905070050c6b3000705070030c0b30064
:1034d4000505070030c0b3000305070000c0eb007a
:1034e4000105070000c0eb00ff0407003011800055
:1034f400e60f5000fdff3a0000a821006100200003
:10350400d7f3070040c5b300f704070010c6b300a3
:10351400f504070040c0b300f304070030c0b30053
:10352400f104070000c0eb00ef04070000c0eb004b
:10353400ed04070030118000e60f5000fdff3a0053
:1035440000a8210061002000c5f3070040c5b300b6
:10355400e504070040c6b300e304070050c0b3000d
:10356400e104070030c0b300df04070000c0eb0033
:10357400dd04070000c0eb00db040700301180000d
:10358400e60f5000fdff3a0000a821006100200072
:10359400b3f3070040c5b300d304070000c2b3006f
:1035a400d104070060c0b300cf04070030c0b300eb
:1035b400cd04070000c0eb00cb04070000c0eb0003
:1035c400c904070030118000e60f5000fdff3a00e7
:1035d40000a8210061002000a1f3070040c5b3004a
:1035e400c1040700a0c3b300bf04070070c0b30048
:1035f400bd04070030c0b300bb04070000c0eb00eb
:10360400b904070000c0eb00b704070030118000c4
:10361400e60f5000fdff3a0000a8210061002000e1
:103624008ff3070040c5b300af04070000c5b30023
:10363400ad04070020c0b300ab04070040c0b300d2
:10364400a904070000c0eb00a704070000c0eb00ba
:10365400a504070030118000e60f5000fdff3a007a
:1036640000a82100610020007df3070040c5b300dd
:103674009d04070090c6b3009b04070030c0b3004c
:103684009904070040c0b3009704070000c0eb0092
:103694009504070000c0eb0093040700301180007c
:1036a400e60f5000fdff3a0000a821006100200051
:1036b4006bf3070040c5b3008b04070040c7b30099
:1036c4008904070040c0b3008704070040c0b3006a
:1036d4008504070000c0eb008304070000c0eb0072
:1036e4008104070030118000e60f5000fdff3a000e
:1036f40000a821006100200059f3070040c5b30071
:103704007904070030c6b3007704070050c0b30043
:103714007504070040c0b3007304070000c0eb0049
:103724007104070000c0eb006f0407003011800033
:10373400e60f5000fdff3a0000a8210061002000c0
:1037440047f3070040c5b3006704070080c6b30011
:103754006504070060c0b3006304070040c0b30001
:103764006104070000c0eb005f04070000c0eb0029
:103774005d04070030118000e60f5000fdff3a00a1
:1037840000a821006100200035f3070040c5b30004
:1037940055040700a0c3b3005304070070c0b3006e
:1037a4005104070040c0b3004f04070000c0eb0001
:1037b4004d04070000c0eb004b04070030118000eb
:1037c400e60f5000fdff3a0000a821006100200030
:1037d40023f3070040c5b3004304070020c5b3002a
:1037e4004104070020c0b3003f04070050c0b300e9
:1037f4003d04070000c0eb003b04070000c0eb00e1
:103804003904070030118000e60f5000fdff3a0034
:1038140000a821006100200011f3070040c5b30097
:103824003104070010c6b3002f04070030c0b300f2
:103834002d04070050c0b3002b04070000c0eb00a8
:103844002904070000c0eb002704070030118000a2
:10385400e60f5000fdff3a0000a82100610020009f
:10386400fff2070040c5b3001f040700e0c6b30021
:103874001d04070040c0b3001b04070050c0b30080
:103884001904070000c0eb001704070000c0eb0098
:103894001504070030118000e60f5000fdff3a00c8
:1038a40000a8210061002000edf2070040c5b3002c
:1038b4000d04070070c6b3000b04070050c0b3002a
:1038c4000904070050c0b3000704070000c0eb0060
:1038d4000504070000c0eb0003040700301180005a
:1038e400e60f5000fdff3a0000a82100610020000f
:1038f400dbf2070040c5b300fb03070050c6b3006a
:10390400f903070060c0b300f703070050c0b30019
:10391400f503070000c0eb00f303070000c0eb0051
:10392400f103070030118000e60f5000fdff3a005c
:1039340000a8210061002000c9f2070040c5b300bf
:10394400e9030700a0c3b300e703070070c0b30096
:10395400e503070050c0b300e303070000c0eb0019
:10396400e103070000c0eb00df0307003011800013
:10397400e60f5000fdff3a0000a82100610020007e
:10398400b7f2070040c5b300d7030700c0c4b300b3
:10399400d503070010c0b300d303070070c0b30001
:1039a400d103070000c0eb00cf03070000c0eb0009
:1039b400cd03070030118000e60f5000fdff3a00f0
:1039c40000a8210061002000a5f2070040c5b30053
:1039d400c503070010c6b300c303070020c0b3002b
:1039e400c103070070c0b300bf03070000c0eb00b1
:1039f400bd03070000c0eb00bb03070030118000cb
:103a0400e60f5000fdff3a0000a8210061002000ed
:103a140093f2070040c5b300b303070050c7b300d7
:103a2400b103070030c0b300af03070070c0b30098
:103a3400ad03070000c0eb00ab03070000c0eb00c0
:103a4400a903070030118000e60f5000fdff3a0083
:103a540000a821006100200081f2070040c5b300e6
:103a6400a1030700e0c6b3009f03070040c0b300f2
:103a74009d03070070c0b3009b03070000c0eb0068
:103a84009903070000c0eb00970307003011800082
:103a9400e60f5000fdff3a0000a82100610020005d
:103aa4006ff2070040c5b3008f03070030c6b300b0
:103ab4008d03070050c0b3008b03070070c0b30030
:103ac4008903070000c0eb008703070000c0eb0078
:103ad4008503070030118000e60f5000fdff3a0017
:103ae40000a82100610020005df2070040c5b3007a
:103af4007d03070080c6b3007b03070060c0b300ea
:103b04007903070070c0b3007703070000c0eb001f
:103b14007503070000c0eb00730307003011800039
:103b2400e60f5000fdff3a0000a8210061002000cc
:103b34004bf2070040c5b3006b03070000c2b3009b
:103b44006903070070c0b3006703070070c0b300c7
:103b54006503070000c0eb006303070000c0eb002f
:103b64006103070030118000e60f5000fdff3a00aa
:103b740000a821006100200039f2070040c5b3000d
:103b84005903070000c5b3005703070080c0b30002
:103b94005503070070c0b3005303070000c0eb00d7
:103ba4005103070000c0eb004f03070030118000f1
:103bb400e60f5000fdff3a0000a82100610020003c
:103bc40027f2070040c5b3004703070010c6b3003f
:103bd4004503070090c0b3004303070070c0b3005f
:103be4004103070000c0eb003f03070000c0eb00e7
:103bf4003d03070030118000e60f5000fdff3a003e
:103c040000a821006100200015f2070040c5b300a0
:103c14003503070040c6b30033030700a0c0b30058
:103c24003103070070c0b3002f03070000c0eb008e
:103c34002d03070000c0eb002b03070030118000a8
:103c4400e60f5000fdff3a0000a8210061002000ab
:103c540003f2070040c5b3002303070080c4b30088
:103c64002103070020c0b3001f03070090c0b30066
:103c74001d03070000c0eb001b03070000c0eb009e
:103c84001903070030118000e60f5000fdff3a00d1
:103c940000a8210061002000f1f1070040c5b30035
:103ca4001103070050c6b3000f03070030c0b30070
:103cb4000d03070090c0b3000b03070000c0eb0026
:103cc4000903070000c0eb00070307003011800060
:103cd400e60f5000fdff3a0000a82100610020001b
:103ce400dff1070040c5b300ff02070010c6b300b0
:103cf400fd02070040c0b300fb02070090c0b30000
:103d0400f902070000c0eb00f702070000c0eb0057
:103d1400f502070030118000e60f5000fdff3a0065
:103d240000a8210061002000cdf1070040c5b300c8
:103d3400ed02070040c6b300eb02070050c0b30019
:103d4400e902070090c0b300e702070000c0eb00df
:103d5400e502070000c0eb00e30207003011800019
:103d6400e60f5000fdff3a0000a82100610020008a
:103d7400bbf1070040c5b300db02070000c2b3007b
:103d8400d902070060c0b300d702070090c0b30097
:103d9400d502070000c0eb00d302070000c0eb000f
:103da400d102070030118000e60f5000fdff3a00f9
:103db40000a8210061002000a9f1070040c5b3005c
:103dc400c9020700a0c3b300c702070070c0b30054
:103dd400c502070090c0b300c302070000c0eb0097
:103de400c102070000c0eb00bf02070030118000d1
:103df400e60f5000fdff3a0000a8210061002000fa
:103e040097f1070040c5b300b702070000c5b3002f
:103e1400b502070020c0b300b3020700a0c0b3007e
:103e2400b102070000c0eb00af02070000c0eb00c6
:103e3400ad02070030118000e60f5000fdff3a008c
:103e440000a821006100200085f1070040c5b300ef
:103e5400a502070090c6b300a302070030c0b30058
:103e6400a1020700a0c0b3009f02070000c0eb003e
:103e74009d02070000c0eb009b0207003011800088
:103e8400e60f5000fdff3a0000a821006100200069
:103e940073f1070040c5b3009302070040c7b300a5
:103ea4009102070040c0b3008f020700a0c0b30016
:103eb4008d02070000c0eb008b02070000c0eb007e
:103ec4008902070030118000e60f5000fdff3a0020
:103ed40000a821006100200061f1070040c5b30083
:103ee4008102070030c6b3007f02070050c0b30050
:103ef4007d020700a0c0b3007b02070000c0eb00f6
:103f04007902070000c0eb0077020700301180003f
:103f1400e60f5000fdff3a0000a8210061002000d8
:103f24004ff1070040c5b3006f02070080c6b3001d
:103f34006d02070060c0b3006b020700a0c0b300ad
:103f44006902070000c0eb006702070000c0eb0035
:103f54006502070030118000e60f5000fdff3a00b3
:103f640000a82100610020003df1070040c5b30016
:103f74005d020700a0c3b3005b02070070c0b3007a
:103f840059020700a0c0b3005702070000c0eb00ad
:103f94005502070000c0eb005302070030118000f7
:103fa400e60f5000fdff3a0000a821006100200048
:103fb4002bf107000080fa00000006001e00fa0042
:103fc4000000eb00100798000000eb00000f7800e1
:103fd400a0408000b140800064014700809fbe0083
:103fe40020882900801f780002007800cdf60700a1
:103ff400e6875700100798006040800071408000f9
:1040040069014700809fbe0020882900801f780036
:1040140002007800c3f60700e687570010079800ef
:1040240080408000914080006e014700809fbe0068
:1040340020882900801f780002007800b9f6070064
:10404400e687570010079800004080001140800068
:1040540073014700809fbe0020882900801f7800dc
:1040640002007800aff60700e687570010079800b3
:10407400204080003140800078014700809fbe00ce
:1040840020882900801f780002007800a5f6070028
:10409400e6875700100798000000eb00000f780037
:1040a4006d00370040c5b3000f0207009e00780082
:1040b40069004700614078000b0207001e00780089
:1040c400694040000802070030c0b3000602070040
:1040d40000c0eb000402070000c0eb00020207006e
:1040e40030118000e60f5000fdff3a0000a82100c7
:1040f40061002000daf0070040c5b300fa010700b0
:104104009e0078006e004700008040001040780058
:10411400f50107001e00780069404000f201070025
:1041240040c0b300f001070000c0eb00ee0107003f
:1041340000c0eb00ec01070030118000e60f5000d6
:10414400fdff3a0000a8210061002000c4f0070030
:1041540040c5b300e40107009e00780064004700f6
:104164000080400010407800df0107001e00780046
:1041740069404000dc01070050c0b300da010700c9
:1041840000c0eb00d801070000c0eb00d601070017
:1041940030118000e60f5000fdff3a0000a8210016
:1041a40061002000aef0070040c5b300ce01070057
:1041b4009e0078007300470061407800ca01070040
:1041c4001e00780069404000c701070090c0b3009a
:1041d400c501070000c0eb00c301070000c0eb00ed
:1041e400c101070030118000e60f5000fdff3a00c6
:1041f40000a821006100200099f0070040c5b30029
:10420400b90107009e007800780047000080400054
:1042140010407800b40107001e0078006940400097
:10422400b1010700a0c0b300af01070000c0eb005c
:10423400ad01070000c0eb00ab01070030118000a6
:10424400e60f5000fdff3a0000a8210061002000a5
:1042540083f007001e0fe800400020009e0f1000ae
:0c42640090ff36000080fa000000060009
:020000040000fa
:10427000000800001c000000000000007c09000095
:10428000a00000000200000001000000000000008b
:1042900000000a00000000000000000000640000b0
:1042a0000000000000000000e80300000000000023
:1042b00000001000270000000000000000a08600a1
:1042c000010000000000000040420f00000000005c
:1042d0000000800096980000000000000000e1004f
:1042e000f50500000000000000ca9a003b00000035
:1042f00000000000e40b5400020000000000e80091
:1043000076481700000000000010a500d4e8000067
:1043100000000000a0724e001809000000004000dc
:104320007a10f3005a0000000080c600a47e8d00c1
:104330000300000000c16f00f286230000000000af
:104340008a5d78004563010000006400a7b3b600f1
:10435000e00d000000e889000423c7008a00000087
:10436000420a00001800000002000000286e7500dc
:104370006c6c2900003031003233340035363700a0
:104380003839610062636400656600001c08000043
:1043900060010000020000000000000000000000ba
:1043a000f03f00000000a0009999b9003f00000014
:1043b0000040e1007a843f0000000000e04d620010
:1043c000503f00000000e000e2361a003f0000000d
:1043d0000080b500f8e43e0000000000a0f7c60031
:1043e000b03e00000000a000f2d77a003e000000be
:1043f00000e08e0079453e0000000000e00b2e003a
:10440000113e00000000e000df7cdb003d0000000a
:104410000000a1009cc73b0000000000004c4800c9
:10442000b439000000000000206ca100370000003b
:10443000000000000000000000000000000000007c
:10444000000000000000000000000000000000006c
:10445000000000000000000000000000000000005c
:10446000000000000000000000000000000000004c
:10447000000000000000000000000000000000003c
:1044800000000000000000000000f0003f000000fd
:1044900000000000002440000000000000000000b8
:1044a000594000000000000000408f004000000064
:1044b0000000000088c340000000000000006a0007
:1044c000f84000000000000080842e004100000041
:1044d0000000d00012634100000000000084d700fb
:1044e000974100000000000065cdcd0041000000b4
:1044f00000205f00a002420000000000801daf000d
:104500001544000000004000593e2900460000000c
:104510000000000000f07f0000000000000000002c
:10452000f07f0000000000000000f0007f000000ad
:104530000000000000f07f0000000000000000000c
:10454000f07f0000000000000000f0007f0000008d
:104550000000000000f07f000000000000000000ec
:10456000f07f0000000000000000f0007f0000006d
:104570001c0a000026000000020000001e0a5c0069
:104580000a0000005c0a09000000000002005a0056
:104590000a0000005a0a06000201000000000000a4
:1045a0000000000000000600020200000000000001
:1045b0005a0a00000600000000000000600a000027
:1045c00002000000020000000100000000000000e6
:020000040000fa
:1045d0002400fa00881f78000000eb0040079800d4
:1045e0000040eb00204f98006000b80020079800c2
:1045f000310798006000b800008fbe00cbc2bf003a
:10460000684060000004e00002003200cb62a900b4
:1046100001003700cb62a8003222a900db000700ae
:10462000204f98002e489000ed4f500001003200be
:10463000faff37000040eb00204f980008003700d9
:104640004e049000d1000700804078006b004700c6
:10465000017478004e0090000000e80040079800c8
:104660004e009000ee0f5000f5ff36000000eb000a
:10467000400798006b004700104890000080fb0046
:104680004800dd0001002000200798003107980055
:104690006b004700004890000081fb0003002000f1
:1046a0002e009000be009000000041008180490073
:1046b0002007980031079800ae009000803e20004f
:1046c0000009b8002e0090006000b90003027800d5
:1046d00000024200be009000803e20000088b90029
:1046e00000024200840178002207980033079800f6
:1046f0002e009000be009000f2ff2f00030020006b
:10470000ceef07002007980031079800ae00900018
:10471000801620000009b8002e0090006000b9004b
:104720000302780000024200be00900080162000c4
:104730000088b90000024200840178002207980036
:10474000330798002e009000be009000e00f50004c
:10475000e08f5800060035002e009000be0090004b
:10476000c6ef0700001798001117980017003700d0
:104770002e009000be009000610160006000b80053
:104780000300200002007000838070002e01900062
:10479000be0190008301d1000281d30002007000ad
:1047a00083807000b5ef070000179800111798007c
:1047b0000e1190009e1190000e1090009e1090001f
:1047c000daef070000179800111798000200200088
:1047d000a34724000e1090009e10900030f00700b8
:1047e00000408800114088006b0047007040900036
:1047f0000080fb004800dd00cf80de00008fbe009f
:104800006b004700604090000080fb00010020002a
:104810001e0f40005e9748009e007800803e2000fa
:104820000009b8001e0078006000b900030278009b
:10483000000242009e009000803e20000088b900e7
:104840000002420084017800028fbe001e00be00fc
:10485000f2ff2f000300200053f00700008fbe007e
:104860009e007800801620000009b8001e00780025
:104870006000b90003027800000242009e00900030
:10488000801620000088b9000002420084017800f0
:10489000028fbe001e00be0078ef0700020020005d
:1048a000a3472400feef0700204088003140880025
:1048b000204080003140800002002000031a2400c4
:1048c00048f007000000e000010035000400370058
:1048d00000002000011a2400204088003140880098
:1048e0004f0478000080fa00000006000200fa0081
:1048f000004f780023c2bf00614060000004e00068
:10490000fcff32001e80fb002011880023c2bf0084
:10491000614060000004e000fcff32008560a900f7
:104920000080fa00000006000200fa00004f780044
:1049300033c2bf00614060000004e000fcff3200b1
:104940001e80fb00a011880033c2bf0061406000e0
:104950000004e000fcff320087c0a9000080fa00dc
:10496000000006000000fa0085c0bf00684060003b
:104970000004e000fcff32008560a90030118000d7
:104980000080fb000080fa00000006000000fa0032
:1049900087c0bf000044b2000004e000fcff32000a
:1049a00087c0a900b01180000080fb000080fa00e1
:1049b000000006000000fa00c8e2a800c902a90031
:1049c000816c20009140780000ceb30000c06000f0
:1049d0003040b300c8e6b700416a2000914078003b
:1049e00000ceb30000c060007040b300a4e6b70082
:1049f0000010200040118800910a200091407800aa
:104a0000f0c8b30000c06000a9e0b7008560a9004d
:104a10009560a900000028000011880000442000d3
:104a2000101188000080fa00000006000000fa0063
:104a3000c8a2a900516c20009140780000ceb300bc
:104a400000c060003040b300c5e6b7000010200091
:104a500040118800910a200091407800f0c8b3000e
:104a600000c06000a9e0b7008560a9009560a900ba
:104a70000000280000118800004420001011880068
:104a80000080fa00000006000000fa00d082a800b2
:104a9000d062a900316d20009140780000ceb300b3
:104aa00000c060003040b300d3e6b700416a200088
:104ab0009140780000ceb30000c060004041b300d8
:104ac000a4e6b7000010200040118800910a2000e1
:104ad00091407800f0c8b30000c06000a9e0b700c2
:104ae0008560a9009560a9000000280000118800d9
:104af00000442000101188000080fa000000060029
:104b00000000fa00d042a900c882a800216d200050
:104b10009140780000ceb30000c060005040b30068
:104b2000d2e6b700616a20009140780000ceb30061
:104b300000c060000024a000a6e6b700001020001e
:104b4000c0118800310b20009140780080cfb30065
:104b500000c06000b3e0b70087c0a90097c0a900fb
:104b60000000280080118800004420009011880077
:104b70000080fa00000006000000fa00d0a2a900a0
:104b8000516a20009140780000ceb30000c0600060
:104b90005041b300a5e6b700001020004011880086
:104ba000910a200091407800f0c8b30000c0600076
:104bb000a9e0b7008560a9009560a9000000280061
:104bc0000011880000442000101188000080fa00c5
:104bd000000006000200fa00881f78000000eb00c9
:104be000000f78002222a9005eff070080407800b5
:104bf00020c4b30080cf5000fbff3a000000eb0060
:104c0000000f7800070037001e04780055ff0700ea
:104c10008040780080812000000044000148780036
:104c20001e0fe800200020009e0f1000f6ff360047
:104c30009e00780080812000808040000040eb00d2
:104c40008048780018c8bf00e14f500002003a00c9
:104c5000d2c2a80001003700d2c2a9004f047800d8
:104c60000080fa00000006001800fa000000eb00c7
:104c7000100798000000eb00000f78002040800033
:104c800031408000020020000317240055ef070088
:104c90000000e000010035000400370000002000a3
:104ca0000117240020408800314088002040800007
:104cb0003140800002002000832424004bef0700d5
:104cc0000000e00001003c0004003700000020006c
:104cd000812424002040880031408800004080006a
:104ce0001140800064014700809fbe006088290059
:104cf000801f7800020078008bf30700e6875700da
:104d00001007980020408000314080006901470072
:104d1000809fbe0060882900801f78000200780014
:104d200081f30700e6875700100798004040800095
:104d3000514080006e014700809fbe0060882900be
:104d4000801f78000200780077f30700e68757009d
:104d500010079800d3c2bf00614060008040780017
:104d60007300470001487800d2c2bf006140600074
:104d7000804078007300470011409800cac2bf000d
:104d80000080fb004200de0061406000804078004f
:104d90007300470021409800cac2bf000080fb009a
:104da0004700de00804078007300470031409800e3
:104db0000000eb00000f780080c4b300cbfe0700ba
:104dc0000000eb00000f7800060037009e0078001e
:104dd000640047000080400010407800c3fe0700d8
:104de0001e0fe800400020009e0f1000f7ff360065
:104df00000c5b300bdfe07000000eb00000f780007
:104e0000050037009e007800690047006140780087
:104e1000b6fe07001e0fe800400020009e0f1000a5
:104e2000f8ff360020c5b300b0fe07000000eb001d
:104e3000000f7800060037009e0078006e004700e3
:104e40000080400010407800a8fe07001e0fe80018
:104e5000400020009e0f1000f7ff360020c4b30072
:104e6000a2fe07000000eb00000f780005003700ed
:104e70009e00780073004700614078009bfe0700a9
:104e80001e0fe800300020009e0f1000f8ff3600d3
:104e90000080fa00000006000000fa00a0cab3007b
:104ea000a1fe070000482800e10120006ded070089
:104eb0000080fa00000006000200fa00004f7800af
:104ec000114798001e40780097fe07000040eb0055
:104ed00095fe07001e40900093fe07001e409000c4
:104ee0001e4040000074a1008ffe07000080fa0001
:104ef000000006000200fa00004f780011479800f9
:104f00001e40780088fe070040c0b30086fe070000
:104f10001e40900084fe07001e4090001e4040008e
:104f2000644040000074a1007ffe07000080fa008a
:104f3000000006000200fa00004f780011479800b8
:104f40001e40780078fe070010c0b30076fe070010
:104f50001e40900074fe07001e4090001e4040005e
:104f60000040e8000074a1006ffe07000080fa0016
:104f7000000006000200fa00004f78001147980078
:104f80001e40780068fe070050c0b30066fe0700b0
:104f90001e40900064fe07001e4090001e4040002e
:104fa000654040000074a1005ffe07000080fa0029
:104fb000000006000200fa0000c3b300104798008a
:104fc0004100070024000700cdfe0700aefe0700e9
:104fd000d322a800d222a800ca62a800cb02a8004f
:104fe0007bfd070020ff0700d3c2bf0061406000c7
:104ff00080407800d2c2bf006140600000c07000f5
:1050000080407800cac2bf000080fb004200de0082
:105010006140600080c07000cac2bf000080fb0019
:105020004700de0000c07000614060006140600029
:105030004201dd00b12c200091407800b0cfb300d8
:1050400000c0600002407000cbe2b70030c7b30080
:10505000004f7800e2ff37000000fa00f00f200058
:1050600060198800f00f200060198800d0a2a90004
:10507000c8a2a900d042a900c882a800d082a80076
:10508000d062a900d022a900c9a2a900c8e2a80044
:10509000c902a900c842a800c862a900d002a8009d
:1050a000d022a900d102a800d122a900c922a900ba
:1050b000c942a900c962a900d0e2a900d0c2a900d2
:1050c0000080fa00000006000000fa0090022000b4
:1050d000303a880044c7bf00f043b20044e7b7004d
:1050e000417420009140780000ceb30000c0600001
:1050f00044e7b70040a7a90042c7bf000042b20082
:105100000004e000fcff32000080fa00000006000e
:00000001FF
